:020000040800F2
:1000000000000220ED1F0008011F0008031F000868
:10001000051F0008071F0008091F00080000000056
:100020000000000000000000000000000B1F00089E
:100030000D1F0008000000000F1F0008111F00081E
:100040003D2000083D2000083D2000083D2000081C
:100050003D2000083D200008151F00083D20000835
:100060003D2000083D2000083D2000083D200008FC
:100070003D2000083D2000083D2000083D200008EC
:100080003D2000083D2000083D2000083D200008DC
:100090003D2000083D2000083D2000083D200008CC
:1000A0003D2000083D2000083D2000083D200008BC
:1000B0003D2000083D2000083D2000083D200008AC
:1000C0003D2000083D2000083D2000083D2000089C
:1000D0003D2000083D2000083D2000083D2000088C
:1000E0003D2000083D2000083D2000083D2000087C
:1000F0003D2000083D2000081D1F00083D2000088D
:100100003D2000083D2000083D2000083D2000085B
:100110003D2000083D2000083D2000083D2000084B
:100120003D2000083D2000083D2000083D2000083B
:100130003D2000083D2000083D2000083D2000082B
:100140003D2000083D2000083D2000083D2000081B
:100150003D2000083D2000083D2000083D2000080B
:100160003D2000083D2000083D2000083D200008FB
:100170003D2000083D2000083D2000080000000050
:080180003D2000083D200008AD
:1001900010B5054C237833B9044B13B10448AFF3C1
:1001A00000800123237010BDD80100200000000052
:1001B0005C6D000808B5034B1BB103490348AFF35E
:1001C000008008BD00000000DC0100205C6D00081C
:1001D00001F0FF01102A2BDB10F0070F08D010F8F8
:1001E000013B013A8B422DD010F0070F42B3F6D1FC
:1001F000F0B441EA012141EA014122F007047FF015
:1002000000070023F0E80256083C85EA010586EA6B
:10021000010685FA47F5A3FA87F586FA47F6A5FAA7
:1002200087F68EB9EED1F0BC01F0FF0102F00702B3
:1002300032B110F8013B013A83EA010313B1F8D15E
:100240000020704701387047002D06BF354603383F
:10025000073815F0010F07D1013015F4807F02BF78
:10026000013015F4C03F0130F0BC0138704700BFC9
:10027000034613F8012B002AFBD1181A01387047E6
:1002800081F0004102E000BF83F0004330B54FEA47
:1002900041044FEA430594EA050F08BF90EA020FB4
:1002A0001FBF54EA000C55EA020C7FEA645C7FEA47
:1002B000655C00F0E2804FEA5454D4EB5555B8BF6A
:1002C0006D420CDD2C4480EA020281EA030382EADB
:1002D000000083EA010180EA020281EA0303362D6D
:1002E00088BF30BD11F0004F4FEA01314FF4801C40
:1002F0004CEA113102D0404261EB410113F0004F52
:100300004FEA03334CEA133302D0524263EB430308
:1003100094EA050F00F0A780A4F10104D5F1200EA6
:100320000DDB02FA0EFC22FA05F2801841F1000101
:1003300003FA0EF2801843FA05F359410EE0A5F1D5
:1003400020050EF1200E012A03FA0EFC28BF4CF006
:10035000020C43FA05F3C01851EBE37101F00045BC
:1003600007D54FF0000EDCF1000C7EEB00006EEBC9
:100370000101B1F5801F1BD3B1F5001F0CD3490853
:100380005FEA30004FEA3C0C04F101044FEA4452AA
:1003900012F5800F80F09A80BCF1004F08BF5FEA31
:1003A000500C50F1000041EB045141EA050130BD11
:1003B0005FEA4C0C404141EB0101013C28BFB1F523
:1003C000801FE9D291F0000F04BF01460020B1FA6E
:1003D00081F308BF2033A3F10B03B3F120020CDA41
:1003E0000C3208DD02F1140CC2F10C0201FA0CF01F
:1003F00021FA02F10CE002F11402D8BFC2F1200C84
:1004000001FA02F120FA0CFCDCBF41EA0C01904039
:10041000E41AA2BF01EB0451294330BD6FEA040482
:100420001F3C1CDA0C340EDC04F11404C4F120026D
:1004300020FA04F001FA02F340EA030021FA04F37F
:1004400045EA030130BDC4F10C04C4F1200220FAD6
:1004500002F001FA04F340EA0300294630BD21FA14
:1004600004F0294630BD94F0000F83F4801306BFDA
:1004700081F480110134013D4EE77FEA645C18BFCE
:100480007FEA655C29D094EA050F08BF90EA020F65
:1004900005D054EA000C04BF1946104630BD91EA5D
:1004A000030F1EBF0021002030BD5FEA545C05D160
:1004B0004000494128BF41F0004130BD14F580049F
:1004C0003CBF01F5801130BD01F0004545F0FE4113
:1004D00041F470014FF0000030BD7FEA645C1ABF48
:1004E000194610467FEA655C1CBF0B46024650EA7F
:1004F000013406BF52EA033591EA030F41F40021AB
:1005000030BD00BF90F0000F04BF0021704730B530
:100510004FF4806404F132044FF000054FF0000105
:1005200050E700BF90F0000F04BF0021704730B5C6
:100530004FF4806404F1320410F0004548BF40429B
:100540004FF000013EE700BF42004FEAE2014FEAF0
:1005500031014FEA02701FBF12F07F4393F07F4FCB
:1005600081F06051704732F07F4208BF704793F0CE
:100570007F4F04BF41F40021704730B54FF46074E1
:1005800001F0004521F000411CE700BF50EA0102E4
:1005900008BF704730B54FF000050AE050EA01028D
:1005A00008BF704730B511F0004502D5404261EBFD
:1005B00041014FF4806404F132045FEA915C3FF43E
:1005C000D8AE4FF003025FEADC0C18BF03325FEADB
:1005D000DC0C18BF033202EBDC02C2F1200300FA8C
:1005E00003FC20FA02F001FA03FE40EA0E0021FAB1
:1005F00002F11444BDE600BF70B54FF0FF0C4CF49F
:10060000E06C1CEA11541DBF1CEA135594EA0C0F50
:1006100095EA0C0F00F0DEF82C4481EA030621EA8B
:100620004C5123EA4C5350EA013518BF52EA0335C6
:1006300041F4801143F4801338D0A0FB02CE4FF078
:100640000005E1FB02E506F00042E0FB03E54FF0A8
:100650000006E1FB03569CF0000F18BF4EF0010EA0
:10066000A4F1FF04B6F5007F64F5407404D25FEA9C
:100670004E0E6D4146EB060642EAC62141EA55514F
:100680004FEAC52040EA5E504FEACE2EB4F1FD0C91
:1006900088BFBCF5E06F1ED8BEF1004F08BF5FEA0F
:1006A000500E50F1000041EB045170BD06F00046C1
:1006B00046EA010140EA020081EA0301B4EB5C046E
:1006C000C2BFD4EB0C0541EA045170BD41F4801166
:1006D0004FF0000E013C00F3AB8014F1360FDEBF8B
:1006E000002001F0004170BDC4F10004203C35DA67
:1006F0000C341BDC04F11404C4F1200500FA05F3EA
:1007000020FA04F001FA05F240EA020001F000428A
:1007100021F0004110EBD37021FA04F642EB060100
:100720005EEA430E08BF20EAD37070BDC4F10C042A
:10073000C4F1200500FA04F320FA05F001FA04F2EE
:1007400040EA020001F0004110EBD37041F10001DA
:100750005EEA430E08BF20EAD37070BDC4F12005E5
:1007600000FA05F24EEA020E20FA04F301FA05F24D
:1007700043EA020321FA04F001F0004121FA04F2F5
:1007800020EA020000EBD3705EEA430E08BF20EAC5
:10079000D37070BD94F0000F0FD101F000464000FF
:1007A00041EB010111F4801F08BF013CF7D041EA81
:1007B000060195F0000F18BF704703F00046520085
:1007C00043EB030313F4801F08BF013DF7D043EA56
:1007D0000603704794EA0C0F0CEA135518BF95EA0C
:1007E0000C0F0CD050EA410618BF52EA4306D1D193
:1007F00081EA030101F000414FF0000070BD50EAB2
:10080000410606BF1046194652EA430619D094EA3B
:100810000C0F02D150EA013613D195EA0C0F05D125
:1008200052EA03361CBF104619460AD181EA030179
:1008300001F0004141F0FE4141F470014FF0000031
:1008400070BD41F0FE4141F4780170BD70B54FF0CC
:10085000FF0C4CF4E06C1CEA11541DBF1CEA13554C
:1008600094EA0C0F95EA0C0F00F0A7F8A4EB05042E
:1008700081EA030E52EA03354FEA013100F0888025
:100880004FEA03334FF0805545EA131343EA1263EE
:100890004FEA022245EA111545EA10654FEA0026A3
:1008A0000EF000419D4208BF964244F1FD0404F55C
:1008B000407402D25B084FEA3202B61A65EB0305B8
:1008C0005B084FEA32024FF480104FF4002CB6EB75
:1008D000020E75EB030E22BFB61A754640EA0C00F5
:1008E0005B084FEA3202B6EB020E75EB030E22BF35
:1008F000B61A754640EA5C005B084FEA3202B6EB76
:10090000020E75EB030E22BFB61A754640EA9C0034
:100910005B084FEA3202B6EB020E75EB030E22BF04
:10092000B61A754640EADC0055EA060E18D04FEAC2
:10093000051545EA16754FEA06164FEAC30343EA62
:1009400052734FEAC2025FEA1C1CC0D111F4801F2F
:100950000BD141EA00014FF000004FF0004CB6E728
:1009600011F4801F04BF01430020B4F1FD0C88BFC7
:10097000BCF5E06F3FF6AFAEB5EB030C04BFB6EBD2
:10098000020C5FEA500C50F1000041EB045170BDC5
:100990000EF0004E4EEA113114EB5C04C2BFD4EBF2
:1009A0000C0541EA045170BD41F480114FF0000E76
:1009B000013C90E645EA060E8DE60CEA135594EAF2
:1009C0000C0F08BF95EA0C0F3FF43BAF94EA0C0FF5
:1009D0000AD150EA01347FF434AF95EA0C0F7FF46A
:1009E00025AF104619462CE795EA0C0F06D152EABE
:1009F00003353FF4FDAE1046194622E750EA4106A2
:100A000018BF52EA43067FF4C5AE50EA41047FF4B2
:100A10000DAF52EA43057FF4EBAE12E74FF0FF3C17
:100A200006E000BF4FF0010C02E000BF4FF0010CE8
:100A30004DF804CD4FEA410C7FEA6C5C4FEA430C61
:100A400018BF7FEA6C5C1BD001B050EA410C0CBFB0
:100A500052EA430C91EA030F02BF90EA020F002012
:100A6000704710F1000F91EA030F58BF994208BF79
:100A700090422CBFD8176FEAE37040F00100704736
:100A80004FEA410C7FEA6C5C02D150EA013C07D18D
:100A90004FEA430C7FEA6C5CD6D152EA033CD3D0D8
:100AA0005DF8040B704700BF8446104662468C46D2
:100AB0001946634600E000BF01B5FFF7B7FF002805
:100AC00048BF10F1000F01BD4DF808EDFFF7F4FF2E
:100AD0000CBF012000205DF808FB00BF4DF808EDB9
:100AE000FFF7EAFF34BF012000205DF808FB00BFDC
:100AF0004DF808EDFFF7E0FF94BF012000205DF8FE
:100B000008FB00BF4DF808EDFFF7CEFF94BF0120B2
:100B100000205DF808FB00BF4DF808EDFFF7C4FFAB
:100B200034BF012000205DF808FB00BF4FEA410CF4
:100B30007FEA6C5C02D150EA013C0AD14FEA430CD7
:100B40007FEA6C5C02D152EA033C02D14FF0000014
:100B500070474FF0010070474FEA410212F5001252
:100B600015D211D56FF47873B3EB625212D94FEAF4
:100B7000C12343F0004343EA505311F0004F23FADE
:100B800002F018BF404270474FF00000704750EA33
:100B9000013005D111F0004008BF6FF000407047F0
:100BA0004FF00000704700BF53B94AB9002908BF91
:100BB00000281CBF4FF0FF314FF0FF3000F070B93C
:100BC000ADF1080C6DE904CE00F006F8DDF804E0A4
:100BD000DDE9022304B070472DE9F047089E0D4679
:100BE00004460F46002B4AD18A42944665D9B2FA90
:100BF00082F343B102FA03FCC3F120029F4020FAC2
:100C000002F217439C404FEA1C4E1FFA8CF5B7FBCB
:100C1000FEF1220C0EFB117742EA074201FB05F0C0
:100C200090420AD91CEB020201F1FF3780F01C81CF
:100C3000904240F2198102396244121AA4B2B2FB06
:100C4000FEF00EFB102244EA024400FB05F5A5422B
:100C50000AD91CEB040400F1FF3280F00781A542A1
:100C600040F204816444023840EA0140641B0021E0
:100C70001EB1DC400023C6E90043BDE8F0878B428B
:100C800008D9002E00F0ED800021C6E900050846D5
:100C9000BDE8F087B3FA83F1002949D1AB4202D312
:100CA000824200F2F880841A65EB030201201746A5
:100CB000002EE2D0C6E90047DFE702B9FFDEB2FA54
:100CC00082F3002B40F090808A1A4FEA1C471FFAEB
:100CD0008CFE0121B2FBF7F507FB1520220C42EA3E
:100CE00000420EFB05F0904208D91CEB020205F110
:100CF000FF3802D2904200F2CB804546121AA4B2CD
:100D0000B2FBF7F007FB102244EA02440EFB00FEA0
:100D1000A64508D91CEB040400F1FF3202D2A64517
:100D200000F2BB801046A4EB0E0440EA05409FE7AA
:100D3000C1F120078B4022FA07FC4CEA030C05FAAC
:100D400001F420FA07F3FD404FEA1C492343B5FBA9
:100D5000F9F81FFA8CFE09FB18551C0C44EA0544EF
:100D600008FB0EF5A54202FA01F200FA01F00BD9D8
:100D70001CEB040408F1FF3A80F08880A54240F2A1
:100D80008580A8F102086444641B9DB2B4FBF9F3AA
:100D900009FB134445EA044403FB0EFEA64508D9AB
:100DA0001CEB040403F1FF356CD2A6456AD9023B63
:100DB000644443EA0843A3FB0295A4EB0E04AC424F
:100DC000C846AE4656D353D056B1B0EB080264EBDA
:100DD0000E0404FA07F7CA40CC401743C6E9007472
:100DE00018460021BDE8F087C3F1200102FA03FC98
:100DF00020FA01F225FA01F19D402A434FEA1C47EF
:100E00001FFA8CFEB1FBF7F007FB1015110C41EA3D
:100E1000054100FB0EF58D4204FA03F408D91CEBE2
:100E2000010100F1FF382FD28D422DD902386144E3
:100E3000491B92B2B1FBF7F507FB151142EA0142DB
:100E400005FB0EF1914208D91CEB020205F1FF38B7
:100E500016D2914214D9023D6244521A45EA004129
:100E600038E73146304608E73946E6E61046FBE605
:100E70004845A9D2B9EB020865EB0C0E013BA3E78C
:100E80004546EAE72B4694E74046D1E7D0467BE764
:100E9000023D624432E708460AE76444023842E70A
:100EA000704700BF7FB501238DF817206422CDE97C
:100EB00001320DF11702009200680A46D02101F0BC
:100EC00001FD07B05DF804FB1FB54FF0640C012372
:100ED000CDE9013C009200680A46D02101F082FD74
:100EE00005B05DF804FB000073B5002201607F21AE
:100EF0000446FFF7D7FF404D0DF106022870002190
:100F00002046FFF7E1FF002228707F212046FFF7EF
:100F1000C9FF28700A2001F0E3F8012206212046CB
:100F2000FFF7C0FF28700A2001F0DAF83F220721FE
:100F30002046FFF7B7FF28700A2001F0D1F8002201
:100F400007212046FFF7AEFF01222870102120461E
:100F5000FFF7A8FF002628700DF107020F21204699
:100F60008DF80760FFF7B0FF9DF807200F2142F0D2
:100F700002022046FFF796FF20227F212046FFF73E
:100F800091FF3246287031462046FFF78BFF37220B
:100F9000287001212046FFF785FF062228700221D4
:100FA0002046FFF77FFF1022287011212046FFF70F
:100FB00079FF3246287010212046FFF773FF312257
:100FC000287014212046FFF76DFF32462870532108
:100FD0002046FFF767FF032215212046FFF762FF37
:100FE00032467F212046FFF75DFF2870642001F024
:100FF00077F8304602B070BDF4010020F7B5002349
:1010000001AA2E210446ADF80430FFF75DFF264FFC
:101010000DF1050238702D212046FFF755FF01AA7A
:10102000387030212046BDF90460FFF74DFF0DF107
:10103000050238702F212046FFF746FF01AA3870BD
:1010400032212046BDF90450FFF73EFF0DF10502A5
:10105000387031212046FFF737FF07EE106A9FED09
:10106000136ADFED136ABDF904303870B8EEC77A41
:1010700007EE903A27EE067AF8EEE77A27EE267A20
:1010800067EE867A84ED017A07EE105AB8EEC77AD9
:1010900067EEA67A27EE067AC4ED037A27EE267A63
:1010A00084ED027A03B0F0BDF40100200000803826
:1010B000C3F51C41F7B5002301AA36210446ADF85B
:1010C0000430FFF701FF284F0DF10502387035217C
:1010D0002046FFF7F9FE01AA387038212046BDF9F5
:1010E0000460FFF7F1FE0DF105023870372120464C
:1010F000FFF7EAFE01AA387034212046BDF90450FA
:10110000FFF7E2FE0DF10502387033212046FFF7AC
:10111000DBFE07EE906AB8EEE77AD4ED0E7AD4EDF6
:101120000F6ABDF9043094ED0D6A387037EE677AB6
:1011300007EE905AF8EEE77A77EEE67A06EE903A06
:10114000F8EEE66A76EEC66A9FED086A66EE866A93
:1011500027EE067A67EE867AC4ED046A84ED057A96
:10116000C4ED067A03B0F0BDF40100202D237A3DD2
:1011700008B500F0CFFC0A210846064A00F0AAFC98
:1011800000F010FC4FF4FA6000F0AAFFBDE8084040
:1011900000F02ABC786D000870B5294D294C2A4E04
:1011A0002846FFF72BFF2846FFF784FF6868FFF704
:1011B000CBF902460B462046244903F075FC204635
:1011C000FFF756F84FF0FF3382B22146304602F067
:1011D0006FFE00212246084600F07CFCA868FFF75D
:1011E000B3F902460B462046194903F05DFC4FF067
:1011F000FF3321460822304602F05AFE22460A21D9
:10120000002000F067FCE868FFF79EF902460B46F5
:101210002046104903F048FC4FF0FF3321460822D6
:10122000304602F045FE22460020142100F052FC18
:1012300000F0B8FBBDE870400A2000F051BF00BFCD
:101240000004002068040020BC030020846D000816
:10125000906D00089C6D000800B595B02C2200210F
:1012600009A803F019FD1422002103A803F014FDBE
:101270000023194A0193116C41F080511164126CE2
:1012800002F080520192019A144A0293116841F4CB
:101290008041116012680E9302F480420292029A19
:1012A0000222089201201022CDE90B0208A801F0C9
:1012B0006DFD014608B172B6FEE70F23CDE903309C
:1012C000CDE90500079003A801F03AFF08B172B616
:1012D000FEE715B05DF804FB0038024000700040E6
:1012E000F0B51948194D1A4E1A4F89B003F0A0FBFA
:1012F0000124610089B20A230122284601F07AFC08
:10130000E0B9234632462021684603F099FB68463F
:10131000FEF7AEFF4FF0FF3382B26946384602F067
:10132000C7FD0A2108466A4600F0D4FB00F03AFBEC
:101330004FF4FA6000F0D4FE00F056FB01347F2C2D
:10134000D7D109B0F0BD00BFA86D00080002002091
:10135000BC6D0008BC030020012804BF014B1870BD
:10136000704700BFF50100207FB5314DA84204460B
:1013700012D1304E33688BB9042102F02BF82E4B7A
:1013800018600123336023681A6A22F0A0021A62EF
:101390001A6A42F020021A6204B070BD012BFBD120
:1013A000042102F017F82B68244C254900225A62C8
:1013B000214B1B689842BBBFC3F57F43FF33C21A62
:1013C0001A186846226003F06FFB6A4628210A203B
:1013D00000F080FB00F0E6FA2068FFF7A3F812A304
:1013E000D3E90023FFF708F9164B0022FFF704F9B1
:1013F0000B4602461449684603F056FB6A46322102
:101400000A2000F067FB00F0CDFA002333602B6860
:1014100007481A6A22F0A0021A621A6A1A620421A4
:1014200002F0F6FBB8E700BF006F8104C58FA13F53
:101430002C030020FC0100208C040020F801002077
:10144000D96D00080000E03FE66D000810B50A4CB9
:101450000821204602F0DAFB2046084C0C2102F05D
:10146000D5FB0021204602F0D1FB20460421BDE837
:10147000104002F0CBBB00BF9C0200207403002090
:1014800010B5074C0021204602F0C0FB054A236836
:1014900012685A63BDE810404FF4FA6000F020BEB5
:1014A00054020020000000202DE9F04192B000F02D
:1014B000EBFDFFF7D1FE142200210BA803F0ECFB9B
:1014C0000024A74B01941A6BA648A74D42F01002C6
:1014D0001A631A6B02F010020192019A02941A6BBD
:1014E00042F002021A631A6B02F002020292029A9E
:1014F00003941A6B42F008021A631A6B02F0080296
:101500000392039A04941A6B42F004021A631B6B51
:1015100003F00403049322464FF48071049B00F00F
:1015200033FF924822464FF4004100F02DFF22463F
:101530008F484FF4F04100F027FF01264FF48073ED
:1015400088480BA9CDE90B36CDE90D4400F042FEE9
:101550004FF4004385480BA9CDE90B36CDE90D4486
:1015600000F038FE4FF4F04381480BA9CDE90B366B
:10157000CDE90D4400F02EFE4FF4041379480B968C
:101580000BA9CDE90C3400F025FE224621460620A9
:1015900000F0CCFD062000F0FBFD764BAC604FF672
:1015A000FF772846CDE90B44C5E90034EF60AC6114
:1015B00002F032F808B172B6FEE7CDE90B000BA9D4
:1015C000284602F073FB054608B172B6FEE70146F5
:1015D000102207A803F060FB674C102229460BA8D5
:1015E000CDE9055503F058FBDFF8A0C1A5610F2335
:1015F0002046C4E900C3C4E90257C4E9045502F017
:101600000BF808B172B6FEE74FF4805707A92046E1
:10161000079702F0EEF908B172B6FEE7204602F035
:1016200053F808B172B6FEE7CDE9050005A92046DA
:1016300002F03CFB08B172B6FEE7CDE90D000A23CB
:10164000204604220BA9CDE90B3602F033F90446FB
:1016500008B172B6FEE70146102207A803F01CFB92
:101660001C2221460BA8454DCDE9054403F014FB8F
:10167000434BAC60C5E90034284641F61F43C5E939
:101680000334AC6101F0C8FF08B172B6FEE707A9E8
:101690002846079702F0ADF908B172B6FEE7284672
:1016A00001F0E6FF08B172B6FEE70023334805A952
:1016B000CDE9053302F0FAFA08B172B6FEE74FF051
:1016C0006008CDE90B8002270F9008222B480D9768
:1016D0000BA902F05BF808B172B6FEE727480C22AE
:1016E0000BA902F053F8054608B172B6FEE723488D
:1016F000244C00F071FB1022294607A803F0CCFA15
:101700001C2229460BA803F0C7FA1F4BA560C4E9A9
:101710000035204641F61F43C4E90335A56101F0B9
:101720007BFF08B172B6FEE74FF4805607A920464A
:10173000079602F05EF908B172B6FEE7204601F0A6
:1017400097FF024608B172B6FEE7CDE90B800F9015
:101750000BA920460D9702F019F8C8B172B6FEE742
:101760000038024000100240E40200200004024061
:10177000000C0240001000402C0300209C020020BE
:1017800000080040740300200040014000040140B4
:1017900004220BA9204601F0F9FF054608B172B6F4
:1017A000FEE7204600F018FB1022294607A803F0A8
:1017B00073FA554C554F1C2229460BA803F06CFABE
:1017C0004FF43473C4E9007320464FF4FA63C4E95C
:1017D0000335A560A56101F01FFF08B172B6FEE7F1
:1017E00007A92046079602F004F908B172B6FEE791
:1017F000454801F03DFF024608B172B6FEE760239E
:10180000CDE90B300D900F900BA93F4801F0BEFFC2
:10181000054608B172B6FEE73B483D4C00F0DCFAE5
:101820003C483D4B2562C4E900034FF48043204609
:10183000C4E90255C4E90435C4E9065500F09AFF2D
:1018400008B172B6FEE7354B354918614FF4E13205
:10185000C3E900120C22C3E90200C3E90520D861E4
:10186000184602F0F7FA054608B172B6FEE7FFF730
:101870007FFCFFF7EBFDFFF703FE21462948FFF74A
:1018800033FB10F0FF010BD02846274A294600F011
:1018900021F900F087F84FF4FA6000F021FCFEE730
:1018A0000846224A224C234D234E00F013F900F043
:1018B00079F84FF4FA6000F013FC00F095F8FFF7A8
:1018C0000FFD2378E3B10023237000F08DF80A2187
:1018D0002A46084600F0FEF800F064F84FF48071E4
:1018E000304600F056FD154A1368B3FA83F35B09DE
:1018F0004FF4FA60136000F0F3FB00F075F8E0E7D6
:10190000FFF74AFCDDE700BF54020020001800404A
:101910000002002000580040A0860100BC03002007
:101920000048004000040020F56D0008086E000823
:10193000F50100201D6E0008001002408804002000
:10194000012970B50A46044618BF00221448144EF7
:101950004FF4006100F018FD082500224FF480418B
:10196000304600F011FD23064CBF012200224FF447
:101970000051304600F008FD013D01224FF4804146
:10198000304600F001FD640015F0FF05E4B2E4D13B
:10199000BDE87040024801224FF4006100F0F4BC41
:1019A000000C024070B50F4EB02400212046FFF716
:1019B000C7FF00210846FFF7C3FF00211020FFF7F3
:1019C000BFFF002516F8350001210135FFF7B8FFEC
:1019D000802DF7D10134E4B2B82C06F10106E4D130
:1019E00070BD00BF900400200023084810B41C46BE
:1019F0000022C11801F832400132802AFAD10133A5
:101A0000082BF5D15DF8044BFFF7CCBF9004002004
:101A1000030610B512D43F2910D801F00703C3F113
:101A2000070301249C40C908064BC1F10701C9B254
:101A300003EBC000435C12B12343435410BD23EABF
:101A40000403FAE7900400202DE9F74F1F46203ADF
:101A50001E4B9DF830B0D2B203EB021301931C4B26
:101A600002EB420203EB82038146884600930C4658
:101A70000026B74202D103B0BDE8F08F0C2F0CBF97
:101A8000009B019B9D5D04F108035FFA83FA2B061E
:101A900058BFBBFA8BF2214604F101044CBF5A46F1
:101AA00052094846E4B2FFF7B3FFA4EB08026D0009
:101AB000BA42EDB207D109F101005FFA80F9C246DE
:101AC00001365446D5E7A245E1D1F9E79672000800
:101AD000226E0008F7B504460D46561E012716F87B
:101AE000013F0BB903B0F0BD7A2C82BF1035EDB2C7
:101AF00000243A2D03D9FFF777FF00252C460097E5
:101B0000204632780C2329460834FFF79DFFE4B2C3
:101B1000E5E7000010B501F01DF9414B414C1A6F8B
:101B200022F001021A671A6F22F004021A6701F00C
:101B30001FF900224FF48051204600F025FC64205C
:101B400000F0CEFA012220464FF4805100F01CFC38
:101B50000021AE20FFF7F4FE0021D520FFF7F0FEB4
:101B600000215020FFF7ECFE0021A820FFF7E8FE3F
:101B700000213F20FFF7E4FE0021D320FFF7E0FE25
:101B800000210846FFF7DCFE00214020FFF7D8FEC9
:101B900000218D20FFF7D4FE00211420FFF7D0FE96
:101BA00000212020FFF7CCFE00210220FFF7C8FE15
:101BB0000021A120FFF7C4FE0021C020FFF7C0FED6
:101BC0000021DA20FFF7BCFE00211220FFF7B8FE4B
:101BD00000218120FFF7B4FE0021EF20FFF7B0FEC7
:101BE0000021D920FFF7ACFE0021F120FFF7A8FE6D
:101BF0000021DB20FFF7A4FE00213020FFF7A0FE2C
:101C00000021A420FFF79CFE0021A620FFF798FEEC
:101C10000021AF20FFF794FEBDE81040FFF7E4BEBF
:101C200000380240000C024082B00C4B00210091B1
:101C30005A6C42F480425A645A6C02F48042009218
:101C4000009A01911A6C42F080521A641B6C03F0E6
:101C500080530193019B02B0704700BF00380240DF
:101C600030B5044689B01422002103A803F014F80B
:101C70002268144B9A4222D1134C14480025019536
:101C8000236B43F002032363236B03F002030193EE
:101C9000019B4FF440621223CDE903230321042367
:101CA000CDE9061303A900F095FA0295236C43F4DD
:101CB00080032364236C03F480030293029B09B026
:101CC00030BD00BF00580040003802400004024010
:101CD00010B504468CB01422002107A802F0DCFFE6
:101CE0002368364A93420DD100230193344B1A6C7A
:101CF00042F004021A641B6C03F004030193019B7D
:101D00000CB010BD2F4A93420CD1002302932C4BF0
:101D10001A6C42F010021A641B6C03F01003029359
:101D2000029BEDE7284A934228D1254B27480024FF
:101D300003945A6C42F002025A645A6C02F0020296
:101D40000392039A04941A6B42F004021A631B6B09
:101D500003F004030493049B80220223CDE90723AC
:101D600007A903230B9300F035FA224621462E20C3
:101D700000F0DCF92E2000F00BFAC1E7144A934280
:101D80000CD1002305930E4B5A6C42F480325A64F6
:101D90005B6C03F480330593059BB1E70D4A9342D6
:101DA000AED100230693064B1A6C42F040021A642F
:101DB0001B6C03F040030693069BA1E7000800405C
:101DC00000380240001000400004014000080240BA
:101DD000004001400018004010B5044688B01422AD
:101DE000002103A802F058FF2368244A934214D12B
:101DF00000230093224B1A6B42F002021A631B6B02
:101E000003F002030093009B4FF440700223CDE9DE
:101E100003031C48079303A916E01B4A934217D1FA
:101E200000230193164B19481A6B42F010021A63F3
:101E30001B6B03F0100301936021019B0223CDE98A
:101E400003130323079303A900F0C4F908B010BDDE
:101E50000F4A9342FAD100230293094B1A6B42F0C6
:101E600002021A631B6B03F002030293029B4FF4FE
:101E700080420223CDE903230923CAE7000800407A
:101E800000380240000402400040014000100240BF
:101E90000018004010B5044688B01422002103A8A1
:101EA00002F0FAFE2268144B9A4223D103F5F8336C
:101EB000002101911A6C114842F480221A641A6CB4
:101EC00002F480220192019A02911A6B42F00802F8
:101ED0001A631B6B03F008030293029B4FF44072DA
:101EE00002230321CDE903230723CDE9061303A928
:101EF00000F070F908B010BD00480040000C02402E
:101F0000FEE7FEE7FEE7FEE7FEE770477047704733
:101F100000F0D4B8012000F045BA0000014801F0FB
:101F200073BA00BF2C0300200120704708B502F0EF
:101F300005FF162303604FF0FF3008BD08B502F01F
:101F4000FDFE16230360FEE770B50D4614460E46EF
:101F5000731B9C4201DC204670BDAFF3008006F885
:101F6000010BF5E770B50D4614460E46731B9C42F7
:101F700001DC204670BD16F8010BAFF30080F5E7D9
:101F80004FF0FF3070474FF400534B600020704714
:101F900001207047002070470B4A116810B50346B6
:101FA00009B90A491160106809490A4C0344091B20
:101FB0008B4206D902F0C2FE0C2303604FF0FF30C3
:101FC00010BD1360FCE700BF90080020E809002066
:101FD0000000022000040000034AD2F8883043F4D5
:101FE0007003C2F88830704700ED00E0DFF834D0AD
:101FF0000D480E490E4A002302E0D458C450043361
:10200000C4188C42F9D30B4A0B4C002301E0136037
:102010000432A242FBD3FFF7DFFF02F095FEFFF789
:1020200043FA70470000022000000020D801002081
:102030001C7C0008D8010020E4090020FEE7000015
:1020400038B50E4B1A784FF47A73B3FBF2F30C4A9F
:1020500005461068B0FBF3F000F0A8F8044658B944
:102060000F2D09D8024629464FF0FF3000F05EF8E8
:10207000044B20461D6038BD0120FCE7080000200D
:10208000040000200C00002008B50B4B1A6842F435
:1020900000721A601A6842F480621A601A6842F488
:1020A00080721A60032000F02FF80F20FFF7C8FF9E
:1020B000FFF7BAFD002008BD003C0240034A044B74
:1020C00011681B780B441360704700BF9408002010
:1020D00008000020014B1868704700BF94080020DA
:1020E00038B50446FFF7F6FF631C1CBF054B1B7891
:1020F000054618BFE418FFF7EDFF431BA342FAD3D0
:1021000038BD00BF080000200749CA6822F4E06219
:102110000302120403F4E063120C134343F0BF63A1
:1021200043F40033CB60704700ED00E0164B30B550
:10213000DC68C4F30224C4F10703251D042B28BF67
:102140000423062D4FF0FF358CBF033C002405FA15
:1021500003F321EA0303A54022EA0502A340002875
:1021600043EA0203ACBF00F16040084A4FEA0313A0
:10217000B8BF00F00F00DBB2AABF00F561401354F6
:1021800080F8003330BD00BF00ED00E014ED00E04A
:10219000002807DB4109044A00F01F0001238340A7
:1021A00042F82130704700BF00E100E00138B0F193
:1021B000807F0BD24FF0E023054A5861F02182F86E
:1021C00023100020072298611A6170470120704790
:1021D00000ED00E02DE9F74FDFF8A891674A0023F2
:1021E0000D6801249C4004EA050CAC4340F0B1802A
:1021F0004D6805F003044FEA43080326671E06FAFC
:1022000008F6012F6FEA060634D8876807EA060E3B
:10221000CF6807FA08F747EA0E078760476827EA9A
:102220000C0EC5F300179F4047EA0E074760C768CA
:1022300007EA060E8F6807FA08F747EA0E07022C2E
:10224000C76019D14FEAD30A00EB8A0A03F0070BE3
:10225000DAF820704FEA8B0B4FF00F0E0EFA0BFEE0
:1022600027EA0E0E0F6907FA0BF747EA0E07CAF8BE
:10227000207001E0032CDAD1076804FA08F4374033
:102280003C4315F4403F046063D04FF0000ACDF8A2
:1022900004A0D9F844603A4C46F48046C9F844603A
:1022A000D9F8446006F480460196019E23F00306A7
:1022B00006F1804606F59C3603F0030ED6F808803A
:1022C0004FEA8E0E0F2707FA0EF7A04228EA0707FB
:1022D00046D004F58064A04244D004F58064A04256
:1022E00042D004F58064A04240D004F58064A0424E
:1022F0003ED004F58064A0423CD004F58064A04246
:102300003AD004F58064A0420CBF0724082404FAE4
:102310000EF43C43B46094686FEA0C06EF0254BFBD
:1023200034404CEA04049460D468AF0254BF344093
:102330004CEA0404D4605468AF0354BF34404CEA00
:10234000040454601468ED0354BF34404CEA0404A0
:1023500014600133102B7FF443AF03B0BDE8F08F5E
:102360005446D4E70124D2E70224D0E70324CEE781
:102370000424CCE70524CAE70624C8E7003C014052
:1023800000000240003802400AB181617047090430
:10239000FBE7436901EA030221EA030141EA024142
:1023A00081617047044A5169014208B502D0506109
:1023B000FEF7D2FF08BD00BF003C014001684B6939
:1023C00013F480634FF0000210D06FF480634B6110
:1023D0002023026380F83D3080F83E20036C80F8B3
:1023E0003C2043F004030364012070471846704703
:1023F0002DE9F84606460F4691461D464FEA114A1A
:102400003368BAF1010F0CBF5C699C6927EA0404C8
:10241000A4B2B4FA84F46409A14501D0002017E005
:102420006A1CEED0FFF756FE089BC01AA84201D8DE
:10243000002DE5D100232022336386F83D2086F865
:102440003E30326C86F83C3042F02002326401208B
:10245000BDE8F8862DE9F04104460F461646984639
:102460002568686927EA000080B2B8B16B695A052F
:1024700016D52B6843F400732B606FF480636B6197
:1024800020220023236384F83D2084F83E30226C10
:1024900042F00402226484F83C300120BDE8F0815F
:1024A000731CDED0FFF716FEA0EB0800B04201D887
:1024B000002ED5D100232022236384F83D2084F808
:1024C0003E30226C42F02002E4E770B504460D462F
:1024D000164621684B6913F0400301D0002010E03C
:1024E0004A69D2060ED56FF010024A61202223639A
:1024F00084F83D2084F83E30226C226484F83C301D
:10250000012070BDFFF7E6FD801BA84201D8002D19
:10251000DFD100232022236384F83D2084F83E305D
:10252000226C42F02002E8E770B504460D461646DC
:1025300023685B691B0601D5002070BD2046FFF7AC
:102540003DFFA8B96A1CF3D0FFF7C4FD801BA84269
:1025500001D8002DECD100232022236384F83D20F4
:1025600084F83E30226C84F83C3042F02002226431
:102570000120E2E72DE9F0431546026885B0DDE968
:102580000C789946136843F4807313600E463B46FB
:10259000CDF8008000224FF001110446FFF728FF1C
:1025A000236838B11B68DB0502D54FF40073236440
:1025B00003200AE006F0FE061E61194943463A462A
:1025C0002046FFF747FF18B1012005B0BDE8F083B2
:1025D000236803905A6903929B69039342463946E4
:1025E0002046039BFFF7A0FF40B1236C042B01BFE3
:1025F0002268136843F400731360E5E7B9F1010F33
:10260000236802D1EDB21D61DFE72A0A1A6139465B
:1026100042462046FFF788FF0028E6D12368F1E70D
:10262000020001002DE9FF479A46036815461A6823
:1026300042F480621A601A68DDE90C7842F4807214
:102640001A600E463B46CDF8008000224FF0011183
:102650000446FFF7CDFE236848B11B68DB0502D5B1
:102660004FF400732364032004B0BDE8F0875FFAE1
:1026700086F906F0FE061E612A4943463A46204680
:10268000FFF7E8FE08B10120EEE7236803905A69DE
:1026900003929B690393424639462046039BFFF70A
:1026A00043FF40B1236C042B01BF2268136843F43D
:1026B00000731360E7E7BAF1010F23681AD1EDB296
:1026C00042461D6139462046FFF72EFF024600288C
:1026D000E8D121680B6843F480730B602046CDF885
:1026E00000803B464FF00111FFF782FE226860B187
:1026F0001368B3E72A0A1A61394642462046FFF7B3
:1027000013FF0028CED12368D9E749F001031361F4
:10271000044943463A462046FFF79CFE003818BF5E
:102720000120A1E70200010070B504460D461646DF
:1027300023685B695B0701D5002070BD2046FFF769
:102740003DFEA8B96A1CF3D0FFF7C4FC801BA84269
:1027500001D8002DECD100232022236384F83D20F2
:1027600084F83E30226C84F83C3042F0200222642F
:102770000120E2E770B5044608B9012070BD90F869
:102780003D3003F0FF021BB980F83C20FFF768FAE8
:10279000242384F83D3023681A6822F001021A606D
:1027A0001A6842F400421A601A6822F400421A6061
:1027B00000F060FD3F4B65689D4294BF3E4B3F4B30
:1027C00098428CBF00230123002BD6D12268394EBA
:1027D00051683B4BB0FBF3F321F03F011943B54285
:1027E000516088BF4FF49676116A88BF734321F019
:1027F0003F0184BF4FF47A76B3FBF6F301330B430A
:102800001362D169431E2B4821F44F41854221F0C8
:10281000FF0132D86D0040F6FC70B3FBF5F30133D5
:10282000034242D0C3F30B031943D161D4E907300B
:102830001168034321F0C0010B4313609168D4E990
:10284000030321F40341034321F0FF010B43936091
:10285000D4E90530D168034321F0FF010B43D36075
:10286000136843F00103136000202023206484F8E0
:102870003D30206384F83E0080E7A06850B905EB46
:102880004505B3FBF5F30133C3F30B037BB143F40D
:102890000043C9E719206843B3FBF0F30133C3F3E6
:1028A0000B0323B143F44043BEE70423BCE70123F9
:1028B000BAE700BFA08601007F841E00FF083D002C
:1028C00040420F002DE9F743044699460C9E0F46FF
:1028D0009046FFF7FFFB94F83D30202B054603D0D0
:1028E000022003B0BDE8F08300903C491923012287
:1028F0002046FFF77DFD0028F2D194F83C30012BF3
:10290000EED02068012384F83C300368D9075EBF0D
:10291000036843F001030360036823F4006303606A
:10292000212384F83D30402384F83E300023236483
:102930000A9B6362BDF82C306385638D2385284B29
:10294000E362CDE900654B46424639462046FFF733
:1029500011FE00282AD00120C3E7FFF7E5FD40B1B2
:10296000236C042B01BF2268136843F400731360C7
:10297000F1E7636A27681A4612F8011B396162623F
:10298000628D218D013A92B262857A69481E80B2C9
:10299000520720850AD548B15A783A6102336362FA
:1029A000638D013B02399BB221856385238D2A46C5
:1029B00031462046002BD0D1FFF7B6FE0028CFD1FC
:1029C0002268136843F400731360202384F83D30B9
:1029D00084F83C0084F83E0083E700BF020010004A
:1029E0000000FFFF2DE9F043044687B09946109F91
:1029F0000D469046FFF76EFB94F83D30202B0646BF
:102A000004D00225284607B0BDE8F083009076493F
:102A1000192301222046FFF7EBFC0028F1D194F89E
:102A20003C30012BEDD02068012384F83C30036852
:102A3000DB075EBF036843F001030360036823F410
:102A400000630360222384F83D30402384F83E3045
:102A5000002323640E9B6362BDF83C306385638D65
:102A60002385624BE3622946CDE900764B46424618
:102A70002046FFF7D7FD054608B10125C2E7228DA4
:102A80002368B2B902905A6902929A690292029A34
:102A90001A6842F400721A60DFF85481238D002B0B
:102AA0002CD1202284F83D2084F83C3084F83E303C
:102AB000A8E7012A0AD11A6822F480621A600390FA
:102AC0005A6903929A690392039AE1E7022A0ED1A6
:102AD0001A6822F480621A601A6842F400621A606E
:102AE00004905A6904929B690493049BD4E705906F
:102AF0005A6905929B690593059BCDE7032B56D830
:102B0000012B15D1324639462046FFF7DEFC00285E
:102B1000B3D123681A69636A1A70636A0133636206
:102B2000238D013B2385638D013B9BB26385B5E714
:102B3000022B00963B464FF000024146204619D139
:102B4000FFF756FC002898D123681A6842F40072F7
:102B50001A601A69636A1A70626A531C6362238D71
:102B6000013B2385638D013B9BB2638523681B6911
:102B70005370D2E7FFF73CFC024600287FF47DAF9C
:102B80002368196821F4806119601969636A1970F2
:102B9000636A009601336362238D013B2385638D55
:102BA000013B9BB2638541463B462046C8E732461F
:102BB00039462046FFF789FC00287FF45EAF236882
:102BC0001A69636A1A70626A531C6362238D013B3F
:102BD0002385638D013B9BB263852368596949074F
:102BE0007FF55CAFC3E700BF020010000000FFFFED
:102BF000040001002DE9F04F044685B01F468846C9
:102C00009246FFF767FA94F83D30202B054603D033
:102C1000022005B0BDE8F08F00904C491923012235
:102C20002046FFF7E5FB0028F2D194F83C30012B59
:102C3000EED0012384F83C302368DFF810B11A6825
:102C4000D2075EBF1A6842F001021A601A6822F4C5
:102C500000621A60242384F83D3000263C4B266431
:102C600008F0FE08E3622268136843F4807313607F
:102C70004FF001113B46009500222046FFF7B8FBBC
:102C8000236838B11B68DB0502D54FF40073236459
:102C90000320BEE7C3F81080FFF71CFA23685A69C7
:102CA0005B690546C2F34002C3F380234FF0A009DD
:102CB00094F83D10A02901D013431DD023684FF094
:102CC000200984F83D905A6912F0020F1A6842F404
:102CD00000721A6025D0002203925A6903929B6900
:102CE0000393039B19490095192301222046FFF7FE
:102CF0007FFB88B101208CE7FFF7ECF9401BB8425D
:102D000000D80FB984F83D9023685A695B69C2F313
:102D10004002C3F38023CBE784F83D9084F83C0065
:102D200077E76FF480625A615946009519230122B2
:102D30002046FFF75DFB0028DCD10136564592D3D3
:102D400084F83D9084F83C00D4E700BF02001000F6
:102D50000000FFFF044B01221A62044B82B01B6883
:102D60000193019B02B0704700000E4200700040CA
:102D7000044B00221A62044B82B01B680193019B32
:102D800002B0704700000E42007000402DE9F34190
:102D9000044640B30368DD0710D4236898075BD46A
:102DA00023681A0700F19D8023685B0700F1BD804E
:102DB000A069002840F0248100202CE08D4B9A6807
:102DC00002F00C02042A07D09A6802F00C02082ACA
:102DD0000BD15B68590208D5864B1B689A03DCD57A
:102DE0006368002BD9D1012015E06368814DB3F5EC
:102DF000803F13D12B6843F480332B60FFF76AF9CF
:102E00007C4E054633689B03C7D4FFF763F9401B2C
:102E10006428F7D9032002B0BDE8F081B3F5A02FF4
:102E200004D12B6843F480232B60E3E72A6822F463
:102E300080322A602A6822F480222A60002BDDD1A9
:102E4000FFF748F906462B689F03A6D5FFF742F91E
:102E5000801B6428F7D9DDE7664B9A6812F00C0FE7
:102E600007D09A6802F00C02082A11D15B685E0252
:102E70000ED4604A13689D0702D5E368012BB2D1D6
:102E80001368216923F0F80343EAC103136087E75D
:102E9000E268594BB2B101221A60FFF71BF9554D98
:102EA00006462B68980707D52B68226923F0F8039C
:102EB00043EAC2032B6073E7FFF70CF9801B02287B
:102EC000EFD9A7E71A60FFF705F94A4E05463368C0
:102ED00099077FF565AFFFF7FDF8401B0228F6D98B
:102EE00098E76269444B82B10122C3F8802EFFF754
:102EF000F1F8404E0546736F9F073FF555AFFFF75A
:102F0000E9F8401B0228F6D984E7C3F8802EFFF7C2
:102F1000E1F8384E0546736F98077FF545AFFFF728
:102F2000D9F8401B0228F6D974E7324B1A6C12F01C
:102F3000805228D101921A6C42F080521A641B6CA4
:102F400003F080530193019B01272C4D2B68D90579
:102F50001BD5A368274D012B27D12B6F43F001030D
:102F60002B67FFF7B7F8234E054641F28838336FD9
:102F70009B0739D5002F3FF41BAF1E4A136C23F07B
:102F80008053136414E70027DFE72B6843F4807352
:102F90002B60FFF79FF806462B68DA05D9D4FFF7B8
:102FA00099F8801B0228F7D934E7052B04D12B6F41
:102FB00043F004032B67D0E72A6F22F001022A674F
:102FC0002A6F22F004022A67002BCAD1FFF782F889
:102FD00041F2883806462B6F9807CBD5FFF77AF871
:102FE000801B4045F7D915E7FFF774F8401B4045B3
:102FF000BDD90FE700380240000047420070004092
:10300000364DAB6803F00C03082B3DD0344B002247
:1030100002281A662BD1FFF75DF806462B68990146
:103020001FD4D4E907321343626A43EA8213E26A87
:1030300043EA0263A26A5208013A43EA02436B6020
:10304000274B264D01221A66FFF744F804462B68E9
:103050009A013FF5B1AEFFF73DF8001B0228F6D903
:10306000D8E6FFF737F8801B0228D7D9D2E6FFF75A
:1030700031F804462B689B017FF59EAEFFF72AF8D6
:10308000001B0228F6D9C5E601283FF4C4AE6B68E0
:10309000E26903F4800191427FF4A5AE216A03F056
:1030A0003F028A427FF49FAE616A47F6C0721A40BF
:1030B000B2EB811F7FF497AEA26A520803F440314D
:1030C000013AB1EB024F7FF48EAEE26A03F0706317
:1030D000B3EB026F3FF470AE85E600BF00380240EC
:1030E00000004742134908B58B6803F00C03042B1A
:1030F0001CD0082B1CD14A684B68496813F4800324
:1031000014BF0D480D48C1F3881118BF002302F009
:103110003F02A1FB0001FDF747FD064B5B68C3F3CF
:10312000014301335B00B0FBF3F008BD0248FCE74C
:103130000248FAE70038024040787D010024F4009C
:103140002DE9F0410D46044610B90120BDE8F0819B
:10315000434B1A6802F007028A4228D321688F077E
:103160002DD4C80740D43E4B1A6802F00702AA4289
:1031700065D8226851076BD4130707D5394A2169EE
:10318000936823F4604343EAC1039360FFF7AAFF07
:10319000344B354A9B68C3F30313D35CD840334B9D
:1031A0001860334B1868FEF74BFF0020CEE7CAB219
:1031B0001A701B6803F007038B42C6D1CEE7294B78
:1031C00011F0040F1EBF9A6842F4E0529A600E0795
:1031D00042BF9A6842F460429A609A68A06822F0FE
:1031E000F00202439A60BCE762681E4B012A1CD1C0
:1031F0001B6813F4003FA8D01A4EB36823F00303F2
:103200001343B360FEF766FF41F288380746B368A0
:10321000626803F00C03B3EB820FA4D0FEF75AFFF1
:10322000C01B4045F3D9032090E7911E01291B687C
:1032300002D813F0007FDEE713F0020FDBE7EAB2FB
:103240001A701B6803F00703AB427FF47EAF90E770
:103250000449E0688B6823F4E05303438B608BE7F9
:10326000003C02400038024086780008040000203C
:103270000C000020044B054A9B68C3F38223D35CF7
:10328000034A1068D840704700380240967800081A
:1032900004000020044B054A9B68C3F34233D35C0F
:1032A000034A1068D84070470038024096780008FA
:1032B00004000020036A23F001030362036A70B56F
:1032C000446882690D6822F073022A438D6823F0F6
:1032D00002032B430E4DA84202D00E4EB04210D135
:1032E000CE6823F008033343A84223F0040302D03E
:1032F000084DA84205D1D1E9055624F44074354360
:103300002C43446082614A684263036270BD00BF1F
:103310000000014000040140036A23F4807303624B
:10332000036A70B54468C2690D6822F073022A43CB
:103330008D6823F4007343EA0523114DA84203D09E
:1033400005F58065A84214D1CD6823F4006343EAF3
:1033500005230B4DA84223F4806303D005F5806557
:10336000A84206D1D1E9055624F44054354344EA35
:1033700005144460C2614A68C263036270BD00BF45
:1033800000000140036A23F480530362036A30B5EE
:103390004468C2690D6822F4E64242EA05228D685B
:1033A00023F4005343EA0533084DA84203D005F542
:1033B0008065A84204D14D6924F4804444EA851410
:1033C0004460C2614A680264036230BD000001408B
:1033D00070477047082910D004D841B1042909D09A
:1033E000002070470C29FBD10368186C70470368F4
:1033F000586B70470368986B70470368D86B7047C9
:10340000704770477047704703681A69910710B595
:1034100004460ED5DA6892070BD56FF002021A61E6
:10342000012202779B699B0777D0FDF79DFF002360
:10343000237723681A69500710D5DA6851070DD52C
:103440006FF004021A61022222779B6913F4407F15
:10345000204668D0FDF788FF0023237723681A6988
:1034600012070FD5DA6810070CD56FF008021A6141
:1034700004222277DB69990720465AD0FDF774FFB2
:103480000023237723681A69D20610D5DA68D0069C
:103490000DD56FF010021A6108222277DB6913F450
:1034A000407F20464BD0FDF75FFF00232377236842
:1034B0001A69D10708D5DA68D20705D56FF001027D
:1034C0001A612046FFF79CFF23681A69100608D589
:1034D000DA68110605D56FF080021A61204600F007
:1034E00024FC23681A69520608D5DA68500605D507
:1034F0006FF040021A612046FFF785FF23681A69C2
:10350000910622D5DA6892061FD56FF02002204678
:103510001A61BDE8104000F007BCFFF772FF2046BB
:10352000FFF770FF83E7FFF76CFF2046FFF76AFFA6
:1035300092E7FFF766FF2046FFF764FFA0E7FFF77B
:1035400060FF2046FFF75EFFAFE710BD304A03681B
:10355000904212D0B0F1804F0FD0A2F57C42904241
:103560000BD002F58062904207D002F58062904253
:1035700003D002F57842904219D14A6823F07003D3
:103580001343234A904229D0B0F1804F26D0A2F5B0
:103590007C42904222D002F5806290421ED002F519
:1035A000806290421AD002F57842904216D0194AB1
:1035B000904213D002F5806290420FD002F58062F3
:1035C00090420BD0A2F59832904207D002F580626B
:1035D000904203D002F58062904203D1CA6823F47E
:1035E000407313434A6923F08003134303608B68DD
:1035F000C3620B688362064B984203D003F5806375
:10360000984201D10B69036301234361704700BFF6
:10361000000001400040014010B5044630B390F86E
:103620003D3003F0FF021BB980F83C20FEF750FB51
:103630000223206884F83D30211DFFF787FF012316
:1036400084F84630002084F83E3084F83F3084F817
:10365000403084F8413084F8423084F8433084F8B4
:10366000443084F8453084F83D3010BD0120FCE73B
:1036700010B5044630B390F83D3003F0FF021BB99B
:1036800080F83C20FFF7A4FE0223206884F83D3038
:10369000211DFFF75BFF012384F84630002084F8EA
:1036A0003E3084F83F3084F8403084F8413084F86C
:1036B000423084F8433084F8443084F8453084F84C
:1036C0003D3010BD0120FCE710B5044630B390F842
:1036D0003D3003F0FF021BB980F83C20FFF779FE74
:1036E0000223206884F83D30211DFFF72FFF0123BE
:1036F00084F84630002084F83E3084F83F3084F867
:10370000403084F8413084F8423084F8433084F803
:10371000443084F8453084F83D3010BD0120FCE78A
:10372000036A23F010030362036A70B54468826978
:103730000D6822F4E64242EA05228D6823F0200358
:1037400043EA0513104DA84203D005F58065A84251
:1037500014D1CD6823F0800343EA05130A4DA84233
:1037600023F0400303D005F58065A84206D1D1E9D6
:10377000055624F44064354344EA8504446082617C
:103780004A688263036270BD0000014070B590F822
:103790003C30012B054650D00123082A80F83C30EC
:1037A0003BD007D8C2B1042A27D01846002385F899
:1037B0003C3070BD0C2AF8D10068FFF7E3FDC36907
:1037C0000A6943F40063C361C36923F48063C3617E
:1037D000C36943EA02232EE00068FFF76BFD8369AB
:1037E0000A6943F008038361836923F0040383615A
:1037F0008369134383610020D8E70068FFF790FFD7
:1038000083690A6943F400638361836923F48063F5
:103810008361836943EA0223ECE70068FFF77CFDDC
:10382000C3690A6943F00803C361C36923F0040351
:10383000C361C3691343C361DDE70220B9E7000038
:1038400070B5046A1A4E24F001040462B04284691F
:10385000056A29D0B0F1804F26D0A6F57C46B0424B
:1038600022D006F58066B0421ED006F58066B042D2
:103870001AD006F57846B04216D006F57056B0421A
:1038800012D0A6F59436B0420ED044F001021B01CE
:1038900022F0F002DBB2134301F00A0125F00A0224
:1038A00011438361016270BD24F003042243EEE7FB
:1038B00000000140F8B590F83C30012B05460C465D
:1038C00000F08B80012380F83C3092B90068CB680F
:1038D000D1E90012FFF7B4FF8369A26823F00C035B
:1038E00083618369134383610020002385F83C30A2
:1038F000F8BD042A24D10368186A20F01000D1E929
:103900000027C968186298691E6A20F4407040EA6E
:103910000720090320F4704089B21201014302F02C
:10392000A00226F0A000024399611A629A69A16878
:1039300022F440629A619A6942EA01229A61D3E7CD
:10394000082A22D103681E6A26F48076D1E9002075
:10395000C9681E62DF691E6A27F003073843090140
:1039600020F0F000C9B21202014302F4206226F4F2
:1039700020600243D9611A62DA69A16822F00C0260
:10398000DA61DA690A43DA61AEE70C2A23D1036807
:10399000186A20F48050D1E90027C9681862D869F4
:1039A0001E6A20F4407040EA0720090320F47040AA
:1039B00089B21203014302F4204226F4204002435C
:1039C000D9611A62DA69A16822F44062DA61DA69BF
:1039D00042EA0122D7E7184687E7022088E710B5B8
:1039E0008468114324F47F4441EA03232343836022
:1039F00010BD38B590F83C30012B04464FF002035F
:103A000000F08E80012280F83D3080F83C20006874
:103A1000836823F47F4323F0770383600B68602B74
:103A20004FD032D8402B64D016D8202B0DD00AD8D6
:103A300033F0100109D0012384F83D30002384F8CD
:103A40003C30104638BD302BF5D1826822F0700230
:103A5000134343F0070328E0502BECD14A68CD68AC
:103A6000016A036A23F001030362836921F00A01FA
:103A700023F0F00343EA05130A438361026283687B
:103A800023F0700343F057030FE0B3F5805F0DD0D0
:103A9000B3F5005F0CD0702BCDD1CB68D1E90121FB
:103AA000FFF79DFF836843F0770383600022C2E73E
:103AB000CB68D1E90121FFF792FF836843F480438B
:103AC000F3E7036A4D68C96823F010030362826953
:103AD000036A22F4704223F0A00343EA051342EA8A
:103AE000013282610362836823F0700343F067034D
:103AF000DBE74A68CD68016A036A23F001030362C9
:103B0000836921F00A0123F0F00343EA05130A4315
:103B100083610262836823F0700343F04703C4E7C4
:103B20001A468EE7036A01F01F0110B501248C408C
:103B300023EA04030362036A8A401A43026210BD47
:103B400008B529B990F83E30012B18D001202CE09F
:103B500004290DD190F83F30013B18BF0123002B01
:103B6000F4D104294FF0020320D180F83F3009E05E
:103B700008290CBF90F8403090F84130ECE7022360
:103B800080F83E3000680122FFF7CCFF1C4A9042CB
:103B900013D01C4B984210D0B0F1804F14D18368E1
:103BA00003F00703062B26D1002008BD08290CBF0F
:103BB00080F8403080F84130E4E7436C904243F4B1
:103BC00000434364EBD0E7E70F4B9842E7D003F59F
:103BD00080639842E3D003F580639842DFD003F519
:103BE00078439842DBD003F570539842D7D0A3F5C1
:103BF00094339842D3D0036843F001030360D3E7C2
:103C0000000001400004014000040040FFF798BF9D
:103C1000082938B505460C4631D004D851B10429DD
:103C200028D0012038BD0C29FBD10268D36823F0CD
:103C3000100303E00268D36823F002032868D3600E
:103C400021460022FFF76EFF026A41F211131A4269
:103C500008D1026A40F244431A4202BF036823F0CB
:103C60000103036001237CB985F83E3085F84230BA
:103C70000020D7E70268D36823F00403DEE7026878
:103C8000D36823F00803D9E7042C04D185F83F302A
:103C900085F84330ECE7082C0BBF85F8403085F8F9
:103CA000413085F8443085F84530E1E730B590F88B
:103CB0003C30012B4FF0020332D080F83D300368D6
:103CC0000D685C689A6824F070042C435C60154CA5
:103CD000A3421AD0B3F1804F17D0A4F57C44A3427D
:103CE00013D004F58064A3420FD004F58064A3428E
:103CF0000BD004F57844A34207D004F57054A342D6
:103D000003D0A4F59434A34204D1496822F0800280
:103D10000A439A60012380F83D30002380F83C304C
:103D2000184630BD00000140704770470268C16806
:103D3000136923F440530B4370B513610546836840
:103D40000069D168034368690343E86921F41641B7
:103D500021F00C0103430B43D3605369A96923F499
:103D600040730B4353611F4B9A4203D003F58063AA
:103D70009A4223D1FFF78EFAEB691921B3F5004F70
:103D8000D5E90046A0FB01011BD1B2194FF0000399
:103D90005B41FCF709FF6422B0FBF2F102FB110367
:103DA000DB003233B3FBF2F303F007025B0002EBFC
:103DB000011203F4F8731344A36070BDFFF75AFABD
:103DC000DAE7B200B30FFCF7EFFE6422B0FBF2F1CA
:103DD00002FB11031B013233B3FBF2F303EB0113BC
:103DE000EAE700BF00100140F8B504460E4617464A
:103DF0001D462268136836EA030301D1002028E03B
:103E00006B1CF7D025B1FEF765F9C01B8542F0D2D7
:103E1000226802F10C0353E8003F23F4D0730C3204
:103E200042E8003021680028F2D101F1140353E880
:103E3000003F23F0010301F1140040E80032002AA2
:103E4000F3D1202384F83D3084F83C2084F83E30C0
:103E50000320F8BD10B5044640B390F83D3003F0A0
:103E6000FF021BB980F83C20FEF714F822682423D7
:103E700084F83D30D36823F40053D3602046FFF725
:103E800055FF23681A6922F490421A615A6922F098
:103E90002A025A61DA6842F40052DA6000202023D4
:103EA000206484F83D3084F83E3010BD0120FCE7EA
:103EB000F7B5174690F83D200093202A04460E4699
:103EC00049D1002945D0002F43D090F83C20012A49
:103ED00041D0012280F83C2000252122056480F891
:103EE0003D20FEF7F7F8A168009BA784B1F5805F3D
:103EF0000246E78403D1216909B935460E460021FF
:103F000084F83C10E18C89B241B940212046FFF78A
:103F10006BFF60B9202384F83D3009E08021204602
:103F2000CDE90023FFF760FFDDE9002310B1032096
:103F300003B0F0BD20684EB935F8021BC1F308018B
:103F40004160E18C013989B2E184DBE716F8011B9D
:103F5000F6E70120ECE70220EAE72DE9FF4755EC00
:103F6000104B002D0E4619462B46BBBF05F10043F2
:103F70001D4600232D230B700D9BDDF830A09146CC
:103F800023F02008BCBF22461446B8F1460F05D0E6
:103F9000B8F1450F00D10136022100E0032103AB47
:103FA000019302AB009345EC104B5346324600F0B0
:103FB0007BFFB8F1470F074602D119F0010F22D05D
:103FC000B8F1460F07EB060910D13B78302B0AD128
:103FD0000022002320462946FCF776FD18B9C6F1D9
:103FE0000106CAF80060DAF8003099440022002384
:103FF00020462946FCF768FD08B1CDF80C90302228
:10400000039B4B4507D3039B0E9ADB1B384613607B
:1040100004B0BDE8F087591C03911A70F0E7F7B5BA
:1040200003460029B8BF494203F8022BB4BF2D2232
:104030002B22092942702ADD0DF1070217460A26B4
:10404000944691FBF6F506FB151430340CF8014C40
:104050000C46632C02F1FF322946F1DC3031ACF121
:10406000020402F8011C411C2246BA420AD30DF197
:104070000902A2EB0C02BC4288BF00221344181AAA
:1040800003B0F0BD12F8015B01F8015FEDE73023EA
:1040900030318370C170031DF1E700002DE9F04F4E
:1040A0002DED028B8DB00C46DDF8608016461F4664
:1040B000054600F0F9FDD0F800A05046FCF7D8F80E
:1040C00000230A9323680593D8F8003094F818B0B9
:1040D000073323F0070303F10802C8F80020D3E9EF
:1040E000008929F000430793CDF8188008EE100AE4
:1040F000C4E91289DDE906019E4B4FF0FF32FCF75F
:1041000015FD88BBDDE906019A4B4FF0FF32FCF745
:10411000EFFC48BB0022002340464946FCF7DEFC8A
:1041200010B12D2384F84330934A944BBBF1470FD1
:1041300094BF9046984603232361059B23F0040314
:1041400023604FF00009009733460BAA214628460A
:1041500000F0DAF9013040F090804FF0FF300DB000
:10416000BDEC028BBDE8F08F42464B4640464946C7
:10417000FCF7DCFC40B14B46002BBCBF2D2384F880
:1041800043307F4A7F4BD1E763680BF0DF02069232
:104190005A1C3FD106236360059B616843F480622B
:1041A000002303930AABCDE901B309AB49EC108BB3
:1041B000009322600DF123032846FFF7CEFE069BF5
:1041C0000999472B804608D1C81C02DB63689942D5
:1041D00041DDABF102035FFA83FBBBF1650F20D831
:1041E00001395A4604F150000991FFF718FF0A9A65
:1041F0001318012A8146236102DC2268D20701D507
:10420000013323619DF82330002B9CD02D2384F8AB
:10421000433098E7069A472ABED1002BBCD1012330
:10422000B9E7BBF1660F18D1002963680BDD216186
:1042300013B92268D00702D501330B442361A1656D
:104240004FF00009DEE713B92268D20701D5023327
:10425000F4E70123F2E74FF0670B0A9B994205DB75
:1042600023682161D807EAD54B1CE7E70029D4BFB2
:10427000C1F1020201221344E0E723685A0507D482
:104280002369424631462846B84701302CD164E7BD
:10429000BBF1650F40F2E080D4E912010022002357
:1042A000FCF712FC002834D0374A01233146284657
:1042B000B84701303FF451AFDDE909239A4202DBF0
:1042C0002368D80710D518EE103A524631462846D2
:1042D000B84701303FF441AF4FF0000804F11A092C
:1042E0000A9B013B434509DC23689B0700F10781DA
:1042F000E0680B9B9842B8BF184630E701234A4656
:1043000031462846B84701303FF427AF08F101088D
:10431000E6E7099B002B39DC1B4A0123314628467E
:10432000B84701303FF419AFDDE90932134302D138
:104330002368D907D8D518EE103A52463146284698
:10434000B84701303FF409AF4FF0000904F11A0AF1
:10435000099B5B424B4501DC0A9B92E701235246D5
:1043600031462846B84701303FF4F7AE09F101095C
:10437000EEE700BFFFFFEF7F9E780008A2780008FD
:10438000A6780008AA780008AE7800080A9AA36DFB
:104390009A42A8BF1A46002A914637DC4FF0000B1C
:1043A00029EAE97904F11A02A36D0593A3EB090345
:1043B0005B4533DCDDE909239A423BDB2368DA07FE
:1043C00038D4DDE90932A2EB0309059BD21A9145E5
:1043D000A8BF9146B9F1000F35DC4FF0000829EA7B
:1043E000E97904F11A0ADDE909239B1AA3EB090311
:1043F00043457FF779AF0123524631462846B847F7
:1044000001303FF4AAAE08F10108ECE7134631464B
:1044100042462846B8470130C0D19EE601233146C6
:1044200028460592B84701303FF497AE059A0BF144
:10443000010BB9E718EE103A524631462846B84704
:104440000130BED189E6059A4B46424431462846A2
:10445000B8470130C1D180E60A9A012A01DCDB07A6
:104460003AD50123424631462846B84701303FF449
:1044700074AE18EE103A524631462846B84701301D
:104480003FF46BAED4E9120100220023DDF828A02E
:10449000FCF71AFBD8B90AF1FF3308F101023146E3
:1044A0002846B84701300ED157E60123524631461F
:1044B0002846B84701303FF450AE08F101080A9B86
:1044C000013B4345F1DC4B4604F15002DAE64FF084
:1044D000000804F11A0AF2E701234246DFE701234C
:1044E0004A4631462846B84701303FF436AE08F117
:1044F0000108E3680B995B1A4345F0DCF8E64FF0DE
:10450000000804F11909F4E72DE9F0471646994629
:104510008A680B69DDF820809342B8BF1346336088
:1045200091F8432007460C460AB1013333602368F3
:10453000990642BF336802333360256815F00605DB
:1045400006D104F1190AE36832689B1AAB4226DCF3
:1045500094F84320131E226818BF012392062BD41F
:1045600004F1430249463846C04701301ED0236853
:10457000226903F00603042B02BFE5683368ED1AD5
:10458000A3680CBF25EAE57500259342C4BF9B1ABA
:10459000ED1800261A34B5421AD1002008E0012394
:1045A000524649463846C047013003D14FF0FF30EC
:1045B000BDE8F0870135C6E7E1185A1C302081F8C4
:1045C0004300224494F8451082F843100233C7E7B1
:1045D0000123224649463846C0470130E6D001361D
:1045E000D9E700002DE9FF470F7E0C9D782F9146FB
:1045F00080460C469A4601F1430207D8622F0AD83A
:10460000002F00F0D480582F00F0C08004F1420544
:1046100084F842703AE0A7F16303152BF6D801A1A4
:1046200051F823F07D460008914600080D46000829
:104630000D4600080D4600080D460008914600088A
:104640000D4600080D4600080D4600080D460008FE
:1046500095470008BD4600084F4700080D46000872
:104660000D460008B74700080D460008BD46000883
:104670000D4600080D460008574700082B681A1D14
:104680001B682A6004F1420584F8423001239FE050
:1046900020682B68070603F10401296001D51E6814
:1046A00003E04606FBD5B3F90060002E03DA2D23A4
:1046B000764284F843305A480A2312E02B68206877
:1046C000191D2960050601D51E6802E04106FBD5CB
:1046D0001E8853486F2F0CBF08230A23002184F83B
:1046E00043106568A560002DA2BF216821F0040178
:1046F00021600EB9002D4BD01546B6FBF3F103FB3C
:104700001167C75D05F8017D3746BB420E46F4D9F7
:10471000082B0BD12368DE0708D52369616899420D
:10472000DEBF302305F8013C05F1FF35521B226145
:10473000CDF800A04B4603AA21464046FFF7E4FE11
:1047400001304AD14FF0FF3004B0BDE8F087236854
:1047500043F0200323603348782784F845702368AA
:1047600029681F0651F8046B02D45F0648BFB6B231
:10477000DF0748BF43F02003296048BF23601EB90C
:10478000236823F0200323601023A7E72448E4E7ED
:104790001546BDE72B6826686169181D2860350637
:1047A0001B6801D5196002E07006FBD51980002353
:1047B00023611546BCE72B681A1D2A601D686268D4
:1047C00000212846FBF704FD08B1401B60606368C8
:1047D0002361002384F84330AAE723692A46494627
:1047E0004046D0470130ADD023689B0713D4E06822
:1047F000039B9842B8BF1846A6E7012332464946B4
:104800004046D04701309DD00135E36803995B1ADB
:10481000AB42F2DCEBE7002504F11906F5E700BF37
:10482000B0780008C1780008002310B50446C0E93C
:104830000033C0E90433836081814366C2818361B0
:10484000194608225C3000F027FA054B6362054BDD
:10485000A362054BE362054B2462236310BD00BFD6
:10486000E94A00080B4B0008434B0008674B00085F
:10487000024A0349034800F069B800BF1000002055
:10488000416700081C00002041680C4B994210B59C
:10489000044601D001F054FFA168094B994202D0AF
:1048A000204601F04DFFE168064B994204D02046B6
:1048B000BDE8104001F044BF10BD00BF98080020C3
:1048C000000900206809002010B50B4B0B4C0C4A66
:1048D0001A60204600220421FFF7A6FF04F16800B9
:1048E00001220921FFF7A0FF04F1D0000222BDE858
:1048F00010401221FFF798BFD0090020980800202F
:1049000071480008014800F043BA00BFD9090020EF
:10491000014800F03EBA00BFD909002010B5044696
:10492000FFF7F0FF236A1BB1BDE81040FFF7F0BFAF
:10493000044B2362044B1B68002BF5D1FFF7C4FF27
:10494000F2E700BF89480008D00900202DE9F843AC
:104950000746884614460026D4E90195B9F10109B5
:1049600005D52468002CF7D13046BDE8F883AB8923
:10497000012B07D9B5F90E30013303D0294638464B
:10498000C04706436835E9E7036A70B584680546A1
:104990000E460BB9FFF7C2FF636EDB0705D4A38990
:1049A000980502D4A06D00F0F3F9A389190713D577
:1049B00023698BB1013EA36816F8011F013BA36078
:1049C000E9B9002B2EDA22460A21284600F0CFF85A
:1049D000013007D00A2507E02146284600F004F9F7
:1049E0000028E7D04FF0FF35636EDA0705D4A389BE
:1049F0009B0502D4A06D00F0CCF9284670BD002BB9
:104A000004DAA2699A4206DC0A2904D023685A1CF7
:104A100022601970CFE72246284600F0A8F801303E
:104A2000C9D1DFE723680A255A1C22601D70DBE725
:104A3000024B01461868FFF7A7BF00BF68000020BF
:104A40000CB430B5174B0C1E1D689DB008DA8B23D3
:104A50002B604FF0FF301DB0BDE8304002B0704712
:104A60004FF40273ADF8143014BF04F1FF33234642
:104A7000049307934FF6FF7302900690ADF816303B
:104A8000209A21AB02A92846019301F0D5FC431CD2
:104A9000BCBF8B232B60002CDDD0029B00221A7040
:104AA000D9E700BF680000200EB400B59CB01DAB74
:104AB000029006906FF0004109480791049109495E
:104AC00053F8042B05910068019302A901F0B4FC8E
:104AD000029B00221A701CB05DF804EB03B0704713
:104AE000680000200802FFFF10B50C46B1F90E1057
:104AF00000F000F90028ABBF636DA3891B1823F4F5
:104B00008053ACBF6365A38110BD2DE9F0411F4602
:104B10008B89DB0505460C46164605D5B1F90E1006
:104B20000223002200F0D4F8A389B4F90E1023F474
:104B30008053A38132463B462846BDE8F04100F051
:104B4000EBB810B50C46B1F90E1000F0C1F8431CDB
:104B5000A38915BF606523F4805343F48053A38178
:104B600018BFA38110BDB1F90E1000F0A1B8F8B5BF
:104B70000E461446054618B1036A0BB9FFF7CEFE80
:104B8000A369A360A3891A0725D523691BB32368EA
:104B90002269981A6369F6B28342374604DC2146DB
:104BA000284601F0CDFDE0B9A368013BA36023686E
:104BB0005A1C22601E706269431C9A4204D0A38969
:104BC000DB0706D50A2E04D12146284601F0B8FDA0
:104BD00038B93846F8BD2146284600F005F80028C7
:104BE000D5D04FF0FF37F4E738B52A4B05461868A3
:104BF0000C4618B1036A0BB9FFF790FEA389B4F90C
:104C00000C20180722D4D90607D409232B6042F0C0
:104C10004003A3814FF0FF3034E0580712D5616B99
:104C200041B104F14403994202D0284600F02EFF1E
:104C300000236363A38923F02403A381002363601B
:104C400023692360A38943F00803A38123694BB937
:104C5000A38903F42073B3F5007F03D021462846CF
:104C600001F0BCFDA089B4F90C2010F001030AD0BA
:104C70000023A36063695B42A361236943B910F019
:104C80008000C4D138BD810758BF6369A360F4E7D1
:104C90000020F7E76800002002440346934200D159
:104CA000704703F8011BF9E7004870475C010020DA
:104CB00038B5064D0023044608462B60FDF760F921
:104CC000431C02D12B6803B1236038BDD4090020F6
:104CD00038B5074D04460846114600222A601A4698
:104CE000FDF758F9431C02D12B6803B1236038BD8E
:104CF000D409002038B5074D044608461146002265
:104D00002A601A46FDF720F9431C02D12B6803B133
:104D1000236038BDD409002038B5074D0446084645
:104D2000114600222A601A46FDF71CF9431C02D1E5
:104D30002B6803B1236038BDD4090020014B1868EB
:104D4000704700BF6800002070B50D4D0D4C641B0E
:104D5000A4100026A64209D10B4D0C4C01F0FEFF19
:104D6000641BA4100026A64205D170BD55F8043B73
:104D700098470136EEE755F8043B98470136F2E7CD
:104D8000147C0008147C0008147C0008187C0008BF
:104D9000704770472DE9F74F03690C69A342074636
:104DA0007EDB013C01F1140800F1140505EB8403DE
:104DB000019358F8243055F8242001339A424FEAE1
:104DC000840B08EB8409B2FBF3F631D34FF0000EED
:104DD0004046AC46F24650F8042B93B206FB03E380
:104DE0004FEA124E1A0C9BB2AAEB0303DCF800A0A8
:104DF00013FA8AF306FB0E220093009B4FEA124E31
:104E000092B2C2EB1A4202EB2342BDF80030814558
:104E100043EA02434CF8043B4FEA224ADBD255F8FE
:104E20000B302BB9019B043B9D421A462CD33C61AD
:104E3000384601F0A7F9002822DB01362946002078
:104E400058F8042BD1F800C093B2C31A120C13FA0D
:104E50008CF3C2EB1C4202EB23429BB243EA0243B7
:104E6000C14541F8043B4FEA2240E9D255F82420DD
:104E700005EB840322B9043B9D421A460AD33C61E8
:104E8000304603B0BDE8F08F1268043B002ACED153
:104E9000013CC9E71268043B002AF0D1013CEBE772
:104EA0000020EEE7000000002DE9F04F2DED048B0F
:104EB000C56993B08DED020B57EC106BDDF8808067
:104EC000079104460A920D9375B9102000F02AFE4E
:104ED0000246E06120B9AE4BEF21AE4801F014FD6F
:104EE000C0E901550560C560E369196851B15A68A8
:104EF0004A60012393408B60204600F007FFE3697E
:104F000000221A603B1EBBBF23F000430393002323
:104F10000122ACBFC8F80030C8F800209E4BDDF875
:104F20000C8033EA08031BD10D9A42F20F73136011
:104F3000C8F31303334300F09385219B63B9974B68
:104F400027E0974B00930833219A1360009813B021
:104F5000BDEC048BBDE8F08F904B00930333F3E777
:104F60009DED027B002251EC170BB0EE478AF0EE6C
:104F7000678A0023FBF7A8FD814660B10D9A0123E3
:104F80001360219B002B00F06885864B219A1360EB
:104F9000013B0093DAE710AA11A92046B0EE480AB7
:104FA000F0EE680A01F094F9C8F30A558246002D24
:104FB0007FD018EE903AC3F3130343F07F5351ECC4
:104FC000180B43F44013A5F2FF35CDF8389019467D
:104FD0000022754BFBF758F967A3D3E90023FBF7D1
:104FE0000BFB67A3D3E90023FBF750F906462846DD
:104FF0000F46FBF797FA64A3D3E90023FBF7FCFA0B
:1050000002460B4630463946FBF740F906460F4646
:10501000FBF7A2FD00228346002330463946FBF70A
:105020005DFD48B15846FBF77DFA32463B46FBF73B
:105030004BFD08B90BF1FF3BBBF1160F57D85B4B8B
:1050400003EBCB03D3E9002351EC180BFBF746FD30
:1050500000284ED00BF1FF3B00230C93109B5B1BF1
:105060005A1E45BFC3F10103059300230023069296
:1050700054BF05930693BBF1000F3CDB069BCDF8B4
:105080002CB05B44069300230893079B092B68D838
:10509000052BC4BF043B0793079BA3F10203CCBFBE
:1050A00000250125032B00F28580DFE803F02E3B6D
:1050B0003958DDE910531D4405F23243202BC1BF9E
:1050C000C3F1400308FA03F805F2124326FA03F38A
:1050D000D6BFC3F1200348EA030006FA03F0FBF74A
:1050E00011FA0122A1F1F873013D0E926FE701233D
:1050F000B3E70C90B2E7059BA3EB0B030593CBF151
:105100000003089300230B93BFE7002309930A9B36
:10511000002B52DC0123019304931A460A920BE000
:105120000123F3E7002309930A9B5B4401930133B6
:10513000012B0493B8BF0123E0690021042202F18E
:1051400014069E423DD94160204600F09FFD00902C
:10515000002839D1164B024640F2AF11BDE60123BB
:10516000E1E701250023079309954FF0FF330193F1
:10517000049300221223D1E761436F63A787D23FD4
:10518000B3C8608B288AC63FFB799F501344D33F36
:10519000DF780008F67800080000F07FDB78000870
:1051A000D2780008AF7800080000F83FE0790008E6
:1051B0004E79000801230993D7E70A9B01930493D2
:1051C000BAE701315200BAE7E369009A1A60049B1A
:1051D0000E2B00F2A880002D00F0A580BBF1000F7F
:1051E00038DDC04B0BF00F0203EBC2031BF4807FD2
:1051F000D3E900674FEA2B1819D0BB4B51EC180BC1
:10520000D3E90823FBF722FBCDE9020108F00F08E0
:105210000325DFF8D492B8F1000F0AD1DDE90201CD
:1052200032463B46FBF712FBCDE902012BE002259B
:10523000EFE718F0010F08D030463946D9E90023CE
:10524000FBF7DAF9013506460F464FEA680809F11F
:105250000809E0E700F09F80CBF10006A14BA24FC8
:1052600006F00F0203EBC203D3E9002351EC180B45
:10527000FBF7C2F9CDE90201361100230225002E09
:105280007ED1002BD0D10C9BDDE90289002B00F0F0
:105290008480964B002240464946FBF71FFC0028BD
:1052A0007BD0049B002B78D0019B002B39DD904BE9
:1052B000002240464946FBF79FF9CDE90201019ED5
:1052C0000BF1FF370135DDE902892846FBF72AF9A2
:1052D00042464B46FBF790F9864B0022FAF7D6FF81
:1052E000A1F15073CDE902010393002E58D1824BF6
:1052F000002240464946FAF7C7FFDDE9022380460F
:105300008946FBF709FC002840F09682DDE902217E
:10531000404601F100434946FBF7E0FB002840F01E
:1053200089828DED028B119B002BC0F24E81BBF167
:105330000E0F00F34A816B4B03EBCB03D3E90089DB
:105340000A9B002B80F2DC80049B002B00F3D880AA
:1053500040F06F82684B002240464946FBF74CF90B
:10536000DDE90223FBF7CEFB049E3746002840F020
:105370004582009D312305F8013B0BF1010B41E211
:10538000F20705D5D7E90023FBF736F901350123EC
:105390007610083773E7022575E7049E5F4692E7AB
:1053A0000099504B9DED027B314402910999B0EE7A
:1053B000479AF0EE679A03EBC60353E902230029EC
:1053C00044D04E490020FBF741FA53EC192BFAF771
:1053D0005BFF009D41EC190B49464046FBF7BCFBC7
:1053E0000646FBF79FF802460B4640464946FAF749
:1053F0004BFF303605F8016B53EC192B804689467C
:10540000FBF76CFB002864D142464B46374900202D
:10541000FAF73AFF53EC192BFBF760FB002840F03A
:10542000B680029B9D423FF47CAF314B51EC190B8F
:105430000022FBF7E1F82E4B41EC190B002240460D
:105440004946FBF7D9F880468946C5E751EC170B6A
:10545000FBF7D2F8029B009D0F9341EC190B4946D4
:105460004046FBF779FB0646FBF75CF83036024610
:105470000B4640464946FAF707FF05F8016B029BC9
:105480009D42804689464FF0000224D11B4B51ECCF
:10549000190BFAF7FBFE02460B4640464946FBF75E
:1054A0003BFB002873D153EC192B14490020FAF769
:1054B000EBFE02460B4640464946FBF70FFB002831
:1054C0003FF42FAF0F9D6B1E0F9315F8013C302B4F
:1054D000F8D0BB464AE0064BFBF78EF8804689467B
:1054E000BDE700BFE0790008B87900080000F03F90
:1054F0000000244000001C40000014400000E03F79
:10550000DDE90267009D42464B4630463946FBF7CF
:105510009DF9FBF721FB0190FBF704F842464B464F
:10552000FBF76AF802460B4630463946FAF7ACFEFE
:10553000019E049F303605F8016B009EAE1BB742FA
:1055400002460B4634D1FAF7A1FE42464B460646C8
:105550000F46FBF7E1FAC8B942464B46304639469A
:10556000FBF7B2FA10B1019BDB070FD4514620467E
:1055700000F0CCFB00230D9A2B700BF1010313609C
:10558000219B002B3FF4E2AC1D60DFE45F462B461D
:105590001D4613F8012D392A06D1009A9A42F7D1F7
:1055A0000099302201370A701A7801321A7090E798
:1055B000A34B0022FBF720F80022002306460F46EB
:1055C000FBF782FA00289ED0D0E7099A002A00F063
:1055D000CA80079A012A00F3AD800E9A002A00F0D3
:1055E000A58003F23343089E059D059A1A4405924F
:1055F000069A01211A442046069200F03DFC074617
:1056000065B1069B002B09DDAB42059AA8BF2B466E
:10561000D21A0592069AED1AD31A0693089BF3B193
:10562000099B002B00F0A380002E10DD3946324686
:10563000204600F0E1FC524601460746204600F0B5
:1056400031FC51468046204600F060FBC246089B74
:105650009A1B04D05146204600F0CEFC8246012120
:10566000204600F009FC0B9B002B064640F381808E
:105670001A460146204600F0BFFC079B012B064658
:105680007ADD4FF00008336906EB8303186900F0F8
:10569000A5FBC0F12000069B184410F01F0000F08D
:1056A0009480C0F12003042B40F38580059BC0F15A
:1056B0001C0003440593069B034405440693059B85
:1056C000002B05DD51461A46204600F0EFFC8246CD
:1056D000069B002B05DD31461A46204600F0E6FC0D
:1056E00006460C9B002B72D03146504600F04AFD16
:1056F00000286CDA002351460A22204600F028FBDD
:10570000099B0BF1FF3B8246002B00F0B081002388
:1057100039460A22204600F01BFB019B002B07465E
:1057200000F39680079B022B59DC91E0109BC3F19C
:10573000360358E7049B5E1E089BB342BFBF089B1D
:105740000B9A0896F31AB4BFD2189E1B049BBCBFD9
:105750000B920026002BB7BFDDE90423DDE90435F9
:105760009D1A002341E7089E059D099F48E7089A76
:1057700070E7079B012B19DC029BBBB9039BC3F3AA
:1057800013039BB9039B23F000431B0D1B0583B13F
:10579000059B01330593069B013306934FF00108E7
:1057A0000B9B002B7FF46FAF012074E74FF00008D4
:1057B000F6E79846F4E782D0059A1C331A4405921E
:1057C000069A1A441D44069279E70346F4E7049BBF
:1057D000002B37DC079B022B34DD049B0193019BDC
:1057E00063B931460522204600F0B2FA014606466A
:1057F000504600F0C7FC00283FF7BBAD0A9B009D58
:105800006FEA030B4FF000083146204600F07EFAA5
:10581000002F3FF4ABAEB8F1000F05D0B84503D070
:105820004146204600F072FA3946204600F06EFAF2
:105830009CE600263746E1E7BB46374699E500BFC0
:1058400000002440099B002B00F0C880049B0193BA
:10585000002D05DD39462A46204600F027FC074684
:10586000B8F1000F5BD07968204600F00FFA0546CA
:1058700028B9834B024640F2EF21FFF72EBB3A696D
:105880000232920007F10C010C3001F02FF80122D6
:105890002946204600F00AFC009B01330493DDE911
:1058A000002313440893029B03F00103B8460693B8
:1058B0000746049B3146013B50460193FFF76AFAC5
:1058C0004146029000F13009504600F05BFC3A4638
:1058D00005903146204600F071FCC268054602BBC7
:1058E0000146504600F04EFC0246294620460992E9
:1058F00000F00CFA079B099A049D43EA0201069BFB
:10590000194310D1B9F1390F29D0059B002B02DDC5
:10591000029B03F13109019B83F8009074E738463C
:10592000BAE70122E1E7059B002B04DB07990B4353
:1059300006990B4320D1002AEDDD51460122204675
:1059400000F0B4FB3146824600F01CFC002803DC6A
:10595000E1D119F0010FDED0B9F1390FD8D1019A98
:10596000392313702B461D46013B15F8012C392AAB
:105970006CD001321A7047E7002A07DDB9F1390F00
:10598000EDD0019A09F1010313703DE7049B089AD9
:1059900003F8019C934243D0514600230A2220463B
:1059A00000F0D6F9B84582464FF000034FF00A02E6
:1059B0004146204607D100F0CBF980460746049BBC
:1059C0000133049375E700F0C3F93946804600239C
:1059D0000A22204600F0BCF90746F0E7049B019339
:1059E000009D31465046FFF7D5F900F13009009B84
:1059F00005F8019BEA1A019B934207DD51460023FB
:105A00000A22204600F0A4F98246EAE7019B002B17
:105A1000C8BF1D46009BD8BF01251D444FF000089C
:105A200051460122204600F041FB3146824600F0FB
:105A3000A9FB002896DC02D119F0010F92D12B4668
:105A40001D4613F8012D302AFAD0DDE6009A9A425D
:105A500089D10BF1010B312396E70A4BFFF799BA75
:105A6000219B002B7FF46DAA074BFFF792BA019B95
:105A7000002BB5DC079B022B3FF7B1AEB0E700BFB0
:105A80004E790008AE780008D278000837B50029B2
:105A900044D051F8043C0190002BA1F10404B8BF9C
:105AA000E41800F0E7F81E4A0198136833B9636000
:105AB000146003B0BDE8304000F0E2B8A34208D95A
:105AC000256861198B4201BF19685B68491921601B
:105AD000EDE71A465B680BB1A342FAD91168551875
