:020000040800F2
:1000000000000220393000083D2F00083F2F000873
:10001000412F0008432F0008452F00080000000072
:100020000000000000000000000000001166000851
:10003000472F000800000000A1660008492F0008B3
:1000400089300008893000088930000889300008AC
:100050008930000889300008612F000889300008C5
:10006000893000088930000889300008893000088C
:10007000893000088930000889300008893000087C
:10008000893000088930000889300008893000086C
:10009000893000088930000889300008893000085C
:1000A000893000088930000889300008893000084C
:1000B000893000088930000889300008893000083C
:1000C000893000088930000889300008893000082C
:1000D000893000088930000889300008893000081C
:1000E000893000088930000889300008893000080C
:1000F0008930000889300008692F0008893000081D
:1001000089300008893000088930000889300008EB
:1001100089300008893000088930000889300008DB
:1001200089300008893000088930000889300008CB
:1001300089300008893000088930000889300008BB
:1001400089300008893000088930000889300008AB
:10015000893000088930000889300008893000089B
:10016000893000088930000889300008893000088B
:10017000893000088930000889300008000000003C
:080180008930000889300008F5
:1001900010B5054C237833B9044B13B10448AFF3C1
:1001A00000800123237010BD180200200000000011
:1001B000DC9F000808B5034B1BB103490348AFF3AC
:1001C000008008BD000000001C020020DC9F000829
:1001D00001F0FF01102A2BDB10F0070F08D010F8F8
:1001E000013B013A8B422DD010F0070F42B3F6D1FC
:1001F000F0B441EA012141EA014122F007047FF015
:1002000000070023F0E80256083C85EA010586EA6B
:10021000010685FA47F5A3FA87F586FA47F6A5FAA7
:1002200087F68EB9EED1F0BC01F0FF0102F00702B3
:1002300032B110F8013B013A83EA010313B1F8D15E
:100240000020704701387047002D06BF354603383F
:10025000073815F0010F07D1013015F4807F02BF78
:10026000013015F4C03F0130F0BC0138704700BFC9
:10027000034613F8012B002AFBD1181A01387047E6
:1002800081F0004102E000BF83F0004330B54FEA47
:1002900041044FEA430594EA050F08BF90EA020FB4
:1002A0001FBF54EA000C55EA020C7FEA645C7FEA47
:1002B000655C00F0E2804FEA5454D4EB5555B8BF6A
:1002C0006D420CDD2C4480EA020281EA030382EADB
:1002D000000083EA010180EA020281EA0303362D6D
:1002E00088BF30BD11F0004F4FEA01314FF4801C40
:1002F0004CEA113102D0404261EB410113F0004F52
:100300004FEA03334CEA133302D0524263EB430308
:1003100094EA050F00F0A780A4F10104D5F1200EA6
:100320000DDB02FA0EFC22FA05F2801841F1000101
:1003300003FA0EF2801843FA05F359410EE0A5F1D5
:1003400020050EF1200E012A03FA0EFC28BF4CF006
:10035000020C43FA05F3C01851EBE37101F00045BC
:1003600007D54FF0000EDCF1000C7EEB00006EEBC9
:100370000101B1F5801F1BD3B1F5001F0CD3490853
:100380005FEA30004FEA3C0C04F101044FEA4452AA
:1003900012F5800F80F09A80BCF1004F08BF5FEA31
:1003A000500C50F1000041EB045141EA050130BD11
:1003B0005FEA4C0C404141EB0101013C28BFB1F523
:1003C000801FE9D291F0000F04BF01460020B1FA6E
:1003D00081F308BF2033A3F10B03B3F120020CDA41
:1003E0000C3208DD02F1140CC2F10C0201FA0CF01F
:1003F00021FA02F10CE002F11402D8BFC2F1200C84
:1004000001FA02F120FA0CFCDCBF41EA0C01904039
:10041000E41AA2BF01EB0451294330BD6FEA040482
:100420001F3C1CDA0C340EDC04F11404C4F120026D
:1004300020FA04F001FA02F340EA030021FA04F37F
:1004400045EA030130BDC4F10C04C4F1200220FAD6
:1004500002F001FA04F340EA0300294630BD21FA14
:1004600004F0294630BD94F0000F83F4801306BFDA
:1004700081F480110134013D4EE77FEA645C18BFCE
:100480007FEA655C29D094EA050F08BF90EA020F65
:1004900005D054EA000C04BF1946104630BD91EA5D
:1004A000030F1EBF0021002030BD5FEA545C05D160
:1004B0004000494128BF41F0004130BD14F580049F
:1004C0003CBF01F5801130BD01F0004545F0FE4113
:1004D00041F470014FF0000030BD7FEA645C1ABF48
:1004E000194610467FEA655C1CBF0B46024650EA7F
:1004F000013406BF52EA033591EA030F41F40021AB
:1005000030BD00BF90F0000F04BF0021704730B530
:100510004FF4806404F132044FF000054FF0000105
:1005200050E700BF90F0000F04BF0021704730B5C6
:100530004FF4806404F1320410F0004548BF40429B
:100540004FF000013EE700BF42004FEAE2014FEAF0
:1005500031014FEA02701FBF12F07F4393F07F4FCB
:1005600081F06051704732F07F4208BF704793F0CE
:100570007F4F04BF41F40021704730B54FF46074E1
:1005800001F0004521F000411CE700BF50EA0102E4
:1005900008BF704730B54FF000050AE050EA01028D
:1005A00008BF704730B511F0004502D5404261EBFD
:1005B00041014FF4806404F132045FEA915C3FF43E
:1005C000D8AE4FF003025FEADC0C18BF03325FEADB
:1005D000DC0C18BF033202EBDC02C2F1200300FA8C
:1005E00003FC20FA02F001FA03FE40EA0E0021FAB1
:1005F00002F11444BDE600BF70B54FF0FF0C4CF49F
:10060000E06C1CEA11541DBF1CEA135594EA0C0F50
:1006100095EA0C0F00F0DEF82C4481EA030621EA8B
:100620004C5123EA4C5350EA013518BF52EA0335C6
:1006300041F4801143F4801338D0A0FB02CE4FF078
:100640000005E1FB02E506F00042E0FB03E54FF0A8
:100650000006E1FB03569CF0000F18BF4EF0010EA0
:10066000A4F1FF04B6F5007F64F5407404D25FEA9C
:100670004E0E6D4146EB060642EAC62141EA55514F
:100680004FEAC52040EA5E504FEACE2EB4F1FD0C91
:1006900088BFBCF5E06F1ED8BEF1004F08BF5FEA0F
:1006A000500E50F1000041EB045170BD06F00046C1
:1006B00046EA010140EA020081EA0301B4EB5C046E
:1006C000C2BFD4EB0C0541EA045170BD41F4801166
:1006D0004FF0000E013C00F3AB8014F1360FDEBF8B
:1006E000002001F0004170BDC4F10004203C35DA67
:1006F0000C341BDC04F11404C4F1200500FA05F3EA
:1007000020FA04F001FA05F240EA020001F000428A
:1007100021F0004110EBD37021FA04F642EB060100
:100720005EEA430E08BF20EAD37070BDC4F10C042A
:10073000C4F1200500FA04F320FA05F001FA04F2EE
:1007400040EA020001F0004110EBD37041F10001DA
:100750005EEA430E08BF20EAD37070BDC4F12005E5
:1007600000FA05F24EEA020E20FA04F301FA05F24D
:1007700043EA020321FA04F001F0004121FA04F2F5
:1007800020EA020000EBD3705EEA430E08BF20EAC5
:10079000D37070BD94F0000F0FD101F000464000FF
:1007A00041EB010111F4801F08BF013CF7D041EA81
:1007B000060195F0000F18BF704703F00046520085
:1007C00043EB030313F4801F08BF013DF7D043EA56
:1007D0000603704794EA0C0F0CEA135518BF95EA0C
:1007E0000C0F0CD050EA410618BF52EA4306D1D193
:1007F00081EA030101F000414FF0000070BD50EAB2
:10080000410606BF1046194652EA430619D094EA3B
:100810000C0F02D150EA013613D195EA0C0F05D125
:1008200052EA03361CBF104619460AD181EA030179
:1008300001F0004141F0FE4141F470014FF0000031
:1008400070BD41F0FE4141F4780170BD70B54FF0CC
:10085000FF0C4CF4E06C1CEA11541DBF1CEA13554C
:1008600094EA0C0F95EA0C0F00F0A7F8A4EB05042E
:1008700081EA030E52EA03354FEA013100F0888025
:100880004FEA03334FF0805545EA131343EA1263EE
:100890004FEA022245EA111545EA10654FEA0026A3
:1008A0000EF000419D4208BF964244F1FD0404F55C
:1008B000407402D25B084FEA3202B61A65EB0305B8
:1008C0005B084FEA32024FF480104FF4002CB6EB75
:1008D000020E75EB030E22BFB61A754640EA0C00F5
:1008E0005B084FEA3202B6EB020E75EB030E22BF35
:1008F000B61A754640EA5C005B084FEA3202B6EB76
:10090000020E75EB030E22BFB61A754640EA9C0034
:100910005B084FEA3202B6EB020E75EB030E22BF04
:10092000B61A754640EADC0055EA060E18D04FEAC2
:10093000051545EA16754FEA06164FEAC30343EA62
:1009400052734FEAC2025FEA1C1CC0D111F4801F2F
:100950000BD141EA00014FF000004FF0004CB6E728
:1009600011F4801F04BF01430020B4F1FD0C88BFC7
:10097000BCF5E06F3FF6AFAEB5EB030C04BFB6EBD2
:10098000020C5FEA500C50F1000041EB045170BDC5
:100990000EF0004E4EEA113114EB5C04C2BFD4EBF2
:1009A0000C0541EA045170BD41F480114FF0000E76
:1009B000013C90E645EA060E8DE60CEA135594EAF2
:1009C0000C0F08BF95EA0C0F3FF43BAF94EA0C0FF5
:1009D0000AD150EA01347FF434AF95EA0C0F7FF46A
:1009E00025AF104619462CE795EA0C0F06D152EABE
:1009F00003353FF4FDAE1046194622E750EA4106A2
:100A000018BF52EA43067FF4C5AE50EA41047FF4B2
:100A10000DAF52EA43057FF4EBAE12E74FF0FF3C17
:100A200006E000BF4FF0010C02E000BF4FF0010CE8
:100A30004DF804CD4FEA410C7FEA6C5C4FEA430C61
:100A400018BF7FEA6C5C1BD001B050EA410C0CBFB0
:100A500052EA430C91EA030F02BF90EA020F002012
:100A6000704710F1000F91EA030F58BF994208BF79
:100A700090422CBFD8176FEAE37040F00100704736
:100A80004FEA410C7FEA6C5C02D150EA013C07D18D
:100A90004FEA430C7FEA6C5CD6D152EA033CD3D0D8
:100AA0005DF8040B704700BF8446104662468C46D2
:100AB0001946634600E000BF01B5FFF7B7FF002805
:100AC00048BF10F1000F01BD4DF808EDFFF7F4FF2E
:100AD0000CBF012000205DF808FB00BF4DF808EDB9
:100AE000FFF7EAFF34BF012000205DF808FB00BFDC
:100AF0004DF808EDFFF7E0FF94BF012000205DF8FE
:100B000008FB00BF4DF808EDFFF7CEFF94BF0120B2
:100B100000205DF808FB00BF4DF808EDFFF7C4FFAB
:100B200034BF012000205DF808FB00BF4FEA410CF4
:100B30007FEA6C5C02D150EA013C0AD14FEA430CD7
:100B40007FEA6C5C02D152EA033C02D14FF0000014
:100B500070474FF0010070474FEA410212F5001252
:100B600015D211D56FF47873B3EB625212D94FEAF4
:100B7000C12343F0004343EA505311F0004F23FADE
:100B800002F018BF404270474FF00000704750EA33
:100B9000013005D111F0004008BF6FF000407047F0
:100BA0004FF00000704700BF4A0011D212F500124A
:100BB00011D20DD56FF47873B3EB62520ED44FEAB5
:100BC000C12343F0004343EA505323FA02F0704735
:100BD0004FF00000704750EA013002D14FF0FF3073
:100BE00070474FF0000070474FEA4102B2F1E04316
:100BF00024BFB3F5001CDCF1FE5C0DD901F0004C04
:100C00004FEAC0024CEA5070B2F1004F40EB830053
:100C100008BF20F00100704711F0804F21D113F17F
:100C20003872BCBF01F00040704741F480114FEAB8
:100C30005252C2F11802C2F1200C10FA0CF320FA41
:100C400002F018BF40F001004FEAC1234FEAD3235E
:100C500003FA0CFC40EA0C0023FA02F34FEA4303C8
:100C6000CCE77FEA625307D150EA01331EBF4FF051
:100C7000FE4040F44000704701F0004040F0FE406C
:100C800040F40000704700BF53B94AB9002908BFBB
:100C900000281CBF4FF0FF314FF0FF3000F070B95B
:100CA000ADF1080C6DE904CE00F006F8DDF804E0C3
:100CB000DDE9022304B070472DE9F047089E0D4698
:100CC00004460F46002B4AD18A42944665D9B2FAAF
:100CD00082F343B102FA03FCC3F120029F4020FAE1
:100CE00002F217439C404FEA1C4E1FFA8CF5B7FBEB
:100CF000FEF1220C0EFB117742EA074201FB05F0E0
:100D000090420AD91CEB020201F1FF3780F01C81EE
:100D1000904240F2198102396244121AA4B2B2FB25
:100D2000FEF00EFB102244EA024400FB05F5A5424A
:100D30000AD91CEB040400F1FF3280F00781A542C0
:100D400040F204816444023840EA0140641B0021FF
:100D50001EB1DC400023C6E90043BDE8F0878B42AA
:100D600008D9002E00F0ED800021C6E900050846F4
:100D7000BDE8F087B3FA83F1002949D1AB4202D331
:100D8000824200F2F880841A65EB030201201746C4
:100D9000002EE2D0C6E90047DFE702B9FFDEB2FA73
:100DA00082F3002B40F090808A1A4FEA1C471FFA0A
:100DB0008CFE0121B2FBF7F507FB1520220C42EA5D
:100DC00000420EFB05F0904208D91CEB020205F12F
:100DD000FF3802D2904200F2CB804546121AA4B2EC
:100DE000B2FBF7F007FB102244EA02440EFB00FEC0
:100DF000A64508D91CEB040400F1FF3202D2A64537
:100E000000F2BB801046A4EB0E0440EA05409FE7C9
:100E1000C1F120078B4022FA07FC4CEA030C05FACB
:100E200001F420FA07F3FD404FEA1C492343B5FBC8
:100E3000F9F81FFA8CFE09FB18551C0C44EA05440E
:100E400008FB0EF5A54202FA01F200FA01F00BD9F7
:100E50001CEB040408F1FF3A80F08880A54240F2C0
:100E60008580A8F102086444641B9DB2B4FBF9F3C9
:100E700009FB134445EA044403FB0EFEA64508D9CA
:100E80001CEB040403F1FF356CD2A6456AD9023B82
:100E9000644443EA0843A3FB0295A4EB0E04AC426E
:100EA000C846AE4656D353D056B1B0EB080264EBF9
:100EB0000E0404FA07F7CA40CC401743C6E9007491
:100EC00018460021BDE8F087C3F1200102FA03FCB7
:100ED00020FA01F225FA01F19D402A434FEA1C470E
:100EE0001FFA8CFEB1FBF7F007FB1015110C41EA5D
:100EF000054100FB0EF58D4204FA03F408D91CEB02
:100F0000010100F1FF382FD28D422DD90238614402
:100F1000491B92B2B1FBF7F507FB151142EA0142FA
:100F200005FB0EF1914208D91CEB020205F1FF38D6
:100F300016D2914214D9023D6244521A45EA004148
:100F400038E73146304608E73946E6E61046FBE624
:100F50004845A9D2B9EB020865EB0C0E013BA3E7AB
:100F60004546EAE72B4694E74046D1E7D0467BE783
:100F7000023D624432E708460AE76444023842E729
:100F8000704700BF7FB501238DF817206422CDE99B
:100F900001320DF11702009200680A46D02102F0DA
:100FA000B7FC07B05DF804FB1FB54FF0640C0123DC
:100FB000CDE9013C009200680A46D02102F038FDDC
:100FC00005B05DF804FB000073B5002201607F21CD
:100FD0000446FFF7D7FF404D0DF1060228700021AF
:100FE0002046FFF7E1FF002228707F212046FFF70F
:100FF000C9FF28700A2002F099F801220621204634
:10100000FFF7C0FF28700A2002F090F83F22072166
:101010002046FFF7B7FF28700A2002F087F8002269
:1010200007212046FFF7AEFF01222870102120463D
:10103000FFF7A8FF002628700DF107020F212046B8
:101040008DF80760FFF7B0FF9DF807200F2142F0F1
:1010500002022046FFF796FF20227F212046FFF75D
:1010600091FF3246287031462046FFF78BFF37222A
:10107000287001212046FFF785FF062228700221F3
:101080002046FFF77FFF1022287011212046FFF72E
:1010900079FF3246287010212046FFF773FF312276
:1010A000287014212046FFF76DFF32462870532127
:1010B0002046FFF767FF032215212046FFF762FF56
:1010C00032467F212046FFF75DFF2870642002F042
:1010D0002DF8304602B070BD340200207FB50123E8
:1010E0008DF817206422CDE901320DF1170200922C
:1010F00000680A46182102F00BFC07B05DF804FBFB
:10110000F7B5002301AA2E210446ADF80430FFF7FD
:101110004BFF264F0DF1050238702D212046FFF7B9
:1011200043FF01AA387030212046BDF90460FFF763
:101130003BFF0DF1050238702F212046FFF734FFE9
:1011400001AA387032212046BDF90450FFF72CFF68
:101150000DF10502387031212046FFF725FF07EE1B
:10116000106A9FED136ADFED136ABDF90430387021
:10117000B8EEC77A07EE903A27EE067AF8EEE77AED
:1011800027EE267A67EE867A84ED017A07EE105A0A
:10119000B8EEC77A67EEA67A27EE067AC4ED037A30
:1011A00027EE267A84ED027A03B0F0BD34020020E7
:1011B00000008038C3F51C412DE9F7430024DFF817
:1011C000C080ADF8044005464FF02009264627466A
:1011D00001AA34212846FFF7E7FE0DF1050233216D
:1011E0002846FFF7E1FEBDF8043001203B441FB262
:1011F00001F09CFF01AA36212846FFF7D5FE0DF12C
:10120000050235212846FFF7CFFEBDF80430012046
:1012100033441EB201F08AFF01AA38212846FFF7A5
:10122000C3FE0DF1050237212846FFF7BDFEBDF8CC
:10123000043088F800002344192009F1FF391CB25A
:1012400001F074FF19F0FF09C2D17F1107EE907A07
:10125000F8EEE77A7611C5ED0D7A07EE906AF8EEB2
:10126000E77A6411C5ED0E7A07EE904A98F800000F
:10127000F8EEE77AC5ED0F7A03B0BDE8F08300BF62
:1012800034020020F7B5002301AA36210446ADF848
:101290000430FFF789FE284F0DF105023870352123
:1012A0002046FFF781FE01AA387038212046BDF99B
:1012B0000460FFF779FE0DF10502387037212046F2
:1012C000FFF772FE01AA387034212046BDF90450A0
:1012D000FFF76AFE0DF10502387033212046FFF753
:1012E00063FE07EE906AB8EEE77AD4ED0E7AD4ED9D
:1012F0000F6ABDF9043094ED0D6A387037EE677AE5
:1013000007EE905AF8EEE77A77EEE67A06EE903A34
:10131000F8EEE66A76EEC66A9FED086A66EE866AC1
:1013200027EE067A67EE867AC4ED046A84ED057AC4
:10133000C4ED067A03B0F0BD340200202D237A3DBF
:1013400002223121FFF7CABEF0B589B001F052FB8D
:1013500001F038FA002101240846674A01F0B8FA82
:1013600001F044FA1523332210212E20009401F0BD
:10137000CEFA212333221C212E20009401F0C7FA3B
:101380002D23332228212E20009401F0C0FA392386
:10139000332234212E20009401F0B9FA3A2203219D
:1013A000372001F018FB554A0D21204601F090FA34
:1013B000534A1921204601F08BFA524A2521204632
:1013C00001F086FA504A3121204601F081FA4F4A55
:1013D00000213C2001F07CFA4D4A0C213C2001F018
:1013E00077FA00274B4A24213C2001F071FA01F0E2
:1013F000C7F9CDE90577ADF81C70474D0097142368
:10140000322211212F2001F0A7FA2B7800933222EB
:1014100020231D212F2001F09FFAAB780093322268
:101420002C2329212F2001F097FA3C4EEB780093D2
:101430003222382335212F2001F08EFA3368002420
:101440009869ADF81C40CDE90544FFF77DF8344AB2
:10145000CDE900010A2105A806F0ECFCA9780029D5
:1014600048D005AA2146502001F032FA0024736AC0
:101470002C4AADF81C400A2105A8CDE9054406F028
:10148000D9FC05AA0C21732001F022FAB068ADF84E
:101490001C40CDE90544FFF757F8CDE9020170681B
:1014A000FFF752F8204ACDE900010A2105A806F00D
:1014B000C1FC05AA1821412001F00AFA3069ADF8F3
:1014C0001C40CDE90544FFF73FF8184ACDE900017B
:1014D0000A2105A806F0AEFC05AA2421552001F03A
:1014E000F7F901F04DF9FA2087F001072C6003F0BD
:1014F000DFFD82E70E4AB6E710A0000817A000083B
:101500001CA0000821A0000826A000082BA00008AD
:101510002EA0000835A00008B8030020C00300205A
:1015200039A0000844A0000847A0000854A0000803
:101530003FA0000808B50D4B0D48012283F8282074
:101540000C4ADA621A6300210B4A03F059FD0B4B77
:101550000B4A186000210B4803F052FD0A4B18603B
:10156000BDE80840094800F077BB00BFC003002079
:10157000491300080000204100A10008BC0300201E
:10158000DCA00008C9180008B403002050020020A5
:1015900062EE027A2DE9F04FE1EEA17ADFF81883CE
:1015A000DFF818A3DFF81893DFF818B3E2EEA27A99
:1015B0002DED108BDAED00AAD8ED00FA99ED00BA06
:1015C0009BED00AAF6EE009A2FEEA96A6AEEA96AD0
:1015D00083B017EE900AB0EE41CA13EE104AB0EE97
:1015E00061EAF0EE42DAB0EE628A8DED016ACDED8D
:1015F000006AF0EE40BAF0EE60CAFEF7A5FF41ECDB
:10160000100B05F073FA51EC100BFFF7EDFA07EE33
:10161000900A8EEE277A8DEEA75A7FEEAFEAC8EEDB
:10162000275A3BEE0BDA6EEEEA7A7AEEAA8AEAEEF7
:101630000D7AB7EE008A77EEC77AABEE4D8A2AEEC6
:10164000287AAAEEE88AABEE2E7A38EE658A37EE73
:10165000457A3AEE0A5A6EEE875A7DEE0D4AE7EE6B
:10166000855A67EEE8DAE8EE645AEDEE07DAB0EE96
:1016700065FA78EEA85A68EE878A28EE658AEDEE5C
:10168000278AA7EE058A2BEE299AAEEEE78A6FEE3F
:101690000F7A6AEE299AEDEEAD7AE8EE087AE8EE76
:1016A000A87A17EE900AFEF74FFF41EC100B05F0F9
:1016B0001DFA51EC100BFFF797FADDED006A9DED76
:1016C000016A07EE900A8DEEA7EA2046CFEE27DAF0
:1016D0002CEEE6FA88EE27DAA9EE6BFA2CEE498AB0
:1016E00029EE2C9AC8EEA7EAA6EE0C9A66EE8C8A32
:1016F000A9EECCFAE6EE2B8AA6EE2C8AA6EEEB9AA1
:10170000FEF722FF04461FEE100A0D46FEF71CFFEF
:1017100006461EEE100A0F46FEF716FF64A3D3E935
:101720000023FEF769FF02460B4630463946FEF7B6
:10173000ABFD22462B46FEF75FFF06461FEE900AE2
:101740000F46FEF701FF02460B4630463946FEF7CC
:101750009DFDE9EEEC8AFFF747FAA9EEAB8A09EEA8
:10176000900A18EE900AFEF7EFFE06461DEE900A6C
:101770000F46FEF7E9FE4EA3D3E90023FEF73CFF38
:1017800002460B4630463946FEF77EFD22462B4682
:10179000FEF732FF06461BEE100A0F46FEF7D4FE98
:1017A00002460B4630463946FEF770FDFFF71CFA3D
:1017B0000BEE100A18EE100AFEF7C6FE06461DEEE6
:1017C000100A0F46FEF7C0FE39A3D3E90023FEF747
:1017D00013FF02460B4630463946FEF755FD2246BA
:1017E0002B46FEF709FF06461AEE900A0F46FEF753
:1017F000ABFE02460B4630463946FEF747FDFFF783
:10180000F3F908EE900A19EE100AFEF79DFE06465F
:101810001EEE900A0F46FEF797FE25A3D3E900239C
:10182000FEF7EAFE02460B4630463946FEF72CFD2F
:1018300022462B46FEF7E0FE04461AEE100A0D463D
:10184000FEF782FE02460B4620462946FEF71EFDA5
:10185000FFF7CAF96BEE0B7A08EE100AE9EEA97AE7
:10186000E8EEA87AE8EE087A17EE900AFEF76CFE2A
:1018700041EC100B05F03AF951EC100BFFF7B4F9FD
:1018800007EE900A89EEA77A88ED007A8BEE277A28
:1018900089ED007A88EEA77A8AED007A88EE277AB9
:1018A0008BED007A03B0BDEC108BBDE8F08F00BF6C
:1018B0007DAC6B5A9CF48E3F000000203C0200205F
:1018C00038020020400200202DE9F0472DED068B64
:1018D000854C8649864E854FDFF84082DFF834928A
:1018E000B2B02046FFF770FB4FF4C87003F0E0FB86
:1018F0002046FFF761FC2046FFF722FD0021602211
:101900001AA81991346006F0C1FB7A4806F08AFAE9
:101910000125690089B20A230122384602F090F9B4
:1019200058B92A46414619A806F0B8FA4FF0FF33D5
:101930001A2219A9484603F0E1FA01357F2DE8D1B2
:1019400001F0EEFB0FF29819D9E90089664F9FED7F
:101950006AAA0546502003F0ABFB03F098FB38461B
:10196000FFF7CEFB3846FFF78DFC94ED040AD4ED6B
:10197000050A94ED061AD4ED011A94ED022AD4ED6D
:10198000032ACDED141A20EE0A0A60EE8A0A21EE2F
:101990000A1A8DED170ACDED160A8DED151A8DED8B
:1019A000132ACDED102A01F0BBFB431B03EE103AC6
:1019B000DFED527ADDED102A9DED132ADDED141ACC
:1019C0009DED151ADDED160A9DED170AB8EE433AA6
:1019D00023EE273AFFF7DCFD01F0A2FB484B93ED25
:1019E000008A484B84ED168AD3ED007A464BC4ED4D
:1019F000177AD3ED006A454BC4ED186A93ED007A6F
:101A0000336984ED197A68EE078A0546E7EEA68AFF
:101A1000736167EEA77AE8EE087AE6EEE67AE7EE1B
:101A2000477A17EE900AFEF78FFD78EEA87A41EC20
:101A3000190B17EE900AFEF787FDB0EE491AF0EE8B
:101A4000691A41EC100B05F04FF8424651EC100BAF
:101A50004B46FEF7D1FDFFF7C7F88246306160685C
:101A6000B561FEF771FD02460B467068CDE91023A3
:101A7000FEF76AFDCDE90E015046FEF765FDCDE9A2
:101A80000C0118EE100AFEF75FFDCDE90A01A0690E
:101A9000FEF75AFDCDE908016069FEF755FDCDE975
:101AA00006012069FEF750FDCDE90401E068FEF76C
:101AB0004BFDCDE90201A068FEF746FDDDE91023EC
:101AC000CDE90001124919A806F0E8F90A2382B20B
:101AD00019A9104803F012FA0F4B01229A7039E746
:101AE00000000020DCA54C40FC050020FC03002089
:101AF000C00300205AA0000835FA8E3C6F12833ACA
:101B000000000020380200203C020020400200209B
:101B10008AA00008B8050020B80300206DA00008C6
:101B200038B5244B9842044612D1234D2B6883B913
:101B3000042102F075FC214B186001232B602368FF
:101B40001A6A22F0A0021A621A6A42F020021A628D
:101B500038BD012BFCD1042102F062FC22689FED0C
:101B6000187A00235362154B1B689842BBBFC3F51C
:101B70007F43FF33C01AC01807EE900AF8EEE77AE9
:101B8000104B67EE877AB6EE007A186067EE877AB8
:101B90000D4B0848C3ED037A00232B60136A23F032
:101BA000A0031362136A13620421BDE8384003F0F6
:101BB00055B800BF280500204C0200204402002038
:101BC000287E0C3D48020020C00300200A2108B5F1
:101BD0000846002203F078FA054B06491860064BC8
:101BE00088621B680B600548BDE8084000F008B833
:101BF000AC03002004000020B003002050020020AD
:101C0000016070470368C2681B68FA205A6303F0DA
:101C10004FBA036802691B68FA205A6303F048BA96
:101C2000036842691B68FA205A6303F041BA70B531
:101C30001E46049B03610D46C0E90052C0E90263E1
:101C400011460446284603F007F83146284603F0BB
:101C500003F8204670BD0000F0B504468BB0182094
:101C600004F028FF40F2DD22064640F2FB23002567
:101C7000C6E903233448756040F2F22373612946B4
:101C8000306002F0E9FFE660142004F013FF4FF427
:101C9000FA672E49009706460C230822FFF7C7FF74
:101CA0006660142004F006FF00972A4628490423A2
:101CB0000646FFF7BCFF274BDFED270AA66093E837
:101CC000070004AF0C3387E8070093E8070007AE6E
:101CD00086E80700B0EE600A3A46294604F118008B
:101CE000CDED030A00F010FFDDED030A3A46B0EE39
:101CF000600A294604F1680000F006FFDFED170ACC
:101D00003246B0EE600A294604F1B800CDED030A70
:101D100000F0FAFEDDED030A3246B0EE600A294615
:101D200004F5847000F0F0FE84F85851082004F0A7
:101D3000C1FE25680146C0E900542A1D084803F089
:101D40005FF928600BB0F0BD50040020980400201B
:101D500070050020F89F00080060EA4500007A4402
:101D60002122000864299FBFC3686422B3FBF2F3F9
:101D700059439ABF0161012000207047D0E900312A
:101D800001221B6829B95A638168012251B95A633B
:101D90007047042901D19A63F6E708290CBFDA637A
:101DA0001A64F1E7042901D19A63704708290CBF2E
:101DB000DA631A647047D0E9003101221B6829B93F
:101DC0005A638168026951B95A637047042901D185
:101DD0009A63F6E708290CBFDA631A64F1E704296D
:101DE00001D19A63704708290CBFDA631A647047FF
:101DF000D0E9003102691B6829B95A638168012260
:101E000051B95A637047042901D19A63F6E708294A
:101E10000CBFDA631A64F1E7042901D19A637047B1
:101E200008290CBFDA631A64704703681B681B68D3
:101E3000DB0606D58A4284BF01F57F41FF31881A4F
:101E40007047501A8A423CBF00F57F40FF30704710
:101E50002DE9F04F2DED068B8DB01D469DF87030AD
:101E600006939DF8743007938246002380F858311A
:101E70000C46C0689346FFF7D3FEDAF80400002C46
:101E800000F03F81FFF797FFDAF80800FFF793FFB4
:101E9000DAF8046029463046FFF764FFDAF80840B4
:101EA00029462046FFF75EFF069B5BB12322F368BD
:101EB0006421B3FBF1F353433361E368B3FBF1F304
:101EC0005343236101F02CF9DAF81030DFEDCC9A9E
:101ED0001B681B685B6A0493DAF814301B681B6884
:101EE00058465B6A0593FEF70DFBC1A3D3E90023B7
:101EF000FEF7ACFC9FEDC07B55EC174B8DED027BE4
:101F000017EE106A804689462F46DAF810000499C9
:101F100003681B685A6AFFF788FFFEF7F3FAFEF7BB
:101F200063FE08EE900ADAF81400059903681B684E
:101F30005A6AFFF77AFFFEF7E5FAFEF755FE08EE5C
:101F4000100A18EE900AFEF7FFFA02460B463046DA
:101F50003946FEF79BF9064618EE100A0F46FEF7C3
:101F6000F3FA02460B4620462946FEF78FF978EE33
:101F7000C87A044617EE900A0D46FEF7E5FA0B46BE
:101F80000246DDE90201FEF781F9069BCDE9020177
:101F9000002B56D1079B002B53D19A4B0022404671
:101FA0004946FEF771F9324641EC1A0B3B46404672
:101FB0004946FEF769F9FEF717FE324608EE100AA9
:101FC0003B4651EC1A0BFEF789FD40B951EC1A0B58
:101FD00022462B46FEF782FD002800F099809FEDF7
:101FE0008AAADFED8A8ADAF8040038EE4A8ABBEE64
:101FF000049A28EE098AC8EE287A9FED858A77EE42
:10200000887AFCEEE77A17EE901AFFF7ABFE2246CD
:102010002B4640464946FEF737F9FEF7E5FD07EE49
:10202000900A77EECA7ADAF8080067EE897A87EEC6
:10203000A87A77EE087AFCEEE77A17EE901AFFF7A7
:1020400091FEDAF810301B681B685B6A0493DAF8BB
:1020500014301B681B685B6A059332463B4640465A
:102060004946FEF73BFD30B122462B4640464946E5
:10207000FEF734FD20B99AF85831002B00F0AE80FD
:1020800022462B4630463946FEF746FD002800F032
:10209000A28020462946FEF787FDFEF733FA54A3B7
:1020A000D3E90023FEF7A8FAFEF77EFD594B4FF067
:1020B0000008586322462B4630463946CDE9098848
:1020C000ADF82C80FEF7E0F8534ACDE900010A2173
:1020D00009A805F0AFFE09AA3021552000F0F8FB51
:1020E00000F04EFBDAF804008AF85881FFF746FE4C
:1020F000DAF80800FFF742FE0DB0BDEC068BBDE834
:10210000F08FFFF775FEDAF80800FFF771FEBFE603
:1021100049464046FEF768FDB0EE480A00EE900AD8
:1021200004900AF1180000F009FD2B4622464046B3
:102130004946F0EE408AFEF7A7F8FEF755FDDDEDC3
:10214000040A00EE100A0AF1680000F0F7FCDDE96D
:102150000201B0EE408AFEF747FDDFED300A09EEDE
:10216000100A00EE100A0AF1B80000F0E7FCDFEDFB
:102170002B0AB0EE40AA0AF58470B1EE490A00F0CD
:10218000DDFC78EE8A7ADAF80420F4EEE97AF1EEF2
:1021900010FAC8BFFCEEE77AD168C8BF17EE903AD4
:1021A00038EE000AD8BF4FF47A738B42B4EEE90AD6
:1021B00098BF1361F1EE10FADAF80820C8BFFCEE00
:1021C000C07AD168CCBF17EE903A4FF47A738B4245
:1021D00098BF136135E7304639465CE70A2002F0C4
:1021E00067FF0C4BC3F834B002F051FF8DE600BF1F
:1021F000B17255C6AC048C3F000000000000000026
:1022000000007A4400409F400000FA4400C0D0C45F
:1022100000000C42C003002024A1000800000000C0
:10222000F7B54668104FF46841F2941002F040FF91
:102230002046FFF7E7FC2046FFF7EBFC2046FFF7C0
:10224000EFFC0125322002F033FF2046FD70FFF73E
:10225000E7FCCDE9005523234FF47A720121304683
:10226000FFF7F6FDEEE700BFB803002008B5054C08
:1022700020464FF4807101F0B2F8322002F018FFCE
:10228000F6E700BF0010024000B595B02C220021F7
:1022900009A805F0FBFE1422002103A805F0F6FEB4
:1022A0000023194A0193116C41F080511164126CA2
:1022B00002F080520192019A144A0293116841F48B
:1022C0008041116012680E9302F480420292029AD9
:1022D0000222089201201022CDE90B0208A801F089
:1022E0007BFD014608B172B6FEE70F23CDE903304E
:1022F000CDE90500079003A801F048FF08B172B6C8
:10230000FEE715B05DF804FB0038024000700040A5
:1023100080B592B000F0DEFEFFF7B6FF1422002178
:102320000BA805F0B3FE0024A74B01941A6BA74835
:10233000A74D42F010021A631A6B02F010020192CC
:10234000019A02941A6B42F002021A631A6B02F0AD
:1023500002020292029A03941A6B42F008021A6374
:102360001A6B02F008020392039A04941A6B42F06B
:1023700004021A631B6B03F00403049322464FF418
:102380008071049B01F026F8924822464FF40041E8
:1023900001F020F8224690484FF4F04101F01AF87D
:1023A00001264FF4807389480BA9CDE90B36CDE99E
:1023B0000D4400F035FF4FF4004386480BA9CDE9EA
:1023C0000B36CDE90D4400F02BFF4FF4F04382486B
:1023D0000BA9CDE90B36CDE90D4400F021FF4FF4F8
:1023E00004137A480B960BA9CDE90C3400F018FFC2
:1023F00022460521062000F0BFFE062000F0EEFE7A
:10240000764BAC604FF6FF772846CDE90B44C5E923
:102410000034EF60AC6102F025F908B172B6FEE756
:10242000CDE90B000BA9284602F066FC054608B171
:1024300072B6FEE70146102207A805F027FE684C99
:10244000102229460BA8CDE9055505F01FFEDFF83F
:10245000A4C1A5610F232046C4E900C3C4E9025703
:10246000C4E9045502F0FEF808B172B6FEE74FF475
:10247000805707A92046079702F0E1FA08B172B623
:10248000FEE7204602F046F908B172B6FEE7CDE954
:10249000050005A9204602F02FFC08B172B6FEE740
:1024A000CDE90D000A23204604220BA9CDE90B3605
:1024B00002F026FA044608B172B6FEE70146102281
:1024C00007A805F0E3FD1C2221460BA8454DCDE9E8
:1024D000054405F0DBFD444BAC60C5E900342846FB
:1024E00041F61F43C5E90334AC6102F0BBF808B103
:1024F00072B6FEE707A92846079702F0A0FA08B1CE
:1025000072B6FEE7284602F0D9F808B172B6FEE7C7
:102510000023344805A9CDE9053302F0EDFB08B1ED
:1025200072B6FEE74FF06008CDE90B8002270F90EE
:1025300008222C480D970BA902F04EF908B172B68B
:10254000FEE728480C220BA902F046F9054608B11F
:1025500072B6FEE72348254C00F05CFC10222946A9
:1025600007A805F093FD1C2229460BA805F08EFD57
:102570001F4BA560C4E90035204641F61F43C4E95E
:102580000335A56102F06EF808B172B6FEE74FF4AC
:10259000805607A92046079602F051FA08B172B694
:1025A000FEE7204602F08AF8024608B172B6FEE75E
:1025B000CDE90B800F900BA920460D9702F00CF986
:1025C000D0B172B6FEE700BF0038024000100240F2
:1025D000E004002000040240000C02400010004013
:1025E0002805002098040020000800407005002005
:1025F000004001400004014004220BA9204602F0E3
:10260000EBF8054608B172B6FEE7204600F002FC82
:102610001022294607A805F039FD354C354F1C22FC
:1026200029460BA805F032FD4FF43473C4E900735A
:1026300020464FF4FA63C4E90335A560A56102F0B2
:1026400011F808B172B6FEE707A92046079602F016
:10265000F6F908B172B6FEE7254802F02FF80246F7
:1026600008B172B6FEE76023CDE90B300D900F90F4
:102670000BA91F4802F0B0F8044608B172B6FEE795
:102680001B481D4D00F0C6FB1C481D4B0462C0E9F1
:1026900000534FF48043C0E90244C0E90434C0E968
:1026A000064401F08DF808B172B6FEE7154B1649E5
:1026B00018614FF4E132C3E900120C22C3E90200B1
:1026C000C3E90520D861184602F0EAFB044608B1C8
:1026D00072B6FEE7FEF72EFF02F066FC0B4A0C48CE
:1026E000214602F08DFC0B4B186002F06FFCFEE7F8
:1026F000500400200018004000580040FC03002057
:10270000A0860100B80500200048004038A100085C
:102710006D220008F803002070470000012970B501
:102720000A46044618BF00221448144E4FF40061B4
:1027300000F050FE082500224FF48041304600F0A2
:1027400049FE23064CBF012200224FF400513046BF
:1027500000F040FE013D01224FF48041304600F080
:1027600039FE640015F0FF05E4B2E4D1BDE8704025
:10277000024801224FF4006100F02CBE000C024020
:1027800070B50F4EB02400212046FFF7C7FF00218F
:102790000846FFF7C3FF00211020FFF7BFFF002509
:1027A00016F8350001210135FFF7B8FF802DF7D16C
:1027B0000134E4B2B82C06F10106E4D170BD00BFCB
:1027C000640600200023084810B41C460022C118EB
:1027D00001F832400132802AFAD10133082BF5D1B9
:1027E0005DF8044BFFF7CCBF6406002008B500215C
:1027F0008D20FFF793FF00211420FFF78FFFBDE826
:1028000008400021AF20FFF789BF0000030610B584
:1028100012D43F2910D801F00703C3F107030124A4
:102820009C40C908064BC1F10701C9B203EBC000C7
:10283000435C12B12343435410BD23EA0403FAE777
:10284000640600202DE9F74F1F46203A1E4B9DF8E5
:1028500030B0D2B203EB021301931C4B02EB4202E5
:1028600003EB82038146884600930C460026B7425C
:1028700002D103B0BDE8F08F0C2F0CBF009B019B71
:102880009D5D04F108035FFA83FA2B0658BFBBFA7B
:102890008BF2214604F101044CBF5A4652094846C6
:1028A000E4B2FFF7B3FFA4EB08026D00BA42EDB249
:1028B00007D109F101005FFA80F9C246013654469A
:1028C000D5E7A245E1D1F9E7D0A500085CA1000851
:1028D000F7B504460D46561E012716F8013F0BB901
:1028E00003B0F0BD7A2C82BF1035EDB200243A2D32
:1028F00003D9FFF767FF00252C4600972046327862
:102900000C2329460834FFF79DFFE4B2E5E72DE9E3
:10291000F04190469DF8182007460C461E46054695
:10292000454503D9B4420CD9BDE8F081284621467B
:10293000FFF76CFF284631460135FFF767FFEDB220
:10294000EEE721463846FFF761FF21464046013455
:10295000FFF75CFFE4B2E5E72DE9F04117469DF88B
:10296000182005460C461E468046B8450AD9A046A2
:10297000B04514D901340135E4B2EDB2B4421BD3F1
:10298000BDE8F08140462146FFF740FF4046314612
:1029900008F10108FFF73AFF5FFA88F8E5E74146DA
:1029A0002846FFF733FF4146384608F10108FFF794
:1029B0002DFF5FFA88F8DBE7A846B84502D301345B
:1029C000E4B2DBE74046214608F10108FFF71EFFAD
:1029D0005FFA88F8F1E770B506460C468D18AC42F0
:1029E00000DB70BD0122214630461444FFF70EFF84
:1029F000E4B2F4E710B501F0D3F9414B414C1A6F42
:102A000022F001021A671A6F22F004021A6701F01D
:102A1000D5F900224FF48051204600F0DBFC642001
:102A200000F084FB012220464FF4805100F0D2FCDC
:102A30000021AE20FFF772FE0021D520FFF76EFEC9
:102A400000215020FFF76AFE0021A820FFF766FE54
:102A500000213F20FFF762FE0021D320FFF75EFE3A
:102A600000210846FFF75AFE00214020FFF756FEDE
:102A700000218D20FFF752FE00211420FFF74EFEAB
:102A800000212020FFF74AFE00210220FFF746FE2A
:102A90000021A120FFF742FE0021C020FFF73EFEEB
:102AA0000021DA20FFF73AFE00211220FFF736FE60
:102AB00000218120FFF732FE0021EF20FFF72EFEDC
:102AC0000021D920FFF72AFE0021F120FFF726FE82
:102AD0000021DB20FFF722FE00213020FFF71EFE41
:102AE0000021A420FFF71AFE0021A620FFF716FE02
:102AF0000021AF20FFF712FEBDE81040FFF762BED5
:102B000000380240000C0240B0B1AAB10170136855
:102B10004360536883609368C360002380ED040AB8
:102B2000C0ED050A8363436303630362C362836288
:102B3000436243640364C36370470000002800F0ED
:102B4000878090ED107A90ED0F6AC0ED060A037849
:102B500080ED117A70EEC00A80ED106A80ED070AF0
:102B6000C0ED0F0A002B3ED190ED027AD0ED0A6A3B
:102B7000D0ED017A436B8363E0EE876A036B4363B6
:102B800060EEA77A90ED037AC0ED097A70EEC60A7E
:102B9000C0ED0A6AC0ED0C0A60EE870A90ED057A76
:102BA000C0ED0B0AF4EEC76AF1EE10FA02DD80ED1B
:102BB0000A7A06E0B1EE477AF4EEC76AF1EE10FA4F
:102BC000F5D490ED0A7A77EE877A77EEA07A90EDD9
:102BD000047AC0ED087AF4EEC77AF1EE10FA2DDD32
:102BE00080ED087A31E0012BD0ED085A2DD170EE3E
:102BF000C67AD0ED016A436B836367EEA67AD0EDA7
:102C0000026A036BC0ED097AB0EE005A60EEA66A64
:102C1000E6EE450A436390ED036AC0ED0A6A37EEBB
:102C2000207A77EEA67A80ED0C7A27EE067A77EE98
:102C3000877A80ED0B7A77EEA57AC8E7B1EE477A0E
:102C4000F4EEC77AF1EE10FACAD490ED080A704794
:102C50009FED010A704700BF0000000082B00E4BDC
:102C600000220092596C41F480415964596C01F47E
:102C70008041009100990192196C41F080511964D2
:102C80001B6C03F080530193019B0F216FF0010037
:102C900002B000F071BA00BF0038024030B50446FF
:102CA00089B01422002103A805F0F0F92268144B22
:102CB0009A4222D1134C144800250195236B43F00E
:102CC00002032363236B03F002030193019B4FF480
:102CD00040621223CDE9032303210423CDE9061327
:102CE00003A900F09DFA0295236C43F4800323644A
:102CF000236C03F480030293029B09B030BD00BF34
:102D000000580040003802400004024010B504465C
:102D10008CB01422002107A805F0B8F92368364AC0
:102D200093420DD100230193344B1A6C42F00402FC
:102D30001A641B6C03F004030193019B0CB010BDDB
:102D40002F4A93420CD1002302932C4B1A6C42F071
:102D500010021A641B6C03F010030293029BEDE750
:102D6000284A934228D1254B2748002403945A6CC3
:102D700042F002025A645A6C02F002020392039A71
:102D800004941A6B42F004021A631B6B03F00403F1
:102D90000493049B80220223CDE9072307A9032380
:102DA0000B9300F03DFA224605212E2000F0E4F9B5
:102DB0002E2000F013FAC1E7144A93420CD10023ED
:102DC00005930E4B5A6C42F480325A645B6C03F4E8
:102DD00080330593059BB1E70D4A9342AED10023A2
:102DE0000693064B1A6C42F040021A641B6C03F007
:102DF00040030693069BA1E700080040003802400C
:102E00000010004000040140000802400040014062
:102E10000018004010B5044688B01422002103A811
:102E200005F034F92368244A934214D10023009317
:102E3000224B1A6B42F002021A631B6B03F002036F
:102E40000093009B4FF440700223CDE903031C481C
:102E5000079303A916E01B4A934217D1002301935D
:102E6000164B19481A6B42F010021A631B6B03F0E1
:102E7000100301936021019B0223CDE90313032377
:102E8000079303A900F0CCF908B010BD0F4A934294
:102E9000FAD100230293094B1A6B42F002021A6323
:102EA0001B6B03F002030293029B4FF48042022348
:102EB000CDE903230923CAE7000800400038024097
:102EC0000004024000400140001002400018004091
:102ED00010B5044688B01422002103A805F0D6F8E6
:102EE0002268144B9A4223D103F5F8330021019153
:102EF0001A6C114842F480221A641A6C02F480227F
:102F00000192019A02911A6B42F008021A631B6B3C
:102F100003F008030293029B4FF440720223032143
:102F2000CDE903230723CDE9061303A900F078F9BF
:102F300008B010BD00480040000C0240FEE7FEE76C
:102F4000FEE7FEE7FEE7704708B500F0DDF803F0A6
:102F5000CBF8012803D0BDE8084003F0D3BB08BD7F
:102F6000012000F045BA0000014801F073BA00BF2B
:102F7000280500200120704708B505F02DF916231B
:102F800003604FF0FF3008BD08B505F025F91623A2
:102F90000360FEE770B50D4614460E46731B9C4257
:102FA00001DC204670BDAFF3008006F8010BF5E7A9
:102FB00070B50D4614460E46731B9C4201DC20463C
:102FC00070BD16F8010BAFF30080F5E74FF0FF304E
:102FD00070474FF400534B6000207047012070474A
:102FE000002070470B4A116810B5034609B90A4919
:102FF0001160106809490A4C0344091B8B4206D929
:1030000005F0EAF80C2303604FF0FF3010BD1360A9
:10301000FCE700BF640A00200855002000000220E1
:1030200000040000034AD2F8883043F47003C2F869
:103030008830704700ED00E0DFF834D00D480E49CD
:103040000E4A002302E0D458C4500433C4188C4202
:10305000F9D30B4A0B4C002301E013600432A24267
:10306000FBD3FFF7DFFF05F0BDF8FFF751F970471D
:10307000000002200000002018020020E8AF000835
:103080001802002008550020FEE7000038B50E4B5E
:103090001A784FF47A73B3FBF2F30C4A05461068C2
:1030A000B0FBF3F000F0A8F8044658B90F2D09D88A
:1030B000024629464FF0FF3000F05EF8044B2046F0
:1030C0001D6038BD0120FCE73400002030000020E6
:1030D0003800002008B50B4B1A6842F400721A60E1
:1030E0001A6842F480621A601A6842F480721A60A8
:1030F000032000F02FF80F20FFF7C8FFFFF7AEFD09
:10310000002008BD003C0240034A044B11681B78B4
:103110000B441360704700BF680A00203400002091
:10312000014B1868704700BF680A002038B5044694
:10313000FFF7F6FF631C1CBF054B1B78054618BF45
:10314000E418FFF7EDFF431BA342FAD338BD00BFDD
:10315000340000200749CA6822F4E0620302120426
:1031600003F4E063120C134343F0BF6343F40033F2
:10317000CB60704700ED00E0164B30B5DC68C4F35F
:103180000224C4F10703251D042B28BF0423062DA8
:103190004FF0FF358CBF033C002405FA03F321EA0E
:1031A0000303A54022EA0502A340002843EA0203E4
:1031B000ACBF00F16040084A4FEA0313B8BF00F00B
:1031C0000F00DBB2AABF00F56140135480F8003352
:1031D00030BD00BF00ED00E014ED00E0002807DB8B
:1031E0004109044A00F01F000123834042F82130C6
:1031F000704700BF00E100E00138B0F1807F0BD2E2
:103200004FF0E023054A5861F02182F82310002096
:10321000072298611A6170470120704700ED00E0B5
:103220002DE9F74FDFF8A891674A00230D680124C4
:103230009C4004EA050CAC4340F0B1804D6805F0B9
:1032400003044FEA43080326671E06FA08F6012F17
:103250006FEA060634D8876807EA060ECF6807FAD1
:1032600008F747EA0E078760476827EA0C0EC5F3A0
:1032700000179F4047EA0E074760C76807EA060E37
:103280008F6807FA08F747EA0E07022CC76019D1C2
:103290004FEAD30A00EB8A0A03F0070BDAF8207032
:1032A0004FEA8B0B4FF00F0E0EFA0BFE27EA0E0EB5
:1032B0000F6907FA0BF747EA0E07CAF8207001E01A
:1032C000032CDAD1076804FA08F437403C4315F4BC
:1032D000403F046063D04FF0000ACDF804A0D9F855
:1032E00044603A4C46F48046C9F84460D9F84460DA
:1032F00006F480460196019E23F0030606F18046FF
:1033000006F59C3603F0030ED6F808804FEA8E0EC1
:103310000F2707FA0EF7A04228EA070746D004F560
:103320008064A04244D004F58064A04242D004F5F9
:103330008064A04240D004F58064A0423ED004F5F1
:103340008064A0423CD004F58064A0423AD004F5E9
:103350008064A0420CBF0724082404FA0EF43C4306
:10336000B46094686FEA0C06EF0254BF34404CEA34
:1033700004049460D468AF0254BF34404CEA04049F
:10338000D4605468AF0354BF34404CEA0404546022
:103390001468ED0354BF34404CEA04041460013354
:1033A000102B7FF443AF03B0BDE8F08F5446D4E751
:1033B0000124D2E70224D0E70324CEE70424CCE79B
:1033C0000524CAE70624C8E7003C0140000002408B
:1033D000003802400AB1816170470904FBE7436984
:1033E00001EA030221EA030141EA024181617047D7
:1033F000044A5169014208B502D05061FFF78CF9C7
:1034000008BD00BF003C014001684B6913F48063B4
:103410004FF0000210D06FF480634B6120230263F1
:1034200080F83D3080F83E20036C80F83C2043F06B
:103430000403036401207047184670472DE9F846DD
:1034400006460F4691461D464FEA114A3368BAF1C7
:10345000010F0CBF5C699C6927EA0404A4B2B4FAAA
:1034600084F46409A14501D0002017E06A1CEED065
:10347000FFF756FE089BC01AA84201D8002DE5D1DF
:1034800000232022336386F83D2086F83E30326CDC
:1034900086F83C3042F0200232640120BDE8F88614
:1034A0002DE9F04104460F4616469846256868699E
:1034B00027EA000080B2B8B16B695A0516D52B68AF
:1034C00043F400732B606FF480636B612022002350
:1034D000236384F83D2084F83E30226C42F00402DD
:1034E000226484F83C300120BDE8F081731CDED0FA
:1034F000FFF716FEA0EB0800B04201D8002ED5D190
:1035000000232022236384F83D2084F83E30226C7F
:1035100042F02002E4E770B504460D4616462168E5
:103520004B6913F0400301D0002010E04A69D20635
:103530000ED56FF010024A612022236384F83D20EB
:1035400084F83E30226C226484F83C30012070BD47
:10355000FFF7E6FD801BA84201D8002DDFD1002334
:103560002022236384F83D2084F83E30226C42F010
:103570002002E8E770B504460D46164623685B69ED
:103580001B0601D5002070BD2046FFF73DFFA8B9FE
:103590006A1CF3D0FFF7C4FD801BA84201D8002DA0
:1035A000ECD100232022236384F83D2084F83E30B0
:1035B000226C84F83C3042F0200222640120E2E7D1
:1035C0002DE9F0431546026885B0DDE90C7899468F
:1035D000136843F4807313600E463B46CDF80080B9
:1035E00000224FF001110446FFF728FF236838B18D
:1035F0001B68DB0502D54FF40073236403200AE047
:1036000006F0FE061E61194943463A462046FFF77A
:1036100047FF18B1012005B0BDE8F083236803908F
:103620005A6903929B690393424639462046039B9D
:10363000FFF7A0FF40B1236C042B01BF2268136881
:1036400043F400731360E5E7B9F1010F236802D179
:10365000EDB21D61DFE72A0A1A613946424620466B
:10366000FFF788FF0028E6D12368F1E70200010098
:103670002DE9FF479A46036815461A6842F48062AE
:103680001A601A68DDE90C7842F480721A600E46FE
:103690003B46CDF8008000224FF001110446FFF7B1
:1036A000CDFE236848B11B68DB0502D54FF40073DB
:1036B0002364032004B0BDE8F0875FFA86F906F0C2
:1036C000FE061E612A4943463A462046FFF7E8FEB9
:1036D00008B10120EEE7236803905A6903929B69C1
:1036E0000393424639462046039BFFF743FF40B110
:1036F000236C042B01BF2268136843F4007313602A
:10370000E7E7BAF1010F23681AD1EDB242461D6115
:1037100039462046FFF72EFF02460028E8D12168EF
:103720000B6843F480730B602046CDF800803B4665
:103730004FF00111FFF782FE226860B11368B3E712
:103740002A0A1A61394642462046FFF713FF00282D
:10375000CED12368D9E749F00103136104494346F8
:103760003A462046FFF79CFE003818BF0120A1E72B
:103770000200010070B504460D46164623685B69D9
:103780005B0701D5002070BD2046FFF73DFEA8B9BC
:103790006A1CF3D0FFF7C4FC801BA84201D8002D9F
:1037A000ECD100232022236384F83D2084F83E30AE
:1037B000226C84F83C3042F0200222640120E2E7CF
:1037C00070B5044608B9012070BD90F83D3003F093
:1037D000FF021BB980F83C20FFF760FA242384F82D
:1037E0003D3023681A6822F001021A601A6842F418
:1037F00000421A601A6822F400421A6000F060FD6C
:103800003F4B65689D4294BF3E4B3F4B98428CBFF7
:1038100000230123002BD6D12268394E51683B4B3F
:10382000B0FBF3F321F03F011943B542516088BF6B
:103830004FF49676116A88BF734321F03F0184BF2D
:103840004FF47A76B3FBF6F301330B431362D1697D
:10385000431E2B4821F44F41854221F0FF0132D80D
:103860006D0040F6FC70B3FBF5F30133034242D028
:10387000C3F30B031943D161D4E907301168034343
:1038800021F0C0010B4313609168D4E9030321F4D4
:103890000341034321F0FF010B439360D4E905305A
:1038A000D168034321F0FF010B43D360136843F059
:1038B0000103136000202023206484F83D3020633E
:1038C00084F83E0080E7A06850B905EB4505B3FBDE
:1038D000F5F30133C3F30B037BB143F40043C9E7B2
:1038E00019206843B3FBF0F30133C3F30B0323B197
:1038F00043F44043BEE70423BCE70123BAE700BF1B
:10390000A08601007F841E00FF083D0040420F009A
:103910002DE9F743044699460C9E0F469046FFF763
:10392000FFFB94F83D30202B054603D0022003B066
:10393000BDE8F08300903C49192301222046FFF79F
:103940007DFD0028F2D194F83C30012BEED02068A8
:10395000012384F83C300368D9075EBF036843F055
:1039600001030360036823F400630360212384F8E8
:103970003D30402384F83E30002323640A9B636279
:10398000BDF82C306385638D2385284BE362CDE938
:1039900000654B46424639462046FFF711FE002897
:1039A0002AD00120C3E7FFF7E5FD40B1236C042BCB
:1039B00001BF2268136843F400731360F1E7636A80
:1039C00027681A4612F8011B39616262628D218DE7
:1039D000013A92B262857A69481E80B25207208508
:1039E0000AD548B15A783A6102336362638D013B6C
:1039F00002399BB221856385238D2A4631462046B4
:103A0000002BD0D1FFF7B6FE0028CFD12268136873
:103A100043F400731360202384F83D3084F83C00A5
:103A200084F83E0083E700BF020010000000FFFFA3
:103A30002DE9F043044687B09946109F0D46904605
:103A4000FFF76EFB94F83D30202B064604D002258C
:103A5000284607B0BDE8F08300907649192301227B
:103A60002046FFF7EBFC0028F1D194F83C30012B05
:103A7000EDD02068012384F83C300368DB075EBF8B
:103A8000036843F001030360036823F400630360E9
:103A9000222384F83D30402384F83E300023236401
:103AA0000E9B6362BDF83C306385638D2385624B5A
:103AB000E3622946CDE900764B4642462046FFF7B1
:103AC000D7FD054608B10125C2E7228D2368B2B9AA
:103AD00002905A6902929A690292029A1A6842F412
:103AE00000721A60DFF85481238D002B2CD1202224
:103AF00084F83D2084F83C3084F83E30A8E7012A61
:103B00000AD11A6822F480621A6003905A690392FB
:103B10009A690392039AE1E7022A0ED11A6822F405
:103B200080621A601A6842F400621A6004905A694E
:103B300004929B690493049BD4E705905A6905920B
:103B40009B690593059BCDE7032B56D8012B15D117
:103B5000324639462046FFF7DEFC0028B3D1236801
:103B60001A69636A1A70636A01336362238D013BC9
:103B70002385638D013B9BB26385B5E7022B0096DD
:103B80003B464FF000024146204619D1FFF756FC54
:103B9000002898D123681A6842F400721A601A69E2
:103BA000636A1A70626A531C6362238D013B23852A
:103BB000638D013B9BB2638523681B695370D2E719
:103BC000FFF73CFC024600287FF47DAF23681968AC
:103BD00021F4806119601969636A1970636A00963B
:103BE00001336362238D013B2385638D013B9BB2CF
:103BF000638541463B462046C8E732463946204663
:103C0000FFF789FC00287FF45EAF23681A69636AB6
:103C10001A70626A531C6362238D013B2385638D96
:103C2000013B9BB263852368596949077FF55CAF07
:103C3000C3E700BF020010000000FFFF0400010006
:103C40002DE9F04F044685B01F4688469246FFF79F
:103C500067FA94F83D30202B054603D0022005B0CA
:103C6000BDE8F08F00904C49192301222046FFF750
:103C7000E5FB0028F2D194F83C30012BEED0012373
:103C800084F83C302368DFF810B11A68D2075EBFB1
:103C90001A6842F001021A601A6822F400621A607F
:103CA000242384F83D3000263C4B266408F0FE08AF
:103CB000E3622268136843F4807313604FF00111CC
:103CC0003B46009500222046FFF7B8FB236838B139
:103CD0001B68DB0502D54FF4007323640320BEE7A5
:103CE000C3F81080FFF71CFA23685A695B69054620
:103CF000C2F34002C3F380234FF0A00994F83D10B3
:103D0000A02901D013431DD023684FF0200984F867
:103D10003D905A6912F0020F1A6842F400721A605C
:103D200025D0002203925A6903929B690393039B57
:103D300019490095192301222046FFF77FFB88B11E
:103D400001208CE7FFF7ECF9401BB84200D80FB90F
:103D500084F83D9023685A695B69C2F34002C3F35B
:103D60008023CBE784F83D9084F83C0077E76FF43C
:103D700080625A6159460095192301222046FFF7B7
:103D80005DFB0028DCD10136564592D384F83D9086
:103D900084F83C00D4E700BF020010000000FFFFE1
:103DA000044B01221A62044B82B01B680193019BF1
:103DB00002B0704700000E4200700040044B002229
:103DC0001A62044B82B01B680193019B02B07047DA
:103DD00000000E42007000402DE9F341044640B35C
:103DE0000368DD0710D4236898075BD423681A079B
:103DF00000F19D8023685B0700F1BD80A069002869
:103E000040F0248100202CE08D4B9A6802F00C02D7
:103E1000042A07D09A6802F00C02082A0BD15B68CA
:103E2000590208D5864B1B689A03DCD56368002BC2
:103E3000D9D1012015E06368814DB3F5803F13D1DE
:103E40002B6843F480332B60FFF76AF97C4E0546FC
:103E500033689B03C7D4FFF763F9401B6428F7D985
:103E6000032002B0BDE8F081B3F5A02F04D12B6888
:103E700043F480232B60E3E72A6822F480322A602F
:103E80002A6822F480222A60002BDDD1FFF748F94E
:103E900006462B689F03A6D5FFF742F9801B6428CE
:103EA000F7D9DDE7664B9A6812F00C0F07D09A68D5
:103EB00002F00C02082A11D15B685E020ED4604A3F
:103EC00013689D0702D5E368012BB2D113682169FD
:103ED00023F0F80343EAC103136087E7E268594B14
:103EE000B2B101221A60FFF71BF9554D06462B6847
:103EF000980707D52B68226923F0F80343EAC20329
:103F00002B6073E7FFF70CF9801B0228EFD9A7E7B6
:103F10001A60FFF705F94A4E0546336899077FF5A1
:103F200065AFFFF7FDF8401B0228F6D998E76269F4
:103F3000444B82B10122C3F8802EFFF7F1F8404EC6
:103F40000546736F9F073FF555AFFFF7E9F8401B34
:103F50000228F6D984E7C3F8802EFFF7E1F8384E3F
:103F60000546736F98077FF545AFFFF7D9F8401BFB
:103F70000228F6D974E7324B1A6C12F0805228D11D
:103F800001921A6C42F080521A641B6C03F0805349
:103F90000193019B01272C4D2B68D9051BD5A368E4
:103FA000274D012B27D12B6F43F001032B67FFF720
:103FB000B7F8234E054641F28838336F9B0739D551
:103FC000002F3FF41BAF1E4A136C23F08053136481
:103FD00014E70027DFE72B6843F480732B60FFF7BB
:103FE0009FF806462B68DA05D9D4FFF799F8801BAD
:103FF0000228F7D934E7052B04D12B6F43F00403D3
:104000002B67D0E72A6F22F001022A672A6F22F07D
:1040100004022A67002BCAD1FFF782F841F28838E0
:1040200006462B6F9807CBD5FFF77AF8801B4045E3
:10403000F7D915E7FFF774F8401B4045BDD90FE7E6
:10404000003802400000474200700040364DAB6827
:1040500003F00C03082B3DD0344B002202281A66D3
:104060002BD1FFF75DF806462B6899011FD4D4E9E0
:1040700007321343626A43EA8213E26A43EA026345
:10408000A26A5208013A43EA02436B60274B264D6D
:1040900001221A66FFF744F804462B689A013FF59F
:1040A000B1AEFFF73DF8001B0228F6D9D8E6FFF7BE
:1040B00037F8801B0228D7D9D2E6FFF731F804463B
:1040C0002B689B017FF59EAEFFF72AF8001B0228A4
:1040D000F6D9C5E601283FF4C4AE6B68E26903F483
:1040E000800191427FF4A5AE216A03F03F028A422B
:1040F0007FF49FAE616A47F6C0721A40B2EB811F2F
:104100007FF497AEA26A520803F44031013AB1EB52
:10411000024F7FF48EAEE26A03F07063B3EB026F7E
:104120003FF470AE85E600BF003802400000474211
:10413000134908B58B6803F00C03042B1CD0082B23
:104140001CD14A684B68496813F4800314BF0D48BA
:104150000D48C1F3881118BF002302F03F02A1FBF4
:104160000001FCF791FD064B5B68C3F3014301338B
:104170005B00B0FBF3F008BD0248FCE70248FAE739
:104180000038024040787D010024F4002DE9F04120
:104190000D46044610B90120BDE8F081434B1A6872
:1041A00002F007028A4228D321688F072DD4C8075E
:1041B00040D43E4B1A6802F00702AA4265D8226832
:1041C00051076BD4130707D5394A2169936823F443
:1041D000604343EAC1039360FFF7AAFF344B354ABB
:1041E0009B68C3F30313D35CD840334B1860334B45
:1041F0001868FEF74BFF0020CEE7CAB21A701B68A2
:1042000003F007038B42C6D1CEE7294B11F0040F10
:104210001EBF9A6842F4E0529A600E0742BF9A6845
:1042200042F460429A609A68A06822F0F002024369
:104230009A60BCE762681E4B012A1CD11B6813F40C
:10424000003FA8D01A4EB36823F003031343B360B2
:10425000FEF766FF41F288380746B368626803F0EC
:104260000C03B3EB820FA4D0FEF75AFFC01B4045EE
:10427000F3D9032090E7911E01291B6802D813F09F
:10428000007FDEE713F0020FDBE7EAB21A701B686B
:1042900003F00703AB427FF47EAF90E70449E06888
:1042A0008B6823F4E05303438B608BE7003C0240B0
:1042B00000380240C0AB0008300000203800002069
:1042C000044B054A9B68C3F38223D35C034A1068FE
:1042D000D840704700380240D0AB000830000020C2
:1042E000044B054A9B68C3F34233D35C034A10680E
:1042F000D840704700380240D0AB000830000020A2
:10430000036A23F001030362036A70B5446882699B
:104310000D6822F073022A438D6823F002032B43B9
:104320000E4DA84202D00E4EB04210D1CE6823F0FE
:1043300008033343A84223F0040302D0084DA842E7
:1043400005D1D1E9055624F4407435432C4344602B
:1043500082614A684263036270BD00BF0000014091
:1043600000040140036A23F480730362036A70B59A
:104370004468C2690D6822F073022A438D6823F4F1
:10438000007343EA0523114DA84203D005F580656B
:10439000A84214D1CD6823F4006343EA05230B4DF2
:1043A000A84223F4806303D005F58065A84206D1B6
:1043B000D1E9055624F44054354344EA05144460D9
:1043C000C2614A68C263036270BD00BF0000014061
:1043D000036A23F480530362036A30B54468C269F8
:1043E0000D6822F4E64242EA05228D6823F4005368
:1043F00043EA0533084DA84203D005F58065A8427D
:1044000004D14D6924F4804444EA85144460C261B7
:104410004A680264036230BD000001407047704783
:10442000082910D004D841B1042909D000207047D0
:104430000C29FBD10368186C70470368586B7047F0
:104440000368986B70470368D86B70477047704774
:104450007047704703681A69910710B504460ED576
:10446000DA6892070BD56FF002021A610122027717
:104470009B699B0777D0FDF753FB002323772368C5
:104480001A69500710D5DA6851070DD56FF004028C
:104490001A61022222779B6913F4407F204668D07C
:1044A000FDF73EFB0023237723681A6912070FD517
:1044B000DA6810070CD56FF008021A61042222771F
:1044C000DB69990720465AD0FDF72AFB00232377A2
:1044D00023681A69D20610D5DA68D0060DD56FF0B8
:1044E00010021A6108222277DB6913F4407F20460C
:1044F0004BD0FDF715FB0023237723681A69D107FA
:1045000008D5DA68D20705D56FF001021A61204696
:10451000FFF79CFF23681A69100608D5DA681106B0
:1045200005D56FF080021A61204600F024FC236854
:104530001A69520608D5DA68500605D56FF04002B0
:104540001A612046FFF785FF23681A69910622D574
:10455000DA6892061FD56FF0200220461A61BDE886
:10456000104000F007BCFFF772FF2046FFF770FF16
:1045700083E7FFF76CFF2046FFF76AFF92E7FFF73C
:1045800066FF2046FFF764FFA0E7FFF760FF2046C5
:10459000FFF75EFFAFE710BD304A0368904212D0CC
:1045A000B0F1804F0FD0A2F57C4290420BD002F5C3
:1045B0008062904207D002F58062904203D002F5FB
:1045C0007842904219D14A6823F070031343234A7A
:1045D000904229D0B0F1804F26D0A2F57C42904283
:1045E00022D002F5806290421ED002F58062904295
:1045F0001AD002F57842904216D0194A904213D050
:1046000002F5806290420FD002F5806290420BD09A
:10461000A2F59832904207D002F58062904203D012
:1046200002F58062904203D1CA6823F440731343B9
:104630004A6923F08003134303608B68C3620B68ED
:104640008362064B984203D003F58063984201D100
:104650000B69036301234361704700BF0000014001
:104660000040014010B5044630B390F83D3003F0EF
:10467000FF021BB980F83C20FEF748FB02232068AC
:1046800084F83D30211DFFF787FF012384F8463071
:10469000002084F83E3084F83F3084F8403084F8BD
:1046A000413084F8423084F8433084F8443084F850
:1046B000453084F83D3010BD0120FCE710B50446BC
:1046C00030B390F83D3003F0FF021BB980F83C2076
:1046D000FFF7A4FE0223206884F83D30211DFFF778
:1046E0005BFF012384F84630002084F83E3084F8D4
:1046F0003F3084F8403084F8413084F8423084F808
:10470000433084F8443084F8453084F83D3010BD9F
:104710000120FCE710B5044630B390F83D3003F0BB
:10472000FF021BB980F83C20FFF779FE02232068C6
:1047300084F83D30211DFFF72FFF012384F8463018
:10474000002084F83E3084F83F3084F8403084F80C
:10475000413084F8423084F8433084F8443084F89F
:10476000453084F83D3010BD0120FCE7036A23F09A
:1047700010030362036A70B5446882690D6822F40D
:10478000E64242EA05228D6823F0200343EA05133E
:10479000104DA84203D005F58065A84214D1CD681C
:1047A00023F0800343EA05130A4DA84223F0400397
:1047B00003D005F58065A84206D1D1E9055624F459
:1047C0004064354344EA8504446082614A688263F8
:1047D000036270BD0000014070B590F83C30012BC1
:1047E000054650D00123082A80F83C303BD007D83A
:1047F000C2B1042A27D01846002385F83C3070BD8A
:104800000C2AF8D10068FFF7E3FDC3690A6943F495
:104810000063C361C36923F48063C361C36943EA6E
:1048200002232EE00068FFF76BFD83690A6943F0FD
:1048300008038361836923F004038361836913435D
:1048400083610020D8E70068FFF790FF83690A6959
:1048500043F400638361836923F480638361836924
:1048600043EA0223ECE70068FFF77CFDC3690A69AD
:1048700043F00803C361C36923F00403C361C36940
:104880001343C361DDE70220B9E7000070B5046A95
:104890001A4E24F001040462B0428469056A29D0EA
:1048A000B0F1804F26D0A6F57C46B04222D006F566
:1048B0008066B0421ED006F58066B0421AD006F57A
:1048C0007846B04216D006F57056B04212D0A6F522
:1048D0009436B0420ED044F001021B0122F0F002E7
:1048E000DBB2134301F00A0125F00A021143836190
:1048F000016270BD24F003042243EEE70000014092
:10490000F8B590F83C30012B05460C4600F08B8042
:10491000012380F83C3092B90068CB68D1E90012DD
:10492000FFF7B4FF8369A26823F00C0383618369F6
:10493000134383610020002385F83C30F8BD042A2E
:1049400024D10368186A20F01000D1E90027C96853
:10495000186298691E6A20F4407040EA0720090333
:1049600020F4704089B21201014302F0A00226F047
:10497000A000024399611A629A69A16822F4406218
:104980009A619A6942EA01229A61D3E7082A22D100
:1049900003681E6A26F48076D1E90020C9681E6289
:1049A000DF691E6A27F003073843090120F0F00091
:1049B000C9B21202014302F4206226F420600243CD
:1049C000D9611A62DA69A16822F00C02DA61DA6947
:1049D0000A43DA61AEE70C2A23D10368186A20F48F
:1049E0008050D1E90027C9681862D8691E6A20F48E
:1049F000407040EA0720090320F4704089B2120396
:104A0000014302F4204226F420400243D9611A6295
:104A1000DA69A16822F44062DA61DA6942EA0122C5
:104A2000D7E7184687E7022088E710B58468114366
:104A300024F47F4441EA03232343836010BD38B547
:104A400090F83C30012B04464FF0020300F08E80BA
:104A5000012280F83D3080F83C200068836823F410
:104A60007F4323F0770383600B68602B4FD032D8ED
:104A7000402B64D016D8202B0DD00AD833F010016B
:104A800009D0012384F83D30002384F83C301046DF
:104A900038BD302BF5D1826822F07002134343F009
:104AA000070328E0502BECD14A68CD68016A036AFD
:104AB00023F001030362836921F00A0123F0F0036C
:104AC00043EA05130A4383610262836823F070039B
:104AD00043F057030FE0B3F5805F0DD0B3F5005FEF
:104AE0000CD0702BCDD1CB68D1E90121FFF79DFF10
:104AF000836843F0770383600022C2E7CB68D1E983
:104B00000121FFF792FF836843F48043F3E7036AD0
:104B10004D68C96823F0100303628269036A22F4B6
:104B2000704223F0A00343EA051342EA0132826196
:104B30000362836823F0700343F06703DBE74A688E
:104B4000CD68016A036A23F001030362836921F0DF
:104B50000A0123F0F00343EA05130A43836102626A
:104B6000836823F0700343F04703C4E71A468EE7D7
:104B7000036A01F01F0110B501248C4023EA0403ED
:104B80000362036A8A401A43026210BD08B529B95C
:104B900090F83E30012B18D001202CE004290DD1D3
:104BA00090F83F30013B18BF0123002BF4D10429BA
:104BB0004FF0020320D180F83F3009E008290CBFF4
:104BC00090F8403090F84130ECE7022380F83E3016
:104BD00000680122FFF7CCFF1C4A904213D01C4B07
:104BE000984210D0B0F1804F14D1836803F00703CE
:104BF000062B26D1002008BD08290CBF80F84030C4
:104C000080F84130E4E7436C904243F4004343644E
:104C1000EBD0E7E70F4B9842E7D003F5806398426B
:104C2000E3D003F580639842DFD003F578439842E0
:104C3000DBD003F570539842D7D0A3F59433984254
:104C4000D3D0036843F001030360D3E700000140C1
:104C50000004014000040040FFF798BF082938B560
:104C600005460C4631D004D851B1042928D0012082
:104C700038BD0C29FBD10268D36823F0100303E090
:104C80000268D36823F002032868D360214600221B
:104C9000FFF76EFF026A41F211131A4208D1026A4D
:104CA00040F244431A4202BF036823F00103036049
:104CB00001237CB985F83E3085F842300020D7E7E3
:104CC0000268D36823F00403DEE70268D36823F0A8
:104CD0000803D9E7042C04D185F83F3085F8433028
:104CE000ECE7082C0BBF85F8403085F8413085F89B
:104CF000443085F84530E1E730B590F83C30012B81
:104D00004FF0020332D080F83D3003680D685C68D4
:104D10009A6824F070042C435C60154CA3421AD0AE
:104D2000B3F1804F17D0A4F57C44A34213D004F50F
:104D30008064A3420FD004F58064A3420BD004F535
:104D40007844A34207D004F57054A34203D0A4F5DD
:104D50009434A34204D1496822F080020A439A6045
:104D6000012380F83D30002380F83C30184630BDE8
:104D700000000140704770470268C168136923F45E
:104D800040530B4370B51361054683680069D168D1
:104D9000034368690343E86921F4164121F00C01DB
:104DA00003430B43D3605369A96923F440730B4356
:104DB00053611F4B9A4203D003F580639A4223D17B
:104DC000FFF78EFAEB691921B3F5004FD5E90046DC
:104DD000A0FB01011BD1B2194FF000035B41FBF7AF
:104DE00053FF6422B0FBF2F102FB1103DB0032330C
:104DF000B3FBF2F303F007025B0002EB011203F4D2
:104E0000F8731344A36070BDFFF75AFADAE7B200F3
:104E1000B30FFBF739FF6422B0FBF2F102FB110381
:104E20001B013233B3FBF2F303EB0113EAE700BFDC
:104E300000100140F8B504460E4617461D4622688C
:104E4000136836EA030301D1002028E06B1CF7D079
:104E500025B1FEF765F9C01B8542F0D2226802F148
:104E60000C0353E8003F23F4D0730C3242E80030C7
:104E700021680028F2D101F1140353E8003F23F028
:104E8000010301F1140040E80032002AF3D120238D
:104E900084F83D3084F83C2084F83E300320F8BD8F
:104EA00010B5044640B390F83D3003F0FF021BB943
:104EB00080F83C20FEF70CF82268242384F83D306B
:104EC000D36823F40053D3602046FFF755FF2368CF
:104ED0001A6922F490421A615A6922F02A025A6130
:104EE000DA6842F40052DA6000202023206484F85B
:104EF0003D3084F83E3010BD0120FCE7F7B5174681
:104F000090F83D200093202A04460E4649D10029FE
:104F100045D0002F43D090F83C20012A41D00122F7
:104F200080F83C2000252122056480F83D20FEF712
:104F3000F7F8A168009BA784B1F5805F0246E7847B
:104F400003D1216909B935460E46002184F83C1089
:104F5000E18C89B241B940212046FFF76BFF60B96F
:104F6000202384F83D3009E080212046CDE900234C
:104F7000FFF760FFDDE9002310B1032003B0F0BDAF
:104F800020684EB935F8021BC1F308014160E18C7D
:104F9000013989B2E184DBE716F8011BF6E701204D
:104FA000ECE70220EAE70000EFF305832BB9064B9C
:104FB000186828B901221A6070476FF00500704721
:104FC0004FF0FF30704700BFC80C002010B5EFF362
:104FD00005845CB9084B1A68012A0AD1074AD477BC
:104FE00002221A6000F0FAFD204610BD6FF00500A5
:104FF000FBE74FF0FF30F8E7C80C002000ED00E0C1
:10500000F0B587B00B4600210591EFF30584CCB9CC
:10501000C0B16AB395698D4208BF1825691E37294A
:10502000AC462AD85168C90727D456696EB1B4086E
:10503000D2E9027E116857B1BEF15B0F02D9126945
:1050400002B1E6B9059807B0F0BD8024F0E7BEF1E3
:10505000000FF7D11269002AF4D105AACDE900C2E8
:10506000A2B200F08EFD01281CBF00230593E9E7E2
:1050700011464FF0180C8024EFE72046E3E7CDE916
:1050800001270095224600F044FD0590DAE7EFF392
:10509000058050B94FF0E0234FF08052C3F8042D43
:1050A000BFF34F8FBFF36F8F70476FF005007047EE
:1050B00010B5EFF3058424B910B100F0EDFE2046E1
:1050C00010BD6FF00500FBE7F7B505460E46144628
:1050D000EFF305871FB10025284603B0F0BD002877
:1050E000F9D00029F7D0DAB1D2E9023283B14F2AE0
:1050F000F1D92269002AEED066694D43AE42EAD367
:10510000009700F043F905460028E4D0246811E038
:10511000002AE0D12369002BDDD16369002BDAD1AD
:1051200028460022314600F07FF905460028D2D0FB
:10513000002CEBD12146284600F052FBCCE70000C2
:10514000034B0360034B0B6080231360704700BF69
:105150006C0C00206C0A0020034B0360034B0B60B7
:105160004FF4807313607047CC100020CC0C0020EB
:1051700000F108034FF0FF32C0E9022343600361EE
:1051800000230360704700230361704743684B604E
:105190009A688A609A68516099600368086101336F
:1051A0000360704730B50C68631C0AD103695A6804
:1051B0004A6091608B605960036808610133036045
:1051C00030BD00F10802134652681568A542FAD9AD
:1051D000EDE7D0E9011203698A60516059688142A4
:1051E00008BF5A60002202611A68013A1A60186802
:1051F000704710B5044601F01DFAA46B01F03AFAAD
:10520000B4FA84F0400910BDF8B51546026C866BFF
:10521000044652B9076847BB806800F075FFA76075
:1052200005460136A6632846F8BD65B9406802F018
:10523000FFFF6368226C1344A26863609342F0D35B
:1052400023686360EDE7C06802F0F2FF226CE36858
:1052500051429B1A2268E36093423EBFA3685B18E9
:10526000E360022D01D116B1013E0025D9E7354694
:10527000D7E7034610B41A6C08466AB1DC6899682F
:1052800014448C4228BF1968DC6028BFD960D968F3
:105290005DF8044B02F0CCBF5DF8044B704770B56D
:1052A000044601F0C7F994F8455004F124066DB2A4
:1052B000002D14DCFF2384F8453001F0DBF901F008
:1052C000B9F994F8445004F110066DB2002D12DCC7
:1052D000FF2384F84430BDE8704001F0CBB9636A25
:1052E000002BE7D0304600F06DFE08B100F0F6FE6E
:1052F000013D6DB2DCE72369002BE9D0304600F0B8
:1053000061FE08B100F0EAFE013D6DB2DEE738B59E
:105310000D46044640B94FF0500383F31188BFF3A4
:105320006F8FBFF34F8FFEE701F084F9D4E90F319F
:10533000226862604B43D0185B1A1A44A060FF23B6
:105340000020A063E26084F8443084F84530A5B9B9
:10535000236973B104F1100000F034FE48B14FF03E
:10536000E0234FF08052C3F8042DBFF34F8FBFF3FB
:105370006F8F01F07FF9012038BD04F11000FFF7B5
:10538000F7FE04F12400FFF7F3FEF2E713B51C4625
:1053900040B94FF0500383F31188BFF36F8FBFF311
:1053A0004F8FFEE743B94FF0500383F31188BFF3EB
:1053B0006F8FBFF34F8FFEE74AB191B94FF05003A3
:1053C00083F31188BFF36F8FBFF34F8FFEE741B1B7
:1053D0004FF0500383F31188BFF36F8FBFF34F8FEC
:1053E000FEE750230193019B502B08D04FF0500350
:1053F00083F31188BFF36F8FBFF34F8FFEE7002950
:1054000008BF2246019B22600123C4E90F0184F8F2
:10541000463019462046FFF77AFF9DF8103084F891
:105420004C30204602B010BDF8B50D461746064672
:1054300040B94FF0500383F31188BFF36F8FBFF370
:105440004F8FFEE74843503001F05EFA044670B1DA
:10545000002380F8463065B100F15003C4E90F65C0
:10546000236001212046FFF752FF84F84C7020464C
:10547000F8BD0346F2E72DE9F04385B08846019276
:105480001F46044640B94FF0500383F31188BFF321
:105490006F8FBFF34F8FFEE751B9036C43B14FF0ED
:1054A000500383F31188BFF36F8FBFF34F8FFEE775
:1054B000022F0BD1E36B012B08D04FF0500383F385
:1054C0001188BFF36F8FBFF34F8FFEE700F00CFE24
:1054D000064650B9019B4BB14FF0500383F311883E
:1054E000BFF36F8FBFF34F8FFEE700264FF0000929
:1054F00037E0019D1DB901F0BDF8002052E016B95A
:1055000002A800F0A3FD01F0B5F800F0ADFB01F03A
:1055100091F894F84430FF2B08BF84F8449094F835
:105520004530FF2B08BF84F8459001F0A3F801A98E
:1055300002A800F097FD00284AD101F07BF8A26B89
:10554000E36B9A4231D101F095F8019904F1100012
:1055500000F000FD2046FFF7A2FE00F029FC60B33A
:10556000012601F067F8A26BE36B9A4201D3022F88
:10557000BFD13A4641462046FFF746FE636A1BB15B
:1055800004F1240000F01EFD48B14FF0E0234FF07D
:105590008052C3F8042DBFF34F8FBFF36F8F01F01C
:1055A00069F8012005B0BDE8F08301F063F82046FA
:1055B000FFF775FE00F0FCFBD2E74FF0E0234FF061
:1055C0008052C3F8042DBFF34F8FBFF36F8FC7E72F
:1055D0002046FFF764FE00F0EBFB8EE72DE9F84371
:1055E000894690461F46044640B94FF0500383F366
:1055F0001188BFF36F8FBFF34F8FFEE751B9036C74
:1056000043B14FF0500383F31188BFF36F8FBFF3A3
:105610004F8FFEE7022F0BD1E36B012B08D04FF029
:10562000500383F31188BFF36F8FBFF34F8FFEE7F3
:1056300001F016F9EFF311864FF0500383F3118850
:10564000BFF36F8FBFF34F8FA26BE36B9A4201D30F
:10565000022F23D194F84550A36B6DB23A464946C8
:105660002046FFF7D1FD6B1C13D1636A0BB90120F3
:105670000BE004F1240000F0A5FC0028F7D0B8F1FD
:10568000000FF4D00120C8F8000086F31188BDE8AF
:10569000F88301356DB284F84550E8E70020F4E75F
:1056A0002DE9FF410F460192044640B94FF05003E7
:1056B00083F31188BFF36F8FBFF34F8FFEE751B9AC
:1056C000036C43B14FF0500383F31188BFF36F8F26
:1056D000BFF34F8FFEE700F007FD064650B9019B70
:1056E0004BB14FF0500383F31188BFF36F8FBFF3BB
:1056F0004F8FFEE700264FF000083DE0019D1DB9E9
:1057000000F0B8FF002056E016B902A800F09EFC99
:1057100000F0B0FF00F0A8FA00F08CFF94F84430DD
:10572000FF2B08BF84F8448094F84530FF2B08BF56
:1057300084F8458000F09EFF01A902A800F092FCC9
:10574000002841D12046FFF754FDB8B3019904F178
:10575000240000F0FFFB2046FFF7A1FD00F028FB2E
:1057600048B94FF0E0234FF08052C3F8042DBFF347
:105770004F8FBFF36F8F012600F05CFFA56B002DEC
:10578000BCD039462046013DFFF773FDA563236970
:1057900073B104F1100000F015FC48B14FF0E023A4
:1057A0004FF08052C3F8042DBFF34F8FBFF36F8FBC
:1057B00000F060FF012004B0BDE8F0812046FFF753
:1057C0006EFD00F0F5FAD6E72046FFF768FD00F021
:1057D000EFFA2046FFF70DFD0028CCD092E700003D
:1057E00010B5074A002352F833402CB942F8331061
:1057F00002EBC302506010BD0133082BF3D1FAE76E
:105800002811002070B504460D46164600F012FF20
:1058100094F84430FF2B04BF002384F8443094F8FC
:105820004530FF2B04BF002384F8453000F022FFF1
:10583000A36B2BB93246294604F1240000F0A4FBE7
:105840002046BDE87040FFF72ABD00002DE9F04179
:10585000044600F0EFFE304B304E1A68304F0132F4
:105860001A603568002D4BD134601B68012B1FD1A5
:10587000B84640460135FFF77BFC382D08F1140887
:10588000F7D1DFF8C480274D4046FFF771FC28466A
:10589000FFF76EFC2448FFF76BFC2448FFF768FC19
:1058A0002348FFF765FC234BC3F80080224B1D60A3
:1058B000224A136801331360214A63641168E36A62
:1058C00014208B4200FB037004F1040188BF1360B5
:1058D000FFF75CFC00F0CEFE1A4B1B6873B1336817
:1058E000DA6AE36A9A4209D24FF0E0234FF080521D
:1058F000C3F8042DBFF34F8FBFF36F8FBDE8F08166
:10590000104B1A68E36A002AD2D13268D26A9A42EE
:1059100098BF3460CCE700BFD41500206811002088
:1059200074110020FC1500201C16002048160020D1
:10593000341600206C11002070110020E0150020AA
:10594000E415002030160020E8150020F8B5154BAE
:10595000154D1C680646286804300F46FFF739FCD1
:10596000731C07D137B129681048BDE8F8400431ED
:10597000FFF70CBC2B68A4195C6007D30C4B1868AC
:105980002968BDE8F8400431FFF70CBC094B1868E2
:1059900029680431FFF706FC074B1A68A24288BF4A
:1059A0001C60F8BD5C160020681100203416002031
:1059B000701100206C11002010160020064A136898
:1059C0001968064B19B94FF0FF321A607047126818
:1059D000D268D2685268F8E76C11002010160020D7
:1059E00010B590F8593004463BB9006B01F024F82B
:1059F0002046BDE8104001F01FB8012BF9D0022B62
:105A000008D04FF0500383F31188BFF36F8FBFF3BB
:105A10004F8FFEE710BD000080B5134C134F144D9F
:105A2000236873B9134B1B68012BF8D94FF0E0239F
:105A30004FF08052C3F8042DBFF34F8FBFF36F8F29
:105A4000EDE700F0F7FDFB68DE68301DFFF7C1FBF6
:105A50002B68013B2B602368013B236000F00AFEAA
:105A60003046FFF7BDFFDBE7D815002048160020C1
:105A7000D4150020741100202DE9F047DDE90984D8
:105A80004FEA82094A4606460D46206BA5211F466D
:105A900002F0FCFA236BA9F104094B4423F0070937
:105AA000A5B36B1E04F133020F3513F8011F02F882
:105AB000011F09B1AB42F8D1002384F84330089D9F
:105AC000372D28BF37254FF0000AE562E564201D19
:105AD000C4F850A0FFF757FBC5F1380504F11800D2
