:020000040800F2
:1000000000000220415A000815590008175900083D
:10001000195900081B5900081D590008000000006C
:1000200000000000000000000000000071A10008B6
:100030001F5900080000000001A200082159000813
:10004000915A0008915A0008915A0008915A0008E4
:10005000915A0008915A000839590008915A00082D
:10006000915A0008915A0008915A0008915A0008C4
:1000700041590008915A00084D590008915A00084A
:10008000915A0008915A0008915A0008915A0008A4
:10009000915A0008915A0008915A0008915A000894
:1000A000915A0008915A0008915A0008915A000884
:1000B000915A000859590008915A0008915A0008AD
:1000C000915A0008915A0008915A0008915A000864
:1000D000915A0008915A0008915A00086559000881
:1000E000915A0008915A0008915A0008915A000844
:1000F000915A0008915A000871590008915A000855
:10010000915A0008915A0008915A0008915A000823
:10011000915A0008915A0008915A0008915A000813
:10012000915A0008915A0008915A0008915A000803
:10013000915A0008915A0008915A0008915A0008F3
:10014000915A0008915A0008915A0008915A0008E3
:10015000915A0008915A0008915A0008915A0008D3
:10016000915A0008915A0008915A0008915A0008C3
:10017000915A0008915A0008915A000800000000A6
:08018000915A0008915A000891
:1001900010B5054C237833B9044B13B10448AFF3C1
:1001A00000800123237010BD4802002000000000E1
:1001B000DCDC000808B5034B1BB103490348AFF36F
:1001C000008008BD000000004C020020DCDC0008BC
:1001D00001F0FF01102A2BDB10F0070F08D010F8F8
:1001E000013B013A8B422DD010F0070F42B3F6D1FC
:1001F000F0B441EA012141EA014122F007047FF015
:1002000000070023F0E80256083C85EA010586EA6B
:10021000010685FA47F5A3FA87F586FA47F6A5FAA7
:1002200087F68EB9EED1F0BC01F0FF0102F00702B3
:1002300032B110F8013B013A83EA010313B1F8D15E
:100240000020704701387047002D06BF354603383F
:10025000073815F0010F07D1013015F4807F02BF78
:10026000013015F4C03F0130F0BC0138704700BFC9
:10027000034613F8012B002AFBD1181A01387047E6
:1002800081F0004102E000BF83F0004330B54FEA47
:1002900041044FEA430594EA050F08BF90EA020FB4
:1002A0001FBF54EA000C55EA020C7FEA645C7FEA47
:1002B000655C00F0E2804FEA5454D4EB5555B8BF6A
:1002C0006D420CDD2C4480EA020281EA030382EADB
:1002D000000083EA010180EA020281EA0303362D6D
:1002E00088BF30BD11F0004F4FEA01314FF4801C40
:1002F0004CEA113102D0404261EB410113F0004F52
:100300004FEA03334CEA133302D0524263EB430308
:1003100094EA050F00F0A780A4F10104D5F1200EA6
:100320000DDB02FA0EFC22FA05F2801841F1000101
:1003300003FA0EF2801843FA05F359410EE0A5F1D5
:1003400020050EF1200E012A03FA0EFC28BF4CF006
:10035000020C43FA05F3C01851EBE37101F00045BC
:1003600007D54FF0000EDCF1000C7EEB00006EEBC9
:100370000101B1F5801F1BD3B1F5001F0CD3490853
:100380005FEA30004FEA3C0C04F101044FEA4452AA
:1003900012F5800F80F09A80BCF1004F08BF5FEA31
:1003A000500C50F1000041EB045141EA050130BD11
:1003B0005FEA4C0C404141EB0101013C28BFB1F523
:1003C000801FE9D291F0000F04BF01460020B1FA6E
:1003D00081F308BF2033A3F10B03B3F120020CDA41
:1003E0000C3208DD02F1140CC2F10C0201FA0CF01F
:1003F00021FA02F10CE002F11402D8BFC2F1200C84
:1004000001FA02F120FA0CFCDCBF41EA0C01904039
:10041000E41AA2BF01EB0451294330BD6FEA040482
:100420001F3C1CDA0C340EDC04F11404C4F120026D
:1004300020FA04F001FA02F340EA030021FA04F37F
:1004400045EA030130BDC4F10C04C4F1200220FAD6
:1004500002F001FA04F340EA0300294630BD21FA14
:1004600004F0294630BD94F0000F83F4801306BFDA
:1004700081F480110134013D4EE77FEA645C18BFCE
:100480007FEA655C29D094EA050F08BF90EA020F65
:1004900005D054EA000C04BF1946104630BD91EA5D
:1004A000030F1EBF0021002030BD5FEA545C05D160
:1004B0004000494128BF41F0004130BD14F580049F
:1004C0003CBF01F5801130BD01F0004545F0FE4113
:1004D00041F470014FF0000030BD7FEA645C1ABF48
:1004E000194610467FEA655C1CBF0B46024650EA7F
:1004F000013406BF52EA033591EA030F41F40021AB
:1005000030BD00BF90F0000F04BF0021704730B530
:100510004FF4806404F132044FF000054FF0000105
:1005200050E700BF90F0000F04BF0021704730B5C6
:100530004FF4806404F1320410F0004548BF40429B
:100540004FF000013EE700BF42004FEAE2014FEAF0
:1005500031014FEA02701FBF12F07F4393F07F4FCB
:1005600081F06051704732F07F4208BF704793F0CE
:100570007F4F04BF41F40021704730B54FF46074E1
:1005800001F0004521F000411CE700BF50EA0102E4
:1005900008BF704730B54FF000050AE050EA01028D
:1005A00008BF704730B511F0004502D5404261EBFD
:1005B00041014FF4806404F132045FEA915C3FF43E
:1005C000D8AE4FF003025FEADC0C18BF03325FEADB
:1005D000DC0C18BF033202EBDC02C2F1200300FA8C
:1005E00003FC20FA02F001FA03FE40EA0E0021FAB1
:1005F00002F11444BDE600BF70B54FF0FF0C4CF49F
:10060000E06C1CEA11541DBF1CEA135594EA0C0F50
:1006100095EA0C0F00F0DEF82C4481EA030621EA8B
:100620004C5123EA4C5350EA013518BF52EA0335C6
:1006300041F4801143F4801338D0A0FB02CE4FF078
:100640000005E1FB02E506F00042E0FB03E54FF0A8
:100650000006E1FB03569CF0000F18BF4EF0010EA0
:10066000A4F1FF04B6F5007F64F5407404D25FEA9C
:100670004E0E6D4146EB060642EAC62141EA55514F
:100680004FEAC52040EA5E504FEACE2EB4F1FD0C91
:1006900088BFBCF5E06F1ED8BEF1004F08BF5FEA0F
:1006A000500E50F1000041EB045170BD06F00046C1
:1006B00046EA010140EA020081EA0301B4EB5C046E
:1006C000C2BFD4EB0C0541EA045170BD41F4801166
:1006D0004FF0000E013C00F3AB8014F1360FDEBF8B
:1006E000002001F0004170BDC4F10004203C35DA67
:1006F0000C341BDC04F11404C4F1200500FA05F3EA
:1007000020FA04F001FA05F240EA020001F000428A
:1007100021F0004110EBD37021FA04F642EB060100
:100720005EEA430E08BF20EAD37070BDC4F10C042A
:10073000C4F1200500FA04F320FA05F001FA04F2EE
:1007400040EA020001F0004110EBD37041F10001DA
:100750005EEA430E08BF20EAD37070BDC4F12005E5
:1007600000FA05F24EEA020E20FA04F301FA05F24D
:1007700043EA020321FA04F001F0004121FA04F2F5
:1007800020EA020000EBD3705EEA430E08BF20EAC5
:10079000D37070BD94F0000F0FD101F000464000FF
:1007A00041EB010111F4801F08BF013CF7D041EA81
:1007B000060195F0000F18BF704703F00046520085
:1007C00043EB030313F4801F08BF013DF7D043EA56
:1007D0000603704794EA0C0F0CEA135518BF95EA0C
:1007E0000C0F0CD050EA410618BF52EA4306D1D193
:1007F00081EA030101F000414FF0000070BD50EAB2
:10080000410606BF1046194652EA430619D094EA3B
:100810000C0F02D150EA013613D195EA0C0F05D125
:1008200052EA03361CBF104619460AD181EA030179
:1008300001F0004141F0FE4141F470014FF0000031
:1008400070BD41F0FE4141F4780170BD70B54FF0CC
:10085000FF0C4CF4E06C1CEA11541DBF1CEA13554C
:1008600094EA0C0F95EA0C0F00F0A7F8A4EB05042E
:1008700081EA030E52EA03354FEA013100F0888025
:100880004FEA03334FF0805545EA131343EA1263EE
:100890004FEA022245EA111545EA10654FEA0026A3
:1008A0000EF000419D4208BF964244F1FD0404F55C
:1008B000407402D25B084FEA3202B61A65EB0305B8
:1008C0005B084FEA32024FF480104FF4002CB6EB75
:1008D000020E75EB030E22BFB61A754640EA0C00F5
:1008E0005B084FEA3202B6EB020E75EB030E22BF35
:1008F000B61A754640EA5C005B084FEA3202B6EB76
:10090000020E75EB030E22BFB61A754640EA9C0034
:100910005B084FEA3202B6EB020E75EB030E22BF04
:10092000B61A754640EADC0055EA060E18D04FEAC2
:10093000051545EA16754FEA06164FEAC30343EA62
:1009400052734FEAC2025FEA1C1CC0D111F4801F2F
:100950000BD141EA00014FF000004FF0004CB6E728
:1009600011F4801F04BF01430020B4F1FD0C88BFC7
:10097000BCF5E06F3FF6AFAEB5EB030C04BFB6EBD2
:10098000020C5FEA500C50F1000041EB045170BDC5
:100990000EF0004E4EEA113114EB5C04C2BFD4EBF2
:1009A0000C0541EA045170BD41F480114FF0000E76
:1009B000013C90E645EA060E8DE60CEA135594EAF2
:1009C0000C0F08BF95EA0C0F3FF43BAF94EA0C0FF5
:1009D0000AD150EA01347FF434AF95EA0C0F7FF46A
:1009E00025AF104619462CE795EA0C0F06D152EABE
:1009F00003353FF4FDAE1046194622E750EA4106A2
:100A000018BF52EA43067FF4C5AE50EA41047FF4B2
:100A10000DAF52EA43057FF4EBAE12E74FF0FF3C17
:100A200006E000BF4FF0010C02E000BF4FF0010CE8
:100A30004DF804CD4FEA410C7FEA6C5C4FEA430C61
:100A400018BF7FEA6C5C1BD001B050EA410C0CBFB0
:100A500052EA430C91EA030F02BF90EA020F002012
:100A6000704710F1000F91EA030F58BF994208BF79
:100A700090422CBFD8176FEAE37040F00100704736
:100A80004FEA410C7FEA6C5C02D150EA013C07D18D
:100A90004FEA430C7FEA6C5CD6D152EA033CD3D0D8
:100AA0005DF8040B704700BF8446104662468C46D2
:100AB0001946634600E000BF01B5FFF7B7FF002805
:100AC00048BF10F1000F01BD4DF808EDFFF7F4FF2E
:100AD0000CBF012000205DF808FB00BF4DF808EDB9
:100AE000FFF7EAFF34BF012000205DF808FB00BFDC
:100AF0004DF808EDFFF7E0FF94BF012000205DF8FE
:100B000008FB00BF4DF808EDFFF7CEFF94BF0120B2
:100B100000205DF808FB00BF4DF808EDFFF7C4FFAB
:100B200034BF012000205DF808FB00BF4FEA410CF4
:100B30007FEA6C5C02D150EA013C0AD14FEA430CD7
:100B40007FEA6C5C02D152EA033C02D14FF0000014
:100B500070474FF0010070474FEA410212F5001252
:100B600015D211D56FF47873B3EB625212D94FEAF4
:100B7000C12343F0004343EA505311F0004F23FADE
:100B800002F018BF404270474FF00000704750EA33
:100B9000013005D111F0004008BF6FF000407047F0
:100BA0004FF00000704700BF4A0011D212F500124A
:100BB00011D20DD56FF47873B3EB62520ED44FEAB5
:100BC000C12343F0004343EA505323FA02F0704735
:100BD0004FF00000704750EA013002D14FF0FF3073
:100BE00070474FF0000070474FEA4102B2F1E04316
:100BF00024BFB3F5001CDCF1FE5C0DD901F0004C04
:100C00004FEAC0024CEA5070B2F1004F40EB830053
:100C100008BF20F00100704711F0804F21D113F17F
:100C20003872BCBF01F00040704741F480114FEAB8
:100C30005252C2F11802C2F1200C10FA0CF320FA41
:100C400002F018BF40F001004FEAC1234FEAD3235E
:100C500003FA0CFC40EA0C0023FA02F34FEA4303C8
:100C6000CCE77FEA625307D150EA01331EBF4FF051
:100C7000FE4040F44000704701F0004040F0FE406C
:100C800040F40000704700BF53B94AB9002908BFBB
:100C900000281CBF4FF0FF314FF0FF3000F070B95B
:100CA000ADF1080C6DE904CE00F006F8DDF804E0C3
:100CB000DDE9022304B070472DE9F047089E0D4698
:100CC00004460F46002B4AD18A42944665D9B2FAAF
:100CD00082F343B102FA03FCC3F120029F4020FAE1
:100CE00002F217439C404FEA1C4E1FFA8CF5B7FBEB
:100CF000FEF1220C0EFB117742EA074201FB05F0E0
:100D000090420AD91CEB020201F1FF3780F01C81EE
:100D1000904240F2198102396244121AA4B2B2FB25
:100D2000FEF00EFB102244EA024400FB05F5A5424A
:100D30000AD91CEB040400F1FF3280F00781A542C0
:100D400040F204816444023840EA0140641B0021FF
:100D50001EB1DC400023C6E90043BDE8F0878B42AA
:100D600008D9002E00F0ED800021C6E900050846F4
:100D7000BDE8F087B3FA83F1002949D1AB4202D331
:100D8000824200F2F880841A65EB030201201746C4
:100D9000002EE2D0C6E90047DFE702B9FFDEB2FA73
:100DA00082F3002B40F090808A1A4FEA1C471FFA0A
:100DB0008CFE0121B2FBF7F507FB1520220C42EA5D
:100DC00000420EFB05F0904208D91CEB020205F12F
:100DD000FF3802D2904200F2CB804546121AA4B2EC
:100DE000B2FBF7F007FB102244EA02440EFB00FEC0
:100DF000A64508D91CEB040400F1FF3202D2A64537
:100E000000F2BB801046A4EB0E0440EA05409FE7C9
:100E1000C1F120078B4022FA07FC4CEA030C05FACB
:100E200001F420FA07F3FD404FEA1C492343B5FBC8
:100E3000F9F81FFA8CFE09FB18551C0C44EA05440E
:100E400008FB0EF5A54202FA01F200FA01F00BD9F7
:100E50001CEB040408F1FF3A80F08880A54240F2C0
:100E60008580A8F102086444641B9DB2B4FBF9F3C9
:100E700009FB134445EA044403FB0EFEA64508D9CA
:100E80001CEB040403F1FF356CD2A6456AD9023B82
:100E9000644443EA0843A3FB0295A4EB0E04AC426E
:100EA000C846AE4656D353D056B1B0EB080264EBF9
:100EB0000E0404FA07F7CA40CC401743C6E9007491
:100EC00018460021BDE8F087C3F1200102FA03FCB7
:100ED00020FA01F225FA01F19D402A434FEA1C470E
:100EE0001FFA8CFEB1FBF7F007FB1015110C41EA5D
:100EF000054100FB0EF58D4204FA03F408D91CEB02
:100F0000010100F1FF382FD28D422DD90238614402
:100F1000491B92B2B1FBF7F507FB151142EA0142FA
:100F200005FB0EF1914208D91CEB020205F1FF38D6
:100F300016D2914214D9023D6244521A45EA004148
:100F400038E73146304608E73946E6E61046FBE624
:100F50004845A9D2B9EB020865EB0C0E013BA3E7AB
:100F60004546EAE72B4694E74046D1E7D0467BE783
:100F7000023D624432E708460AE76444023842E729
:100F8000704700BF7FB501238DF817206422CDE99B
:100F900001320DF11702009200680A46D02105F0D7
:100FA000C3FD07B05DF804FB1FB54FF0640C0123CF
:100FB000CDE9013C009200680A46D02105F044FECC
:100FC00005B05DF804FB000073B5002201607F21CD
:100FD0000446FFF7D7FF404D0DF1060228700021AF
:100FE0002046FFF7E1FF002228707F212046FFF70F
:100FF000C9FF28700A2004F09DFD01220621204629
:10100000FFF7C0FF28700A2004F094FD3F2207215B
:101010002046FFF7B7FF28700A2004F08BFD00225E
:1010200007212046FFF7AEFF01222870102120463D
:10103000FFF7A8FF002628700DF107020F212046B8
:101040008DF80760FFF7B0FF9DF807200F2142F0F1
:1010500002022046FFF796FF20227F212046FFF75D
:1010600091FF3246287031462046FFF78BFF37222A
:10107000287001212046FFF785FF062228700221F3
:101080002046FFF77FFF1022287011212046FFF72E
:1010900079FF3246287010212046FFF773FF312276
:1010A000287014212046FFF76DFF32462870532127
:1010B0002046FFF767FF032215212046FFF762FF56
:1010C00032467F212046FFF75DFF2870642004F040
:1010D00031FD304602B070BD640200207FB50123AF
:1010E0008DF817206422CDE901320DF1170200922C
:1010F00000680A46182105F017FD07B05DF804FBEB
:10110000F7B5002301AA2E210446ADF80430FFF7FD
:101110004BFF264F0DF1050238702D212046FFF7B9
:1011200043FF01AA387030212046BDF90460FFF763
:101130003BFF0DF1050238702F212046FFF734FFE9
:1011400001AA387032212046BDF90450FFF72CFF68
:101150000DF10502387031212046FFF725FF07EE1B
:10116000106A9FED136ADFED136ABDF90430387021
:10117000B8EEC77A07EE903A27EE067AF8EEE77AED
:1011800027EE267A67EE867A84ED017A07EE105A0A
:10119000B8EEC77A67EEA67A27EE067AC4ED037A30
:1011A00027EE267A84ED027A03B0F0BD64020020B7
:1011B00000008038C3F51C412DE9F7430024DFF817
:1011C000C080ADF8044005464FF04009264627464A
:1011D00001AA34212846FFF7E7FE0DF1050233216D
:1011E0002846FFF7E1FEBDF8043001203B441FB262
:1011F00004F0A0FC01AA36212846FFF7D5FE0DF128
:10120000050235212846FFF7CFFEBDF80430012046
:1012100033441EB204F08EFC01AA38212846FFF7A1
:10122000C3FE0DF1050237212846FFF7BDFEBDF8CC
:10123000043088F800002344192009F1FF391CB25A
:1012400007F0FAFB19F0FF09C2D1BF1107EE907A3F
:10125000F8EEE77AB611C5ED0D7A07EE906AF8EE72
:10126000E77AA411C5ED0E7A07EE904A98F80000CF
:10127000F8EEE77AC5ED0F7A03B0BDE8F08300BF62
:1012800064020020F7B5002301AA36210446ADF818
:101290000430FFF789FE284F0DF105023870352123
:1012A0002046FFF781FE01AA387038212046BDF99B
:1012B0000460FFF779FE0DF10502387037212046F2
:1012C000FFF772FE01AA387034212046BDF90450A0
:1012D000FFF76AFE0DF10502387033212046FFF753
:1012E00063FE07EE906AB8EEE77AD4ED0E7AD4ED9D
:1012F0000F6ABDF9043094ED0D6A387037EE677AE5
:1013000007EE905AF8EEE77A77EEE67A06EE903A34
:10131000F8EEE66A76EEC66A9FED086A66EE866AC1
:1013200027EE067A67EE867AC4ED046A84ED057AC4
:10133000C4ED067A03B0F0BD640200202D237A3D8F
:1013400002223121FFF7CABEF0B589B003F01EFFBB
:1013500003F004FE002101240846674A03F084FEDE
:1013600003F010FE1523332210212E20009403F0E9
:101370009AFE212333221C212E20009403F093FE99
:101380002D23332228212E20009403F08CFE3923B4
:10139000332234212E20009403F085FE3A220321CB
:1013A000372003F0E4FE554A0D21204603F05CFE91
:1013B000534A1921204603F057FE524A2521204660
:1013C00003F052FE504A3121204603F04DFE4F4AB1
:1013D00000213C2003F048FE4D4A0C213C2003F044
:1013E00043FE00264B4A24213C2003F03DFE03F03F
:1013F00093FDCDE90566ADF81C60474D00961423BA
:10140000322211212F2003F073FE2B780093322219
:1014100020231D212F2003F06BFEAB780093322296
:101420002C2329212F2003F063FE3C4FEB780093FF
:101430003222382335212F2003F05AFE3B68002446
:101440009869ADF81C40CDE90544FFF77DF8344AB2
:10145000CDE900010A2105A80AF06EFBA978002950
:1014600048D005AA21465020002403F0FDFD38692C
:10147000ADF81C40CDE90544FFF766F8294ACDE9EF
:1014800000010A2105A80AF057FB05AA0C215520E6
:1014900003F0EAFDB868ADF81C40CDE90544FFF75C
:1014A00053F8CDE902017868FFF74EF81E4ACDE9FE
:1014B00000010A2105A80AF03FFB05AA18214120D6
:1014C00003F0D2FD7B6B194AADF81C400A2105A838
:1014D000CDE905440AF030FB05AA2421552003F08C
:1014E000C3FD03F019FDFA2086F001062C6007F019
:1014F000A3FA82E70E4AB6E710DD000817DD000800
:101500001CDD000821DD000826DD00082BDD0008B9
:101510002EDD000832DD00085004002068040020A1
:1015200036DD000841DD000847DD000854DD000815
:101530003CDD00082DE9F041704E2DED028B9FED52
:10154000708A704F00244FF010082546304604F092
:10155000ABFB384604F0A8FB0221304604F049FCFE
:10156000304604F099FC022115FA80F5384604F063
:1015700040FC384604F090FC14FA80F4304604F045
:101580001DFC384604F01AFCB8F10108DED1C5F3A1
:101590000F1307EE903A9FED5C6ADFED5C6AF8EEA0
:1015A000E77AC4F30F1367EE867A87EEA67A07EE22
:1015B000903AF8EEE77AB4EEC87A67EE867AF1EE02
:1015C00010FA87EEA66AC2BFF2EE0A6AC6EE877A02
:1015D0009FED4F7ADFED4F6AB4EEC86ACCBF77EE6D
:1015E000C77AFFEE007AF1EE10FA7ADDF2EE0A5ACF
:1015F00085EE867AF4EEE67A9FED456AF1EE10FA12
:1016000037EE467A62DCF5EEC07AF1EE10FA5DD480
:10161000F5EEC07AF1EE10FA08DDB2EE046AF4EEEF
:10162000467AF1EE10FA48BFF0EE467AB4EEE67A6A
:10163000F1EE10FA4DDCB5EEC07AF1EE10FA48D4B6
:1016400008DDF2EE046AB4EE667AF1EE10FA48BFF5
:10165000B0EE667A304C31482368314900EB8302A2
:10166000C2ED007A01EB830282ED007A01330A2297
:10167000DFED2C7A93FBF2F502FB15332360B0EE1D
:10168000677A1346F0EC016A37EE267AF1EC016ACC
:10169000013B77EEA67AF5D1B2EE046AC7EE066A90
:1016A000214B0122642087EE867AC3ED006A1F4B2E
:1016B00083ED007A1E4BC3ED016A83ED027A1D4B68
:1016C0009A7007F0B9F907F0A6F93AE7F0EE667AF2
:1016D000ACE79FED107ABDE7F0EE667AB0EE667A81
:1016E000B8E7F4EEE67AF1EE10FAF5DCF5EEC07A42
:1016F000F1EE10FAF0D4BFEE007A89E7C4040020BE
:10170000CDCCCC3D0C0500203333534000F07F4559
:101710003D0AD73E0000484288020020F403002022
:101720001C04002000000000480400204C0400209D
:101730006804002050040020014B01221A707047F9
:101740007402002008B5114B1148012283F82820AB
:10175000104ADA621A6302F0B3FE0F4800F0F0FBA1
:101760000E4A0F48002107F00FF90E4B0E4A186081
:1017700000210E4807F008F90D4B0E4A18600021B1
:101780000D4807F001F90D4B186008BD68040020F2
:1017900060040020000020418C020020FCDD0008D5
:1017A0004913000858040020D8DD0008611B000818
:1017B000F0030020B4DD00083515000844040020C3
:1017C00008B5124BD3ED006A114BD3ED000A114B53
:1017D00093ED007A104BD3ED007A26EEA70AA0EE27
:1017E000870A60EEA00A30EE000AE6EEA60AE7EEEF
:1017F000470AE7EEE70A08F081FFDFED087A084BB9
:1018000020EE270A83ED000A08BD00BF000000207B
:10181000680200206C02002070020020E12E654268
:10182000780200200000000062EE027A2DE9F04FFD
:10183000E1EEA17ADFF81883DFF818A3DFF8189338
:10184000DFF818B3E2EEA27A2DED108BDAED00AAE4
:10185000D8ED00FA99ED00BA9BED00AAF6EE009AD9
:101860002FEEA96A6AEEA96A83B017EE900AB0EE6D
:1018700041CA13EE104AB0EE61EAF0EE42DAB0EE81
:10188000628A8DED016ACDED006AF0EE40BAF0EEAD
:1018900060CAFEF759FE41EC100B08F003FF51EC53
:1018A000100BFFF7A1F907EE900A8EEE277A8DEE66
:1018B000A75A7FEEAFEAC8EE275A3BEE0BDA6EEE80
:1018C000EA7A7AEEAA8AEAEE0D7AB7EE008A77EE25
:1018D000C77AABEE4D8A2AEE287AAAEEE88AABEEFA
:1018E0002E7A38EE658A37EE457A3AEE0A5A6EEE6F
:1018F000875A7DEE0D4AE7EE855A67EEE8DAE8EEA4
:10190000645AEDEE07DAB0EE65FA78EEA85A68EEA2
:10191000878A28EE658AEDEE278AA7EE058A2BEEE8
:10192000299AAEEEE78A6FEE0F7A6AEE299AEDEE0B
:10193000AD7AE8EE087AE8EEA87A17EE900AFEF79C
:1019400003FE41EC100B08F0ADFE51EC100BFFF75D
:101950004BF9DDED006A9DED016A07EE900A8DEE10
:10196000A7EA2046CFEE27DA2CEEE6FA88EE27DA51
:10197000A9EE6BFA2CEE498A29EE2C9AC8EEA7EA5A
:10198000A6EE0C9A66EE8C8AA9EECCFAE6EE2B8ACD
:10199000A6EE2C8AA6EEEB9AFEF7D6FD04461FEEC5
:1019A000100A0D46FEF7D0FD06461EEE100A0F4641
:1019B000FEF7CAFD64A3D3E90023FEF71DFE02462D
:1019C0000B4630463946FEF75FFC22462B46FEF7B3
:1019D00013FE06461FEE900A0F46FEF7B5FD0246BF
:1019E0000B4630463946FEF751FCE9EEEC8AFFF72C
:1019F000FBF8A9EEAB8A09EE900A18EE900AFEF702
:101A0000A3FD06461DEE900A0F46FEF79DFD4EA370
:101A1000D3E90023FEF7F0FD02460B463046394677
:101A2000FEF732FC22462B46FEF7E6FD06461BEE8D
:101A3000100A0F46FEF788FD02460B46304639462F
:101A4000FEF724FCFFF7D0F80BEE100A18EE100A90
:101A5000FEF77AFD06461DEE100A0F46FEF774FDEE
:101A600039A3D3E90023FEF7C7FD02460B463046F3
:101A70003946FEF709FC22462B46FEF7BDFD064619
:101A80001AEE900A0F46FEF75FFD02460B463046FF
:101A90003946FEF7FBFBFFF7A7F808EE900A19EEB0
:101AA000100AFEF751FD06461EEE900A0F46FEF79D
:101AB0004BFD25A3D3E90023FEF79EFD02460B460E
:101AC00030463946FEF7E0FB22462B46FEF794FDF2
:101AD00004461AEE100A0D46FEF736FD02460B4686
:101AE00020462946FEF7D2FBFFF77EF86BEE0B7A15
:101AF00008EE100AE9EEA97AE8EEA87AE8EE087A8C
:101B000017EE900AFEF720FD41EC100B08F0CAFD1D
:101B100051EC100BFFF768F807EE900A89EEA77AF0
:101B200088ED007A8BEE277A89ED007A88EEA77A25
:101B30008AED007A88EE277A8BED007A03B0BDEC4F
:101B4000108BBDE8F08F00BF7DAC6B5A9CF48E3FCC
:101B5000000000206C0200206802002070020020BB
:101B60002DE9F0432DED028B654C6649664E654FBD
:101B7000DFF8CC81DFF8CC919BB02046FFF724FA48
:101B80004FF4C87006F058FF2046FFF715FB2046BB
:101B9000FFF7D6FB0021602202A8019134600AF011
:101BA000F7F85A4809F0C0FF0125690089B20A23F5
:101BB0000122384605F050F958B92A46414601A895
:101BC00009F0EEFF4FF0FF331A2201A9484606F054
:101BD0007DFB01357F2DE8D103F0A6FFDFF82091D2
:101BE0009FED4B8A0546DFF86081502006F024FF08
:101BF00006F011FF98F8003023B1002388F8003078
:101C0000FFF7DEFD4846FFF77BFA4846FFF73AFB51
:101C100003F08AFF431B03EE103ADFED3E7A9FED9F
:101C20003E7A94ED061AD4ED050A94ED040AD4ED3B
:101C3000032A94ED022AD4ED011AB8EE433A21EEBC
:101C4000271A23EE073A60EEA70A20EE270A074676
:101C5000FFF7EAFD314BD3ED006A314BC4ED166A54
:101C6000D3ED000A2F4BC4ED170A93ED007A2E4BEB
:101C700084ED187AD3ED007A3369C4ED197A26EE33
:101C8000A70A7361A0EE870A60EEA00A30EE000A90
:101C9000E6EEA60AE7EE470AE7EEE70A08F02EFDB1
:101CA000DFED227A98F80020214B20EE270A86EDFE
:101CB000040A22B1002288F8002083ED000AD3ED47
:101CC000007A30EE670ADFED1B7AB4EEE70AF1EE38
:101CD00010FA0EDCDFED187AB4EEE70AF1EE10FA36
:101CE0000AD4164B86ED040A0122B7619A703D466C
:101CF00079E730EE480AE8E730EE080AECE700BF83
:101D0000A4080020140600206804002058DD000804
:101D10000000B44335FA8E3C6F12833A0000002075
:101D2000680200206C02002070020020E12E654253
:101D30007802002000003443000034C35004002027
:101D40006BDD00086008002074020020014800F0EC
:101D5000C7B800BF8C020020034B834202D1034866
:101D600002F088BB704700BF6008002054040020C8
:101D700038B5244B9842044612D1234D2B6883B9C1
:101D8000042105F0B2FC214B186001232B6023686D
:101D90001A6A22F0A0021A621A6A42F020021A623B
:101DA00038BD012BFCD1042105F09FFC22689FED7A
:101DB000187A00235362154B1B689842BBBFC3F5CA
:101DC0007F43FF33C01AC01807EE900AF8EEE77A97
:101DD000104B67EE877AB6EE007A186067EE877A66
:101DE0000D4B0848C3ED037A00232B60136A23F0E0
:101DF000A0031362136A13620421BDE8384006F0A1
:101E0000E7B800BFD0070020840200207C02002039
:101E1000287E0C3D800200206804002038B50F4B5E
:101E20000F4D1B682B6000220C210A2006F019FEC2
:101E30000C4B0D4C18600D4BA0621B680C482360C6
:101E4000214600F04BF8294622460A4802F02AFBB8
:101E500029460948BDE8384002F008BB5C04002070
:101E600004000020E803002030000020EC030020E4
:101E70008C020020600400205404002008B50448AF
:101E800002F0F6FABDE80840024802F018BB00BFB5
:101E9000540400206004002030EE600ADFED0C7A6C
:101EA0009FED0C7AB4EEE70AF1EE10FA09DCDFEDF3
:101EB0000A7A9FED087AB4EEE70AF1EE10FA03D43D
:101EC000704730EE470AEDE730EE070AF3E700BF50
:101ED000000034430000B443000034C30160704785
:101EE000012380F858317047C368994238BF1946BA
:101EF0000369994228BF194603681B680A20596381
:101F000006F09ABDC168FFF7EFBF0169FFF7ECBFAC
:101F10004169FFF7E9BF70B51E46049B03610D469A
:101F2000C0E90052C0E9026311460446284606F0A3
:101F30004DF83146284606F049F8204670BD0000AD
:101F4000F0B504468FB0182008F064FB4FF43A72E5
:101F5000064640F20233C6E90323002540F2F3238C
:101F60004148736129467560306006F02FF8E660DD
:101F7000082008F04FFB06463C273C48776039466E
:101F8000306005F059FB2661082008F043FB064647
:101F900037483946C6E9000705F04EFB6661142054
:101FA00008F038FB41F294173249009706460C239B
:101FB0000822FFF7B0FF6660142008F02BFB0097A3
:101FC0002A462D4904230646FFF7A5FF2B4BDFEDDC
:101FD0002C0AA66093E8070005AF0C3387E80700DA
:101FE00093E8070008AE002386E80700B0EE600A19
:101FF0003A46294604F118000B930C930D93CDED4E
:10200000030A03F04DF9DDED030A3246B0EE600A33
:10201000294604F1680003F043F9DFED1A0A0BAA20
:10202000B0EE600A294604F1B800CDED030A03F0D2
:1020300037F9DDED030A0BAAB0EE600A294604F574
:10204000847003F02DF984F85851082008F0E2FA62
:1020500025680146C0E900542A1D0B4806F094FC8F
:1020600028600FB0F0BD00BF68060020B006002059
:10207000F80600204007002018080020F8DC0008BF
:1020800000C0DA4500007A4411430008642910B505
:102090003CD8C3686424B3FBF4F35943D0E900345B
:1020A00001611B688068C2B12CB95963012158B91C
:1020B0005963104610BD042C01D19963F6E7082C32
:1020C0000CBFD9631964F1E7042801D19963F0E7E3
:1020D00008280CBFD9631964EBE7012224B95A63BD
:1020E00058B959630122E4E7042C01D19A63F7E758
:1020F000082C0CBFDA631A64F2E7042801D1996353
:10210000F0E708280CBFD9631964EBE70022D0E799
:10211000C3688B4210B537D3D0E9003401611B6826
:102120008068C2B12CB95963012158B9596310466E
:1021300010BD042C01D19963F6E7082C0CBFD963BC
:102140001964F1E7042801D19963F0E708280CBF6E
:10215000D9631964EBE7012224B95A6358B959636A
:102160000122E4E7042C01D19A63F7E7082C0CBFA5
:10217000DA631A64F2E7042801D19963F0E70828CA
:102180000CBFD9631964EBE70022D0E7D0E9003136
:1021900001221B6829B95A638168012251B95A6327
:1021A0007047042901D19A63F6E708290CBFDA6366
:1021B0001A64F1E7042901D19A63704708290CBF1A
:1021C000DA631A64704700002DE9F04FCC4E2DED14
:1021D0000A8B9A46012386F844300023044680F88F
:1021E000583183B0C06815460F4689B3FFF78DFE9E
:1021F000D4F804902A4633214846FFF747FFD4F825
:1022000008802A4614214046FFF740FFBAF1000F2C
:1022100039D103F089FCDDED167A96ED048AF8EEEB
:10222000677A8346D7BBDDBB78EE678A9FEDB57AC8
:10223000F4EEC78AF1EE10FA43D59FEDB37ADFEDE5
:10224000B38A37EE487A77EE277A78EEE78A38E075
:10225000FFF758FED4F804902A4614214846FFF7A9
:1022600015FFD4F808802A4633214046FFF70EFFB9
:10227000BAF1000FCDD02A4614214846FFF706FFD9
:102280002A46372106E02A4637214846FFF7FEFE58
:102290002A4614214046FFF7F9FEBAE7002DC3D1C4
:1022A00077EE888A9FED9A7AF4EEC78AF1EE10FAFB
:1022B00007DDDFED968A38EEC87A77EEC77A77EEDB
:1022C000E88A9FED8D9BDFED93AADFF858929FED92
:1022D00092AA4FF0000878EEC87AFDEEE77A17EE82
:1022E000903A03F12C02582A00F28C8083EAE372C0
:1022F000A2EBE37207EE902AF8EEE77ABAEE0E7AD6
:1023000077EECA7ADFED856A67EE877A2A4687EE2E
:10231000A67AF3EE0E7A77EE277AFCEEE77A17EEDE
:10232000901A002F6CD06068FFF7B0FE03F0FCFB42
:10233000B369834200F0B88096ED057AD6ED047A51
:1023400077EEC77AC01AFDEEE77A502317EE902A8F
:10235000002AB8BF5242002807EE902AB8BF404278
:10236000B0FBF3F007EE100AF8EEE77AB8EEC77AA2
:1023700067EE877A96ED048A96ED057A38EE477A0D
:10238000B5EEC07AF1EE10FA4CBF01220022CCBFAC
:10239000012300239B1A07EE103AB8EEC77AA7EE86
:1023A000278A78EEC87A86ED078AFDEEE77A17EE7F
:1023B000903A83EAE372A2EBE37207EE902AB8EE5A
:1023C000E7BAB4EEEABAF1EE10FA70DD03F10E01ED
:1023D0001C2974D86068FFF7D9FEA068FFF7D6FE05
:1023E0006068FFF7D3FEA068FFF7D0FE002384F8F3
:1023F000583186F8443003B0BDEC0A8BBDE8F08F4D
:10240000A06891E7FDEEE87A17EE900AFDEEC87A33
:10241000002817EE903AB8BF4042002BB8BF5B428D
:10242000C01A0028B8BF4042FEF77CF8B0EE491A47
:10243000F0EE691A41EC100B41EC1B0B08F004F9AB
:10244000424651EC100B4B46FEF748FB00283FF488
:102450006DAF9FED32CAFAEE0ECAB3EE0E8A0FB31D
:102460006368B0EE491AF0EE691AB0EE4B0AF0EE6E
:102470006B0A019308F0E8F851EC100BFEF7B4FB7F
:1024800007EE900A77EECA7A019B67EEAC7A2A468D
:1024900087EE8C7A184677EE087AFCEEE77A17EE2C
:1024A000901A41E7A368DCE7DFED1D7A62E733B9F4
:1024B000B421B2FBF1F301FB132373638AE7013309
:1024C000022B02D8BAF1000FF2D1019203F02CFBDB
:1024D00042F21073A0EB0B009842019AE8D8169BC9
:1024E0007363022006F0A8FAF0EE4BAA06F093FA06
:1024F000F1E600BFAFF300800000000000806640FE
:1025000068040020000033C3000034C300003443DB
:1025100000003343804FC34700003442000034C200
:1025200000000000008046402DE9F047DC4D012608
:1025300000232DED0A8B044680F8583185F844605D
:10254000C0688846002900F05882FFF7DEFC32465A
:1025500047216068FFF79AFD32461421A0689FED7D
:10256000D19AFFF793FD03F0DFFA95ED048A8146D7
:10257000B8F1000F40F04B8278EE098ADFEDCA7A9D
:10258000F4EEE78AF1EE10FA07DDDFEDCF7A77EEB1
:10259000C88A79EE688A78EEE78A9FEDBFAB9FED37
:1025A000C3BAC34FDFEDC39A002678EEC87AFDEEBA
:1025B000E77A17EE903A03F12C02582A00F23C8297
:1025C00083EAE372A2EBE37207EE902AF8EEE77A71
:1025D000BAEE0E7A77EEC97A012267EE877A87EE35
:1025E000A97AF3EE0E7A77EE277AFCEEE77A17EE09
:1025F000901AB8F1000F00F01D826068FFF746FDE9
:1026000003F092FAAB69834200F0688295ED057A97
:10261000D5ED047A77EEC77AC01AFDEEE77A50233B
:1026200017EE902A002AB8BF5242002807EE902ADF
:10263000B8BF4042B0FBF3F007EE100AF8EEE77ABD
:10264000B8EEC77A67EE877A95ED048A95ED057A3C
:1026500038EE477AB5EEC07AF1EE10FACCBF01231E
:1026600000234CBF012200229B1A07EE103AB8EE5D
:10267000C77AA7EE278A78EEC87A85ED078AFDEE3D
:10268000E77A17EE903A83EAE37AAAEBE37A07EE69
:1026900090AAF8EEE7BAF4EECBBAF1EE10FA40F3F6
:1026A00020820E331C2B00F224826068FFF76EFD3F
:1026B000A068FFF76BFDE068B8F1000F00F02B8217
:1026C000FFF723FC012247216068FFF7DFFC0122AE
:1026D0001421A068FFF7DAFC03F026FA95ED048ACE
:1026E000DFED757A8146B8F1000F40F01E8278EE7A
:1026F000278A9FED6D7AF4EEC78AF1EE10FA07DDB6
:10270000DFED718A38EEC87A77EEC77A77EEE88A1D
:102710009FED61AB9FED65BA654FDFED669A0026D0
:1027200078EEC87AFDEEE77A17EE903A03F12C02C4
:10273000582A00F2118283EAE372A2EBE37207EEF9
:10274000902AF8EEE77ABAEE0E7A77EEC97A01228D
:1027500067EE877A87EEA97AF3EE0E7A77EE277A1C
:10276000FCEEE77A17EE901AB8F1000F00F0F28154
:102770006068FFF78BFC03F0D7F9AB69834200F088
:102780003D8295ED057AD5ED047A77EEC77AC01AC9
:10279000FDEEE77A502317EE902A002AB8BF524286
:1027A000002807EE902AB8BF4042B0FBF3F007EED6
:1027B000100AF8EEE77AB8EEC77A67EE877A95EDF9
:1027C000048A95ED057A38EE477AB5EEC07AF1EED7
:1027D00010FACCBF012300234CBF012200229B1A18
:1027E00007EE103AB8EEC77AA7EE278A78EEC87AD5
:1027F00085ED078AFDEEE77A17EE903A83EAE37AF1
:10280000AAEBE37A07EE90AAF8EEE7BAF4EECBBAB9
:10281000F1EE10FA40F3F5810E331C2B00F2F28139
:102820006068FFF7B3FCA068FFF7B0FCE068B8F1A0
:10283000000F00F00082FFF768FB0122472160686B
:10284000FFF724FC01221421A068FFF71FFC03F00E
:102850006BF995ED048ADFED197A8146B8F1000F26
:1028600040F0F38178EE278A9FED0F7AF4EEC78A65
:10287000F1EE10FA07DDDFED148A38EEC87A77EE54
:10288000C77A77EEE88A9FED04AB9FED08BA084F50
:10289000DFED089A00261BE0000000000080664083
:1028A000680400200000344200003343804FC347D7
:1028B00000804640000034C2000007430000B442DC
:1028C000000033C3000034C30000344300000000A4
:1028D00078EEC87AFDEEE77A17EE903A03F12C0213
:1028E000582A00F2C98183EAE372A2EBE37207EE91
:1028F000902AF8EEE77ABAEE0E7A77EEC97A0122DC
:1029000067EE877A87EEA97AF3EE0E7A77EE277A6A
:10291000FCEEE77A17EE901AB8F1000F00F0AA81EA
:102920006068FFF7B3FB03F0FFF8AB69834200F088
:10293000F58195ED057AD5ED047A77EEC77AC01A60
:10294000FDEEE77A502317EE902A002AB8BF5242D4
:10295000002807EE902AB8BF4042B0FBF3F007EE24
:10296000100AF8EEE77AB8EEC77A67EE877A95ED47
:10297000048A95ED057A38EE477AB5EEC07AF1EE25
:1029800010FACCBF012300234CBF012200229B1A66
:1029900007EE103AB8EEC77AA7EE278A78EEC87A23
:1029A00085ED078AFDEEE77A17EE903A83EAE37A3F
:1029B000AAEBE37A07EE90AAF8EEE7BAF4EECBBA08
:1029C000F1EE10FA40F3AD810E331C2B00F2AA8118
:1029D0006068FFF7DBFBA068FFF7D8FB6068FFF7D4
:1029E000D5FBA068FFF7D2FBBDEC0A8B002384F86F
:1029F000583185F84430BDE8F087FFF783FA324656
:102A000014216068FFF742FB32464721A6E578EEC5
:102A1000498A5FED557AF4EEE78AF1EE10FA7FF518
:102A2000BCAD5FED587A5FED588A77EEC87A77EEE5
:102A3000897AB0E5A068E1E5FDEEE87A17EE900A44
:102A4000FDEEC87A002817EE903AB8BF4042002B3E
:102A5000B8BF5B42C01A0028B8BF4042FDF762FD14
:102A6000B0EE4A1AF0EE6A1A41EC100B41EC1C0B66
:102A700007F0EAFD324651EC100B3B46FEF72EF80C
:102A800000283FF4BDADFAEE0EBAB3EE0E8AB8F1EF
:102A9000000F20D0D4F804A0B0EE4A1AF0EE6A1A63
:102AA000B0EE4C0AF0EE6C0A07F0CEFD51EC100BC4
:102AB000FEF79AF807EE900A77EEC97A012267EEE0
:102AC000AB7A504687EEA97A77EE087AFCEEE77A81
:102AD00017EE901A92E5D4F808A0DDE75FED857A4D
:102AE000B2E533B9B422BAFBF2F302FB13A36B6372
:102AF000DBE503F019F842F21073A0EB09009842ED
:102B0000F0D82D2302206B63B0EE6BBA05F094FF72
:102B100005F081FF49E5FFF7F5F90122142160680E
:102B2000FFF7B4FA01224721D3E578EE678A1FED5B
:102B30009C7AF4EEC78AF1EE10FA7FF5E9AD1FED4D
:102B40009F7A5FED9F8A37EE487A77EE277A78EEA4
:102B5000E78ADDE5A0680CE6FDEEE87A17EE900A5C
:102B6000FDEEC87A002817EE903AB8BF4042002B1D
:102B7000B8BF5B42C01A0028B8BF4042FDF7D2FC84
:102B8000B0EE4A1AF0EE6A1A41EC100B41EC1C0B45
:102B900007F05AFD324651EC100B3B46FDF79EFF05
:102BA00000283FF4E8ADFAEE0EBAB3EE0E8AB8F1A3
:102BB000000F20D0D4F804A0B0EE4A1AF0EE6A1A42
:102BC000B0EE4C0AF0EE6C0A07F03EFD51EC100B33
:102BD000FEF70AF807EE900A77EEC97A012267EE4F
:102BE000AB7A504687EEA97A77EE087AFCEEE77A60
:102BF00017EE901ABDE5D4F808A0DDE75FEDCD7AB9
:102C0000DDE58BB102F090FF42F21073A0EB0900FA
:102C1000984209D8872302206B63B0EE6BBA05F0A7
:102C20000BFF05F0F8FE7BE5B423BAFBF3F203FBE0
:102C300012A36B63F4E5FFF765F9012214216068C4
:102C4000FFF724FA01224721FEE578EE678A9FED1F
:102C5000427AF4EEC78AF1EE10FA7FF514AE9FEDDA
:102C60003F7ADFED3F8A37EE487A77EE277A78EEC3
:102C7000E78A08E6A06854E6FDEEE87A17EE900AC7
:102C8000FDEEC87A002817EE903AB8BF4042002BFC
:102C9000B8BF5B42C01A0028B8BF4042FDF742FCF3
:102CA000B0EE4A1AF0EE6A1A41EC100B41EC1C0B24
:102CB00007F0CAFC324651EC100B3B46FDF70EFF05
:102CC00000283FF430AEFAEE0EBAB3EE0E8AB8F139
:102CD000000F20D0D4F804A0B0EE4A1AF0EE6A1A21
:102CE000B0EE4C0AF0EE6C0A07F0AEFC51EC100BA3
:102CF000FDF77AFF07EE900A77EEC97A012267EEB8
:102D0000AB7A504687EEA97A77EE087AFCEEE77A3E
:102D100017EE901A05E6D4F808A0DDE7DFED117A8A
:102D200025E68BB102F000FF42F21073A0EB090020
:102D3000984209D85A2302206B63B0EE6BBA05F0B3
:102D40007BFE05F068FEC3E5B423BAFBF3F203FB98
:102D500012A36B633CE600BF000033C3000034C322
:102D6000000034430000000003681B681B68DB069A
:102D700006D58A4284BF01F57F41FF31881A70472A
:102D8000501A8A423CBF00F57F40FF307047000078
:102D90002DE9F04F2DED0A8B8BB0CB4D01939DF8B3
:102DA000783008939DF87C3009930023044680F81E
:102DB00058310123C06885F844300E461746FFF7A6
:102DC000A7F84FF4967005F037FED4F804900199F7
:102DD00032464846FFF75AF9D4F80880019932463E
:102DE0004046FFF753F9089B4BB132461E21484637
:102DF000FFF74CF932461E214046FFF747F9236999
:102E00001B681B685B6A059363691B681B6838460F
:102E10005B6A0693FDF776FBA5A3D3E90023FDF7D4
:102E200015FD02460B4643EC1C2B1EB9FDF72EFA8E
:102E300041EC1C0B51EC1C0BFDF7D6FE9FED9E7B6D
:102E40009FEDAB8A28645BEC17AB8DED027B85EDC3
:102E50000E8A85ED0F8A09EE100A002517EE108AFA
:102E6000994F0495F0EE489A0195D9462069059945
:102E700003681B6807935A6AFFF776FFFDF742FB6A
:102E8000FDF7B2FE0AEE100A6069069903681B6836
:102E900005935A6AFFF768FFFDF734FBFDF7A4FEC0
:102EA00008EE900A1AEE100AFDF74EFB02460B469A
:102EB00040464946FDF7EAF9804618EE900A8946F1
:102EC000FDF742FB7EA3D3E90023FDF795FB024605
:102ED0000B4650465946FDF7D9F9079B7AEE687ABA
:102EE0005B6A059B824617EE900A5B6A8B46FDF78C
:102EF0002BFB0B460246DDE90201FDF7C7F9019BFA
:102F0000CDE9020153B9D7ED049A02F00DFEBD6977
:102F100097ED048A0490002D08BF054602F004FED8
:102F2000BB6997ED04AA0190002B00F01181002DE0
:102F300000F00E815D1B07EE905ADFED64AAF8EEFB
:102F4000677AC7EEAA6ADFED627AF4EEE76AF1EE1D
:102F500010FA14DDF0EE480AB0EE4A0AFEF79CFFC4
:102F6000C0EE267A5B4A9FED5C7AD2ED006A67EE8E
:102F7000877A9FED5A7AE6EE877AC2ED007A019A57
:102F8000002B18BF1A46019202F0CEFD049B97ED6C
:102F9000040AC01A07EE900AF8EE677A4D4B87EEE6
:102FA000AA7AD3ED007AF0EE690AE7EE870AFEF717
:102FB00073FF30EE000AFDEEC07A17EE901A032977
:102FC00040F3C980002E40F04681089B002B43D17E
:102FD000099B002B40D1424B002251EC1C0BFDF70A
:102FE00053F942464B4641EC1B0B51EC1C0BFDF7D1
:102FF0004BF9FDF7F9FD424608EE100A4B4651EC3D
:103000001B0BFDF76BFD40B951EC1B0B52465B46A9
:10301000FDF764FD002800F0AF80DFED327A9FED10
:10302000327A606838EE678AFBEE047A28EE278AE7
:103030003246C8EE077A9FED2D7A77EE877AFCEE5E
:10304000E77A17EE901ACDED057AFFF71FF805998C
:10305000A0683246FFF71AF823691B681B685B6A91
:10306000059363691B681B685B6A069352465B465F
:1030700040464946FDF750FD002800F0D4805046F8
:103080005946FDF791FDFDF73DFA09A3D3E9002369
:10309000FDF7B2FAFDF788FD424678634B4651ECE6
:1030A0001C0BFDF71BFD60B324E000BFAFF30080F5
:1030B0005FBD77C1CDCF9A3F000000000000000047
:1030C000AC1C5A643BDFEF3F6804002000007A44E8
:1030D0006F12833AB00400200AD7A33B52B87E3F58
:1030E00000409F400000FA4400C0D0C400000C42E1
:1030F0000000000051EC1C0B52465B46FDF7EEFC55
:1031000020B994F85831002B00F090804946404691
:10311000FDF76AFD5946B8635046FDF765FD6668E0
:10312000F8633046FFF732F8A5682846FFF72EF817
:103130003046FFF72BF82846FFF728F8002384F8DD
:10314000583187F844300BB0BDEC0A8BBDE8F08FE6
:10315000019A551BEFE68B1D05DA002E3FF435AFC3
:103160006FF0050102E0002E3FF42FAFE06801F29E
:10317000F321FEF7B9FE28E7F0EE490A04F1180042
:10318000B0EE480A02F0A6F852465B4651EC1C0B22
:10319000F0EE408AFDF778F8FDF726FDF0EE490ADB
:1031A00000EE100A04F1680002F094F8DDE9020173
:1031B000B0EE408AFDF718FD5FED330A0BEE100A02
:1031C00000EE100A04F1B80002F084F804F58470EF
:1031D000F0EE40BA5FED3A0AB1EE4B0A02F07AF82F
:1031E00078EEAB7A3246F4EEEA7AF1EE10FACABF24
:1031F000FCEEE77A4FF47A7117EE901A6068FEF7EA
:1032000087FF38EE000AA068B4EEEA0AF1EE10FA81
:10321000CABFFCEEC07A4FF47A7117EE901A3246AC
:10322000FEF776FF18E7404649462AE70A2005F0F0
:1032300003FC49464046FDF7D7FC5946B863504663
:10324000FDF7D2FCF86305F0E6FB0123019D019335
:10325000B0EE4A8A0AE6032188E700BF00000000BA
:103260002DE9F04F2DED0A8B87B0BF4D029300265C
:103270000446012380F85861C0680091174685F81C
:1032800044306E63FEF744FE4FF4C87005F0D4FB83
:1032900023691A981B689FEDB58A1B685B6A0393C4
:1032A00063691B681B68D3F82480FDF72BF9AAA378
:1032B000D3E90023FDF7CAFAFDF796FC4FF0000AA8
:1032C00028643A461421606885ED0E8A4FF0000BA1
:1032D00085ED0F8A4BEC1AABFEF7D8FEA0683A4694
:1032E0001421FEF7D3FEB0EE489A0196B14620694C
:1032F000039903681B6804935A6AFFF735FD05902C
:1033000060690268136803935A6A4146FFF72CFD0F
:10331000059B80461846FDF7F5F8FDF765FCFDF7BF
:1033200013F902460B4651EC1A0BFCF7AFFF41ECC8
:103330001A0B4046FDF7E6F8FDF756FCFDF704F9D9
:1033400087A3D3E90023FDF757F90B4602465946F8
:103350005046FCF79BFF049B5B6A039B82465B6ABB
:103360008B46B9F1000F0AD195ED049A02F0DCFB0F
:10337000AE6995ED048A0190002E08BF064602F062
:10338000D3FBAB69D5ED048A8146002B00F0BB80EE
:10339000002E00F0B8809E1B07EE906ADFED749A55
:1033A000744EF8EE677AC7EEA96ADFED737AF4EE31
:1033B000E76AF1EE10FA13DDF0EE480AB0EE680AA3
:1033C000FEF76AFDC0EE267A9FED6C7AD6ED006AB4
:1033D00067EE877A9FED6A7AE6EE877AC6ED007A25
:1033E000002B18BF994602F09FFB019B95ED040A44
:1033F000C01A07EE900AF8EE677AF0EE490A87EEF7
:10340000A97AD6ED007AE7EE870AFEF745FD30EEA1
:10341000000AFDEEC07A17EE901A032976DD002F20
:103420000CBF6FF002010321E06801F2F321FEF707
:103430005BFD23691B681B685B6A039363691B68F8
:103440001B6851EC1A0BD3F8248052465B46FDF7FB
:1034500063FB002862D050465946FDF7A5FBFDF7F7
:1034600051F83DA3D3E90023FDF7C6F8FDF79CFB17
:10347000009B6863F3EE047A002B52D095ED027A3C
:10348000B4EEE77AF1EE10FA4EDD51EC1A0BFDF7CF
:10349000ABFB5946A8635046FDF7A6FBD4F8048061
:1034A000E8634046FEF772FEA6683046FEF76EFE01
:1034B0004046FEF76BFE3046FEF768FEE068FEF71A
:1034C00027FD4FF4C87005F0B7FA009B002B61D1BF
:1034D000E068FEF717FDD4F804803A461421404610
:1034E000FEF7D4FDA6683A4647213046FEF7CEFDEA
:1034F000029B002B60D03A4614214046FEF7C6FDE1
:103500003A4637217FE0A9EB060645E78B1D8BDAAB
:10351000002F14BF6FF00501062185E751EC1A0B4F
:103520009BE795ED017AABE70A2005F085FA51ECAF
:103530001A0BFDF759FB5946A8635046FDF754FB9B
:103540004E46E863B0EE688A05F065FA4FF001096F
:10355000CDE600BFAFF300805FBD77C1CDCF9A3F0E
:10356000AC1C5A643BDFEF3F680400200000000001
:1035700000007A44B00400206F12833A0AD7A33BBC
:1035800052B87E3F000033C3000034C30000334311
:1035900000003443E068FEF7B8FCD4F804803A46F3
:1035A00047214046FEF772FDA6683A461421304690
:1035B000FEF76CFD029BFBB902F0B6FADDED1A7A5C
:1035C000009B95ED048AF8EE677A0646FBB907BBC7
:1035D00078EE678A1FED157AF4EEC78AF1EE10FADD
:1035E00028D51FED177A5FED168A37EE487A77EE09
:1035F000277A78EEE78A1DE03A4637214046FEF703
:1036000045FD3A4614213046FEF740FDD4E7002F31
:10361000DED177EE888A1FED237AF4EEC78AF1EEC9
:1036200010FA07DD5FED268A38EEC87A77EEC77AA2
:1036300077EEE88A9FED8C9BDFED8DAADFF8409254
:103640009FED8CAA4FF0000878EEC87AFDEEE77A7D
:1036500017EE903A03F12C02582A00F2948083EA84
:10366000E372A2EBE37207EE902AF8EEE77ABAEE85
:103670000E7A77EECA7ADFED806A009B67EE877A72
:103680003A4687EEA67AF3EE0E7A77EE277AFCEECC
:10369000E77A17EE901A002B73D06068FEF7F6FCFD
:1036A00002F042FAAB69834200F0C08095ED057AE2
:1036B000D5ED047A77EEC77AC01AFDEEE77A50238B
:1036C00017EE902A002AB8BF5242002807EE902A2F
:1036D000B8BF4042B0FBF3F007EE100AF8EEE77A0D
:1036E000B8EEC77A67EE877A95ED048A95ED057A8C
:1036F00038EE477AB5EEC07AF1EE10FA4CBF0122EF
:103700000022CCBF012300239B1A07EE103AB8EE2B
:10371000C77AA7EE278A78EEC87A85ED078AFDEE8C
:10372000E77A17EE903A83EAE372A2EBE3720BEECC
:10373000102AB8EECBBAB4EEEABAF1EE10FA78DDA0
:1037400003F10E021C2A76D86068FEF71FFDA06800
:10375000FEF71CFDE068FEF7DBFB4FF4C87005F0D8
:103760006BF96068FEF712FDA068FEF70FFD0023FD
:1037700084F8583185F8443007B0BDEC0A8BBDE8B9
:10378000F08FA0688AE7FDEEE87A17EE900AFDEE6A
:10379000C87A002817EE903AB8BF4042002BB8BF55
:1037A0005B42C01A0028B8BF4042FCF7BBFEB0EE37
:1037B000491AF0EE691A41EC100B41EC1B0B06F0B4
:1037C00043FF424651EC100B4B46FDF787F90028AA
:1037D0003FF466AF009B9FED28CAFAEE0ECAB3EE27
:1037E0000E8A03B3D4F804A0B0EE491AF0EE691AB9
:1037F000B0EE4B0AF0EE6B0A06F026FF51EC100B10
:10380000FDF7F2F907EE900A77EECA7A3A4667EECC
:10381000AC7A504687EE8C7A77EE087AFCEEE77A3F
:1038200017EE901A3AE7D4F808A0DDE7DFED137A37
:103830005AE7002B88D00133022B02D8029B002BC1
:1038400082D102F071F942F21073801B98423FF668
:103850007BAF022005F0F0F8F0EE4BAA05F0DBF8A4
:10386000F2E600BFAFF30080000000000080664079
:10387000804FC34700003442000034C20000000003
:1038800000804640000000002DE9F047D04D0126A1
:1038900000232DED0E8B044680F8583185F84460E6
:1038A000C0688846002900F0ED82FEF72EFB324604
:1038B00047216068FEF7EAFB32461421A068DFED7D
:1038C000C59AFEF7E3FB02F02FF9D5ED048A814695
:1038D000B8F1000F40F0E08238EEA99ADFEDBE7A31
:1038E000B4EEE79AF1EE10FA07DDDFEDBC7A37EEC1
:1038F000E89A39EEC99A39EE679A9FEDB1AB9FED20
:10390000B8BAB84F9FEDB88A002679EE687AFDEE16
:10391000E77A17EE903A03F12C02582A00F2D1828E
:1039200083EAE372A2EBE37207EE902AF8EEE77AFD
:10393000BAEE0E7A77EEC87ADFEDAC6A67EE877A78
:10394000012287EEA67AF3EE0E7A77EE277AFCEE66
:10395000E77A17EE901AB8F1000F00F0B0826068B5
:10396000FEF794FB02F0E0F8AB69834200F0FD82C1
:1039700095ED057AD5ED047A77EEC77AC01AFDEE9B
:10398000E77A502317EE902A002AB8BF5242002847
:1039900007EE902AB8BF4042B0FBF3F007EE100AE2
:1039A000F8EEE77AB8EEC77A67EE877AD5ED048A43
:1039B00095ED057A38EEC77AB5EEC07AF1EE10FAD9
:1039C000CCBF012300234CBF012200229B1A07EE2B
:1039D000103AB8EEC77AE7EE278A79EE687AC5ED35
:1039E000078AFDEEE77A17EE903A83EAE37AAAEBCC
:1039F000E37A07EE90AAF8EEE7BAF4EECBBAF1EE6E
:103A000010FA40F3B5820E331C2B00F2B9826068C5
:103A1000FEF7BCFBA068FEF7B9FB23691B681B68B7
:103A20005F6A63691B681B685E6AB3EE048AE068BC
:103A3000FEF76EFA012214216068FEF727FBA068EA
:103A400001221421FEF722FBB8F1000F00F0AA8238
:103A5000D5ED027AF4EEC87AF1EE10FAE7DD2069CE
:103A600003681B6839465A6AFFF77EF9FCF74AFD7E
:103A7000FDF7BAF808EE900A606903681B683146E2
:103A80005A6AFFF771F9FCF73DFDFDF7ADF807EE57
:103A9000900AF4EEE78AF1EE10FACCBFFCEEE77A7A
:103AA000FCEEE87A17EE900AFCF72CFD46A3D3E96A
:103AB0000023FCF7A1FDFDF777F86863E068FEF7E7
:103AC00024FA012247216068FEF7E0FA012214215E
:103AD000A0689FED42BAFEF7D9FA02F025F895EDFD
:103AE000049A8146B8F1000F40F09E8279EE0B8A6D
:103AF000DFED397AF4EEE78AF1EE10FA05DD7BEEC0
:103B0000498A7BEE688A78EECB8A9FED2DAB9FEDDC
:103B100034CA344FDFED34BA002678EEC97AFDEEB0
:103B2000E77A17EE903A03F12C02582A00F2AA82A3
:103B300083EAE372A2EBE37207EE902AF8EEE77AEB
:103B4000BAEE0E7A77EEEB7ADFED286A67EE877AC7
:103B5000012287EEA67AF3EE0E7A77EE277AFCEE54
:103B6000E77A17EE901AB8F1000F00F06F826068E4
:103B7000FEF78CFA01F0D8FFAB69834200F0D682E1
:103B800095ED057AD5ED047A77EEC77AC01AFDEE89
:103B9000E77A502317EE902A002AB8BF5242002835
:103BA00007EE902AB8BF4042B0FBF3F007EE100AD0
:103BB000F8EEE77AB8EEC77A67EE877A18E000BFCA
:103BC00000000000008066405FBD77C1CDCF9A3F06
:103BD000680400200000B442000033430000344376
:103BE000804FC3470080464000003442000034C28A
:103BF00095ED049A95ED057A39EE477AB5EEC07ADF
:103C0000F1EE10FACCBF012300234CBF01220022A9
:103C10009B1A07EE103AB8EEC77AA7EE279A78EE0D
:103C2000C97A85ED079AFDEEE77A17EE903A83EAB6
:103C3000E37AAAEBE37A07EE90AAF8EEE7CAF4EE8D
:103C4000CCCAF1EE10FA40F374820E331C2B00F252
:103C500071826068FEF79AFAA068FEF797FA236906
:103C60001B681B685F6A63691B681B685E6AE068A3
:103C7000FEF74EF9012214216068FEF707FAA068EA
:103C800001221421FEF702FAB8F1000F00F06B8256
:103C9000D5ED027AF4EEC87AF1EE10FAE7DD20698C
:103CA00003681B6839465A6AFFF75EF8FCF72AFC7E
:103CB000FCF79AFF08EE100A606903681B6831463A
:103CC0005A6AFFF751F8FCF71DFCFCF78DFF07EE71
:103CD000900AB4EEE78AF1EE10FACCBFFCEEE77A78
:103CE000FCEEC87A17EE900AFCF70CFCDAA3D3E9D5
:103CF0000023FCF781FCFCF757FF6863E068FEF7E0
:103D000004F9012247216068FEF7C0F9012214215D
:103D1000A068FEF7BBF901F007FFD5ED048A8146E4
:103D2000B8F1000F40F0618238EEA98ADFEDCC7A5D
:103D3000B4EEE78AF1EE10FA05DD3BEE688A39EE63
:103D4000C88A38EE4B8A9FEDC29BDFEDC6AAC64FEC
:103D50009FEDC6AA002678EE687AFDEEE77A17EEA8
:103D6000903A03F12C02582A00F2538283EAE3725C
:103D7000A2EBE37207EE902AF8EEE77ABAEE0E7A3B
:103D800077EECA7ADFEDBD6A67EE877A012287EEA9
:103D9000A67AF3EE0E7A77EE277AFCEEE77A17EE44
:103DA000901AB8F1000F00F032826068FEF76EF9E9
:103DB00001F0BAFEAB69834200F07F8295ED057A8F
:103DC000D5ED047A77EEC77AC01AFDEEE77A502374
:103DD00017EE902A002AB8BF5242002807EE902A18
:103DE000B8BF4042B0FBF3F007EE100AF8EEE77AF6
:103DF000B8EEC77A67EE877AD5ED048A95ED057A35
:103E000038EEC77AB5EEC07AF1EE10FACCBF0123D6
:103E100000234CBF012200229B1A07EE103AB8EE95
:103E2000C77AE7EE278A78EE687AC5ED078AFDEE55
:103E3000E77A17EE903A83EAE37AAAEBE37A07EEA1
:103E400090AAB8EEE7BAB4EEEABAF1EE10FA40F38F
:103E500037820E331C2B00F234826068FEF796F92D
:103E6000A068FEF793F96068FEF790F9A068FEF786
:103E70008DF9BDEC0E8B002384F8583185F8443061
:103E8000BDE8F087FEF73EF8324614216068FEF781
:103E9000FDF83246472111E538EEE99ADFED747AF4
:103EA000B4EEE79AF1EE10FA7FF527ADDFED717A07
:103EB0009FED719A77EEE87A77EEA97A1BE5A06814
:103EC0004EE5FDEEC97A17EE900AFDEEE87A00287D
:103ED00017EE903AB8BF4042002BB8BF5B42C01A01
:103EE0000028B8BF4042FCF71DFBB0EE4A1AF0EEC6
:103EF0006A1A41EC100B41EC1C0B06F0A5FB324694
:103F000051EC100B3B46FCF7E9FD00283FF42AADCD
:103F1000DFED5ABABAEE0EDAF3EE0E8AB8F1000F00
:103F200020D0D4F804A0B0EE4A1AF0EE6A1AB0EE2F
:103F30004C0AF0EE6C0A06F087FB51EC100BFCF714
:103F400053FE07EE900A77EEC87A012267EE8D7A6B
:103F5000504687EEAB7A77EE287AFCEEE77A17EEDA
:103F6000901AFDE4D4F808A0DDE7DFED457A1DE501
:103F700033B9B422BAFBF2F302FB13A36B6346E539
:103F800001F0D2FD42F21073A0EB09009842F0D884
:103F90005A2302206B63B0EE6BBA04F04DFD04F0BF
:103FA0003AFDB2E4D5ED017AF4EEC87AF1EE10FAFA
:103FB0007FF73DAD206903681B6839465A6AFEF7F2
:103FC000D3FEFCF79FFAFCF70FFE08EE900A60693B
:103FD00003681B6831465A6AFEF7C6FEFCF792FA80
:103FE000FCF702FE07EE900AF4EEE78AF1EE10FA13
:103FF000CCBFFCEEE77AFCEEE87A17EE900AFCF70D
:1040000081FA15A3D3E90023FCF7F6FAFCF7CCFDFF
:104010006863E068FDF776FF012214216068FEF70F
:1040200035F80122472153E579EE4B8ADFED107A0E
:10403000F4EEE78AF1EE10FA41BFDFED0E8A78EE7A
:10404000C98A78EE8B8A7BEE688A5EE5A0688FE588
:1040500000000000008066405FBD77C1CDCF9A3F71
:1040600000003343804FC347008046400000344285
:10407000000033C3000034C300003443000034C2E6
:1040800000000000FDEEE87A17EE900AFDEEC97A16
:10409000002817EE903AB8BF4042002BB8BF5B42F1
:1040A000C01A0028B8BF4042FCF73CFAB0EE4A1AEA
:1040B000F0EE6A1A41EC100B41EC1D0B06F0C4FA4D
:1040C000324651EC100B3B46FCF708FD00283FF44C
:1040D00051AD5FED16CABAEE0EEAB3EE0E9AB8F124
:1040E000000F20D0D4F804A0B0EE4A1AF0EE6A1AFD
:1040F000B0EE4D0AF0EE6D0A06F0A6FA51EC100B88
:10410000FCF772FD07EE900A77EEEB7A012267EE7C
:104110008E7A504687EEAC7A77EE097AFCEEE77A33
:1041200017EE901A24E5D4F808A0DDE75FED2C7AAD
:104130005EE58BB101F0F8FC42F21073A0EB0900D0
:10414000984209D8B42302206B63B0EE6CCA04F025
:1041500073FC04F060FCE0E4B423BAFBF3F203FB6D
:1041600012A36B6375E5D5ED017AF4EEC87AF1EE32
:1041700010FA7FF77CAD206903681B6839465A6ADC
:10418000FEF7F2FDFCF7BEF9FCF72EFD08EE100A73
:10419000606903681B6831465A6AFEF7E5FDFCF763
:1041A000B1F9FCF721FD07EE900AB4EEE78AF1EED3
:1041B00010FACCBFFCEEE77AFCEEC87A17EE900A54
:1041C000FCF7A0F950A3D3E90023FCF715FAFCF79C
:1041D000EBFC6863E068FDF795FE0122142160683E
:1041E000FDF754FF0122472192E538EEE98ADFED21
:1041F000427AB4EEE78AF1EE10FA41BF9FED3F8AB2
:1042000038EE688A38EE298A3BEE488A9BE5A0683A
:10421000CCE5FDEEC87A17EE900AFDEEE87A0028AC
:1042200017EE903AB8BF4042002BB8BF5B42C01AAD
:104230000028B8BF4042FCF775F9B0EE491AF0EE1D
:10424000691A41EC100B41EC1B0B06F0FDF93246EC
:1042500051EC100B3B46FCF741FC00283FF4A8ADA5
:104260009FED27CAFAEE0ECAF3EE0E8AB8F1000FE0
:1042700020D0D4F804A0B0EE491AF0EE691AB0EEDE
:104280004B0AF0EE6B0A06F0DFF951EC100BFCF76D
:10429000ABFC07EE900A77EECA7A012267EEAC7AA1
:1042A000504687EE8C7A77EE287AFCEEE77A17EEA6
:1042B000901A7BE5D4F808A0DDE7DFED127A9BE5E4
:1042C0008BB101F031FC42F21073A0EB090098426F
:1042D00009D85A2302206B63F0EE4BAA04F0ACFB22
:1042E00004F099FB37E5B423BAFBF3F203FB12A306
:1042F0006B63B2E5AFF30080000033C3000034C34A
:10430000000034C2000000005FBD77C1CDCF9A3FEE
:104310002DE9F047D0E90064E568524FDFF8489195
:104320008AB02846FDF7F4FD41F2941004F084FBB6
:104330004FF000084FF0010A322087F803A004F084
:104340007BFB04F068FBB06A04F025FC0028F3D086
:104350000523002202A9B06A04F0EEFB102200211E
:1043600006A8CDF8148007F013FDDDE902234946C5
:1043700005A807F015FC029B7BB92846FDF7C8FD90
:104380009DF813300193039A9DF812300093012198
:1043900023232046FEF7FCFCCCE7013B0A2BC9D8BF
:1043A00001A252F823F000BFD543000803440008DF
:1043B000EF4300081D44000811440008354300087D
:1043C00035430008594400084D4400082B440008B8
:1043D0003F4400082846FDF79BFD9DF813300193EC
:1043E0009DF812300093039A23230021D1E7039B09
:1043F00000939DF81330012200212046FDF7E4FED2
:1044000098E7039B00939DF8133001221146F4E7CF
:10441000039B009300229DF81330F7E7039B009362
:1044200000229DF813300121E7E7039B00939DF8DC
:104430001330012200212046FEF712FF7AE7039B8A
:10444000009301229DF813301146F4E79DF81110F6
:104450002046FEF769F86DE79DF811102046FFF73A
:1044600013FA67E75004002020DE0008016070475F
:10447000704700001FB50A4A0446106851686B4631
:1044800003C31189198000231360536013812068CE
:104490001A466946806A04F01FFB04B010BD00BFD5
:1044A000B604002038B5C0E9001204460D460022CB
:1044B00010210A2004F0D5FAA862204638BD7047C2
:1044C00038B50446082006F0A5F82568636805603D
:1044D000014643602A1D024804F056FA286038BDA0
:1044E0002146000810B58AB004460021152204A810
:1044F000039107F04DFC792C05D8732C07D8652C57
:104500002ED0672C32D021490A23042223E0743CA8
:10451000052CF8D801A353F824F000BF7B45000810
:1045200067450008074500083545000807450008AD
:1045300075450008164B5868FCF706F8154ACDE992
:104540000001192103A807F0F7FA03A8FBF790FE72
:104550000A2382B203A9104803F0B8FE0AB010BDC6
:104560000B4B9868E8E70A4BD868E5E7084B1B68EF
:104570009869E1E7064B1869DEE7054B074A93F8AF
:104580004430192103A807F0D7FADEE736DE000829
:104590006804002036DD00086008002033DE0008D3
:1045A00070B50A2204460021043006F049FD0026B9
:1045B000054670B10C2006F02DF8E37806606C2BF0
:1045C000C0E901561FD005D8622B0DD0662B0DD047
:1045D000304670BD702B1DD0722BF9D1E379622B60
:1045E0000CBF0423022313E001230360E379A3F14A
:1045F00064014B424B418372237AA3F16A02534216
:104600005341C372E5E7E379622B0CBF0523032313
:104610000360F1E7E3796C2B0CBF0A230B23F7E768
:104620002DE9F0478449DFF83482844E05468CB08A
:1046300083480A2204F064F9D5E900450127B94608
:104640000A20DFF8F4A188F8009004F0F5F904F0EE
:10465000E2F900231AF80320002A44D0784803F036
:104660008AFE754976480A2204F04AF90023CAF8FE
:104670000030CAF80430AAF80830A06A04F08BFAB7
:104680007062A06A04F038FE002800F0C1800523A3
:10469000A06A002201A904F04FFA9DF80430782B9B
:1046A00005D0684966480A23042203F00FFE9DF8EE
:1046B0000D307A2B05D0634961480A23042203F0A8
:1046C00005FE9DF80530712B2DD19DF80630732B1A
:1046D0000DD19DF80700FFF705FF574958480A22FA
:1046E00004F00EF9ACE701330A2BB3D1C5E7612B17
:1046F000F3D19DF807306F2BEFD10021152206A8CA
:10470000059107F045FB736B4F4A192105A807F087
:1047100013FA05A8FBF7ACFD0A2382B205A94848A5
:1047200003F0D4FDD9E7632B2DD19DF806306D2B16
:1047300017D0732B31D0612BCFD19DF80730212BAF
:1047400060D10C2005F066FF0023C0E900338360D0
:104750009DF808200146A2F16C00424242414A7293
:1047600016E09DF80730682B08D1FDF7EFFAA06A34
:1047700004F013FA35490A230422D0E701A8FFF711
:104780000FFF014618B92F490A230422C7E7002367
:10479000A86A1A4604F0A0F9ECE70A22002102A850
:1047A00006F04EFC9DF8073020B96E2B95D1FCF732
:1047B000C3FF13E0772B05D0BFD8652B15D06E2B28
:1047C000BBD1F4E740F2E733984216BF07EE900AF8
:1047D000DFED1F7AF8EE677AC6ED0B7A1B491848B1
:1047E0000A23042203F072FDA7E740F2E733984260
:1047F00016BF07EE900ADFED167AF8EE677AC6ED7F
:104800000C7AEBE73F2B9CD0402B7FF466AF98E708
:10481000104B1B78002B3FF413AFDFF844A09AF83D
:1048200000302BB90C4906480A23042203F04EFD40
:104830008AF8007004E700BFB60400206804002076
:104840006008002036DE000854DD000837DE00086E
:1048500000000000B50400203BDE000850040020EA
:10486000B404002008B5322004F0E6F8FBE70000AD
:1048700000B595B02C22002109A807F089FA14226E
:10488000002103A807F084FA0023194A0193116C50
:1048900041F080511164126C02F080520192019A31
:1048A000144A0293116841F48041116012680E931A
:1048B00002F480420292029A0222089201201022FF
:1048C000CDE90B0208A802F093FB014608B172B6CD
:1048D000FEE70F23CDE90330CDE90500079003A8DB
:1048E00002F060FD08B172B6FEE715B05DF804FB9A
:1048F000003802400070004080B596B00024A14D01
:1049000001F0ECF8FFF7B4FF142200210DA807F026
:104910003FFA02942B6B9C4843F010032B632B6BE4
:1049200003F010030293029B03942B6B43F00103EB
:104930002B632B6B03F001030393039B04942B6BFA
:1049400043F004032B632B6B03F004030493049BD9
:1049500005942B6B43F002032B632B6B03F00203D4
:104960000593059B06942B6B43F008032B632B6B7D
:1049700003F00803069322464FF48071069B01F072
:104980003DFE824822464FF4004101F037FE2246A8
:104990007F484FF4F04101F031FE01264FF480735F
:1049A00079480DA9CDE90D36CDE90F4401F04CFD54
:1049B0004FF4004375480DA9CDE90D36CDE90F44FC
:1049C00001F042FD4FF4F04371480DA9CDE90D36D9
:1049D000CDE90F4401F038FD4FF404136A480D96F9
:1049E0000DA9CDE90E3401F02FFD22460521062048
:1049F00001F0F8FA062001F027FB01942B6B43F439
:104A000000132B632B6B634D03F400132246052127
:104A100001930C20019B01F0E5FA0C2001F014FB3E
:104A2000224605210E2001F0DDFA0E2001F00CFBDC
:104A3000594BAC604FF6FF772846CDE90D44C5E9E8
:104A40000034EF60AC6102F073FF08B172B6FEE7AC
:104A5000CDE90D000DA9284603F008FB054608B175
:104A600072B6FEE70146102209A807F091F94B4CF7
:104A7000102229460DA8CDE9075507F089F9DFF87E
:104A800028C1A5610F232046C4E900C3C4E9025729
:104A9000C4E9045502F04CFF08B172B6FEE74FF4CA
:104AA000805709A92046099703F083F908B172B627
:104AB000FEE7204602F094FF08B172B6FEE7CDE9AA
:104AC000070007A9204603F0D1FA08B172B6FEE745
:104AD000CDE90F000A23204604220DA9CDE90D36A9
:104AE00003F0C8F8044608B172B6FEE7014610228A
:104AF00009A807F04DF91C2221460DA8284DCDE943
:104B0000074407F045F9274BAC60C5E90034284657
:104B100041F61F43C5E90334AC6102F009FF08B157
:104B200072B6FEE709A92846099703F042F908B1D1
:104B300072B6FEE7284602F027FF08B172B6FEE71C
:104B40000023174807A9CDE9073303F08FFA08B10E
:104B500072B6FEE74FF06008CDE90D800227119094
:104B600008220F480F970DA902F0F0FF08B172B6A6
:104B7000FEE70B480C220DA902F0E8FF0546A8B19C
:104B800072B6FEE700380240001002400004024006
:104B9000000C02408807002000100040D0070020D1
:104BA000400700200008004000040140A348A44C36
:104BB00000F0CCFD1022294609A807F0E9F81C22D4
:104BC00029460DA807F0E4F89E4BA560C4E900351E
:104BD000204641F61F43C4E90335A56102F0A8FE53
:104BE00008B172B6FEE74FF4805609A9204609962F
:104BF00003F0DFF808B172B6FEE7204602F0C4FE0B
:104C0000024608B172B6FEE7CDE90D8011900DA9FC
:104C100020460F9702F09AFF08B172B6FEE7042211
:104C20000DA9204602F092FF054608B172B6FEE7D4
:104C3000204600F08BFD1022294609A807F0A8F8AD
:104C4000814C824F1C2229460DA807F0A1F84FF491
:104C50003473C4E9007320464FF47A73C4E9033512
:104C6000A560A56102F064FE08B172B6FEE709A96D
:104C70002046099603F09DF808B172B6FEE7724827
:104C800002F082FE024608B172B6FEE76023CDE96B
:104C90000D300F9011900DA96B4802F057FF04469C
:104CA00008B172B6FEE76848694D00F04FFD6948EB
:104CB000694B0462C0E900534FF48043C0E90244E9
:104CC000C0E90434C0E9064401F086FE08B172B6BA
:104CD000FEE7624B624918614FF4E132C3E900120A
:104CE0000C22C3E90200C3E90520D861184603F08D
:104CF000BFFA044608B172B6FEE75A4D01462022BB
:104D00000EA807F045F801264FF080434FF6FF77D5
:104D10004FF003080DA92846CDE90944C5E9003440
:104D2000C5E90374AC60AC61CDF834800F9613967E
:104D300002F082FE08B172B6FEE7CDE9090009A9CA
:104D4000284603F093F9044608B172B6FEE7464DD3
:104D5000014620220EA807F01BF8444B2C610DA938
:104D60002846CDE90944C5E90034C5E90247AC61EC
:104D7000CDF834800F96139602F05EFE08B172B63D
:104D8000FEE7CDE9090009A9284603F06FF90546B9
:104D900008B172B6FEE7014610220DA806F0F8FF32
:104DA000334C344BA560C4E900352046324B2561B5
:104DB000257684F82050E562A362E560E66184F818
:104DC0003050666100F0CAFE08B172B6FEE70723F4
:104DD000CDE90D360DA9042320460F9301F060F8AC
:104DE00008B172B6FEE7102200210DA806F0D0FF30
:104DF000224C234A00230125C4E9002320461E4AF1
:104E0000A3602361237684F82030E362A262E3602A
:104E1000E56184F83030656100F0A0FE08B172B63B
:104E2000FEE70F23CDE90D35204604230DA90F938E
:104E300001F036F8044628B372B6FEE740070020BA
:104E400018080020004001406806002000180040BB
:104E50000058004014060020A086010060080020D1
:104E600000480040B0060020F80600200004004082
:104E7000C4040020002001400100000F0C050020A8
:104E800000210140FCF75EFC03F052FD044A054896
:104E9000214603F079FD044B186003F05BFDFEE74B
:104EA0004CDE000865480008C0040020704772B658
:104EB000FEE70000012970B50A46044618BF00222B
:104EC0001448144E4FF4006101F098FB08250022AD
:104ED0004FF48041304601F091FB23064CBF012284
:104EE00000224FF40051304601F088FB013D0122C1
:104EF0004FF48041304601F081FB640015F0FF055E
:104F0000E4B2E4D1BDE87040024801224FF40061F0
:104F100001F074BB000C024070B50F4EB0240021AC
:104F20002046FFF7C7FF00210846FFF7C3FF002117
:104F30001020FFF7BFFF002516F8350001210135CD
:104F4000FFF7B8FF802DF7D10134E4B2B82C06F199
:104F50000106E4D170BD00BF0C0900200023084801
:104F600010B41C460022C11801F832400132802AD8
:104F7000FAD10133082BF5D15DF8044BFFF7CCBF14
:104F80000C09002008B500218D20FFF793FF0021B8
:104F90001420FFF78FFFBDE808400021AF20FFF786
:104FA00089BF0000030610B512D43F2910D801F0C4
:104FB0000703C3F1070301249C40C908064BC1F154
:104FC0000701C9B203EBC000435C12B12343435451
:104FD00010BD23EA0403FAE70C0900202DE9F74F7E
:104FE0001F46203A1E4B9DF830B0D2B203EB02139D
:104FF00001931C4B02EB420203EB8203814688467D
:1050000000930C460026B74202D103B0BDE8F08FF2
:105010000C2F0CBF009B019B9D5D04F108035FFA00
:1050200083FA2B0658BFBBFA8BF2214604F1010428
:105030004CBF5A4652094846E4B2FFF7B3FFA4EB0F
:1050400008026D00BA42EDB207D109F101005FFA22
:1050500080F9C24601365446D5E7A245E1D1F9E7C9
:10506000E4E2000870DE0008F7B504460D46561E5F
:10507000012716F8013F0BB903B0F0BD7A2C82BFAF
:105080001035EDB200243A2D03D9FFF767FF002554
:105090002C460097204632780C2329460834FFF727
:1050A0009DFFE4B2E5E72DE9F04190469DF8182018
:1050B00007460C461E460546454503D9B4420CD961
:1050C000BDE8F08128462146FFF76CFF28463146AF
:1050D0000135FFF767FFEDB2EEE721463846FFF7EF
:1050E00061FF214640460134FFF75CFFE4B2E5E78B
:1050F0002DE9F04117469DF8182005460C461E463E
:105100008046B8450AD9A046B04514D901340135C6
:10511000E4B2EDB2B4421BD3BDE8F0814046214673
:10512000FFF740FF4046314608F10108FFF73AFF1C
:105130005FFA88F8E5E741462846FFF733FF414626
:10514000384608F10108FFF72DFF5FFA88F8DBE722
:10515000A846B84502D30134E4B2DBE74046214615
:1051600008F10108FFF71EFF5FFA88F8F1E770B554
:1051700006460C468D18AC4200DB70BD012221466C
:1051800030461444FFF70EFFE4B2F4E710B501F027
:1051900013FF414B414C1A6F22F001021A671A6F3C
:1051A00022F004021A6701F015FF00224FF480512B
:1051B000204601F023FA642000F0BCFC01222046C6
:1051C0004FF4805101F01AFA0021AE20FFF772FE71
:1051D0000021D520FFF76EFE00215020FFF76AFE68
:1051E0000021A820FFF766FE00213F20FFF762FEA6
:1051F0000021D320FFF75EFE00210846FFF75AFE8C
:1052000000214020FFF756FE00218D20FFF752FEBF
:1052100000211420FFF74EFE00212020FFF74AFE58
:1052200000210220FFF746FE0021A120FFF742FEE9
:105230000021C020FFF73EFE0021DA20FFF73AFEF2
:1052400000211220FFF736FE00218120FFF732FEF9
:105250000021EF20FFF72EFE0021D920FFF72AFEC4
:105260000021F120FFF726FE0021DB20FFF722FEC0
:1052700000213020FFF71EFE0021A420FFF71AFEB8
:105280000021A620FFF716FE0021AF20FFF712FE37
:10529000BDE81040FFF762BE00380240000C02403B
:1052A000B0B1AAB10170136843605368836093681A
:1052B000C360002380ED040AC0ED050A83634363E5
:1052C00003630362C3628362436243640364C36330
:1052D00070470000002800F0878090ED107A90ED74
:1052E0000F6AC0ED060A037880ED117A70EEC00AED
:1052F00080ED106A80ED070AC0ED0F0A002B3ED149
:1053000090ED027AD0ED0A6AD0ED017A436B8363A7
:10531000E0EE876A036B436360EEA77A90ED037A51
:10532000C0ED097A70EEC60AC0ED0A6AC0ED0C0A3B
:1053300060EE870A90ED057AC0ED0B0AF4EEC76ABD
:10534000F1EE10FA02DD80ED0A7A06E0B1EE477A5E
:10535000F4EEC76AF1EE10FAF5D490ED0A7A77EE22
:10536000877A77EEA07A90ED047AC0ED087AF4EEB1
:10537000C77AF1EE10FA2DDD80ED087A31E0012BCD
:10538000D0ED085A2DD170EEC67AD0ED016A436B8C
:10539000836367EEA67AD0ED026A036BC0ED097AEB
:1053A000B0EE005A60EEA66AE6EE450A436390ED61
:1053B000036AC0ED0A6A37EE207A77EEA67A80EDAE
:1053C0000C7A27EE067A77EE877A80ED0B7A77EE05
:1053D000A57AC8E7B1EE477AF4EEC77AF1EE10FA93
:1053E000CAD490ED080A70479FED010A704700BFCC
:1053F0000000000082B00E4B00220092596C41F474
:1054000080415964596C01F48041009100990192E6
:10541000196C41F0805119641B6C03F080530193A7
:10542000019B0F216FF0010002B000F0DBBD00BF57
:105430000038024010B514228AB0044600210DEB5A
:10544000020006F0A5FC2368214A93421FD1214B9C
:105450002148002101915A6C42F480725A645A6CBE
:1054600002F480720192019A02911A6B42F00102D9
:105470001A631B6B03F0010302938021029B032339
:10548000CDE9051305A900F0DFFF0AB010BD134AEE
:105490009342FAD10F4B1248002103915A6C42F407
:1054A00000725A645A6C02F400720392039A0491D7
:1054B0001A6B42F004021A631B6B03F0040304939B
:1054C000049B20220323CDE9052305A9DBE700BFC8
:1054D000002001400038024000000240002101404D
:1054E0000008024030B5044689B01422002103A808
:1054F00006F04EFC2268144B9A4222D1134C1448F9
:1055000000250195236B43F002032363236B03F013
:1055100002030193019B4FF440621223CDE9032360
:1055200003210423CDE9061303A900F08DFF0295A2
:10553000236C43F480032364236C03F480030293FD
:10554000029B09B030BD00BF005800400038024047
:105550000004024070B514228AB0044600210DEB0D
:10556000020006F015FC2368B3F1804F37D103F534
:105570000E33002400941A6C2E4842F001021A6483
:105580001A6C02F001020092009A01941A6B42F028
:1055900001021A631A6B02F001020192019A02944D
:1055A0001A6B42F002021A631B6B03F002030293B0
:1055B000029B02264FF40043012505A9CDE90536DB
:1055C000099500F041FF08231B48099505A9CDE97D
:1055D0000536CDE9074400F037FF0AB070BD174A21
:1055E0009342FAD1164B1448002403941A6C42F0EB
:1055F00002021A641A6C02F002020392039A0494E3
:105600001A6B42F002021A631B6B03F0020304934D
:10561000049B3022022305A9CDE90523099300F05C
:1056200013FF224605211D2000F0DCFC1D2000F0A8
:105630000BFDD2E7000002400004024000040040DD
:105640000038024010B504468CB01422002107A88F
:1056500006F09EFB2368364A93420DD10023019346
:10566000344B1A6C42F004021A641B6C03F00403FE
:105670000193019B0CB010BD2F4A93420CD1002323
:1056800002932C4B1A6C42F010021A641B6C03F04C
:1056900010030293029BEDE7284A934228D1254B41
:1056A0002748002403945A6C42F002025A645A6C50
:1056B00002F002020392039A04941A6B42F004026D
:1056C0001A631B6B03F004030493049B80220223E0
:1056D000CDE9072307A903230B9300F0B5FE22466B
:1056E00005212E2000F07EFC2E2000F0ADFCC1E74D
:1056F000144A93420CD1002305930E4B5A6C42F48A
:1057000080325A645B6C03F480330593059BB1E7E8
:105710000D4A9342AED100230693064B1A6C42F019
:1057200040021A641B6C03F040030693069BA1E73A
:105730000008004000380240001000400004014012
:1057400000080240004001400018004010B5044627
:1057500088B01422002103A806F01AFB2368244A0B
:10576000934214D100230093224B1A6B42F00202A1
:105770001A631B6B03F002030093009B4FF440700D
:105780000223CDE903031C48079303A916E01B4A33
:10579000934217D100230193164B19481A6B42F01C
:1057A00010021A631B6B03F0100301936021019B2D
:1057B0000223CDE903130323079303A900F044FE5A
:1057C00008B010BD0F4A9342FAD100230293094B4F
:1057D0001A6B42F002021A631B6B03F0020302937E
:1057E000029B4FF480420223CDE903230923CAE739
:1057F0000008004000380240000402400040014020
:1058000000100240001800402DE9F041064688B023
:105810001422002103A806F0BBFA3268374B9A42E3
:1058200069D1002503F5F83301951A6C344842F428
:1058300080221A641A6C02F480220192019A029565
:105840001A6B42F008021A631B6B03F00803029301
:105850000224029B4FF003084FF48073072703A92B
:10586000CDE90334CDE9068700F0EEFD4FF4007377
:105870002348079703A9CDE90334CDE9054800F093
:10588000E3FD204C20484FF00063C4E900034FF4CF
:1058900080632046C4E90255C4E90435C4E90655CD
:1058A000C4E9085500F008FC08B1FFF700FB174AEF
:1058B000B463A663164C4FF00063C4E90023402193
:1058C00000234FF480622046C4E90213C4E9042394
:1058D000C4E90633C4E9083300F0EEFB08B1FFF772
:1058E000E6FA7463272000220521A66300F07AFB04
:1058F000272000F0A9FB08B0BDE8F0810048004077
:10590000000C02405405002028600240586002400C
:10591000B4050020FEE7FEE7FEE7FEE7FEE770477E
:1059200008B500F0F5F804F08DF9012803D0BDE8C2
:10593000084004F097BC08BD012000F065BE0000DF
:10594000014800F0C3BC00BF54050020014800F02E
:10595000BDBC00BFB4050020014801F0E0BE00BF9F
:10596000F8060020014802F037BE00BF60080020A2
:10597000014801F0D4BE00BFD007002001207047CD
:1059800008B506F0ABFA162303604FF0FF3008BDF0
:1059900008B506F0A3FA16230360FEE770B50D46BE
:1059A00014460E46731B9C4201DC204670BDAFF3CB
:1059B000008006F8010BF5E770B50D4614460E465B
:1059C000731B9C4201DC204670BD16F8010BAFF33F
:1059D0000080F5E74FF0FF3070474FF400534B6005
:1059E0000020704701207047002070470B4A116863
:1059F00010B5034609B90A491160106809490A4CF3
:105A00000344091B8B4206D906F068FA0C23036095
:105A10004FF0FF3010BD1360FCE700BF0C0D0020FD
:105A2000B05700200000022000040000034AD2F812
:105A3000883043F47003C2F88830704700ED00E00E
:105A4000DFF834D00D480E490E4A002302E0D45846
:105A5000C4500433C4188C42F9D30B4A0B4C0023B6
:105A600001E013600432A242FBD3FFF7DFFF06F030
:105A70003BFAFEF741FF70470000022000000020C3
:105A800048020020DCEC000848020020B05700204B
:105A9000FEE7000038B50E4B1A784FF47A73B3FB6B
:105AA000F2F30C4A05461068B0FBF3F000F0DAFAA6
:105AB000044658B90F2D09D8024629464FF0FF3049
:105AC00000F090FA044B20461D6038BD0120FCE731
:105AD000600000205C0000206400002008B50B4B33
