:020000040800F2
:1000000000000220D9530008AD520008AF5200088A
:10001000B1520008B3520008B552000800000000B9
:10002000000000000000000000000000119B00081C
:10003000B752000800000000A19B0008B952000858
:10004000295400082954000829540008295400089C
:100050002954000829540008D152000829540008E6
:10006000295400082954000829540008295400087C
:10007000D952000829540008E55200082954000804
:10008000295400082954000829540008295400085C
:10009000295400082954000829540008295400084C
:1000A000295400082954000829540008295400083C
:1000B00029540008F1520008295400082954000866
:1000C000295400082954000829540008295400081C
:1000D000295400082954000829540008FD5200083A
:1000E00029540008295400082954000829540008FC
:1000F000295400082954000809530008295400080D
:1001000029540008295400082954000829540008DB
:1001100029540008295400082954000829540008CB
:1001200029540008295400082954000829540008BB
:1001300029540008295400082954000829540008AB
:10014000295400082954000829540008295400089B
:10015000295400082954000829540008295400088B
:10016000295400082954000829540008295400087B
:1001700029540008295400082954000800000000F0
:0801800029540008295400086D
:1001900010B5054C237833B9044B13B10448AFF3C1
:1001A00000800123237010BD4802002000000000E1
:1001B0007CD6000808B5034B1BB103490348AFF3D5
:1001C000008008BD000000004C0200207CD6000822
:1001D00001F0FF01102A2BDB10F0070F08D010F8F8
:1001E000013B013A8B422DD010F0070F42B3F6D1FC
:1001F000F0B441EA012141EA014122F007047FF015
:1002000000070023F0E80256083C85EA010586EA6B
:10021000010685FA47F5A3FA87F586FA47F6A5FAA7
:1002200087F68EB9EED1F0BC01F0FF0102F00702B3
:1002300032B110F8013B013A83EA010313B1F8D15E
:100240000020704701387047002D06BF354603383F
:10025000073815F0010F07D1013015F4807F02BF78
:10026000013015F4C03F0130F0BC0138704700BFC9
:10027000034613F8012B002AFBD1181A01387047E6
:1002800081F0004102E000BF83F0004330B54FEA47
:1002900041044FEA430594EA050F08BF90EA020FB4
:1002A0001FBF54EA000C55EA020C7FEA645C7FEA47
:1002B000655C00F0E2804FEA5454D4EB5555B8BF6A
:1002C0006D420CDD2C4480EA020281EA030382EADB
:1002D000000083EA010180EA020281EA0303362D6D
:1002E00088BF30BD11F0004F4FEA01314FF4801C40
:1002F0004CEA113102D0404261EB410113F0004F52
:100300004FEA03334CEA133302D0524263EB430308
:1003100094EA050F00F0A780A4F10104D5F1200EA6
:100320000DDB02FA0EFC22FA05F2801841F1000101
:1003300003FA0EF2801843FA05F359410EE0A5F1D5
:1003400020050EF1200E012A03FA0EFC28BF4CF006
:10035000020C43FA05F3C01851EBE37101F00045BC
:1003600007D54FF0000EDCF1000C7EEB00006EEBC9
:100370000101B1F5801F1BD3B1F5001F0CD3490853
:100380005FEA30004FEA3C0C04F101044FEA4452AA
:1003900012F5800F80F09A80BCF1004F08BF5FEA31
:1003A000500C50F1000041EB045141EA050130BD11
:1003B0005FEA4C0C404141EB0101013C28BFB1F523
:1003C000801FE9D291F0000F04BF01460020B1FA6E
:1003D00081F308BF2033A3F10B03B3F120020CDA41
:1003E0000C3208DD02F1140CC2F10C0201FA0CF01F
:1003F00021FA02F10CE002F11402D8BFC2F1200C84
:1004000001FA02F120FA0CFCDCBF41EA0C01904039
:10041000E41AA2BF01EB0451294330BD6FEA040482
:100420001F3C1CDA0C340EDC04F11404C4F120026D
:1004300020FA04F001FA02F340EA030021FA04F37F
:1004400045EA030130BDC4F10C04C4F1200220FAD6
:1004500002F001FA04F340EA0300294630BD21FA14
:1004600004F0294630BD94F0000F83F4801306BFDA
:1004700081F480110134013D4EE77FEA645C18BFCE
:100480007FEA655C29D094EA050F08BF90EA020F65
:1004900005D054EA000C04BF1946104630BD91EA5D
:1004A000030F1EBF0021002030BD5FEA545C05D160
:1004B0004000494128BF41F0004130BD14F580049F
:1004C0003CBF01F5801130BD01F0004545F0FE4113
:1004D00041F470014FF0000030BD7FEA645C1ABF48
:1004E000194610467FEA655C1CBF0B46024650EA7F
:1004F000013406BF52EA033591EA030F41F40021AB
:1005000030BD00BF90F0000F04BF0021704730B530
:100510004FF4806404F132044FF000054FF0000105
:1005200050E700BF90F0000F04BF0021704730B5C6
:100530004FF4806404F1320410F0004548BF40429B
:100540004FF000013EE700BF42004FEAE2014FEAF0
:1005500031014FEA02701FBF12F07F4393F07F4FCB
:1005600081F06051704732F07F4208BF704793F0CE
:100570007F4F04BF41F40021704730B54FF46074E1
:1005800001F0004521F000411CE700BF50EA0102E4
:1005900008BF704730B54FF000050AE050EA01028D
:1005A00008BF704730B511F0004502D5404261EBFD
:1005B00041014FF4806404F132045FEA915C3FF43E
:1005C000D8AE4FF003025FEADC0C18BF03325FEADB
:1005D000DC0C18BF033202EBDC02C2F1200300FA8C
:1005E00003FC20FA02F001FA03FE40EA0E0021FAB1
:1005F00002F11444BDE600BF70B54FF0FF0C4CF49F
:10060000E06C1CEA11541DBF1CEA135594EA0C0F50
:1006100095EA0C0F00F0DEF82C4481EA030621EA8B
:100620004C5123EA4C5350EA013518BF52EA0335C6
:1006300041F4801143F4801338D0A0FB02CE4FF078
:100640000005E1FB02E506F00042E0FB03E54FF0A8
:100650000006E1FB03569CF0000F18BF4EF0010EA0
:10066000A4F1FF04B6F5007F64F5407404D25FEA9C
:100670004E0E6D4146EB060642EAC62141EA55514F
:100680004FEAC52040EA5E504FEACE2EB4F1FD0C91
:1006900088BFBCF5E06F1ED8BEF1004F08BF5FEA0F
:1006A000500E50F1000041EB045170BD06F00046C1
:1006B00046EA010140EA020081EA0301B4EB5C046E
:1006C000C2BFD4EB0C0541EA045170BD41F4801166
:1006D0004FF0000E013C00F3AB8014F1360FDEBF8B
:1006E000002001F0004170BDC4F10004203C35DA67
:1006F0000C341BDC04F11404C4F1200500FA05F3EA
:1007000020FA04F001FA05F240EA020001F000428A
:1007100021F0004110EBD37021FA04F642EB060100
:100720005EEA430E08BF20EAD37070BDC4F10C042A
:10073000C4F1200500FA04F320FA05F001FA04F2EE
:1007400040EA020001F0004110EBD37041F10001DA
:100750005EEA430E08BF20EAD37070BDC4F12005E5
:1007600000FA05F24EEA020E20FA04F301FA05F24D
:1007700043EA020321FA04F001F0004121FA04F2F5
:1007800020EA020000EBD3705EEA430E08BF20EAC5
:10079000D37070BD94F0000F0FD101F000464000FF
:1007A00041EB010111F4801F08BF013CF7D041EA81
:1007B000060195F0000F18BF704703F00046520085
:1007C00043EB030313F4801F08BF013DF7D043EA56
:1007D0000603704794EA0C0F0CEA135518BF95EA0C
:1007E0000C0F0CD050EA410618BF52EA4306D1D193
:1007F00081EA030101F000414FF0000070BD50EAB2
:10080000410606BF1046194652EA430619D094EA3B
:100810000C0F02D150EA013613D195EA0C0F05D125
:1008200052EA03361CBF104619460AD181EA030179
:1008300001F0004141F0FE4141F470014FF0000031
:1008400070BD41F0FE4141F4780170BD70B54FF0CC
:10085000FF0C4CF4E06C1CEA11541DBF1CEA13554C
:1008600094EA0C0F95EA0C0F00F0A7F8A4EB05042E
:1008700081EA030E52EA03354FEA013100F0888025
:100880004FEA03334FF0805545EA131343EA1263EE
:100890004FEA022245EA111545EA10654FEA0026A3
:1008A0000EF000419D4208BF964244F1FD0404F55C
:1008B000407402D25B084FEA3202B61A65EB0305B8
:1008C0005B084FEA32024FF480104FF4002CB6EB75
:1008D000020E75EB030E22BFB61A754640EA0C00F5
:1008E0005B084FEA3202B6EB020E75EB030E22BF35
:1008F000B61A754640EA5C005B084FEA3202B6EB76
:10090000020E75EB030E22BFB61A754640EA9C0034
:100910005B084FEA3202B6EB020E75EB030E22BF04
:10092000B61A754640EADC0055EA060E18D04FEAC2
:10093000051545EA16754FEA06164FEAC30343EA62
:1009400052734FEAC2025FEA1C1CC0D111F4801F2F
:100950000BD141EA00014FF000004FF0004CB6E728
:1009600011F4801F04BF01430020B4F1FD0C88BFC7
:10097000BCF5E06F3FF6AFAEB5EB030C04BFB6EBD2
:10098000020C5FEA500C50F1000041EB045170BDC5
:100990000EF0004E4EEA113114EB5C04C2BFD4EBF2
:1009A0000C0541EA045170BD41F480114FF0000E76
:1009B000013C90E645EA060E8DE60CEA135594EAF2
:1009C0000C0F08BF95EA0C0F3FF43BAF94EA0C0FF5
:1009D0000AD150EA01347FF434AF95EA0C0F7FF46A
:1009E00025AF104619462CE795EA0C0F06D152EABE
:1009F00003353FF4FDAE1046194622E750EA4106A2
:100A000018BF52EA43067FF4C5AE50EA41047FF4B2
:100A10000DAF52EA43057FF4EBAE12E74FF0FF3C17
:100A200006E000BF4FF0010C02E000BF4FF0010CE8
:100A30004DF804CD4FEA410C7FEA6C5C4FEA430C61
:100A400018BF7FEA6C5C1BD001B050EA410C0CBFB0
:100A500052EA430C91EA030F02BF90EA020F002012
:100A6000704710F1000F91EA030F58BF994208BF79
:100A700090422CBFD8176FEAE37040F00100704736
:100A80004FEA410C7FEA6C5C02D150EA013C07D18D
:100A90004FEA430C7FEA6C5CD6D152EA033CD3D0D8
:100AA0005DF8040B704700BF8446104662468C46D2
:100AB0001946634600E000BF01B5FFF7B7FF002805
:100AC00048BF10F1000F01BD4DF808EDFFF7F4FF2E
:100AD0000CBF012000205DF808FB00BF4DF808EDB9
:100AE000FFF7EAFF34BF012000205DF808FB00BFDC
:100AF0004DF808EDFFF7E0FF94BF012000205DF8FE
:100B000008FB00BF4DF808EDFFF7CEFF94BF0120B2
:100B100000205DF808FB00BF4DF808EDFFF7C4FFAB
:100B200034BF012000205DF808FB00BF4FEA410CF4
:100B30007FEA6C5C02D150EA013C0AD14FEA430CD7
:100B40007FEA6C5C02D152EA033C02D14FF0000014
:100B500070474FF0010070474FEA410212F5001252
:100B600015D211D56FF47873B3EB625212D94FEAF4
:100B7000C12343F0004343EA505311F0004F23FADE
:100B800002F018BF404270474FF00000704750EA33
:100B9000013005D111F0004008BF6FF000407047F0
:100BA0004FF00000704700BF4A0011D212F500124A
:100BB00011D20DD56FF47873B3EB62520ED44FEAB5
:100BC000C12343F0004343EA505323FA02F0704735
:100BD0004FF00000704750EA013002D14FF0FF3073
:100BE00070474FF0000070474FEA4102B2F1E04316
:100BF00024BFB3F5001CDCF1FE5C0DD901F0004C04
:100C00004FEAC0024CEA5070B2F1004F40EB830053
:100C100008BF20F00100704711F0804F21D113F17F
:100C20003872BCBF01F00040704741F480114FEAB8
:100C30005252C2F11802C2F1200C10FA0CF320FA41
:100C400002F018BF40F001004FEAC1234FEAD3235E
:100C500003FA0CFC40EA0C0023FA02F34FEA4303C8
:100C6000CCE77FEA625307D150EA01331EBF4FF051
:100C7000FE4040F44000704701F0004040F0FE406C
:100C800040F40000704700BF53B94AB9002908BFBB
:100C900000281CBF4FF0FF314FF0FF3000F070B95B
:100CA000ADF1080C6DE904CE00F006F8DDF804E0C3
:100CB000DDE9022304B070472DE9F047089E0D4698
:100CC00004460F46002B4AD18A42944665D9B2FAAF
:100CD00082F343B102FA03FCC3F120029F4020FAE1
:100CE00002F217439C404FEA1C4E1FFA8CF5B7FBEB
:100CF000FEF1220C0EFB117742EA074201FB05F0E0
:100D000090420AD91CEB020201F1FF3780F01C81EE
:100D1000904240F2198102396244121AA4B2B2FB25
:100D2000FEF00EFB102244EA024400FB05F5A5424A
:100D30000AD91CEB040400F1FF3280F00781A542C0
:100D400040F204816444023840EA0140641B0021FF
:100D50001EB1DC400023C6E90043BDE8F0878B42AA
:100D600008D9002E00F0ED800021C6E900050846F4
:100D7000BDE8F087B3FA83F1002949D1AB4202D331
:100D8000824200F2F880841A65EB030201201746C4
:100D9000002EE2D0C6E90047DFE702B9FFDEB2FA73
:100DA00082F3002B40F090808A1A4FEA1C471FFA0A
:100DB0008CFE0121B2FBF7F507FB1520220C42EA5D
:100DC00000420EFB05F0904208D91CEB020205F12F
:100DD000FF3802D2904200F2CB804546121AA4B2EC
:100DE000B2FBF7F007FB102244EA02440EFB00FEC0
:100DF000A64508D91CEB040400F1FF3202D2A64537
:100E000000F2BB801046A4EB0E0440EA05409FE7C9
:100E1000C1F120078B4022FA07FC4CEA030C05FACB
:100E200001F420FA07F3FD404FEA1C492343B5FBC8
:100E3000F9F81FFA8CFE09FB18551C0C44EA05440E
:100E400008FB0EF5A54202FA01F200FA01F00BD9F7
:100E50001CEB040408F1FF3A80F08880A54240F2C0
:100E60008580A8F102086444641B9DB2B4FBF9F3C9
:100E700009FB134445EA044403FB0EFEA64508D9CA
:100E80001CEB040403F1FF356CD2A6456AD9023B82
:100E9000644443EA0843A3FB0295A4EB0E04AC426E
:100EA000C846AE4656D353D056B1B0EB080264EBF9
:100EB0000E0404FA07F7CA40CC401743C6E9007491
:100EC00018460021BDE8F087C3F1200102FA03FCB7
:100ED00020FA01F225FA01F19D402A434FEA1C470E
:100EE0001FFA8CFEB1FBF7F007FB1015110C41EA5D
:100EF000054100FB0EF58D4204FA03F408D91CEB02
:100F0000010100F1FF382FD28D422DD90238614402
:100F1000491B92B2B1FBF7F507FB151142EA0142FA
:100F200005FB0EF1914208D91CEB020205F1FF38D6
:100F300016D2914214D9023D6244521A45EA004148
:100F400038E73146304608E73946E6E61046FBE624
:100F50004845A9D2B9EB020865EB0C0E013BA3E7AB
:100F60004546EAE72B4694E74046D1E7D0467BE783
:100F7000023D624432E708460AE76444023842E729
:100F8000704700BF7FB501238DF817206422CDE99B
:100F900001320DF11702009200680A46D02105F0D7
:100FA0008FFA07B05DF804FB1FB54FF0640C012306
:100FB000CDE9013C009200680A46D02105F010FB03
:100FC00005B05DF804FB000073B5002201607F21CD
:100FD0000446FFF7D7FF404D0DF1060228700021AF
:100FE0002046FFF7E1FF002228707F212046FFF70F
:100FF000C9FF28700A2004F069FA01220621204660
:10100000FFF7C0FF28700A2004F060FA3F22072192
:101010002046FFF7B7FF28700A2004F057FA002295
:1010200007212046FFF7AEFF01222870102120463D
:10103000FFF7A8FF002628700DF107020F212046B8
:101040008DF80760FFF7B0FF9DF807200F2142F0F1
:1010500002022046FFF796FF20227F212046FFF75D
:1010600091FF3246287031462046FFF78BFF37222A
:10107000287001212046FFF785FF062228700221F3
:101080002046FFF77FFF1022287011212046FFF72E
:1010900079FF3246287010212046FFF773FF312276
:1010A000287014212046FFF76DFF32462870532127
:1010B0002046FFF767FF032215212046FFF762FF56
:1010C00032467F212046FFF75DFF2870642004F040
:1010D000FDF9304602B070BD640200207FB50123E7
:1010E0008DF817206422CDE901320DF1170200922C
:1010F00000680A46182105F0E3F907B05DF804FB23
:10110000F7B5002301AA2E210446ADF80430FFF7FD
:101110004BFF264F0DF1050238702D212046FFF7B9
:1011200043FF01AA387030212046BDF90460FFF763
:101130003BFF0DF1050238702F212046FFF734FFE9
:1011400001AA387032212046BDF90450FFF72CFF68
:101150000DF10502387031212046FFF725FF07EE1B
:10116000106A9FED136ADFED136ABDF90430387021
:10117000B8EEC77A07EE903A27EE067AF8EEE77AED
:1011800027EE267A67EE867A84ED017A07EE105A0A
:10119000B8EEC77A67EEA67A27EE067AC4ED037A30
:1011A00027EE267A84ED027A03B0F0BD64020020B7
:1011B00000008038C3F51C412DE9F7430024DFF817
:1011C000C080ADF8044005464FF04009264627464A
:1011D00001AA34212846FFF7E7FE0DF1050233216D
:1011E0002846FFF7E1FEBDF8043001203B441FB262
:1011F00004F06CF901AA36212846FFF7D5FE0DF15F
:10120000050235212846FFF7CFFEBDF80430012046
:1012100033441EB204F05AF901AA38212846FFF7D8
:10122000C3FE0DF1050237212846FFF7BDFEBDF8CC
:10123000043088F800002344192009F1FF391CB25A
:1012400007F0C6F819F0FF09C2D1BF1107EE907A76
:10125000F8EEE77AB611C5ED0D7A07EE906AF8EE72
:10126000E77AA411C5ED0E7A07EE904A98F80000CF
:10127000F8EEE77AC5ED0F7A03B0BDE8F08300BF62
:1012800064020020F7B5002301AA36210446ADF818
:101290000430FFF789FE284F0DF105023870352123
:1012A0002046FFF781FE01AA387038212046BDF99B
:1012B0000460FFF779FE0DF10502387037212046F2
:1012C000FFF772FE01AA387034212046BDF90450A0
:1012D000FFF76AFE0DF10502387033212046FFF753
:1012E00063FE07EE906AB8EEE77AD4ED0E7AD4ED9D
:1012F0000F6ABDF9043094ED0D6A387037EE677AE5
:1013000007EE905AF8EEE77A77EEE67A06EE903A34
:10131000F8EEE66A76EEC66A9FED086A66EE866AC1
:1013200027EE067A67EE867AC4ED046A84ED057AC4
:10133000C4ED067A03B0F0BD640200202D237A3D8F
:1013400002223121FFF7CABEF0B589B003F07AFC62
:1013500003F060FB002101240846674A03F0E0FB2C
:1013600003F06CFB1523332210212E20009403F090
:10137000F6FB212333221C212E20009403F0EFFBE7
:101380002D23332228212E20009403F0E8FB39235B
:10139000332234212E20009403F0E1FB3A22032172
:1013A000372003F040FC554A0D21204603F0B8FBDE
:1013B000534A1921204603F0B3FB524A2521204607
:1013C00003F0AEFB504A3121204603F0A9FB4F4AFF
:1013D00000213C2003F0A4FB4D4A0C213C2003F0EB
:1013E0009FFB00264B4A24213C2003F099FB03F08D
:1013F000EFFACDE90566ADF81C60474D0096142361
:10140000322211212F2003F0CFFB2B7800933222C0
:1014100020231D212F2003F0C7FBAB78009332223D
:101420002C2329212F2003F0BFFB3C4FEB780093A6
:101430003222382335212F2003F0B6FB3B680024ED
:101440009869ADF81C40CDE90544FFF77DF8344AB2
:10145000CDE900010A2105A80AF03EF8A978002983
:1014600048D005AA21465020002403F059FB3869D2
:10147000ADF81C40CDE90544FFF766F8294ACDE9EF
:1014800000010A2105A80AF027F805AA0C21552019
:1014900003F046FBB868ADF81C40CDE90544FFF702
:1014A00053F8CDE902017868FFF74EF81E4ACDE9FE
:1014B00000010A2105A80AF00FF805AA1821412009
:1014C00003F02EFB7B6B194AADF81C400A2105A8DE
:1014D000CDE905440AF000F805AA2421552003F0BF
:1014E0001FFB03F075FAFA2086F001062C6006F067
:1014F0006FFF82E70E4AB6E7B0D60008B7D60008FD
:10150000BCD60008C1D60008C6D60008CBD6000855
:10151000CED60008D2D6000850040020680400206F
:10152000D6D60008E1D60008E7D60008F4D60008B1
:10153000DCD600082DE9F041704E2DED028B9FEDB9
:10154000708A704F00244FF010082546304604F092
:1015500077F8384604F074F80221304604F015F9A3
:10156000304604F065F9022115FA80F5384604F09A
:101570000CF9384604F05CF914FA80F4304604F0B3
:10158000E9F8384604F0E6F8B8F10108DED1C5F311
:101590000F1307EE903A9FED5C6ADFED5C6AF8EEA0
:1015A000E77AC4F30F1367EE867A87EEA67A07EE22
:1015B000903AF8EEE77AB4EEC87A67EE867AF1EE02
:1015C00010FA87EEA66AC2BFF2EE0A6AC6EE877A02
:1015D0009FED4F7ADFED4F6AB4EEC86ACCBF77EE6D
:1015E000C77AFFEE007AF1EE10FA7ADDF2EE0A5ACF
:1015F00085EE867AF4EEE67A9FED456AF1EE10FA12
:1016000037EE467A62DCF5EEC07AF1EE10FA5DD480
:10161000F5EEC07AF1EE10FA08DDB2EE046AF4EEEF
:10162000467AF1EE10FA48BFF0EE467AB4EEE67A6A
:10163000F1EE10FA4DDCB5EEC07AF1EE10FA48D4B6
:1016400008DDF2EE046AB4EE667AF1EE10FA48BFF5
:10165000B0EE667A304C31482368314900EB8302A2
:10166000C2ED007A01EB830282ED007A01330A2297
:10167000DFED2C7A93FBF2F502FB15332360B0EE1D
:10168000677A1346F0EC016A37EE267AF1EC016ACC
:10169000013B77EEA67AF5D1B2EE046AC7EE066A90
:1016A000214B0122642087EE867AC3ED006A1F4B2E
:1016B00083ED007A1E4BC3ED016A83ED027A1D4B68
:1016C0009A7006F085FE06F072FE3AE7F0EE667A52
:1016D000ACE79FED107ABDE7F0EE667AB0EE667A81
:1016E000B8E7F4EEE67AF1EE10FAF5DCF5EEC07A42
:1016F000F1EE10FAF0D4BFEE007A89E7C0040020C2
:10170000CDCCCC3D080500203333534000F07F455D
:101710003D0AD73E0000484288020020F403002022
:101720001C04002000000000480400204C0400209D
:101730006804002050040020014B01221A707047F9
:101740007402002008B5114B1148012283F82820AB
:10175000104ADA621A6302F00FFC0F4800F0CCFB6B
:101760000E4A0F48002106F0DBFD0E4B0E4A1860B2
:1017700000210E4806F0D4FD0D4B0E4A18600021E2
:101780000D4806F0CDFD0D4B186008BD6804002023
:1017900060040020000020418C0200209CD700083B
:1017A000491300085804002078D70008611B00087E
:1017B000F003002054D70008351500084404002029
:1017C00008B5124BD3ED006A114BD3ED000A114B53
:1017D00093ED007A104BD3ED007A26EEA70AA0EE27
:1017E000870A60EEA00A30EE000AE6EEA60AE7EEEF
:1017F000470AE7EEE70A08F051FCDFED087A084BEC
:1018000020EE270A83ED000A08BD00BF000000207B
:10181000680200206C02002070020020E12E654268
:10182000780200200000000062EE027A2DE9F04FFD
:10183000E1EEA17ADFF81883DFF818A3DFF8189338
:10184000DFF818B3E2EEA27A2DED108BDAED00AAE4
:10185000D8ED00FA99ED00BA9BED00AAF6EE009AD9
:101860002FEEA96A6AEEA96A83B017EE900AB0EE6D
:1018700041CA13EE104AB0EE61EAF0EE42DAB0EE81
:10188000628A8DED016ACDED006AF0EE40BAF0EEAD
:1018900060CAFEF759FE41EC100B08F0D3FB51EC87
:1018A000100BFFF7A1F907EE900A8EEE277A8DEE66
:1018B000A75A7FEEAFEAC8EE275A3BEE0BDA6EEE80
:1018C000EA7A7AEEAA8AEAEE0D7AB7EE008A77EE25
:1018D000C77AABEE4D8A2AEE287AAAEEE88AABEEFA
:1018E0002E7A38EE658A37EE457A3AEE0A5A6EEE6F
:1018F000875A7DEE0D4AE7EE855A67EEE8DAE8EEA4
:10190000645AEDEE07DAB0EE65FA78EEA85A68EEA2
:10191000878A28EE658AEDEE278AA7EE058A2BEEE8
:10192000299AAEEEE78A6FEE0F7A6AEE299AEDEE0B
:10193000AD7AE8EE087AE8EEA87A17EE900AFEF79C
:1019400003FE41EC100B08F07DFB51EC100BFFF790
:101950004BF9DDED006A9DED016A07EE900A8DEE10
:10196000A7EA2046CFEE27DA2CEEE6FA88EE27DA51
:10197000A9EE6BFA2CEE498A29EE2C9AC8EEA7EA5A
:10198000A6EE0C9A66EE8C8AA9EECCFAE6EE2B8ACD
:10199000A6EE2C8AA6EEEB9AFEF7D6FD04461FEEC5
:1019A000100A0D46FEF7D0FD06461EEE100A0F4641
:1019B000FEF7CAFD64A3D3E90023FEF71DFE02462D
:1019C0000B4630463946FEF75FFC22462B46FEF7B3
:1019D00013FE06461FEE900A0F46FEF7B5FD0246BF
:1019E0000B4630463946FEF751FCE9EEEC8AFFF72C
:1019F000FBF8A9EEAB8A09EE900A18EE900AFEF702
:101A0000A3FD06461DEE900A0F46FEF79DFD4EA370
:101A1000D3E90023FEF7F0FD02460B463046394677
:101A2000FEF732FC22462B46FEF7E6FD06461BEE8D
:101A3000100A0F46FEF788FD02460B46304639462F
:101A4000FEF724FCFFF7D0F80BEE100A18EE100A90
:101A5000FEF77AFD06461DEE100A0F46FEF774FDEE
:101A600039A3D3E90023FEF7C7FD02460B463046F3
:101A70003946FEF709FC22462B46FEF7BDFD064619
:101A80001AEE900A0F46FEF75FFD02460B463046FF
:101A90003946FEF7FBFBFFF7A7F808EE900A19EEB0
:101AA000100AFEF751FD06461EEE900A0F46FEF79D
:101AB0004BFD25A3D3E90023FEF79EFD02460B460E
:101AC00030463946FEF7E0FB22462B46FEF794FDF2
:101AD00004461AEE100A0D46FEF736FD02460B4686
:101AE00020462946FEF7D2FBFFF77EF86BEE0B7A15
:101AF00008EE100AE9EEA97AE8EEA87AE8EE087A8C
:101B000017EE900AFEF720FD41EC100B08F09AFA50
:101B100051EC100BFFF768F807EE900A89EEA77AF0
:101B200088ED007A8BEE277A89ED007A88EEA77A25
:101B30008AED007A88EE277A8BED007A03B0BDEC4F
:101B4000108BBDE8F08F00BF7DAC6B5A9CF48E3FCC
:101B5000000000206C0200206802002070020020BB
:101B60002DE9F0432DED028B654C6649664E654FBD
:101B7000DFF8CC81DFF8CC919BB02046FFF724FA48
:101B80004FF4C87006F024FC2046FFF715FB2046F2
:101B9000FFF7D6FB0021602202A80191346009F012
:101BA000C7FD5A4809F090FC0125690089B20A2353
:101BB0000122384604F01CFE58B92A46414601A8C5
:101BC00009F0BEFC4FF0FF331A2201A9484606F087
:101BD00049F801357F2DE8D103F072FCDFF8209140
:101BE0009FED4B8A0546DFF86081502006F0F0FB40
:101BF00006F0DDFB98F8003023B1002388F80030B0
:101C0000FFF7DEFD4846FFF77BFA4846FFF73AFB51
:101C100003F056FC431B03EE103ADFED3E7A9FEDD6
:101C20003E7A94ED061AD4ED050A94ED040AD4ED3B
:101C3000032A94ED022AD4ED011AB8EE433A21EEBC
:101C4000271A23EE073A60EEA70A20EE270A074676
:101C5000FFF7EAFD314BD3ED006A314BC4ED166A54
:101C6000D3ED000A2F4BC4ED170A93ED007A2E4BEB
:101C700084ED187AD3ED007A3369C4ED197A26EE33
:101C8000A70A7361A0EE870A60EEA00A30EE000A90
:101C9000E6EEA60AE7EE470AE7EEE70A08F0FEF9E5
:101CA000DFED227A98F80020214B20EE270A86EDFE
:101CB000040A22B1002288F8002083ED000AD3ED47
:101CC000007A30EE670ADFED1B7AB4EEE70AF1EE38
:101CD00010FA0EDCDFED187AB4EEE70AF1EE10FA36
:101CE0000AD4164B86ED040A0122B7619A703D466C
:101CF00079E730EE480AE8E730EE080AECE700BF83
:101D0000A00800201006002068040020F8D6000873
:101D10000000B44335FA8E3C6F12833A0000002075
:101D2000680200206C02002070020020E12E654253
:101D30007802002000003443000034C35004002027
:101D40000BD700085C08002074020020014800F056
:101D5000A5B800BF8C020020034B834202D1034888
:101D600002F0E4B8704700BF5C0800205404002073
:101D700038B5244B9842044612D1234D2B6883B9C1
:101D8000042105F07EF9214B186001232B602368A4
:101D90001A6A22F0A0021A621A6A42F020021A623B
:101DA00038BD012BFCD1042105F06BF922689FEDB1
:101DB000187A00235362154B1B689842BBBFC3F5CA
:101DC0007F43FF33C01AC01807EE900AF8EEE77A97
:101DD000104B67EE877AB6EE007A186067EE877A66
:101DE0000D4B0848C3ED037A00232B60136A23F0E0
:101DF000A0031362136A13620421BDE8384005F0A2
:101E0000B3BD00BFCC070020840200207C0200206C
:101E1000287E0C3D800200206804002038B50F4B5E
:101E20000F4D1B682B6000220C210A2006F0E5FAFA
:101E30000C4B0D4C18600D4BA0621B680C482360C6
:101E4000214600F029F8294622460A4802F086F881
:101E500029460948BDE8384002F064B85C04002017
:101E600004000020E803002030000020EC030020E4
:101E70008C020020600400205404002008B50448AF
:101E800002F052F8BDE80840024802F074B800BF02
:101E9000540400206004002001607047012380F892
:101EA000583170470368C2681B68FA205A6306F00D
:101EB0008FBA036802691B68FA205A6306F088BA71
:101EC000036842691B68FA205A6306F081BA70B54C
:101ED0001E46049B03610D46C0E90052C0E902633F
:101EE00011460446284605F03DFD3146284605F0DA
:101EF00039FD204670BD0000F0B504468FB01820B3
:101F000008F058F840F2E922064640F20333C6E9E9
:101F1000032300254FF43D734148736129467560E2
:101F2000306005F01FFDE660082008F043F8064623
:101F30003C273C4877603946306005F049F8266117
:101F4000082008F037F8064637483946C6E9000742
:101F500005F03EF86661142008F02CF841F2941761
:101F60003249009706460C230822FFF7B0FF66604F
:101F7000142008F01FF800972A462D49042306462E
:101F8000FFF7A5FF2B4BDFED2C0AA66093E80700B7
:101F900005AF0C3387E8070093E8070008AE00237D
:101FA00086E80700B0EE600A3A46294604F11800B8
:101FB0000B930C930D93CDED030A02F0CDFEDDEDF6
:101FC000030A3246B0EE600A294604F1680002F0C6
:101FD000C3FEDFED1A0A0BAAB0EE600A294604F12F
:101FE000B800CDED030A02F0B7FEDDED030A0BAA3F
:101FF000B0EE600A294604F5847002F0ADFE84F864
:102000005851082007F0D6FF25680146C0E9005462
:102010002A1D0B4806F084F928600FB0F0BD00BF00
:1020200064060020AC060020F40600203C070020D7
:102030001408002098D6000800C0DA4500007A4451
:10204000C93D0008642910B53CD8C3686424B3FBBB
:10205000F4F35943D0E9003401611B688068C2B1D0
:102060002CB95963012158B95963104610BD042C8D
:1020700001D19963F6E7082C0CBFD9631964F1E725
:10208000042801D19963F0E708280CBFD9631964CB
:10209000EBE7012224B95A6358B959630122E4E7F6
:1020A000042C01D19A63F7E7082C0CBFDA631A6499
:1020B000F2E7042801D19963F0E708280CBFD9633F
:1020C0001964EBE70022D0E7D0E9003101221B6858
:1020D00029B95A638168012251B95A6370470429AA
:1020E00001D19A63F6E708290CBFDA631A64F1E7B5
:1020F000042901D19A63704708290CBFDA631A6476
:1021000070470000000000002DE9F04FCC4E2DED8F
:102110000A8B9A46012386F844300023044680F84F
:10212000583183B0C06815460F4689B3FFF7C1FE2A
:10213000D4F804902A4633214846FFF783FFD4F8A9
:1021400008802A4614214046FFF77CFFBAF1000FB1
:1021500039D103F0B5F9DDED167A96ED048AF8EE83
:10216000677A8346D7BBDDBB78EE678A9FEDB57A89
:10217000F4EEC78AF1EE10FA43D59FEDB37ADFEDA6
:10218000B38A37EE487A77EE277A78EEE78A38E036
:10219000FFF788FED4F804902A4614214846FFF73A
:1021A00051FFD4F808802A4633214046FFF74AFF02
:1021B000BAF1000FCDD02A4614214846FFF742FF5E
:1021C0002A46372106E02A4637214846FFF73AFFDC
:1021D0002A4614214046FFF735FFBAE7002DC3D148
:1021E00077EE888A9FED9A7AF4EEC78AF1EE10FABC
:1021F00007DDDFED968A38EEC87A77EEC77A77EE9C
:10220000E88A9FED8D9BDFED93AADFF858929FED52
:1022100092AA4FF0000878EEC87AFDEEE77A17EE42
:10222000903A03F12C02582A00F28C8083EAE37280
:10223000A2EBE37207EE902AF8EEE77ABAEE0E7A96
:1022400077EECA7ADFED856A67EE877A2A4687EEEF
:10225000A67AF3EE0E7A77EE277AFCEEE77A17EE9F
:10226000901A002F6CD06068FFF7ECFE03F028F99D
:10227000B369834200F0B88096ED057AD6ED047A12
:1022800077EEC77AC01AFDEEE77A502317EE902A50
:10229000002AB8BF5242002807EE902AB8BF404239
:1022A000B0FBF3F007EE100AF8EEE77AB8EEC77A63
:1022B00067EE877A96ED048A96ED057A38EE477ACE
:1022C000B5EEC07AF1EE10FA4CBF01220022CCBF6D
:1022D000012300239B1A07EE103AB8EEC77AA7EE47
:1022E000278A78EEC87A86ED078AFDEEE77A17EE40
:1022F000903A83EAE372A2EBE37207EE902AB8EE1B
:10230000E7BAB4EEEABAF1EE10FA70DD03F10E01AD
:102310001C2974D86068FFF7D7FEA068FFF7D4FEC9
:102320006068FFF7D1FEA068FFF7CEFE002384F8B7
:10233000583186F8443003B0BDEC0A8BBDE8F08F0D
:10234000A06891E7FDEEE87A17EE900AFDEEC87AF4
:10235000002817EE903AB8BF4042002BB8BF5B424E
:10236000C01A0028B8BF4042FEF7DCF8B0EE491AA8
:10237000F0EE691A41EC100B41EC1B0B07F034FE38
:10238000424651EC100B4B46FEF7A8FB00283FF4E9
:102390006DAF9FED32CAFAEE0ECAB3EE0E8A0FB3DE
:1023A0006368B0EE491AF0EE691AB0EE4B0AF0EE2F
:1023B0006B0A019307F018FE51EC100BFEF714FCAA
:1023C00007EE900A77EECA7A019B67EEAC7A2A464E
:1023D00087EE8C7A184677EE087AFCEEE77A17EEED
:1023E000901A41E7A368DCE7DFED1D7A62E733B9B5
:1023F000B421B2FBF1F301FB132373638AE70133CA
:10240000022B02D8BAF1000FF2D1019203F058F872
:1024100042F21073A0EB0B009842019AE8D8169B89
:102420007363022005F0D4FFF0EE4BAA05F0BFFF66
:10243000F1E600BFAFF300800000000000806640BE
:1024400068040020000033C3000034C3000034439C
:1024500000003343804FC34700003442000034C2C1
:1024600000000000008046402DE9F047DC4D0126C9
:1024700000232DED0A8B044680F8583185F844601E
:10248000C0688846002900F05882FFF712FD3246E6
:1024900047216068FFF7D6FD32461421A0689FED02
:1024A000D19AFFF7CFFD03F00BF895ED048A814632
:1024B000B8F1000F40F04B8278EE098ADFEDCA7A5E
:1024C000F4EEE78AF1EE10FA07DDDFEDCF7A77EE72
:1024D000C88A79EE688A78EEE78A9FEDBFAB9FEDF8
:1024E000C3BAC34FDFEDC39A002678EEC87AFDEE7B
:1024F000E77A17EE903A03F12C02582A00F23C8258
:1025000083EAE372A2EBE37207EE902AF8EEE77A31
:10251000BAEE0E7A77EEC97A012267EE877A87EEF5
:10252000A97AF3EE0E7A77EE277AFCEEE77A17EEC9
:10253000901AB8F1000F00F01D826068FFF782FD6D
:1025400002F0BEFFAB69834200F0688295ED057A28
:10255000D5ED047A77EEC77AC01AFDEEE77A5023FC
:1025600017EE902A002AB8BF5242002807EE902AA0
:10257000B8BF4042B0FBF3F007EE100AF8EEE77A7E
:10258000B8EEC77A67EE877A95ED048A95ED057AFD
:1025900038EE477AB5EEC07AF1EE10FACCBF0123DF
:1025A00000234CBF012200229B1A07EE103AB8EE1E
:1025B000C77AA7EE278A78EEC87A85ED078AFDEEFE
:1025C000E77A17EE903A83EAE37AAAEBE37A07EE2A
:1025D00090AAF8EEE7BAF4EECBBAF1EE10FA40F3B7
:1025E00020820E331C2B00F224826068FFF76CFD02
:1025F000A068FFF769FDE068B8F1000F00F02B82DA
:10260000FFF757FC012247216068FFF71BFD0122FD
:102610001421A068FFF716FD02F052FF95ED048A21
:10262000DFED757A8146B8F1000F40F01E8278EE3A
:10263000278A9FED6D7AF4EEC78AF1EE10FA07DD76
:10264000DFED718A38EEC87A77EEC77A77EEE88ADE
:102650009FED61AB9FED65BA654FDFED669A002691
:1026600078EEC87AFDEEE77A17EE903A03F12C0285
:10267000582A00F2118283EAE372A2EBE37207EEBA
:10268000902AF8EEE77ABAEE0E7A77EEC97A01224E
:1026900067EE877A87EEA97AF3EE0E7A77EE277ADD
:1026A000FCEEE77A17EE901AB8F1000F00F0F28115
:1026B0006068FFF7C7FC02F003FFAB69834200F0DC
:1026C0003D8295ED057AD5ED047A77EEC77AC01A8A
:1026D000FDEEE77A502317EE902A002AB8BF524247
:1026E000002807EE902AB8BF4042B0FBF3F007EE97
:1026F000100AF8EEE77AB8EEC77A67EE877A95EDBA
:10270000048A95ED057A38EE477AB5EEC07AF1EE97
:1027100010FACCBF012300234CBF012200229B1AD8
:1027200007EE103AB8EEC77AA7EE278A78EEC87A95
:1027300085ED078AFDEEE77A17EE903A83EAE37AB1
:10274000AAEBE37A07EE90AAF8EEE7BAF4EECBBA7A
:10275000F1EE10FA40F3F5810E331C2B00F2F281FA
:102760006068FFF7B1FCA068FFF7AEFCE068B8F165
:10277000000F00F00082FFF79CFB012247216068F8
:10278000FFF760FC01221421A068FFF75BFC02F058
:1027900097FE95ED048ADFED197A8146B8F1000FB6
:1027A00040F0F38178EE278A9FED0F7AF4EEC78A26
:1027B000F1EE10FA07DDDFED148A38EEC87A77EE15
:1027C000C77A77EEE88A9FED04AB9FED08BA084F11
:1027D000DFED089A00261BE0000000000080664044
:1027E000680400200000344200003343804FC34798
:1027F00000804640000034C2000007430000B4429D
:10280000000033C3000034C3000034430000000064
:1028100078EEC87AFDEEE77A17EE903A03F12C02D3
:10282000582A00F2C98183EAE372A2EBE37207EE51
:10283000902AF8EEE77ABAEE0E7A77EEC97A01229C
:1028400067EE877A87EEA97AF3EE0E7A77EE277A2B
:10285000FCEEE77A17EE901AB8F1000F00F0AA81AB
:102860006068FFF7EFFB02F02BFEAB69834200F0DC
:10287000F58195ED057AD5ED047A77EEC77AC01A21
:10288000FDEEE77A502317EE902A002AB8BF524295
:10289000002807EE902AB8BF4042B0FBF3F007EEE5
:1028A000100AF8EEE77AB8EEC77A67EE877A95ED08
:1028B000048A95ED057A38EE477AB5EEC07AF1EEE6
:1028C00010FACCBF012300234CBF012200229B1A27
:1028D00007EE103AB8EEC77AA7EE278A78EEC87AE4
:1028E00085ED078AFDEEE77A17EE903A83EAE37A00
:1028F000AAEBE37A07EE90AAF8EEE7BAF4EECBBAC9
:10290000F1EE10FA40F3AD810E331C2B00F2AA81D8
:102910006068FFF7D9FBA068FFF7D6FB6068FFF798
:10292000D3FBA068FFF7D0FBBDEC0A8B002384F833
:10293000583185F84430BDE8F087FFF7B3FA3246E6
:1029400014216068FFF77EFB32464721A6E578EE4A
:10295000498A5FED557AF4EEE78AF1EE10FA7FF5D9
:10296000BCAD5FED587A5FED588A77EEC87A77EEA6
:10297000897AB0E5A068E1E5FDEEE87A17EE900A05
:10298000FDEEC87A002817EE903AB8BF4042002BFF
:10299000B8BF5B42C01A0028B8BF4042FDF7C2FD75
:1029A000B0EE4A1AF0EE6A1A41EC100B41EC1C0B27
:1029B00007F01AFB324651EC100B3B46FEF78EF83F
:1029C00000283FF4BDADFAEE0EBAB3EE0E8AB8F1B0
:1029D000000F20D0D4F804A0B0EE4A1AF0EE6A1A24
:1029E000B0EE4C0AF0EE6C0A07F0FEFA51EC100B58
:1029F000FEF7FAF807EE900A77EEC97A012267EE41
:102A0000AB7A504687EEA97A77EE087AFCEEE77A41
:102A100017EE901A92E5D4F808A0DDE75FED857A0D
:102A2000B2E533B9B422BAFBF2F302FB13A36B6332
:102A3000DBE502F045FD42F21073A0EB090098427D
:102A4000F0D82D2302206B63B0EE6BBA05F0C0FC0A
:102A500005F0ADFC49E5FFF725FA01221421606875
:102A6000FFF7F0FA01224721D3E578EE678A1FEDE0
:102A70009C7AF4EEC78AF1EE10FA7FF5E9AD1FED0E
:102A80009F7A5FED9F8A37EE487A77EE277A78EE65
:102A9000E78ADDE5A0680CE6FDEEE87A17EE900A1D
:102AA000FDEEC87A002817EE903AB8BF4042002BDE
:102AB000B8BF5B42C01A0028B8BF4042FDF732FDE4
:102AC000B0EE4A1AF0EE6A1A41EC100B41EC1C0B06
:102AD00007F08AFA324651EC100B3B46FDF7FEFF39
:102AE00000283FF4E8ADFAEE0EBAB3EE0E8AB8F164
:102AF000000F20D0D4F804A0B0EE4A1AF0EE6A1A03
:102B0000B0EE4C0AF0EE6C0A07F06EFA51EC100BC6
:102B1000FEF76AF807EE900A77EEC97A012267EEAF
:102B2000AB7A504687EEA97A77EE087AFCEEE77A20
:102B300017EE901ABDE5D4F808A0DDE75FEDCD7A79
:102B4000DDE58BB102F0BCFC42F21073A0EB090092
:102B5000984209D8872302206B63B0EE6BBA05F068
:102B600037FC05F024FC7BE5B423BAFBF3F203FB4E
:102B700012A36B63F4E5FFF795F901221421606855
:102B8000FFF760FA01224721FEE578EE678A9FEDA4
:102B9000427AF4EEC78AF1EE10FA7FF514AE9FED9B
:102BA0003F7ADFED3F8A37EE487A77EE277A78EE84
:102BB000E78A08E6A06854E6FDEEE87A17EE900A88
:102BC000FDEEC87A002817EE903AB8BF4042002BBD
:102BD000B8BF5B42C01A0028B8BF4042FDF7A2FC54
:102BE000B0EE4A1AF0EE6A1A41EC100B41EC1C0BE5
:102BF00007F0FAF9324651EC100B3B46FDF76EFF39
:102C000000283FF430AEFAEE0EBAB3EE0E8AB8F1F9
:102C1000000F20D0D4F804A0B0EE4A1AF0EE6A1AE1
:102C2000B0EE4C0AF0EE6C0A07F0DEF951EC100B36
:102C3000FDF7DAFF07EE900A77EEC97A012267EE18
:102C4000AB7A504687EEA97A77EE087AFCEEE77AFF
:102C500017EE901A05E6D4F808A0DDE7DFED117A4B
:102C600025E68BB102F02CFC42F21073A0EB0900B8
:102C7000984209D85A2302206B63B0EE6BBA05F074
:102C8000A7FB05F094FBC3E5B423BAFBF3F203FB07
:102C900012A36B633CE600BF000033C3000034C3E3
:102CA000000034430000000003681B681B68DB065B
:102CB00006D58A4284BF01F57F41FF31881A7047EB
:102CC000501A8A423CBF00F57F40FF307047000039
:102CD0002DE9F04F2DED028B85B0044601937A4D1E
:102CE000002380F858314FF0010AC06885F844A0ED
:102CF0000E461746FFF7E4F8D4F8049001993246DF
:102D00004846FFF79FF9D4F80880019932464046BB
:102D1000FFF798F9002E00F0AF8052463221484666
:102D2000FFF790F9524632214046FFF78BF92369AD
:102D30001B681B68D3F8248063691B681B683846CE
:102D4000D3F82490FDF7DEFB5BA3D3E90023FDF766
:102D50007DFD0B46024643EC182BFDF745FF4FF077
:102D6000000A00234FF0000B2864AB63EB63564668
:102D70005F46206903681B6802935A6A4146FFF761
:102D800093FF039060690268136801935A6A494689
:102D9000FFF78AFF039B80461846FDF7B3FBFDF75C
:102DA00023FFFDF7D1FB02460B4630463946FDF7BF
:102DB0006DFA064640460F46FDF7A4FBFDF714FFEB
:102DC000FDF7C2FB3EA3D3E90023FDF715FC024645
:102DD0000B4650465946FDF759FA029BD3F824801A
:102DE000019B8246D3F824908B4602460B46304620
:102DF0003946FDF791FE002846D050465946FDF76A
:102E0000D3FEFDF77FFB2CA3D3E90023FDF7F4FBF2
:102E1000FDF7CAFE2C4B3246586351EC180B3B466B
:102E2000FDF75CFE98B351EC180B52465B46FDF77C
:102E300055FE60B339463046FDF7D6FE5946A863C5
:102E40005046FDF7D1FE6768E8633846FFF73CF966
:102E5000A6683046FFF738F93846FFF735F93046AF
:102E6000FFF732F9002384F8583185F8443005B073
:102E7000BDEC028BBDE8F08F324619214846FFF7C2
:102E8000E1F8324619214FE730463946B7E794F862
:102E90005831002BCED10A2005F09AFA3946304637
:102EA000FDF7A2FE5946A8635046FDF79DFEE86374
:102EB00005F07DFA5DE700BF5FBD77C1CDCF8A3FEA
:102EC000AC1C5A643BDFEF3F6804002000000000A8
:102ED0002DE9F04FD64E9A46012386F84430002360
:102EE0002DED0A8B80F8583103691B681B68D3F8F5
:102EF000249043691B681B68D3F8248083B0044680
:102F00000F461546B3EE048AE068FEF7D9FF2A465D
:102F100014216068FFF796F8A0682A461421FFF78D
:102F200091F8002F54D0D6ED027AF4EEC87AF1EE83
:102F300010FAE9DD206903681B6849465A6AFFF701
:102F4000B3FEFDF7DFFAFDF74FFE08EE100A6069E9
:102F500003681B6841465A6AFFF7A6FEFDF7D2FADE
:102F6000FDF742FE07EE900AB4EEE78AF1EE10FAA2
:102F7000CCBFFCEEE77AFCEEC87A17EE900AFDF7BC
:102F8000C1FAA7A3D3E90023FDF736FBFDF70CFE3A
:102F90007063E068FEF78DFFD4F804902A4647215D
:102FA0004846FFF74FF8D4F808802A4614214046D7
:102FB000FFF748F8BAF1000F54D02A4637214846A7
:102FC000FFF740F82A4614214046FFF73BF849E056
:102FD000D6ED017AF4EEC87AF1EE10FA94DD2069AC
:102FE00003681B6849465A6AFFF75EFEFDF78AFAD6
:102FF000FDF7FAFD08EE100A606903681B68414698
:103000005A6AFFF751FEFDF77DFAFDF7EDFD07EE79
:10301000900AB4EEE78AF1EE10FACCBFFCEEE77A44
:10302000FCEEC87A17EE900AFDF76CFA7CA3D3E9A0
:103030000023FDF7E1FAFDF7B7FD7063E068FEF7E6
:1030400031FFD4F804902A4614214846FEF7FAFFCF
:10305000D4F808802A4647214046FEF7F3FFBAF12C
:10306000000F1ED102F02CFADDED167A96ED048ADF
:10307000F8EE677A8346E7B9EDB978EE678A9FED97
:103080006D7AF4EEC78AF1EE10FA25D59FED6A7AD3
:10309000DFED6A8A37EE487A77EE277A78EEE78AAC
:1030A0001AE02A4614214846FEF7CCFF2A4637216B
:1030B0008AE7002DE1D177EE888A9FED617AF4EE00
:1030C000C78AF1EE10FA07DDDFED5C8A38EEC87AC8
:1030D00077EEC77A77EEE88A9FED539BDFED59AA2A
:1030E000DFF868919FED58AA4FF0000878EEC87A93
:1030F000FDEEE77A17EE903A03F12C02582A00F21F
:10310000AD8083EAE372A2EBE37207EE902AF8EE59
:10311000E77ABAEE0E7A77EECA7ADFED4D6A67EE9D
:10312000877A2A4687EEA67AF3EE0E7A77EE277A2A
:10313000FCEEE77A17EE901A002F00F08D806068A1
:10314000FEF780FF02F0BCF9B369834200F0D8803B
:1031500096ED057AD6ED047A77EEC77AC01AFDEEC1
:10316000E77A502317EE902A002AB8BF524200286F
:1031700007EE902AB8BF4042B0FBF3F007EE100A0A
:10318000F8EEE77AB8EEC77A67EE877A96ED048AAA
:1031900096ED057A38EE477AB5EEC07AF1EE10FA80
:1031A0004CBF01220022CCBF012300239B1A07EE53
:1031B000103AB8EEC77AA7EE278A78EEC87A86ED7D
:1031C000078AFDEEE77A17EE903A83EAE372A2EB04
:1031D000E3720BEE102AB8EECBBAB4EEEABAF1EE17
:1031E00010FA40F3908003F10E021C2A00F28E8048
:1031F0006068FEF769FFA068FEF766FF6068FEF78B
:1032000063FFA068FEF760FF002384F8583186F85A
:10321000443003B0BDEC0A8BBDE8F08FAFF3008003
:103220005FBD77C1CDCF8A3F0000000000806640BF
:1032300068040020000033C3000034C3000034439E
:1032400000003343804FC3470000344200804640B3
:10325000000034C200000000A06871E7FDEEE87ACB
:1032600017EE900AFDEEC87A002817EE903AB8BF24
:103270004042002BB8BF5B42C01A0028B8BF404292
:10328000FDF750F9B0EE491AF0EE691A41EC100B57
:1032900041EC1B0B06F0A8FE424651EC100B4B46CE
:1032A000FDF71CFC00283FF44DAF1FED17CAFAEEE6
:1032B0000ECAB3EE0E8A0FB36368B0EE491AF0EE91
:1032C000691AB0EE4B0AF0EE6B0A019306F08CFE21
:1032D00051EC100BFDF788FC07EE900A77EECA7AE6
:1032E000019B67EEAC7A2A4687EE8C7A184677EE19
:1032F000087AFCEEE77A17EE901A21E7A368DCE77C
:103300005FED2C7A42E7002B3FF472AF0133022BC2
:1033100003D8BAF1000F7FF46BAF02F0D1F842F29C
:103320001073A0EB0B0098423FF662AF022005F04D
:103330004FF8F0EE4BAA05F03AF8D7E6000000008F
:103340002DE9F047D04D012600232DED0E8B0446CC
:1033500080F8583185F84460C0688846002900F03C
:10336000ED82FEF7A6FD324647216068FEF76AFE51
:1033700032461421A068DFEDC59AFEF763FE02F025
:103380009FF8D5ED048A8146B8F1000F40F0E08245
:1033900038EEA99ADFEDBE7AB4EEE79AF1EE10FAB4
:1033A00007DDDFEDBC7A37EEE89A39EEC99A39EEDF
:1033B000679A9FEDB1AB9FEDB8BAB84F9FEDB88A51
:1033C000002679EE687AFDEEE77A17EE903A03F17F
:1033D0002C02582A00F2D18283EAE372A2EBE37254
:1033E00007EE902AF8EEE77ABAEE0E7A77EEC87A10
:1033F000DFEDAC6A67EE877A012287EEA67AF3EEFC
:103400000E7A77EE277AFCEEE77A17EE901AB8F18B
:10341000000F00F0B0826068FEF714FE02F050F872
:10342000AB69834200F0FD8295ED057AD5ED047A13
:1034300077EEC77AC01AFDEEE77A502317EE902A8E
:10344000002AB8BF5242002807EE902AB8BF404277
:10345000B0FBF3F007EE100AF8EEE77AB8EEC77AA1
:1034600067EE877AD5ED048A95ED057A38EEC77A4E
:10347000B5EEC07AF1EE10FACCBF012300234CBFA9
:10348000012200229B1A07EE103AB8EEC77AE7EE47
:10349000278A79EE687AC5ED078AFDEEE77A17EE9E
:1034A000903A83EAE37AAAEBE37A07EE90AAF8EE81
:1034B000E7BAF4EECBBAF1EE10FA40F3B5820E3370
:1034C0001C2B00F2B9826068FEF7FEFDA068FEF7D3
:1034D000FBFD23691B681B685F6A63691B681B68C7
:1034E0005E6AB3EE048AE068FEF7EAFC012214216A
:1034F0006068FEF7A7FDA06801221421FEF7A2FD77
:10350000B8F1000F00F0AA82D5ED027AF4EEC87A85
:10351000F1EE10FAE7DD206903681B6839465A6A44
:10352000FFF7C2FBFCF7EEFFFDF75EFB08EE900A2B
:10353000606903681B6831465A6AFFF7B5FBFCF700
:10354000E1FFFDF751FB07EE900AF4EEE78AF1EE9A
:1035500010FACCBFFCEEE77AFCEEE87A17EE900AA0
:10356000FCF7D0FF46A3D3E90023FDF745F8FDF7AC
:103570001BFB6863E068FEF79CFC01224721606842
:10358000FEF760FD01221421A0689FED42BAFEF70C
:1035900059FD01F095FF95ED049A8146B8F1000FB1
:1035A00040F09E8279EE0B8ADFED397AF4EEE78AFD
:1035B000F1EE10FA05DD7BEE498A7BEE688A78EE43
:1035C000CB8A9FED2DAB9FED34CA344FDFED34BA7B
:1035D000002678EEC97AFDEEE77A17EE903A03F10D
:1035E0002C02582A00F2AA8283EAE372A2EBE37269
:1035F00007EE902AF8EEE77ABAEE0E7A77EEEB7ADB
:10360000DFED286A67EE877A012287EEA67AF3EE6D
:103610000E7A77EE277AFCEEE77A17EE901AB8F179
:10362000000F00F06F826068FEF70CFD01F048FFAC
:10363000AB69834200F0D68295ED057AD5ED047A28
:1036400077EEC77AC01AFDEEE77A502317EE902A7C
:10365000002AB8BF5242002807EE902AB8BF404265
:10366000B0FBF3F007EE100AF8EEE77AB8EEC77A8F
:1036700067EE877A18E000BF000000000080664017
:103680005FBD77C1CDCF8A3F680400200000B442FF
:103690000000334300003443804FC347008046405E
:1036A00000003442000034C295ED049A95ED057A8D
:1036B00039EE477AB5EEC07AF1EE10FACCBF0123AD
:1036C00000234CBF012200229B1A07EE103AB8EEED
:1036D000C77AA7EE279A78EEC97A85ED079AFDEEAC
:1036E000E77A17EE903A83EAE37AAAEBE37A07EEF9
:1036F00090AAF8EEE7CAF4EECCCAF1EE10FA40F365
:1037000074820E331C2B00F271826068FEF7DCFCC1
:10371000A068FEF7D9FC23691B681B685F6A6369B0
:103720001B681B685E6AE068FEF7CAFB0122142171
:103730006068FEF787FCA06801221421FEF782FC76
:10374000B8F1000F00F06B82D5ED027AF4EEC87A82
:10375000F1EE10FAE7DD206903681B6839465A6A02
:10376000FFF7A2FAFCF7CEFEFDF73EFA08EE100ACC
:10377000606903681B6831465A6AFFF795FAFCF7DF
:10378000C1FEFDF731FA07EE900AB4EEE78AF1EEDA
:1037900010FACCBFFCEEE77AFCEEC87A17EE900A7E
:1037A000FCF7B0FEDAA3D3E90023FCF725FFFDF711
:1037B000FBF96863E068FEF77CFB01224721606843
:1037C000FEF740FC01221421A068FEF73BFC01F04B
:1037D00077FED5ED048A8146B8F1000F40F0618292
:1037E00038EEA98ADFEDCC7AB4EEE78AF1EE10FA72
:1037F00005DD3BEE688A39EEC88A38EE4B8A9FEDCC
:10380000C29BDFEDC6AAC64F9FEDC6AA002678EE82
:10381000687AFDEEE77A17EE903A03F12C02582A07
:1038200000F2538283EAE372A2EBE37207EE902A7E
:10383000F8EEE77ABAEE0E7A77EECA7ADFEDBD6A75
:1038400067EE877A012287EEA67AF3EE0E7A77EE9C
:10385000277AFCEEE77A17EE901AB8F1000F00F025
:1038600032826068FEF7EEFB01F02AFEAB6983420C
:1038700000F07F8295ED057AD5ED047A77EEC77A70
:10388000C01AFDEEE77A502317EE902A002AB8BF3F
:103890005242002807EE902AB8BF4042B0FBF3F036
:1038A00007EE100AF8EEE77AB8EEC77A67EE877A85
:1038B000D5ED048A95ED057A38EEC77AB5EEC07A73
:1038C000F1EE10FACCBF012300234CBF01220022ED
:1038D0009B1A07EE103AB8EEC77AE7EE278A78EE21
:1038E000687AC5ED078AFDEEE77A17EE903A83EA2B
:1038F000E37AAAEBE37A07EE90AAB8EEE7BAB4EE61
:10390000EABAF1EE10FA40F337820E331C2B00F2C4
:1039100034826068FEF7D8FBA068FEF7D5FB6068CC
:10392000FEF7D2FBA068FEF7CFFBBDEC0E8B0023A9
:1039300084F8583185F84430BDE8F087FEF7B2FAD4
:10394000324614216068FEF77DFB3246472111E5BF
:1039500038EEE99ADFED747AB4EEE79AF1EE10FAF8
:103960007FF527ADDFED717A9FED719A77EEE87AFA
:1039700077EEA97A1BE5A0684EE5FDEEC97A17EE51
:10398000900AFDEEE87A002817EE903AB8BF404260
:10399000002BB8BF5B42C01A0028B8BF4042FCF7FA
:1039A000C1FDB0EE4A1AF0EE6A1A41EC100B41EC80
:1039B0001C0B06F019FB324651EC100B3B46FDF791
:1039C0008DF800283FF42AADDFED5ABABAEE0EDAD0
:1039D000F3EE0E8AB8F1000F20D0D4F804A0B0EEB8
:1039E0004A1AF0EE6A1AB0EE4C0AF0EE6C0A06F0D3
:1039F000FBFA51EC100BFDF7F7F807EE900A77EEA3
:103A0000C87A012267EE8D7A504687EEAB7A77EE60
:103A1000287AFCEEE77A17EE901AFDE4D4F808A0B5
:103A2000DDE7DFED457A1DE533B9B422BAFBF2F3E9
:103A300002FB13A36B6346E501F042FD42F21073F3
:103A4000A0EB09009842F0D85A2302206B63B0EE35
:103A50006BBA04F0BDFC04F0AAFCB2E4D5ED017A27
:103A6000F4EEC87AF1EE10FA7FF73DAD20690368F5
:103A70001B6839465A6AFFF717F9FCF743FDFDF753
:103A8000B3F808EE900A606903681B6831465A6A09
:103A9000FFF70AF9FCF736FDFDF7A6F807EE900AE6
:103AA000F4EEE78AF1EE10FACCBFFCEEE77AFCEE1A
:103AB000E87A17EE900AFCF725FD15A3D3E9002359
:103AC000FCF79AFDFDF770F86863E068FEF7EAF925
:103AD000012214216068FEF7B5FA0122472153E55F
:103AE00079EE4B8ADFED107AF4EEE78AF1EE10FA08
:103AF00041BFDFED0E8A78EEC98A78EE8B8A7BEEC5
:103B0000688A5EE5A0688FE50000000000806640DE
:103B10005FBD77C1CDCF8A3F00003343804FC3479D
:103B20000080464000003442000033C3000034C32C
:103B300000003443000034C200000000FDEEE87ACB
:103B400017EE900AFDEEC97A002817EE903AB8BF3A
:103B50004042002BB8BF5B42C01A0028B8BF4042A9
:103B6000FCF7E0FCB0EE4A1AF0EE6A1A41EC100BDA
:103B700041EC1D0B06F038FA324651EC100B3B4677
:103B8000FCF7ACFF00283FF451AD5FED16CABAEE6A
:103B90000EEAB3EE0E9AB8F1000F20D0D4F804A0CC
:103BA000B0EE4A1AF0EE6A1AB0EE4D0AF0EE6D0A67
:103BB00006F01AFA51EC100BFDF716F807EE900A12
:103BC00077EEEB7A012267EE8E7A504687EEAC7A7A
:103BD00077EE097AFCEEE77A17EE901A24E5D4F82E
:103BE00008A0DDE75FED2C7A5EE58BB101F068FCA3
:103BF00042F21073A0EB0900984209D8B4230220C6
:103C00006B63B0EE6CCA04F0E3FB04F0D0FBE0E4BD
:103C1000B423BAFBF3F203FB12A36B6375E5D5ED96
:103C2000017AF4EEC87AF1EE10FA7FF77CAD2069E4
:103C300003681B6839465A6AFFF736F8FCF762FCDE
:103C4000FCF7D2FF08EE100A606903681B68314672
:103C50005A6AFFF729F8FCF755FCFCF7C5FF07EE99
:103C6000900AB4EEE78AF1EE10FACCBFFCEEE77AE8
:103C7000FCEEC87A17EE900AFCF744FC50A3D3E997
:103C80000023FCF7B9FCFCF78FFF6863E068FEF7E0
:103C900009F9012214216068FEF7D4F901224721B5
:103CA00092E538EEE98ADFED427AB4EEE78AF1EE8A
:103CB00010FA41BF9FED3F8A38EE688A38EE298AB4
:103CC0003BEE488A9BE5A068CCE5FDEEC87A17EE8E
:103CD000900AFDEEE87A002817EE903AB8BF40420D
:103CE000002BB8BF5B42C01A0028B8BF4042FCF7A7
:103CF00019FCB0EE491AF0EE691A41EC100B41ECD8
:103D00001B0B06F071F9324651EC100B3B46FCF7E9
:103D1000E5FE00283FF4A8AD9FED27CAFAEE0ECAD3
:103D2000F3EE0E8AB8F1000F20D0D4F804A0B0EE64
:103D3000491AF0EE691AB0EE4B0AF0EE6B0A06F083
:103D400053F951EC100BFCF74FFF07EE900A77EE9A
:103D5000CA7A012267EEAC7A504687EE8C7A77EE0B
:103D6000287AFCEEE77A17EE901A7BE5D4F808A0E3
:103D7000DDE7DFED127A9BE58BB101F0A1FB42F2AA
:103D80001073A0EB0900984209D85A2302206B63F4
:103D9000F0EE4BAA04F01CFB04F009FB37E5B4235A
:103DA000BAFBF3F203FB12A36B63B2E5AFF300803F
:103DB000000033C3000034C3000034C20000000020
:103DC0005FBD77C1CDCF8A3F2DE9F047D0E90064D0
:103DD000E568524FDFF848918AB041F2941004F040
:103DE000F7FA2846FEF76CF84FF000084FF0010A8A
:103DF000322087F803A004F0EBFA04F0D8FAB06A96
:103E000004F095FB0028F3D00523002202A9B06A34
:103E100004F05EFB1022002106A8CDF8148007F004
:103E200087FCDDE90223494605A807F089FB029BD0
:103E30007BB92846FEF744F89DF813300193039AA6
:103E40009DF812300093012123232046FEF740FF06
:103E5000CCE7013B0A2BC9D801A252F823F000BFDE
:103E60008D3E0008BB3E0008A73E0008D53E000876
:103E7000C93E0008ED3D0008ED3D0008113F000877
:103E8000053F0008E33E0008F73E00082846FEF71D
:103E900017F89DF8133001939DF812300093039AA0
:103EA00023230021D1E7039B00939DF813300122C7
:103EB00000212046FEF728F998E7039B00939DF820
:103EC000133001221146F4E7039B009300229DF872
:103ED0001330F7E7039B009300229DF81330012174
:103EE000E7E7039B00939DF8133001220021204651
:103EF000FEF7EEFF7AE7039B009301229DF8133053
:103F00001146F4E79DF811102046FEF7ADFA6DE773
:103F10009DF811102046FFF713FA67E750040020C0
:103F2000C0D7000801607047704700001FB50A4AFB
:103F30000446106851686B4603C311891980002339
:103F400013605360138120681A466946806A04F042
:103F50008FFA04B010BD00BFB204002038B5C0E92C
:103F6000001204460D46002210210A2004F045FAF2
:103F7000A862204638BD704738B50446082006F0D0
:103F800019F8256863680560014643602A1D0248E8
:103F900004F0C6F9286038BDD940000810B58AB0D1
:103FA00004460021152204A8039107F0C1FB792CD7
:103FB00005D8732C07D8652C2ED0672C32D0214918
:103FC0000A23042223E0743C052CF8D801A353F8FB
:103FD00024F000BF334000081F400008BF3F000826
:103FE000ED3F0008BF3F00082D400008164B586801
:103FF000FCF7AAFA154ACDE90001192103A807F038
:104000006BFA03A8FCF734F90A2382B203A910481B
:1040100003F028FE0AB010BD0B4B9868E8E70A4B86
:10402000D868E5E7084B1B689869E1E7064B186913
:10403000DEE7054B074A93F84430192103A807F03F
:104040004BFADEE7D6D7000868040020D6D6000871
:104050005C080020D3D7000870B50A22044600216E
:10406000043006F0BDFC0026054670B10C2005F0BA
:10407000A1FFE37806606C2BC0E901561FD005D87C
:10408000622B0DD0662B0DD0304670BD702B1DD02D
:10409000722BF9D1E379622B0CBF0423022313E0C6
:1040A00001230360E379A3F164014B424B41837226
:1040B000237AA3F16A0253425341C372E5E7E379DD
:1040C000622B0CBF052303230360F1E7E3796C2B1C
:1040D0000CBF0A230B23F7E72DE9F0478449DFF8EB
:1040E0003482844E05468CB083480A2204F0D4F80A
:1040F000D5E900450127B9460A20DFF8F4A188F880
:10410000009004F065F904F052F900231AF8032036
:10411000002A44D0784803F0FAFD754976480A220F
:1041200004F0BAF80023CAF80030CAF80430AAF83C
:104130000830A06A04F0FBF97062A06A04F0A8FDE0
:10414000002800F0C1800523A06A002201A904F024
:10415000BFF99DF80430782B05D0684966480A23DA
:10416000042203F07FFD9DF80D307A2B05D06349C2
:1041700061480A23042203F075FD9DF80530712B78
:104180002DD19DF80630732B0DD19DF80700FFF758
:1041900005FF574958480A2204F07EF8ACE701337E
:1041A0000A2BB3D1C5E7612BF3D19DF807306F2BF4
:1041B000EFD10021152206A8059107F0B9FA736B1B
:1041C0004F4A192105A807F087F905A8FCF750F810
:1041D0000A2382B205A9484803F044FDD9E7632BBE
:1041E0002DD19DF806306D2B17D0732B31D0612B5C
:1041F000CFD19DF80730212B60D10C2005F0DAFEDD
:104200000023C0E9003383609DF808200146A2F135
:104210006C00424242414A7216E09DF80730682B1A
:1042200008D1FDF793FDA06A04F083F935490A230C
:104230000422D0E701A8FFF70FFF014618B92F4964
:104240000A230422C7E70023A86A1A4604F010F9DB
:10425000ECE70A22002102A806F0C2FB9DF8073015
:1042600020B96E2B95D1FDF767FA13E0772B05D0B7
:10427000BFD8652B15D06E2BBBD1F4E740F2E733E6
:10428000984216BF07EE900ADFED1F7AF8EE677AC4
:10429000C6ED0B7A1B4918480A23042203F0E2FCFE
:1042A000A7E740F2E733984216BF07EE900ADFED2A
:1042B000167AF8EE677AC6ED0C7AEBE73F2B9CD0C6
:1042C000402B7FF466AF98E7104B1B78002B3FF430
:1042D00013AFDFF844A09AF800302BB90C49064818
:1042E0000A23042203F0BEFC8AF8007004E700BF32
:1042F000B2040020680400205C080020D6D7000823
:10430000F4D60008D7D7000800000000B104002050
:10431000DBD7000850040020B004002008B532208C
:1043200004F056F8FBE7000000B595B02C22002100
:1043300009A807F0FDF91422002103A807F0F8F9F5
:104340000023194A0193116C41F080511164126CE1
:1043500002F080520192019A144A0293116841F4CA
:104360008041116012680E9302F480420292029A18
:104370000222089201201022CDE90B0208A802F0C7
:1043800003FB014608B172B6FEE70F23CDE9033007
:10439000CDE90500079003A802F0D0FC08B172B681
:1043A000FEE715B05DF804FB0038024000700040E5
:1043B00080B596B00024A14D01F05CF8FFF7B4FF82
:1043C000142200210DA807F0B3F902942B6B9C482E
:1043D00043F010032B632B6B03F010030293029B3B
:1043E00003942B6B43F001032B632B6B03F001034E
:1043F0000393039B04942B6B43F004032B632B6BFD
:1044000003F004030493049B05942B6B43F0020315
:104410002B632B6B03F002030593059B06942B6B18
:1044200043F008032B632B6B03F00803069322462B
:104430004FF48071069B01F0ADFD824822464FF497
:10444000004101F0A7FD22467F484FF4F04101F002
:10445000A1FD01264FF4807379480DA9CDE90D36F1
:10446000CDE90F4401F0BCFC4FF4004375480DA9A1
:10447000CDE90D36CDE90F4401F0B2FC4FF4F04325
:1044800071480DA9CDE90D36CDE90F4401F0A8FC26
:104490004FF404136A480D960DA9CDE90E3401F0CE
:1044A0009FFC22460521062001F068FA062001F053
:1044B00097FA01942B6B43F400132B632B6B634D22
:1044C00003F400132246052101930C20019B01F007
:1044D00055FA0C2001F084FA224605210E2001F045
:1044E0004DFA0E2001F07CFA594BAC604FF6FF7785
:1044F0002846CDE90D44C5E90034EF60AC6102F017
:10450000E3FE08B172B6FEE7CDE90D000DA928461D
:1045100003F078FA054608B172B6FEE701461022AC
:1045200009A807F005F94B4C102229460DA8CDE942
:10453000075507F0FDF8DFF828C1A5610F232046D5
:10454000C4E900C3C4E90257C4E9045502F0BCFE43
:1045500008B172B6FEE74FF4805709A920460997C3
:1045600003F0F3F808B172B6FEE7204602F004FF4C
:1045700008B172B6FEE7CDE9070007A9204603F0AF
:1045800041FA08B172B6FEE7CDE90F000A232046D2
:1045900004220DA9CDE90D3603F038F8044608B120
:1045A00072B6FEE70146102209A807F0C1F81C22E6
:1045B00021460DA8284DCDE9074407F0B9F8274B4F
:1045C000AC60C5E90034284641F61F43C5E9033411
:1045D000AC6102F079FE08B172B6FEE709A928467F
:1045E000099703F0B2F808B172B6FEE7284602F068
:1045F00097FE08B172B6FEE70023174807A9CDE978
:10460000073303F0FFF908B172B6FEE74FF0600818
:10461000CDE90D800227119008220F480F970DA9B0
:1046200002F060FF08B172B6FEE70B480C220DA93C
:1046300002F058FF0546A8B172B6FEE70038024006
:104640000010024000040240000C024084070020D9
:1046500000100040CC0700203C070020000800406C
:1046600000040140A348A44C00F03CFD1022294660
:1046700009A807F05DF81C2229460DA807F058F894
:104680009E4BA560C4E90035204641F61F43C4E9AE
:104690000335A56102F018FE08B172B6FEE74FF4CB
:1046A000805609A92046099603F04FF808B172B662
:1046B000FEE7204602F034FE024608B172B6FEE77D
:1046C000CDE90D8011900DA920460F9702F00AFF49
:1046D00008B172B6FEE704220DA9204602F002FFDF
:1046E000054608B172B6FEE7204600F0FBFC10223A
:1046F000294609A807F01CF8814C824F1C22294644
:104700000DA807F015F84FF43473C4E90073204680
:104710004FF47A73C4E90335A560A56102F0D4FDB6
:1047200008B172B6FEE709A92046099603F00DF814
:1047300008B172B6FEE7724802F0F2FD024608B117
:1047400072B6FEE76023CDE90D300F9011900DA9F0
:104750006B4802F0C7FE044608B172B6FEE768482F
:10476000694D00F0BFFC6948694B0462C0E9005321
:104770004FF48043C0E90244C0E90434C0E9064470
:1047800001F0F6FD08B172B6FEE7624B62491861AE
:104790004FF4E132C3E900120C22C3E90200C3E97D
:1047A0000520D861184603F02FFA044608B172B606
:1047B000FEE75A4D014620220EA806F0B9FF012659
:1047C0004FF080434FF6FF774FF003080DA92846BE
:1047D000CDE90944C5E90034C5E90374AC60AC61B6
:1047E000CDF834800F96139602F0F2FD08B172B640
:1047F000FEE7CDE9090009A9284603F003F90446BC
:1048000008B172B6FEE7464D014620220EA806F01A
:104810008FFF444B2C610DA92846CDE90944C5E919
:104820000034C5E90247AC61CDF834800F96139689
:1048300002F0CEFD08B172B6FEE7CDE9090009A984
:10484000284603F0DFF8054608B172B6FEE70146D8
:1048500010220DA806F06CFF334C344BA560C4E960
:1048600000352046324B2561257684F82050E562DC
:10487000A362E560E66184F83050666100F03AFEBC
:1048800008B172B6FEE70723CDE90D360DA9042362
:1048900020460F9300F0D0FF08B172B6FEE7102259
:1048A00000210DA806F044FF224C234A00230125D5
:1048B000C4E9002320461E4AA3602361237684F8BE
:1048C0002030E362A262E360E56184F83030656124
:1048D00000F010FE08B172B6FEE70F23CDE90D35EA
:1048E000204604230DA90F9300F0A6FF044628B329
:1048F00072B6FEE73C07002014080020004001408B
:1049000064060020001800400058004010060020F7
:10491000A08601005C08002000480040AC06002092
:10492000F406002000040040C004002000200140E4
:104930000100000F0805002000210140FCF702FFE4
:1049400003F0C2FC044A0548214603F0E9FC044B8D
:10495000186003F0CBFCFEE7ECD700081D4300080D
:10496000BC040020704772B6FEE70000012970B554
:104970000A46044618BF00221448144E4FF4006142
:1049800001F008FB082500224FF48041304601F079
:1049900001FB23064CBF012200224FF40051304698
:1049A00001F0F8FA013D01224FF48041304601F058
:1049B000F1FA640015F0FF05E4B2E4D1BDE87040FF
:1049C000024801224FF4006101F0E4BA000C0240F9
:1049D00070B50F4EB02400212046FFF7C7FF00211D
:1049E0000846FFF7C3FF00211020FFF7BFFF002597
:1049F00016F8350001210135FFF7B8FF802DF7D1FA
:104A00000134E4B2B82C06F10106E4D170BD00BF58
:104A1000080900200023084810B41C460022C118D1
:104A200001F832400132802AFAD10133082BF5D146
:104A30005DF8044BFFF7CCBF0809002008B5002142
:104A40008D20FFF793FF00211420FFF78FFFBDE8B3
:104A500008400021AF20FFF789BF0000030610B512
:104A600012D43F2910D801F00703C3F10703012432
:104A70009C40C908064BC1F10701C9B203EBC00055
:104A8000435C12B12343435410BD23EA0403FAE705
:104A9000080900202DE9F74F1F46203A1E4B9DF8CC
:104AA00030B0D2B203EB021301931C4B02EB420273
:104AB00003EB82038146884600930C460026B742EA
:104AC00002D103B0BDE8F08F0C2F0CBF009B019BFF
:104AD0009D5D04F108035FFA83FA2B0658BFBBFA09
:104AE0008BF2214604F101044CBF5A465209484654
:104AF000E4B2FFF7B3FFA4EB08026D00BA42EDB2D7
:104B000007D109F101005FFA80F9C2460136544627
:104B1000D5E7A245E1D1F9E784DC000810D8000808
:104B2000F7B504460D46561E012716F8013F0BB98E
:104B300003B0F0BD7A2C82BF1035EDB200243A2DBF
:104B400003D9FFF767FF00252C46009720463278EF
:104B50000C2329460834FFF79DFFE4B2E5E72DE971
:104B6000F04190469DF8182007460C461E46054623
:104B7000454503D9B4420CD9BDE8F0812846214609
:104B8000FFF76CFF284631460135FFF767FFEDB2AE
:104B9000EEE721463846FFF761FF214640460134E3
:104BA000FFF75CFFE4B2E5E72DE9F04117469DF819
:104BB000182005460C461E468046B8450AD9A04630
:104BC000B04514D901340135E4B2EDB2B4421BD37F
:104BD000BDE8F08140462146FFF740FF40463146A0
:104BE00008F10108FFF73AFF5FFA88F8E5E7414668
:104BF0002846FFF733FF4146384608F10108FFF722
:104C00002DFF5FFA88F8DBE7A846B84502D30134E8
:104C1000E4B2DBE74046214608F10108FFF71EFF3A
:104C20005FFA88F8F1E770B506460C468D18AC427D
:104C300000DB70BD0122214630461444FFF70EFF11
:104C4000E4B2F4E710B501F083FE414B414C1A6F1A
:104C500022F001021A671A6F22F004021A6701F0AB
:104C600085FE00224FF48051204601F093F9642024
:104C700000F02CFC012220464FF4805101F08AF90B
:104C80000021AE20FFF772FE0021D520FFF76EFE57
:104C900000215020FFF76AFE0021A820FFF766FEE2
:104CA00000213F20FFF762FE0021D320FFF75EFEC8
:104CB00000210846FFF75AFE00214020FFF756FE6C
:104CC00000218D20FFF752FE00211420FFF74EFE39
:104CD00000212020FFF74AFE00210220FFF746FEB8
:104CE0000021A120FFF742FE0021C020FFF73EFE79
:104CF0000021DA20FFF73AFE00211220FFF736FEEE
:104D000000218120FFF732FE0021EF20FFF72EFE69
:104D10000021D920FFF72AFE0021F120FFF726FE0F
:104D20000021DB20FFF722FE00213020FFF71EFECE
:104D30000021A420FFF71AFE0021A620FFF716FE8F
:104D40000021AF20FFF712FEBDE81040FFF762BE62
:104D500000380240000C0240B0B1AAB101701368E3
:104D60004360536883609368C360002380ED040A46
:104D7000C0ED050A8363436303630362C362836216
:104D8000436243640364C3637047000082B00E4B08
:104D900000220092596C41F480415964596C01F42D
:104DA0008041009100990192196C41F08051196481
:104DB0001B6C03F080530193019B0F216FF00100E6
:104DC00002B000F0DBBD00BF0038024010B5142275
:104DD0008AB0044600210DEB020006F0A9FC23680E
:104DE000214A93421FD1214B2148002101915A6C45
:104DF00042F480725A645A6C02F480720192019AF1
:104E000002911A6B42F001021A631B6B03F001035B
:104E100002938021029B0323CDE9051305A900F02D
:104E2000DFFF0AB010BD134A9342FAD10F4B12486C
:104E3000002103915A6C42F400725A645A6C02F4D5
:104E400000720392039A04911A6B42F004021A63EF
:104E50001B6B03F004030493049B20220323CDE97E
:104E6000052305A9DBE700BF002001400038024010
:104E700000000240002101400008024030B5044615
:104E800089B01422002103A806F052FC2268144BBA
:104E90009A4222D1134C144800250195236B43F00C
:104EA00002032363236B03F002030193019B4FF47E
:104EB00040621223CDE9032303210423CDE9061325
:104EC00003A900F08DFF0295236C43F48003236453
:104ED000236C03F480030293029B09B030BD00BF32
:104EE00000580040003802400004024070B514220F
:104EF0008AB0044600210DEB020006F019FC23687D
:104F0000B3F1804F37D103F50E33002400941A6CAF
:104F10002E4842F001021A641A6C02F0010200925B
:104F2000009A01941A6B42F001021A631A6B02F0A4
:104F300001020192019A02941A6B42F002021A6372
:104F40001B6B03F002030293029B02264FF4004303
:104F5000012505A9CDE90536099500F041FF082393
:104F60001B48099505A9CDE90536CDE9074400F0B0
:104F700037FF0AB070BD174A9342FAD1164B144856
:104F8000002403941A6C42F002021A641A6C02F0B4
:104F900002020392039A04941A6B42F002021A630B
:104FA0001B6B03F002030493049B3022022305A928
:104FB000CDE90523099300F013FF224605211D20AA
:104FC00000F0DCFC1D2000F00BFDD2E700000240E9
:104FD00000040240000400400038024010B50446BE
:104FE0008CB01422002107A806F0A2FB2368364AE1
:104FF00093420DD100230193344B1A6C42F004020A
:105000001A641B6C03F004030193019B0CB010BDE8
:105010002F4A93420CD1002302932C4B1A6C42F07E
:1050200010021A641B6C03F010030293029BEDE75D
:10503000284A934228D1254B2748002403945A6CD0
:1050400042F002025A645A6C02F002020392039A7E
:1050500004941A6B42F004021A631B6B03F00403FE
:105060000493049B80220223CDE9072307A903238D
:105070000B9300F0B5FE224605212E2000F07EFCA9
:105080002E2000F0ADFCC1E7144A93420CD100235E
:1050900005930E4B5A6C42F480325A645B6C03F4F5
:1050A00080330593059BB1E70D4A9342AED10023AF
:1050B0000693064B1A6C42F040021A641B6C03F014
:1050C00040030693069BA1E7000800400038024019
:1050D0000010004000040140000802400040014070
:1050E0000018004010B5044688B01422002103A81F
:1050F00006F01EFB2368244A934214D10023009338
:10510000224B1A6B42F002021A631B6B03F002037C
:105110000093009B4FF440700223CDE903031C4829
:10512000079303A916E01B4A934217D1002301936A
:10513000164B19481A6B42F010021A631B6B03F0EE
:10514000100301936021019B0223CDE90313032384
:10515000079303A900F044FE08B010BD0F4A934224
:10516000FAD100230293094B1A6B42F002021A6330
:105170001B6B03F002030293029B4FF48042022355
:10518000CDE903230923CAE70008004000380240A4
:10519000000402400040014000100240001800409E
:1051A0002DE9F041064688B01422002103A806F03C
:1051B000BFFA3268374B9A4269D1002503F5F833BC
:1051C00001951A6C344842F480221A641A6C02F475
:1051D00080220192019A02951A6B42F008021A632A
:1051E0001B6B03F0080302930224029B4FF0030899
:1051F0004FF48073072703A9CDE90334CDE906876F
:1052000000F0EEFD4FF400732348079703A9CDE9A2
:105210000334CDE9054800F0E3FD204C20484FF071
:105220000063C4E900034FF480632046C4E90255DB
:10523000C4E90435C4E90655C4E9085500F008FC82
:1052400008B1FFF790FB174AB463A663164C4FF002
:105250000063C4E90023402100234FF4806220460C
:10526000C4E90213C4E90423C4E90633C4E90833DA
:1052700000F0EEFB08B1FFF776FB746327200022F5
:105280000521A66300F07AFB272000F0A9FB08B0F7
:10529000BDE8F08100480040000C024050050020AD
:1052A0002860024058600240B0050020FEE7FEE79B
:1052B000FEE7FEE7FEE7704708B500F0F5F804F0FA
:1052C0008DF9012803D0BDE8084004F09BBC08BD5F
:1052D000012000F065BE0000014800F0C3BC00BF23
:1052E00050050020014800F0BDBC00BFB005002003
:1052F000014801F0E0BE00BFF4060020014802F0C2
:1053000037BE00BF5C080020014801F0D4BE00BFDA
:10531000CC0700200120704708B506F0AFFA16232D
:1053200003604FF0FF3008BD08B506F0A7FA16235A
:105330000360FEE770B50D4614460E46731B9C4293
:1053400001DC204670BDAFF3008006F8010BF5E7E5
:1053500070B50D4614460E46731B9C4201DC204678
:1053600070BD16F8010BAFF30080F5E74FF0FF308A
:1053700070474FF400534B60002070470120704786
:10538000002070470B4A116810B5034609B90A4955
:105390001160106809490A4C0344091B8B4206D965
:1053A00006F06CFA0C2303604FF0FF3010BD136061
:1053B000FCE700BF080D0020B057002000000220CD
:1053C00000040000034AD2F8883043F47003C2F8A6
:1053D0008830704700ED00E0DFF834D00D480E490A
:1053E0000E4A002302E0D458C4500433C4188C423F
:1053F000F9D30B4A0B4C002301E013600432A242A4
:10540000FBD3FFF7DFFF06F03FFAFEF7D1FF70474F
:105410000000022000000020480200207CE6000876
:1054200048020020AC570020FEE7000038B50E4BC4
:105430001A784FF47A73B3FBF2F30C4A05461068FE
:10544000B0FBF3F000F0DAFA044658B90F2D09D892
:10545000024629464FF0FF3000F090FA044B2046F8
:105460001D6038BD0120FCE7600000205C000020CA
:105470006400002008B50B4B1A6842F400721A60F1
:105480001A6842F480621A601A6842F480721A60E4
:10549000032000F061FA0F20FFF7C8FFFFF776FC4A
:1054A000002008BD003C0240034A044B11681B78F1
:1054B0000B441360704700BF0C0D002060000020FB
:1054C000014B1868704700BF0C0D002038B504462A
:1054D000FFF7F6FF631C1CBF054B1B78054618BF82
:1054E000E418FFF7EDFF431BA342FAD338BD00BF1A
:1054F0006000002038B50446002800F09B80056C51
:1055000025B9FFF763FC656484F83C50236CDB0627
:1055100000F18E80236C23F4885323F0020343F0C0
:1055200002032364444B5A6822F440325A605A689A
:1055300061680A435A60236821695A6822F48072BC
:105540005A605A6842EA01225A605A68A16822F0F9
:1055500040725A605A680A435A609A68E16822F4B5
:1055600000629A609A680A439A603449A26A8A4241
:1055700052D0996821F07061996099680A439A60E5
:105580009A68E16A22F040529A609A680A439A60E7
:105590009A6822F002029A609A68217E42EA4102E9
:1055A0009A6094F82020002A3ED05A68616A42F43A
:1055B00000625A605A6822F460425A605A6801399F
:1055C00042EA41325A60DA6AE16922F47002DA6230
:1055D000DA6A013942EA0152DA629A6822F4007208
:1055E0009A609A6894F8301042EA41229A609A6868
:1055F000616922F480629A609A68002042EA8122FE
:105600009A606064236C23F0030343F00103236476
:10561000002384F83C3038BD9A6822F070629A60AA
:105620009A6822F04052B2E75A6822F40062C9E751
:105630000120EDE70120EEE7002301400100000F0B
:1056400013B50023019390F83C30012B024672D031
:105650000168012380F83C308B68D8070CD58B6833
:1056600013F001031AD1116C41F010011164516C57
:1056700041F0010151645CE08B68304843F0010364
:105680008B602F4B1B68B3FBF0F303EB43030193D9
:10569000019B002BE3D0019B013BF8E7136C294CE5
:1056A00023F4E06323F0010343F4807313644B6835
:1056B0005B0541BF136C23F4405343F480531364E0
:1056C000136C13F4805318BF536C4FF0000018BFD5
:1056D00023F00603536482F83C006FF022031A4A59
:1056E0000B60536813F01F0319D1A14206D017486D
:1056F00081420DD1526812F01F0F1AD1886810F044
:10570000405016D18B6843F080438B6002B010BDCF
:105710000F4881420DD1526812F0100FEDE7A142FF
:10572000F4D18B6813F04053F0D18A6842F0804284
:105730008A600020EAE70220E8E700BF40420F004D
:105740005C000020002001400023014000210140B6
:105750000022014090F83C30012B14D003689A6875
:1057600022F001029A609B68DB0707D4036C23F4E4
:10577000885323F0010343F001030364002380F8FE
:105780003C30184670470220704703689A685205FB
:1057900070B504460D460BD59B68DE0508D5036C35
:1057A00043F020030364002380F83C30012070BDE7
:1057B000FFF786FE064623681A6891070CD56FF03E
:1057C00012021A60226C42F4007222649A6812F08B
:1057D000405F17D00020EAE7681CEDD065B9236868
:1057E0001B6813F00203E6D1226C84F83C3042F0CF
:1057F000040222640320DAE7FFF762FE801BA8425E
:10580000EDD8D8E7207E0028E4D1DA6A12F4700FD0
:1058100002D09B685A05DDD4236C23F48073236483
:10582000236CDB04D6D4236C43F001032364BEE76E
:105830000368D86C70470000F7B50023019390F817
:105840003C30012B64D0012380F83C300D680368A4
:105850008E68092DACB231D904EB4402DF681E3AE0
:105860004FF0070C0CFA02FC27EA0C07DF60DF6838
:1058700006FA02F23A43DA604968062901EB81022E
:105880002BD8596B053A1F26964021EA0601596329
:10589000596B04FA02F20A435A632B4A934207D126
:1058A000122D37D1D2F8043343F48003C2F8043305
:1058B000002380F83C30184603B0F0BD1A6905EBB0
:1058C000450C072707FA0CF722EA07021A611A6942
:1058D00006FA0CF616431E61CEE70C294FF01F01A5
:1058E0000BD81E6B233A914026EA01011963196B0C
:1058F00004FA02F20A431A63CFE7DE6A413A9140A2
:1059000026EA0101D962D96A94400C43DC62C4E7FB
:105910000220D1E7A5F11003012BC9D80B4A536827
:10592000102D43F400035360C2D1094B094A1B6890
:10593000B3FBF2F30A2253430193019B002BB7D030
:10594000019B013BF8E700BF00200140002301401C
:105950005C00002040420F000749CA6822F4E06260
:105960000302120403F4E063120C134343F0BF6319
:1059700043F40033CB60704700ED00E0164B30B5C8
:10598000DC68C4F30224C4F10703251D042B28BFDF
:105990000423062D4FF0FF358CBF033C002405FA8D
:1059A00003F321EA0303A54022EA0502A3400028ED
:1059B00043EA0203ACBF00F16040084A4FEA031318
:1059C000B8BF00F00F00DBB2AABF00F5614013546E
:1059D00080F8003330BD00BF00ED00E014ED00E0C2
:1059E000002807DB4109044A00F01F00012383401F
:1059F00042F82130704700BF00E100E00138B0F10B
:105A0000807F0BD24FF0E023054A5861F02182F8E5
:105A100023100020072298611A6170470120704707
:105A200000ED00E0036810B5DAB2103A074C23F439
:105A30007F7323F003035F2A88BF04331821B2FB6E
:105A4000F1F1615CC1658365184610BD8CE2000808
:105A500070B50446FFF734FD0546002C71D00223D3
:105A600084F835302268002384F83430136823F03A
:105A70000103136022681368D8072ED413683248D4
:105A8000A1691840D4E901352B43E5682B4325690A
:105A90002B4365692B43E5690B432B43256A2B4355
:105AA0000343606A042802BFD4E90B5635432B43F5
:105AB00013605369042823F0070343EA000332D13B
:105AC000A06AE56A034375B391B9012820D030F08C
:105AD000020128D1E90126D51DE0FFF7F1FC401BAA
