:020000040800F2
:1000000000000220893F00085D3E00085F3E0008B6
:10001000613E0008633E0008653E000800000000E5
:10002000000000000000000000000000C186000881
:10003000673E00080000000051870008693E000884
:10004000D93F0008D93F0008D93F0008D93F000830
:10005000D93F0008D93F0008813E0008D93F000879
:10006000D93F0008D93F0008D93F0008D93F000810
:10007000893E0008D93F0008953E0008D93F000896
:10008000D93F0008D93F0008D93F0008D93F0008F0
:10009000D93F0008D93F0008D93F0008D93F0008E0
:1000A000D93F0008D93F0008D93F0008D93F0008D0
:1000B000D93F0008A13E0008D93F0008D93F0008F9
:1000C000D93F0008D93F0008D93F0008D93F0008B0
:1000D000D93F0008D93F0008D93F0008AD3E0008CD
:1000E000D93F0008D93F0008D93F0008D93F000890
:1000F000D93F0008D93F0008B93E0008D93F0008A1
:10010000D93F0008D93F0008D93F0008D93F00086F
:10011000D93F0008D93F0008D93F0008D93F00085F
:10012000D93F0008D93F0008D93F0008D93F00084F
:10013000D93F0008D93F0008D93F0008D93F00083F
:10014000D93F0008D93F0008D93F0008D93F00082F
:10015000D93F0008D93F0008D93F0008D93F00081F
:10016000D93F0008D93F0008D93F0008D93F00080F
:10017000D93F0008D93F0008D93F0008000000001F
:08018000D93F0008D93F000837
:1001900010B5054C237833B9044B13B10448AFF3C1
:1001A00000800123237010BD4802002000000000E1
:1001B0002CC2000808B5034B1BB103490348AFF339
:1001C000008008BD000000004C0200202CC2000886
:1001D00001F0FF01102A2BDB10F0070F08D010F8F8
:1001E000013B013A8B422DD010F0070F42B3F6D1FC
:1001F000F0B441EA012141EA014122F007047FF015
:1002000000070023F0E80256083C85EA010586EA6B
:10021000010685FA47F5A3FA87F586FA47F6A5FAA7
:1002200087F68EB9EED1F0BC01F0FF0102F00702B3
:1002300032B110F8013B013A83EA010313B1F8D15E
:100240000020704701387047002D06BF354603383F
:10025000073815F0010F07D1013015F4807F02BF78
:10026000013015F4C03F0130F0BC0138704700BFC9
:10027000034613F8012B002AFBD1181A01387047E6
:1002800081F0004102E000BF83F0004330B54FEA47
:1002900041044FEA430594EA050F08BF90EA020FB4
:1002A0001FBF54EA000C55EA020C7FEA645C7FEA47
:1002B000655C00F0E2804FEA5454D4EB5555B8BF6A
:1002C0006D420CDD2C4480EA020281EA030382EADB
:1002D000000083EA010180EA020281EA0303362D6D
:1002E00088BF30BD11F0004F4FEA01314FF4801C40
:1002F0004CEA113102D0404261EB410113F0004F52
:100300004FEA03334CEA133302D0524263EB430308
:1003100094EA050F00F0A780A4F10104D5F1200EA6
:100320000DDB02FA0EFC22FA05F2801841F1000101
:1003300003FA0EF2801843FA05F359410EE0A5F1D5
:1003400020050EF1200E012A03FA0EFC28BF4CF006
:10035000020C43FA05F3C01851EBE37101F00045BC
:1003600007D54FF0000EDCF1000C7EEB00006EEBC9
:100370000101B1F5801F1BD3B1F5001F0CD3490853
:100380005FEA30004FEA3C0C04F101044FEA4452AA
:1003900012F5800F80F09A80BCF1004F08BF5FEA31
:1003A000500C50F1000041EB045141EA050130BD11
:1003B0005FEA4C0C404141EB0101013C28BFB1F523
:1003C000801FE9D291F0000F04BF01460020B1FA6E
:1003D00081F308BF2033A3F10B03B3F120020CDA41
:1003E0000C3208DD02F1140CC2F10C0201FA0CF01F
:1003F00021FA02F10CE002F11402D8BFC2F1200C84
:1004000001FA02F120FA0CFCDCBF41EA0C01904039
:10041000E41AA2BF01EB0451294330BD6FEA040482
:100420001F3C1CDA0C340EDC04F11404C4F120026D
:1004300020FA04F001FA02F340EA030021FA04F37F
:1004400045EA030130BDC4F10C04C4F1200220FAD6
:1004500002F001FA04F340EA0300294630BD21FA14
:1004600004F0294630BD94F0000F83F4801306BFDA
:1004700081F480110134013D4EE77FEA645C18BFCE
:100480007FEA655C29D094EA050F08BF90EA020F65
:1004900005D054EA000C04BF1946104630BD91EA5D
:1004A000030F1EBF0021002030BD5FEA545C05D160
:1004B0004000494128BF41F0004130BD14F580049F
:1004C0003CBF01F5801130BD01F0004545F0FE4113
:1004D00041F470014FF0000030BD7FEA645C1ABF48
:1004E000194610467FEA655C1CBF0B46024650EA7F
:1004F000013406BF52EA033591EA030F41F40021AB
:1005000030BD00BF90F0000F04BF0021704730B530
:100510004FF4806404F132044FF000054FF0000105
:1005200050E700BF90F0000F04BF0021704730B5C6
:100530004FF4806404F1320410F0004548BF40429B
:100540004FF000013EE700BF42004FEAE2014FEAF0
:1005500031014FEA02701FBF12F07F4393F07F4FCB
:1005600081F06051704732F07F4208BF704793F0CE
:100570007F4F04BF41F40021704730B54FF46074E1
:1005800001F0004521F000411CE700BF50EA0102E4
:1005900008BF704730B54FF000050AE050EA01028D
:1005A00008BF704730B511F0004502D5404261EBFD
:1005B00041014FF4806404F132045FEA915C3FF43E
:1005C000D8AE4FF003025FEADC0C18BF03325FEADB
:1005D000DC0C18BF033202EBDC02C2F1200300FA8C
:1005E00003FC20FA02F001FA03FE40EA0E0021FAB1
:1005F00002F11444BDE600BF70B54FF0FF0C4CF49F
:10060000E06C1CEA11541DBF1CEA135594EA0C0F50
:1006100095EA0C0F00F0DEF82C4481EA030621EA8B
:100620004C5123EA4C5350EA013518BF52EA0335C6
:1006300041F4801143F4801338D0A0FB02CE4FF078
:100640000005E1FB02E506F00042E0FB03E54FF0A8
:100650000006E1FB03569CF0000F18BF4EF0010EA0
:10066000A4F1FF04B6F5007F64F5407404D25FEA9C
:100670004E0E6D4146EB060642EAC62141EA55514F
:100680004FEAC52040EA5E504FEACE2EB4F1FD0C91
:1006900088BFBCF5E06F1ED8BEF1004F08BF5FEA0F
:1006A000500E50F1000041EB045170BD06F00046C1
:1006B00046EA010140EA020081EA0301B4EB5C046E
:1006C000C2BFD4EB0C0541EA045170BD41F4801166
:1006D0004FF0000E013C00F3AB8014F1360FDEBF8B
:1006E000002001F0004170BDC4F10004203C35DA67
:1006F0000C341BDC04F11404C4F1200500FA05F3EA
:1007000020FA04F001FA05F240EA020001F000428A
:1007100021F0004110EBD37021FA04F642EB060100
:100720005EEA430E08BF20EAD37070BDC4F10C042A
:10073000C4F1200500FA04F320FA05F001FA04F2EE
:1007400040EA020001F0004110EBD37041F10001DA
:100750005EEA430E08BF20EAD37070BDC4F12005E5
:1007600000FA05F24EEA020E20FA04F301FA05F24D
:1007700043EA020321FA04F001F0004121FA04F2F5
:1007800020EA020000EBD3705EEA430E08BF20EAC5
:10079000D37070BD94F0000F0FD101F000464000FF
:1007A00041EB010111F4801F08BF013CF7D041EA81
:1007B000060195F0000F18BF704703F00046520085
:1007C00043EB030313F4801F08BF013DF7D043EA56
:1007D0000603704794EA0C0F0CEA135518BF95EA0C
:1007E0000C0F0CD050EA410618BF52EA4306D1D193
:1007F00081EA030101F000414FF0000070BD50EAB2
:10080000410606BF1046194652EA430619D094EA3B
:100810000C0F02D150EA013613D195EA0C0F05D125
:1008200052EA03361CBF104619460AD181EA030179
:1008300001F0004141F0FE4141F470014FF0000031
:1008400070BD41F0FE4141F4780170BD70B54FF0CC
:10085000FF0C4CF4E06C1CEA11541DBF1CEA13554C
:1008600094EA0C0F95EA0C0F00F0A7F8A4EB05042E
:1008700081EA030E52EA03354FEA013100F0888025
:100880004FEA03334FF0805545EA131343EA1263EE
:100890004FEA022245EA111545EA10654FEA0026A3
:1008A0000EF000419D4208BF964244F1FD0404F55C
:1008B000407402D25B084FEA3202B61A65EB0305B8
:1008C0005B084FEA32024FF480104FF4002CB6EB75
:1008D000020E75EB030E22BFB61A754640EA0C00F5
:1008E0005B084FEA3202B6EB020E75EB030E22BF35
:1008F000B61A754640EA5C005B084FEA3202B6EB76
:10090000020E75EB030E22BFB61A754640EA9C0034
:100910005B084FEA3202B6EB020E75EB030E22BF04
:10092000B61A754640EADC0055EA060E18D04FEAC2
:10093000051545EA16754FEA06164FEAC30343EA62
:1009400052734FEAC2025FEA1C1CC0D111F4801F2F
:100950000BD141EA00014FF000004FF0004CB6E728
:1009600011F4801F04BF01430020B4F1FD0C88BFC7
:10097000BCF5E06F3FF6AFAEB5EB030C04BFB6EBD2
:10098000020C5FEA500C50F1000041EB045170BDC5
:100990000EF0004E4EEA113114EB5C04C2BFD4EBF2
:1009A0000C0541EA045170BD41F480114FF0000E76
:1009B000013C90E645EA060E8DE60CEA135594EAF2
:1009C0000C0F08BF95EA0C0F3FF43BAF94EA0C0FF5
:1009D0000AD150EA01347FF434AF95EA0C0F7FF46A
:1009E00025AF104619462CE795EA0C0F06D152EABE
:1009F00003353FF4FDAE1046194622E750EA4106A2
:100A000018BF52EA43067FF4C5AE50EA41047FF4B2
:100A10000DAF52EA43057FF4EBAE12E74FF0FF3C17
:100A200006E000BF4FF0010C02E000BF4FF0010CE8
:100A30004DF804CD4FEA410C7FEA6C5C4FEA430C61
:100A400018BF7FEA6C5C1BD001B050EA410C0CBFB0
:100A500052EA430C91EA030F02BF90EA020F002012
:100A6000704710F1000F91EA030F58BF994208BF79
:100A700090422CBFD8176FEAE37040F00100704736
:100A80004FEA410C7FEA6C5C02D150EA013C07D18D
:100A90004FEA430C7FEA6C5CD6D152EA033CD3D0D8
:100AA0005DF8040B704700BF8446104662468C46D2
:100AB0001946634600E000BF01B5FFF7B7FF002805
:100AC00048BF10F1000F01BD4DF808EDFFF7F4FF2E
:100AD0000CBF012000205DF808FB00BF4DF808EDB9
:100AE000FFF7EAFF34BF012000205DF808FB00BFDC
:100AF0004DF808EDFFF7E0FF94BF012000205DF8FE
:100B000008FB00BF4DF808EDFFF7CEFF94BF0120B2
:100B100000205DF808FB00BF4DF808EDFFF7C4FFAB
:100B200034BF012000205DF808FB00BF4FEA410CF4
:100B30007FEA6C5C02D150EA013C0AD14FEA430CD7
:100B40007FEA6C5C02D152EA033C02D14FF0000014
:100B500070474FF0010070474FEA410212F5001252
:100B600015D211D56FF47873B3EB625212D94FEAF4
:100B7000C12343F0004343EA505311F0004F23FADE
:100B800002F018BF404270474FF00000704750EA33
:100B9000013005D111F0004008BF6FF000407047F0
:100BA0004FF00000704700BF4A0011D212F500124A
:100BB00011D20DD56FF47873B3EB62520ED44FEAB5
:100BC000C12343F0004343EA505323FA02F0704735
:100BD0004FF00000704750EA013002D14FF0FF3073
:100BE00070474FF0000070474FEA4102B2F1E04316
:100BF00024BFB3F5001CDCF1FE5C0DD901F0004C04
:100C00004FEAC0024CEA5070B2F1004F40EB830053
:100C100008BF20F00100704711F0804F21D113F17F
:100C20003872BCBF01F00040704741F480114FEAB8
:100C30005252C2F11802C2F1200C10FA0CF320FA41
:100C400002F018BF40F001004FEAC1234FEAD3235E
:100C500003FA0CFC40EA0C0023FA02F34FEA4303C8
:100C6000CCE77FEA625307D150EA01331EBF4FF051
:100C7000FE4040F44000704701F0004040F0FE406C
:100C800040F40000704700BF53B94AB9002908BFBB
:100C900000281CBF4FF0FF314FF0FF3000F070B95B
:100CA000ADF1080C6DE904CE00F006F8DDF804E0C3
:100CB000DDE9022304B070472DE9F047089E0D4698
:100CC00004460F46002B4AD18A42944665D9B2FAAF
:100CD00082F343B102FA03FCC3F120029F4020FAE1
:100CE00002F217439C404FEA1C4E1FFA8CF5B7FBEB
:100CF000FEF1220C0EFB117742EA074201FB05F0E0
:100D000090420AD91CEB020201F1FF3780F01C81EE
:100D1000904240F2198102396244121AA4B2B2FB25
:100D2000FEF00EFB102244EA024400FB05F5A5424A
:100D30000AD91CEB040400F1FF3280F00781A542C0
:100D400040F204816444023840EA0140641B0021FF
:100D50001EB1DC400023C6E90043BDE8F0878B42AA
:100D600008D9002E00F0ED800021C6E900050846F4
:100D7000BDE8F087B3FA83F1002949D1AB4202D331
:100D8000824200F2F880841A65EB030201201746C4
:100D9000002EE2D0C6E90047DFE702B9FFDEB2FA73
:100DA00082F3002B40F090808A1A4FEA1C471FFA0A
:100DB0008CFE0121B2FBF7F507FB1520220C42EA5D
:100DC00000420EFB05F0904208D91CEB020205F12F
:100DD000FF3802D2904200F2CB804546121AA4B2EC
:100DE000B2FBF7F007FB102244EA02440EFB00FEC0
:100DF000A64508D91CEB040400F1FF3202D2A64537
:100E000000F2BB801046A4EB0E0440EA05409FE7C9
:100E1000C1F120078B4022FA07FC4CEA030C05FACB
:100E200001F420FA07F3FD404FEA1C492343B5FBC8
:100E3000F9F81FFA8CFE09FB18551C0C44EA05440E
:100E400008FB0EF5A54202FA01F200FA01F00BD9F7
:100E50001CEB040408F1FF3A80F08880A54240F2C0
:100E60008580A8F102086444641B9DB2B4FBF9F3C9
:100E700009FB134445EA044403FB0EFEA64508D9CA
:100E80001CEB040403F1FF356CD2A6456AD9023B82
:100E9000644443EA0843A3FB0295A4EB0E04AC426E
:100EA000C846AE4656D353D056B1B0EB080264EBF9
:100EB0000E0404FA07F7CA40CC401743C6E9007491
:100EC00018460021BDE8F087C3F1200102FA03FCB7
:100ED00020FA01F225FA01F19D402A434FEA1C470E
:100EE0001FFA8CFEB1FBF7F007FB1015110C41EA5D
:100EF000054100FB0EF58D4204FA03F408D91CEB02
:100F0000010100F1FF382FD28D422DD90238614402
:100F1000491B92B2B1FBF7F507FB151142EA0142FA
:100F200005FB0EF1914208D91CEB020205F1FF38D6
:100F300016D2914214D9023D6244521A45EA004148
:100F400038E73146304608E73946E6E61046FBE624
:100F50004845A9D2B9EB020865EB0C0E013BA3E7AB
:100F60004546EAE72B4694E74046D1E7D0467BE783
:100F7000023D624432E708460AE76444023842E729
:100F8000704700BF7FB501238DF817206422CDE99B
:100F900001320DF11702009200680A46D02104F0D8
:100FA00067F807B05DF804FB1FB54FF0640C012330
:100FB000CDE9013C009200680A46D02104F0E8F82F
:100FC00005B05DF804FB000073B5002201607F21CD
:100FD0000446FFF7D7FF404D0DF1060228700021AF
:100FE0002046FFF7E1FF002228707F212046FFF70F
:100FF000C9FF28700A2003F041F80122062120468B
:10100000FFF7C0FF28700A2003F038F83F220721BD
:101010002046FFF7B7FF28700A2003F02FF80022C0
:1010200007212046FFF7AEFF01222870102120463D
:10103000FFF7A8FF002628700DF107020F212046B8
:101040008DF80760FFF7B0FF9DF807200F2142F0F1
:1010500002022046FFF796FF20227F212046FFF75D
:1010600091FF3246287031462046FFF78BFF37222A
:10107000287001212046FFF785FF062228700221F3
:101080002046FFF77FFF1022287011212046FFF72E
:1010900079FF3246287010212046FFF773FF312276
:1010A000287014212046FFF76DFF32462870532127
:1010B0002046FFF767FF032215212046FFF762FF56
:1010C00032467F212046FFF75DFF2870642002F042
:1010D000D5FF304602B070BD640200207FB5012309
:1010E0008DF817206422CDE901320DF1170200922C
:1010F00000680A46182103F0BBFF07B05DF804FB47
:10110000F7B5002301AA2E210446ADF80430FFF7FD
:101110004BFF264F0DF1050238702D212046FFF7B9
:1011200043FF01AA387030212046BDF90460FFF763
:101130003BFF0DF1050238702F212046FFF734FFE9
:1011400001AA387032212046BDF90450FFF72CFF68
:101150000DF10502387031212046FFF725FF07EE1B
:10116000106A9FED136ADFED136ABDF90430387021
:10117000B8EEC77A07EE903A27EE067AF8EEE77AED
:1011800027EE267A67EE867A84ED017A07EE105A0A
:10119000B8EEC77A67EEA67A27EE067AC4ED037A30
:1011A00027EE267A84ED027A03B0F0BD64020020B7
:1011B00000008038C3F51C412DE9F7430024DFF817
:1011C000C080ADF8044005464FF02009264627466A
:1011D00001AA34212846FFF7E7FE0DF1050233216D
:1011E0002846FFF7E1FEBDF8043001203B441FB262
:1011F00002F044FF01AA36212846FFF7D5FE0DF183
:10120000050235212846FFF7CFFEBDF80430012046
:1012100033441EB202F032FF01AA38212846FFF7FC
:10122000C3FE0DF1050237212846FFF7BDFEBDF8CC
:10123000043088F800002344192009F1FF391CB25A
:1012400002F01CFF19F0FF09C2D17F1107EE907A5E
:10125000F8EEE77A7611C5ED0D7A07EE906AF8EEB2
:10126000E77A6411C5ED0E7A07EE904A98F800000F
:10127000F8EEE77AC5ED0F7A03B0BDE8F08300BF62
:1012800064020020F7B5002301AA36210446ADF818
:101290000430FFF789FE284F0DF105023870352123
:1012A0002046FFF781FE01AA387038212046BDF99B
:1012B0000460FFF779FE0DF10502387037212046F2
:1012C000FFF772FE01AA387034212046BDF90450A0
:1012D000FFF76AFE0DF10502387033212046FFF753
:1012E00063FE07EE906AB8EEE77AD4ED0E7AD4ED9D
:1012F0000F6ABDF9043094ED0D6A387037EE677AE5
:1013000007EE905AF8EEE77A77EEE67A06EE903A34
:10131000F8EEE66A76EEC66A9FED086A66EE866AC1
:1013200027EE067A67EE867AC4ED046A84ED057AC4
:10133000C4ED067A03B0F0BD640200202D237A3D8F
:1013400002223121FFF7CABEF0B589B002F0C2F91E
:1013500002F0A8F8002101240846734A02F028F997
:1013600002F0B4F81523332210212E20009402F04D
:101370003EF9212333221C212E20009402F037F95C
:101380002D23332228212E20009402F030F9392316
:10139000332234212E20009402F029F93A2203212D
:1013A000372002F088F9614A0D21204602F000F949
:1013B0005F4A1921204602F0FBF85E4A25212046AB
:1013C00002F0F6F85C4A3121204602F0F1F85B4A5F
:1013D00000213C2002F0ECF8594A0C213C2002F09C
:1013E000E7F8584A24213C2002F0E2F80026564A49
:1013F00030213C2002F0DCF802F032F8CDE905663D
:10140000ADF81C60514D00961423322211212F207B
:1014100002F012F92B780093322220231D212F2075
:1014200002F00AF9AB78009332222C2329212F20D5
:1014300002F002F9464FEB7800933222382335212F
:101440002F2002F0F9F83B6800249869ADF81C40A1
:10145000CDE90544FFF778F83E4ACDE900010A21BD
:1014600005A808F011FEA97800295BD005AA21463D
:101470005020002402F09CF83869ADF81C40CDE9FA
:101480000544FFF761F8344ACDE900010A2105A8B7
:1014900008F0FAFD05AA0C21552002F089F8B86879
:1014A000ADF81C40CDE90544FFF74EF8CDE9020147
:1014B0007868FFF749F8294ACDE900010A2105A813
:1014C00008F0E2FD05AA1821412002F071F8F86841
:1014D000ADF81C40CDE90544FFF736F81D4ACDE9CB
:1014E00000010A2105A808F0CFFD05AA24215520F6
:1014F00002F05EF87B6A1A4AADF81C400A2105A882
:10150000CDE9054408F0C0FD05AA3021732002F0A2
:101510004FF801F0A5FFFA2086F001062C6005F0D7
:101520002FFD6FE70F4AA3E760C2000867C20008FB
:101530006CC2000871C2000876C200087BC20008B5
:101540007EC2000882C2000885C200082004002074
:10155000380400208CC2000897C200089DC2000811
:10156000AAC2000892C200082DE9F0416F4E2DED8D
:10157000028B9FED6F8A6F4F00244FF010082546B5
:10158000304602F035FE384602F032FE0221304687
:1015900002F0D3FE304602F023FF022115FA80F557
:1015A000384602F0CAFE384602F01AFF14FA80F4F8
:1015B000304602F0A7FE384602F0A4FEB8F101085A
:1015C000DED1C5F30F1307EE903A9FED5B6ADFEDB6
:1015D0005B6AF8EEE77AC4F30F1367EE867A87EE5C
:1015E000A67A07EE903AF8EEE77AB4EEC87A67EE9C
:1015F000867AF1EE10FA87EEA66AC2BFF2EE0A6AA8
:10160000C6EE877A9FED4E7ADFED4E6AB4EEC86A79
:10161000CCBF77EEC77AFFEE007AF1EE10FA77DDF5
:10162000F2EE0A5A85EE867AF4EEE67A9FED446A87
:10163000F1EE10FA37EE467A5FDCF5EEC07AF1EEA5
:1016400010FA08DDB2EE046AF4EE467AF1EE10FA12
:1016500048BFF0EE467AB4EEE67AF1EE10FA4FDCCF
:10166000B5EEC07AF1EE10FA08DDF2EE046AB4EEDF
:10167000667AF1EE10FA48BFB0EE667A324C334922
:10168000236801EB8302C2ED007A314ADFED317A43
:1016900002EB8300013380ED007A584200F0030032
:1016A00003F0030358BF43422360B0EE677A13464A
:1016B0000422F1EC016A37EE267AF3EC016A013A72
:1016C00077EEA67AF5D1F5EE006A27EE267A224B60
:1016D00067EEA67A83ED007A204BC3ED007A204BAB
:1016E00083ED017AC3ED027A1E4B012264209A70C9
:1016F00005F046FC05F033FC3DE7F0EE667AAAE71C
:101700009FED107ABAE7F0EE667ABFEE007AB5E7A1
:10171000F4EEE67AF1EE10FAF5DCF5EEC07AF1EED1
:1017200010FAF2DDBFEE007A8CE700BF90040020D3
:10173000CDCCCC3DD80400203333534000F07F455E
:101740003D0AD73E0000A04288020020F40300209A
:101750000404002000000000180400201C040020E5
:101760003804002020040020014B01221A70704729
:101770007402002008B5114B1148012283F828207B
:10178000104ADA621A6301F047F90F4800F0CCFB07
:101790000E4A0F48002105F09BFB0E4B0E4A1860C5
:1017A00000210E4805F094FB0D4B0E4A18600021F5
:1017B0000D4805F08DFB0D4B186008BD3804002066
:1017C00030040020000020418C02002050C300089B
:1017D00049130008280400202CC30008911B0008AE
:1017E000F003002008C30008691500081404002055
:1017F00008B5124BD3ED006A114BD3ED000A114B23
:1018000093ED007A104BD3ED007A26EEA70AA0EEF6
:10181000870A60EEA00A30EE000AE6EEA60AE7EEBE
:10182000470AE7EEE70A07F011FADFED087A084BFE
:1018300020EE270A83ED000A08BD00BF000000204B
:10184000680200206C02002070020020E12E654238
:10185000780200200000000062EE027A2DE9F04FCD
:10186000E1EEA17ADFF81883DFF818A3DFF8189308
:10187000DFF818B3E2EEA27A2DED108BDAED00AAB4
:10188000D8ED00FA99ED00BA9BED00AAF6EE009AA9
:101890002FEEA96A6AEEA96A83B017EE900AB0EE3D
:1018A00041CA13EE104AB0EE61EAF0EE42DAB0EE51
:1018B000628A8DED016ACDED006AF0EE40BAF0EE7D
:1018C00060CAFEF741FE41EC100B07F093F951ECB2
:1018D000100BFFF789F907EE900A8EEE277A8DEE4E
:1018E000A75A7FEEAFEAC8EE275A3BEE0BDA6EEE50
:1018F000EA7A7AEEAA8AEAEE0D7AB7EE008A77EEF5
:10190000C77AABEE4D8A2AEE287AAAEEE88AABEEC9
:101910002E7A38EE658A37EE457A3AEE0A5A6EEE3E
:10192000875A7DEE0D4AE7EE855A67EEE8DAE8EE73
:10193000645AEDEE07DAB0EE65FA78EEA85A68EE72
:10194000878A28EE658AEDEE278AA7EE058A2BEEB8
:10195000299AAEEEE78A6FEE0F7A6AEE299AEDEEDB
:10196000AD7AE8EE087AE8EEA87A17EE900AFEF76C
:10197000EBFD41EC100B07F03DF951EC100BFFF7BC
:1019800033F9DDED006A9DED016A07EE900A8DEEF8
:10199000A7EA2046CFEE27DA2CEEE6FA88EE27DA21
:1019A000A9EE6BFA2CEE498A29EE2C9AC8EEA7EA2A
:1019B000A6EE0C9A66EE8C8AA9EECCFAE6EE2B8A9D
:1019C000A6EE2C8AA6EEEB9AFEF7BEFD04461FEEAD
:1019D000100A0D46FEF7B8FD06461EEE100A0F4629
:1019E000FEF7B2FD64A3D3E90023FEF705FE02462D
:1019F0000B4630463946FEF747FC22462B46FEF79B
:101A0000FBFD06461FEE900A0F46FEF79DFD0246BF
:101A10000B4630463946FEF739FCE9EEEC8AFFF713
:101A2000E3F8A9EEAB8A09EE900A18EE900AFEF7E9
:101A30008BFD06461DEE900A0F46FEF785FD4EA370
:101A4000D3E90023FEF7D8FD02460B46304639465F
:101A5000FEF71AFC22462B46FEF7CEFD06461BEE8D
:101A6000100A0F46FEF770FD02460B463046394617
:101A7000FEF70CFCFFF7B8F80BEE100A18EE100A90
:101A8000FEF762FD06461DEE100A0F46FEF75CFDEE
:101A900039A3D3E90023FEF7AFFD02460B463046DB
:101AA0003946FEF7F1FB22462B46FEF7A5FD06461A
:101AB0001AEE900A0F46FEF747FD02460B463046E7
:101AC0003946FEF7E3FBFFF78FF808EE900A19EEB0
:101AD000100AFEF739FD06461EEE900A0F46FEF785
:101AE00033FD25A3D3E90023FEF786FD02460B460E
:101AF00030463946FEF7C8FB22462B46FEF77CFDF2
:101B000004461AEE100A0D46FEF71EFD02460B466D
:101B100020462946FEF7BAFBFFF766F86BEE0B7A14
:101B200008EE100AE9EEA97AE8EEA87AE8EE087A5B
:101B300017EE900AFEF708FD41EC100B07F05AF87B
:101B400051EC100BFFF750F807EE900A89EEA77AD8
:101B500088ED007A8BEE277A89ED007A88EEA77AF5
:101B60008AED007A88EE277A8BED007A03B0BDEC1F
:101B7000108BBDE8F08F00BF7DAC6B5A9CF48E3F9C
:101B8000000000206C02002068020020700200208B
:101B90002DE9F0432DED028B654C6649664E654F8D
:101BA000DFF8CC81DFF8CC919BB02046FFF70CFA30
:101BB0004FF4C87005F0E4F92046FFF7FDFA20461F
:101BC000FFF7BEFB0021602202A80191346008F0FB
:101BD00087FB5A4808F050FA0125690089B20A23A8
:101BE0000122384603F0DCFB58B92A46414601A8D9
:101BF00008F07EFA4FF0FF331A2201A9484604F09C
:101C000009FE01357F2DE8D102F032FADFF820918C
:101C10009FED4B8A0546DFF86081502005F0B0F952
:101C200005F09DF998F8003023B1002388F80030C2
:101C3000FFF7DEFD4846FFF763FA4846FFF722FB51
:101C400002F016FA431B03EE103ADFED3E7A9FEDE9
:101C50003E7A94ED061AD4ED050A94ED040AD4ED0B
:101C6000032A94ED022AD4ED011AB8EE433A21EE8C
:101C7000271A23EE073A60EEA70A20EE270A074646
:101C8000FFF7EAFD314BD3ED006A314BC4ED166A24
:101C9000D3ED000A2F4BC4ED170A93ED007A2E4BBB
:101CA00084ED187AD3ED007A3369C4ED197A26EE03
:101CB000A70A7361A0EE870A60EEA00A30EE000A60
:101CC000E6EEA60AE7EE470AE7EEE70A06F0BEFFF1
:101CD000DFED227A98F80020214B20EE270A86EDCE
:101CE000040A22B1002288F8002083ED000AD3ED17
:101CF000007A30EE670ADFED1B7AB4EEE70AF1EE08
:101D000010FA0EDCDFED187AB4EEE70AF1EE10FA05
:101D10000AD4164B86ED040A0122B7619A703D463B
:101D200079E730EE480AE8E730EE080AECE700BF52
:101D300070080020E005002038040020ADC2000833
:101D40000000B44335FA8E3C6F12833A0000002045
:101D5000680200206C02002070020020E12E654223
:101D60007802002000003443000034C32004002027
:101D7000C0C200082C08002074020020014800F0B6
:101D8000A5B800BF8C020020034B834202D1034858
:101D900000F01CBE704700BF2C0800202404002067
:101DA00038B5244B9842044612D1234D2B6883B991
:101DB000042103F03EFF214B186001232B602368B0
:101DC0001A6A22F0A0021A621A6A42F020021A620B
:101DD00038BD012BFCD1042103F02BFF22689FEDBD
:101DE000187A00235362154B1B689842BBBFC3F59A
:101DF0007F43FF33C01AC01807EE900AF8EEE77A67
:101E0000104B67EE877AB6EE007A186067EE877A35
:101E10000D4B0848C3ED037A00232B60136A23F0AF
:101E2000A0031362136A13620421BDE8384004F072
:101E300073BB00BF9C070020840200207C020020AE
:101E4000287E0C3D800200203804002038B50F4B5E
:101E50000F4D1B682B6000220C210A2005F0A5F80D
:101E60000C4B0D4C18600D4BA0621B680C48236096
:101E7000214600F029F8294622460A4800F0BEFD16
:101E800029460948BDE8384000F09CBD2C040020DC
:101E900004000020E803002030000020EC030020B4
:101EA0008C020020300400202404002008B50448DF
:101EB00000F08AFDBDE80840024800F0ACBD00BF5C
:101EC000240400203004002001607047012380F8C2
:101ED000583170470368C2681B68FA205A6305F0DE
:101EE0004FB8036802691B68FA205A6305F048B8C6
:101EF000036842691B68FA205A6305F041B870B55F
:101F00001E46049B03610D46C0E90052C0E902630E
:101F100011460446284604F0FDFA3146284604F0EE
:101F2000F9FA204670BD0000F0B504468FB01820C5
:101F300006F018FE40F2EA2206464FF44173C6E965
:101F40000323002540F2F52341487361294675605B
:101F5000306004F0DFFAE660082006F003FE064673
:101F60003C273C4877603946306003F009FE266123
:101F7000082006F0F7FD064637483946C6E900074F
:101F800003F0FEFD6661142006F0ECFD41F29417AB
:101F90003249009706460C230822FFF7B0FF66601F
:101FA000142006F0DFFD00972A462D49042306463B
:101FB000FFF7A5FF2B4BDFED2C0AA66093E8070087
:101FC00005AF0C3387E8070093E8070008AE00234D
:101FD00086E80700B0EE600A3A46294604F1180088
:101FE0000B930C930D93CDED030A01F0FDFBDDED9A
:101FF000030A3246B0EE600A294604F1680001F097
:10200000F3FBDFED1A0A0BAAB0EE600A294604F1D1
:10201000B800CDED030A01F0E7FBDDED030A0BAAE2
:10202000B0EE600A294604F5847001F0DDFB84F807
:102030005851082006F096FD25680146C0E9005475
:102040002A1D0B4804F044FF28600FB0F0BD00BF0C
:10205000340600207C060020C40600200C07002067
:10206000E407002048C2000800C0DA4500007A44B6
:10207000CD280008642910B53CD8C3686424B3FB9C
:10208000F4F35943D0E9003401611B688068C2B1A0
:102090002CB95963012158B95963104610BD042C5D
:1020A00001D19963F6E7082C0CBFD9631964F1E7F5
:1020B000042801D19963F0E708280CBFD96319649B
:1020C000EBE7012224B95A6358B959630122E4E7C6
:1020D000042C01D19A63F7E7082C0CBFDA631A6469
:1020E000F2E7042801D19963F0E708280CBFD9630F
:1020F0001964EBE70022D0E7C3688B4210B537D3F1
:10210000D0E9003401611B688068C2B12CB9596301
:10211000012158B95963104610BD042C01D19963AF
:10212000F6E7082C0CBFD9631964F1E7042801D144
:102130009963F0E708280CBFD9631964EBE7012223
:1021400024B95A6358B959630122E4E7042C01D138
:102150009A63F7E7082C0CBFDA631A64F2E70428E5
:1021600001D19963F0E708280CBFD9631964EBE744
:102170000022D0E7D0E9003101221B6829B95A6357
:102180008168012251B95A637047042901D19A63C9
:10219000F6E708290CBFDA631A64F1E7042901D1D4
:1021A0009A63704708290CBFDA631A64704700000D
:1021B0002DE9F04FCC4E2DED0A8B9A46012386F87F
:1021C00044300023044680F8583183B0C068154677
:1021D0000F4689B3FFF785FED4F804902A463321D1
:1021E0004846FFF747FFD4F808802A4614214046A6
:1021F000FFF740FFBAF1000F39D101F039FFDDEDF3
:10220000167A96ED048AF8EE677A8346D7BBDDBB73
:1022100078EE678A9FEDB57AF4EEC78AF1EE10FA90
:1022200043D59FEDB37ADFEDB38A37EE487A77EE88
:10223000277A78EEE78A38E0FFF74CFED4F804906E
:102240002A4614214846FFF715FFD4F808802A468D
:1022500033214046FFF70EFFBAF1000FCDD02A46DA
:1022600014214846FFF706FF2A46372106E02A4692
:1022700037214846FFF7FEFE2A4614214046FFF765
:10228000F9FEBAE7002DC3D177EE888A9FED9A7ADE
:10229000F4EEC78AF1EE10FA07DDDFED968A38EE2C
:1022A000C87A77EEC77A77EEE88A9FED8D9BDFEDEF
:1022B00093AADFF858929FED92AA4FF0000878EEAB
:1022C000C87AFDEEE77A17EE903A03F12C02582A0D
:1022D00000F28C8083EAE372A2EBE37207EE902AAD
:1022E000F8EEE77ABAEE0E7A77EECA7ADFED856A13
:1022F00067EE877A2A4687EEA67AF3EE0E7A77EEB5
:10230000277AFCEEE77A17EE901A002F6CD06068FF
:10231000FFF7B0FE01F0ACFEB369834200F0B88075
:1023200096ED057AD6ED047A77EEC77AC01AFDEEFF
:10233000E77A502317EE902A002AB8BF52420028AD
:1023400007EE902AB8BF4042B0FBF3F007EE100A48
:10235000F8EEE77AB8EEC77A67EE877A96ED048AE8
:1023600096ED057A38EE477AB5EEC07AF1EE10FABE
:102370004CBF01220022CCBF012300239B1A07EE91
:10238000103AB8EEC77AA7EE278A78EEC87A86EDBB
:10239000078AFDEEE77A17EE903A83EAE372A2EB42
:1023A000E37207EE902AB8EEE7BAB4EEEABAF1EEBD
:1023B00010FA70DD03F10E011C2974D86068FFF774
:1023C000D9FE0025A068FFF7D5FE606884F8585153
:1023D000FFF7D0FEA068FFF7CDFE86F8445003B0AB
:1023E000BDEC0A8BBDE8F08FA06891E7FDEEE87ABE
:1023F00017EE900AFDEEC87A002817EE903AB8BFA3
:102400004042002BB8BF5B42C01A0028B8BF404210
:10241000FEF788F8B0EE491AF0EE691A41EC100B9D
:1024200041EC1B0B06F0B8FB424651EC100B4B463F
:10243000FEF754FB00283FF46DAF9FED32CAFAEE71
:102440000ECAB3EE0E8A0FB36368B0EE491AF0EE0F
:10245000691AB0EE4B0AF0EE6B0A019306F09CFB92
:1024600051EC100BFEF7C0FB07EE900A77EECA7A2C
:10247000019B67EEAC7A2A4687EE8C7A184677EE97
:10248000087AFCEEE77A17EE901A41E7A368DCE7DA
:10249000DFED1D7A62E733B9B421B2FBF1F301FB42
:1024A000132373638AE70133022B02D8BAF1000FBA
:1024B000F2D1019201F0DCFD42F21073A0EB0B00AF
:1024C0009842019AE8D8169B7363022004F058FDE5
:1024D000F0EE4BAA04F043FDF1E600BFAFF300803D
:1024E000000000000080664038040020000033C374
:1024F000000034C30000344300003343804FC3471F
:1025000000003442000034C2000000000080464059
:1025100003681B681B68DB0606D58A4284BF01F589
:102520007F41FF31881A7047501A8A423CBF00F53C
:102530007F40FF30704700002DE9F04F2DED088BF4
:1025400087B0044600939DF8603003939DF8643093
:102550000493002380F85831CB4BC0681646012203
:1025600083F844200D46FFF7C3FCD4F8048000999B
:102570002A464046FFF77EFDA76800992A4638465E
:10258000FFF778FD039B4BB12A4623214046FFF716
:1025900071FD2A4623213846FFF76CFD23699FED24
:1025A000BBAA1B681B68D3F8249063691B681B686F
:1025B0003046D3F82480FDF7A5FFADA3D3E900236F
:1025C000FEF744F902460B4643EC1B2BFEF70CFBCF
:1025D0009FEDA97BAC4B5BEC17AB8DED007B002234
:1025E00009EE100A17EE106A18649A63DA635F4600
:1025F000206903681B6849465A6AFFF789FFFDF79F
:1026000081FFFEF7F1FA08EE900A606903681B6823
:1026100041465A6AFFF77CFFFDF774FFFEF7E4FAC4
:1026200008EE100A18EE900AFDF78EFF02460B46E0
:1026300030463946FDF72AFE064618EE100A0F46C8
:10264000FDF782FF8EA3D3E90023FDF7D5FF0246F5
:102650000B4650465946FDF719FE78EEC87A824679
:1026600017EE900A8B46FDF76FFF0B460246DDE939
:102670000001FDF70BFE039BCDE90001002B40D1CB
:10268000049B002B3DD1824B002251EC1B0BFDF72C
:10269000FBFD32463B468046894651EC1B0BFDF75D
:1026A000F3FDFEF7A1FA324608EE100A3B4640461B
:1026B0004946FEF713FA38B952465B46404649464A
:1026C000FEF70CFA002874D038EE4A8AFBEE047A42
:1026D0009FED707A606828EE278A2A46C8EE077A4E
:1026E0009FED6D7A77EE877AFCEEE77A17EE901A17
:1026F000CDED057AFFF7BEFC0599A0682A46FFF7E5
:10270000B9FC23691B681B68D3F8249063691B68B4
:102710001B6851EC1B0BD3F8248032463B46FEF776
:10272000DDF930B151EC1B0B52465B46FEF7D6F992
:1027300020B994F85831002B00F0B48052465B4623
:1027400030463946FEF7E8F9002800F08B80504605
:102750005946FEF729FAFDF7D5FE45A3D3E9002334
:10276000FDF74AFFFEF720FA474D394668633046C9
:10277000FEF73AFA5946A8635046FEF735FAD4F800
:102780000480E8634046FFF7F5FCA768002638465A
:10279000FFF7F0FC404684F85861FFF7EBFC384641
:1027A000FFF7E8FC85F8446007B0BDEC088BBDE896
:1027B000F08FF0EE490A04F11800B0EE480A01F07B
:1027C0002DF852465B4651EC1B0BF0EE408AFDF7AC
:1027D0005BFDFEF709FAF0EE490A00EE100A04F17B
:1027E000680001F01BF8DDE90001B0EE408AFEF759
:1027F000FBF9DFED2A0A09EE900A00EE100A04F157
:10280000B80001F00BF804F58470F0EE40AADFED9B
:10281000230AB1EE690A01F001F878EEAA7A9FED79
:10282000207A6068F4EEC77AF1EE10FACABFFCEEC7
:10283000E77A4FF47A7117EE901A2A46FFF75CFC9C
:1028400038EE000AA068B4EEC70AF1EE10FACABF6B
:10285000FCEEC07A4FF47A7117EE901A2A46FFF711
:102860004BFC4EE73046394673E700BFAFF30080BC
:102870005FBD77C1CDCF8A3F00000000000000009F
:10288000AC1C5A643BDFEF3F380400200000FA44E0
:1028900000409F4000C0D0C400000C420000000077
:1028A00000007A440A2004F06BFB39463046FEF7FC
:1028B0009BF9054B594698635046FEF795F9024B34
:1028C000D86304F04CFB93E6380400202DE9F04770
:1028D000D0E90064E568394FDFF8E4908AB041F24E
:1028E000941004F04DFB2846FFF702FB4FF0000860
:1028F0004FF0010A322087F803A004F041FB04F0F6
:102900002EFBB06A04F0EBFB0028F3D00523002275
:1029100002A9B06A04F0B4FB1022002106A8CDF889
:10292000148007F0DDFCDDE90223494605A807F025
:10293000DFFB029B7BB92846FFF7DAFA9DF81330DC
:102940000193039A9DF8123000930121232320461E
:10295000FFF7F2FDCCE7013B042BC9D8DFE803F019
:10296000031A102721002846FFF7C2FA9DF81330FA
:1029700001939DF812300093039A23230021E6E788
:10298000039B00939DF81330012200212046FFF79E
:102990000FFCADE7039B00939DF81330012201214A
:1029A000F4E7039B009300229DF81330EDE7039BAF
:1029B000009300229DF81330F1E700BF20040020AF
:1029C00074C3000801607047704700001FB50A4AD1
:1029D0000446106851686B4603C3118919800023AF
:1029E00013605360138120681A466946806A04F0B8
:1029F00017FB04B010BD00BF8204002038B5C0E949
:102A0000001204460D46002210210A2004F0CDFADF
:102A1000A862204638BD704738B50446082006F045
:102A2000A1F8256863680560014643602A1D0248D5
:102A300004F04EFA286038BD692B000810B58AB042
:102A400004460021152204A8039107F049FC792CC3
:102A500005D8732C07D8652C2ED0672C32D021498D
:102A60000A23042223E0743C052CF8D801A353F870
:102A700024F000BFD32A0008BF2A00085F2A0008FC
:102A80008D2A00085F2A0008CD2A0008164B5868D6
:102A9000FDF75AFD154ACDE90001192103A807F0F9
:102AA000F3FA03A8FDF7E4FB0A2382B203A9104856
:102AB00003F0B0FE0AB010BD0B4B9868E8E70A4B74
:102AC000D868E5E7084B1B689869E1E7064B186989
:102AD000DEE7054B074A93F84430192103A807F0B5
:102AE000D3FADEE787C30008380400208CC2000850
:102AF0002C080020AAC2000870B50A220446002152
:102B0000043006F045FD0026054670B10C2006F0A5
:102B100029F8E37806606C2BC0E901561DD005D872
:102B2000622B0BD0662B0BD0304670BD722BFBD1C5
:102B3000E379622B0CBF0423022313E0012303601B
:102B4000E379A3F164014B424B418372237AA3F1F1
:102B50006A0253425341C372E7E7E379622B0CBF29
:102B6000052303230360F1E72DE9F0478449DFF8EB
:102B70003482844E05468CB083480A2204F064F9FE
:102B8000D5E900450127B9460A20DFF8F4A188F805
:102B9000009004F0F5F904F0E2F900231AF803209C
:102BA000002A44D0784803F08AFE754976480A2204
:102BB00004F04AF90023CAF80030CAF80430AAF831
:102BC0000830A06A04F08BFA7062A06A04F038FE44
:102BD000002800F0C1800523A06A002201A904F0AA
:102BE0004FFA9DF80430782B05D0684966480A23CF
:102BF000042203F00FFE9DF80D307A2B05D06349B7
:102C000061480A23042203F005FE9DF80530712B6C
:102C10002DD19DF80630732B0DD19DF80700FFF7DD
:102C20000DFF574958480A2204F00EF9ACE701336A
:102C30000A2BB3D1C5E7612BF3D19DF807306F2B79
:102C4000EFD10021152206A8059107F049FB736B0F
:102C50004F4A192105A807F017FA05A8FDF708FB48
:102C60000A2382B205A9484803F0D4FDD9E7632BB3
:102C70002DD19DF806306D2B17D0732B31D0612BE1
:102C8000CFD19DF80730212B60D10C2005F06AFFD1
:102C90000023C0E9003383609DF808200146A2F1BB
:102CA0006C00424242414A7216E09DF80730682BA0
:102CB00008D1FFF763F8A06A04F013FA35490A2334
:102CC0000422D0E701A8FFF717FF014618B92F49E2
:102CD0000A230422C7E70023A86A1A4604F0A0F9D1
:102CE000ECE70A22002102A806F052FC9DF807300A
:102CF00020B96E2B95D1FEF737FD13E0772B05D069
:102D0000BFD8652B15D06E2BBBD1F4E740F2E7336B
:102D1000984216BF07EE900ADFED1F7AF8EE677A49
:102D2000C6ED0B7A1B4918480A23042203F072FDF2
:102D3000A7E740F2E733984216BF07EE900ADFEDAF
:102D4000167AF8EE677AC6ED0C7AEBE73F2B9CD04B
:102D5000402B7FF466AF98E7104B1B78002B3FF4B5
:102D600013AFDFF844A09AF800302BB90C4906489D
:102D70000A23042203F04EFD8AF8007004E700BF26
:102D800082040020380400202C08002087C300089B
:102D90008CC3000888C300080000000081040020E4
:102DA00090C30008200400208004002008B53220D1
:102DB00004F0E6F8FBE7000000B595B02C220021F6
:102DC00009A807F08DFA1422002103A807F088FA59
:102DD0000023194A0193116C41F080511164126C67
:102DE00002F080520192019A144A0293116841F450
:102DF0008041116012680E9302F480420292029A9E
:102E00000222089201201022CDE90B0208A802F04C
:102E100093FB014608B172B6FEE70F23CDE90330FC
:102E2000CDE90500079003A802F060FD08B172B675
:102E3000FEE715B05DF804FB00380240007000406A
:102E400080B596B00024A14D01F0ECF8FFF7B4FF77
:102E5000142200210DA807F043FA02942B6B9C4822
:102E600043F010032B632B6B03F010030293029BC0
:102E700003942B6B43F001032B632B6B03F00103D3
:102E80000393039B04942B6B43F004032B632B6B82
:102E900003F004030493049B05942B6B43F002039B
:102EA0002B632B6B03F002030593059B06942B6B9E
:102EB00043F008032B632B6B03F0080306932246B1
:102EC0004FF48071069B01F03DFE824822464FF48C
:102ED000004101F037FE22467F484FF4F04101F0F7
:102EE00031FE01264FF4807379480DA9CDE90D36E6
:102EF000CDE90F4401F04CFD4FF4004375480DA996
:102F0000CDE90D36CDE90F4401F042FD4FF4F04319
:102F100071480DA9CDE90D36CDE90F4401F038FD1A
:102F20004FF404136A480D960DA9CDE90E3401F053
:102F30002FFD22460521062001F0F8FA062001F0B7
:102F400027FB01942B6B43F400132B632B6B634D16
:102F500003F400132246052101930C20019B01F08C
:102F6000E5FA0C2001F014FB224605210E2001F0A9
:102F7000DDFA0E2001F00CFB594BAC604FF6FF77E9
:102F80002846CDE90D44C5E90034EF60AC6102F09C
:102F900073FF08B172B6FEE7CDE90D000DA9284612
:102FA00003F008FB054608B172B6FEE701461022A1
:102FB00009A807F095F94B4C102229460DA8CDE938
:102FC000075507F08DF9DFF828C1A5610F232046CA
:102FD000C4E900C3C4E90257C4E9045502F04CFF38
:102FE00008B172B6FEE74FF4805709A92046099749
:102FF00003F083F908B172B6FEE7204602F094FFB1
:1030000008B172B6FEE7CDE9070007A9204603F034
:10301000D1FA08B172B6FEE7CDE90F000A232046C7
:1030200004220DA9CDE90D3603F0C8F8044608B115
:1030300072B6FEE70146102209A807F051F91C22DA
:1030400021460DA8284DCDE9074407F049F9274B43
:10305000AC60C5E90034284641F61F43C5E9033496
:10306000AC6102F009FF08B172B6FEE709A9284673
:10307000099703F042F908B172B6FEE7284602F05C
:1030800027FF08B172B6FEE70023174807A9CDE96C
:10309000073303F08FFA08B172B6FEE74FF060080D
:1030A000CDE90D800227119008220F480F970DA936
:1030B00002F0F0FF08B172B6FEE70B480C220DA932
:1030C00002F0E8FF0546A8B172B6FEE700380240FC
:1030D0000010024000040240000C0240540700208F
:1030E000001000409C0700200C0700200008004052
:1030F00000040140A348A44C00F0CCFD1022294656
:1031000009A807F0EDF81C2229460DA807F0E8F8F9
:103110009E4BA560C4E90035204641F61F43C4E933
:103120000335A56102F0A8FE08B172B6FEE74FF4C0
:10313000805609A92046099603F0DFF808B172B657
:10314000FEE7204602F0C4FE024608B172B6FEE772
:10315000CDE90D8011900DA920460F9702F09AFF3E
:1031600008B172B6FEE704220DA9204602F092FFD4
:10317000054608B172B6FEE7204600F08BFD10222E
:10318000294609A807F0ACF8814C824F1C22294639
:103190000DA807F0A5F84FF43473C4E90073204676
:1031A0004FF47A73C4E90335A560A56102F064FEAB
:1031B00008B172B6FEE709A92046099603F09DF80A
:1031C00008B172B6FEE7724802F082FE024608B10C
:1031D00072B6FEE76023CDE90D300F9011900DA976
:1031E0006B4802F057FF044608B172B6FEE7684824
:1031F000694D00F04FFD6948694B0462C0E9005316
:103200004FF48043C0E90244C0E90434C0E90644F5
:1032100001F086FE08B172B6FEE7624B62491861A2
:103220004FF4E132C3E900120C22C3E90200C3E902
:103230000520D861184603F0BFFA044608B172B6FB
:10324000FEE75A4D014620220EA807F049F8012654
:103250004FF080434FF6FF774FF003080DA9284643
:10326000CDE90944C5E90034C5E90374AC60AC613B
:10327000CDF834800F96139602F082FE08B172B634
:10328000FEE7CDE9090009A9284603F093F90446B1
:1032900008B172B6FEE7464D014620220EA807F09F
:1032A0001FF8444B2C610DA92846CDE90944C5E916
:1032B0000034C5E90247AC61CDF834800F9613960F
:1032C00002F05EFE08B172B6FEE7CDE9090009A979
:1032D000284603F06FF9054608B172B6FEE70146CD
:1032E00010220DA806F0FCFF334C344BA560C4E956
:1032F00000352046324B2561257684F82050E56262
:10330000A362E560E66184F83050666100F0CAFEB1
:1033100008B172B6FEE70723CDE90D360DA90423E7
:1033200020460F9301F060F808B172B6FEE7102254
:1033300000210DA806F0D4FF224C234A00230125CA
:10334000C4E9002320461E4AA3602361237684F843
:103350002030E362A262E360E56184F830306561A9
:1033600000F0A0FE08B172B6FEE70F23CDE90D35DF
:10337000204604230DA90F9301F036F8044628B324
:1033800072B6FEE70C070020E40700200040014071
:10339000340600200018004000580040E0050020DE
:1033A000A08601002C080020004800407C06002078
:1033B000C4060020000400409004002000200140CA
:1033C0000100000FD804002000210140FEF7D2F9CF
:1033D00003F052FD044A0548214603F079FD044BF1
:1033E000186003F05BFDFEE7A4C30008AD2D0008E4
:1033F0008C040020704772B6FEE70000012970B50A
:103400000A46044618BF00221448144E4FF40061C7
:1034100001F098FB082500224FF48041304601F06E
:1034200091FB23064CBF012200224FF4005130468D
:1034300001F088FB013D01224FF48041304601F04C
:1034400081FB640015F0FF05E4B2E4D1BDE87040F3
:10345000024801224FF4006101F074BB000C0240ED
:1034600070B50F4EB02400212046FFF7C7FF0021A2
:103470000846FFF7C3FF00211020FFF7BFFF00251C
:1034800016F8350001210135FFF7B8FF802DF7D17F
:103490000134E4B2B82C06F10106E4D170BD00BFDE
:1034A000D80800200023084810B41C460022C11888
:1034B00001F832400132802AFAD10133082BF5D1CC
:1034C0005DF8044BFFF7CCBFD808002008B50021F9
:1034D0008D20FFF793FF00211420FFF78FFFBDE839
:1034E00008400021AF20FFF789BF0000030610B598
:1034F00012D43F2910D801F00703C3F107030124B8
:103500009C40C908064BC1F10701C9B203EBC000DA
:10351000435C12B12343435410BD23EA0403FAE78A
:10352000D80800202DE9F74F1F46203A1E4B9DF882
:1035300030B0D2B203EB021301931C4B02EB4202F8
:1035400003EB82038146884600930C460026B7426F
:1035500002D103B0BDE8F08F0C2F0CBF009B019B84
:103560009D5D04F108035FFA83FA2B0658BFBBFA8E
:103570008BF2214604F101044CBF5A4652094846D9
:10358000E4B2FFF7B3FFA4EB08026D00BA42EDB25C
:1035900007D109F101005FFA80F9C24601365446AD
:1035A000D5E7A245E1D1F9E73CC80008C8C3000847
:1035B000F7B504460D46561E012716F8013F0BB914
:1035C00003B0F0BD7A2C82BF1035EDB200243A2D45
:1035D00003D9FFF767FF00252C4600972046327875
:1035E0000C2329460834FFF79DFFE4B2E5E72DE9F7
:1035F000F04190469DF8182007460C461E460546A9
:10360000454503D9B4420CD9BDE8F081284621468E
:10361000FFF76CFF284631460135FFF767FFEDB233
:10362000EEE721463846FFF761FF21464046013468
:10363000FFF75CFFE4B2E5E72DE9F04117469DF89E
:10364000182005460C461E468046B8450AD9A046B5
:10365000B04514D901340135E4B2EDB2B4421BD304
:10366000BDE8F08140462146FFF740FF4046314625
:1036700008F10108FFF73AFF5FFA88F8E5E74146ED
:103680002846FFF733FF4146384608F10108FFF7A7
:103690002DFF5FFA88F8DBE7A846B84502D301346E
:1036A000E4B2DBE74046214608F10108FFF71EFFC0
:1036B0005FFA88F8F1E770B506460C468D18AC4203
:1036C00000DB70BD0122214630461444FFF70EFF97
:1036D000E4B2F4E710B501F013FF414B414C1A6F0F
:1036E00022F001021A671A6F22F004021A6701F031
:1036F00015FF00224FF48051204601F023FA642088
:1037000000F0BCFC012220464FF4805101F01AFA6F
:103710000021AE20FFF772FE0021D520FFF76EFEDC
:1037200000215020FFF76AFE0021A820FFF766FE67
:1037300000213F20FFF762FE0021D320FFF75EFE4D
:1037400000210846FFF75AFE00214020FFF756FEF1
:1037500000218D20FFF752FE00211420FFF74EFEBE
:1037600000212020FFF74AFE00210220FFF746FE3D
:103770000021A120FFF742FE0021C020FFF73EFEFE
:103780000021DA20FFF73AFE00211220FFF736FE73
:1037900000218120FFF732FE0021EF20FFF72EFEEF
:1037A0000021D920FFF72AFE0021F120FFF726FE95
:1037B0000021DB20FFF722FE00213020FFF71EFE54
:1037C0000021A420FFF71AFE0021A620FFF716FE15
:1037D0000021AF20FFF712FEBDE81040FFF762BEE8
:1037E00000380240000C0240B0B1AAB10170136869
:1037F0004360536883609368C360002380ED040ACC
:10380000C0ED050A8363436303630362C36283629B
:10381000436243640364C36370470000002800F000
:10382000878090ED107A90ED0F6AC0ED060A03785C
:1038300080ED117A70EEC00A80ED106A80ED070A03
:10384000C0ED0F0A002B3ED190ED027AD0ED0A6A4E
:10385000D0ED017A436B8363E0EE876A036B4363C9
:1038600060EEA77A90ED037AC0ED097A70EEC60A91
:10387000C0ED0A6AC0ED0C0A60EE870A90ED057A89
:10388000C0ED0B0AF4EEC76AF1EE10FA02DD80ED2E
:103890000A7A06E0B1EE477AF4EEC76AF1EE10FA62
:1038A000F5D490ED0A7A77EE877A77EEA07A90EDEC
:1038B000047AC0ED087AF4EEC77AF1EE10FA2DDD45
:1038C00080ED087A31E0012BD0ED085A2DD170EE51
:1038D000C67AD0ED016A436B836367EEA67AD0EDBA
:1038E000026A036BC0ED097AB0EE005A60EEA66A78
:1038F000E6EE450A436390ED036AC0ED0A6A37EECF
:10390000207A77EEA67A80ED0C7A27EE067A77EEAB
:10391000877A80ED0B7A77EEA57AC8E7B1EE477A21
:10392000F4EEC77AF1EE10FACAD490ED080A7047A7
:103930009FED010A704700BF0000000082B00E4BEF
:1039400000220092596C41F480415964596C01F491
:103950008041009100990192196C41F080511964E5
:103960001B6C03F080530193019B0F216FF001004A
:1039700002B000F0DBBD00BF0038024010B51422D9
:103980008AB0044600210DEB020006F0A9FC236872
:10399000214A93421FD1214B2148002101915A6CA9
:1039A00042F480725A645A6C02F480720192019A55
:1039B00002911A6B42F001021A631B6B03F00103C0
:1039C00002938021029B0323CDE9051305A900F092
:1039D000DFFF0AB010BD134A9342FAD10F4B1248D1
:1039E000002103915A6C42F400725A645A6C02F43A
:1039F00000720392039A04911A6B42F004021A6354
:103A00001B6B03F004030493049B20220323CDE9E2
:103A1000052305A9DBE700BF002001400038024074
:103A200000000240002101400008024030B5044679
:103A300089B01422002103A806F052FC2268144B1E
:103A40009A4222D1134C144800250195236B43F070
:103A500002032363236B03F002030193019B4FF4E2
:103A600040621223CDE9032303210423CDE9061389
:103A700003A900F08DFF0295236C43F480032364B7
:103A8000236C03F480030293029B09B030BD00BF96
:103A900000580040003802400004024070B5142273
:103AA0008AB0044600210DEB020006F019FC2368E1
:103AB000B3F1804F37D103F50E33002400941A6C14
:103AC0002E4842F001021A641A6C02F001020092C0
:103AD000009A01941A6B42F001021A631A6B02F009
:103AE00001020192019A02941A6B42F002021A63D7
:103AF0001B6B03F002030293029B02264FF4004368
:103B0000012505A9CDE90536099500F041FF0823F7
:103B10001B48099505A9CDE90536CDE9074400F014
:103B200037FF0AB070BD174A9342FAD1164B1448BA
:103B3000002403941A6C42F002021A641A6C02F018
:103B400002020392039A04941A6B42F002021A636F
:103B50001B6B03F002030493049B3022022305A98C
:103B6000CDE90523099300F013FF224605211D200E
:103B700000F0DCFC1D2000F00BFDD2E7000002404D
:103B800000040240000400400038024010B5044622
:103B90008CB01422002107A806F0A2FB2368364A45
:103BA00093420DD100230193344B1A6C42F004026E
:103BB0001A641B6C03F004030193019B0CB010BD4D
:103BC0002F4A93420CD1002302932C4B1A6C42F0E3
:103BD00010021A641B6C03F010030293029BEDE7C2
:103BE000284A934228D1254B2748002403945A6C35
:103BF00042F002025A645A6C02F002020392039AE3
:103C000004941A6B42F004021A631B6B03F0040362
:103C10000493049B80220223CDE9072307A90323F1
:103C20000B9300F0B5FE224605212E2000F07EFC0D
:103C30002E2000F0ADFCC1E7144A93420CD10023C2
:103C400005930E4B5A6C42F480325A645B6C03F459
:103C500080330593059BB1E70D4A9342AED1002313
:103C60000693064B1A6C42F040021A641B6C03F078
:103C700040030693069BA1E700080040003802407D
:103C800000100040000401400008024000400140D4
:103C90000018004010B5044688B01422002103A883
:103CA00006F01EFB2368244A934214D1002300939C
:103CB000224B1A6B42F002021A631B6B03F00203E1
:103CC0000093009B4FF440700223CDE903031C488E
:103CD000079303A916E01B4A934217D100230193CF
:103CE000164B19481A6B42F010021A631B6B03F053
:103CF000100301936021019B0223CDE903130323E9
:103D0000079303A900F044FE08B010BD0F4A934288
:103D1000FAD100230293094B1A6B42F002021A6394
:103D20001B6B03F002030293029B4FF480420223B9
:103D3000CDE903230923CAE7000800400038024008
:103D40000004024000400140001002400018004002
:103D50002DE9F041064688B01422002103A806F0A0
:103D6000BFFA3268374B9A4269D1002503F5F83320
:103D700001951A6C344842F480221A641A6C02F4D9
:103D800080220192019A02951A6B42F008021A638E
:103D90001B6B03F0080302930224029B4FF00308FD
:103DA0004FF48073072703A9CDE90334CDE90687D3
:103DB00000F0EEFD4FF400732348079703A9CDE907
:103DC0000334CDE9054800F0E3FD204C20484FF0D6
:103DD0000063C4E900034FF480632046C4E9025540
:103DE000C4E90435C4E90655C4E9085500F008FCE7
:103DF00008B1FFF700FB174AB463A663164C4FF0F7
:103E00000063C4E90023402100234FF48062204670
:103E1000C4E90213C4E90423C4E90633C4E908333E
:103E200000F0EEFB08B1FFF7E6FA746327200022EA
:103E30000521A66300F07AFB272000F0A9FB08B05B
:103E4000BDE8F08100480040000C02402005002041
:103E5000286002405860024080050020FEE7FEE72F
:103E6000FEE7FEE7FEE7704708B500F0F5F804F05E
:103E70008DF9012803D0BDE8084004F09BBC08BDC3
:103E8000012000F065BE0000014800F0C3BC00BF87
:103E900020050020014800F0BDBC00BF80050020C7
:103EA000014801F0E0BE00BFC4060020014802F056
:103EB00037BE00BF2C080020014801F0D4BE00BF6F
:103EC0009C0700200120704708B506F0AFFA1623C2
:103ED00003604FF0FF3008BD08B506F0A7FA1623BF
:103EE0000360FEE770B50D4614460E46731B9C42F8
:103EF00001DC204670BDAFF3008006F8010BF5E74A
:103F000070B50D4614460E46731B9C4201DC2046DC
:103F100070BD16F8010BAFF30080F5E74FF0FF30EE
:103F200070474FF400534B600020704701207047EA
:103F3000002070470B4A116810B5034609B90A49B9
:103F40001160106809490A4C0344091B8B4206D9C9
:103F500006F06CFA0C2303604FF0FF3010BD1360C5
:103F6000FCE700BFD80C0020805700200000022092
:103F700000040000034AD2F8883043F47003C2F80A
:103F80008830704700ED00E0DFF834D00D480E496E
:103F90000E4A002302E0D458C4500433C4188C42A3
:103FA000F9D30B4A0B4C002301E013600432A24208
:103FB000FBD3FFF7DFFF06F03FFAFEF741FF704744
:103FC00000000220000000204802002034D2000837
:103FD000480200207C570020FEE7000038B50E4B59
:103FE0001A784FF47A73B3FBF2F30C4A0546106863
:103FF000B0FBF3F000F0DAFA044658B90F2D09D8F7
:10400000024629464FF0FF3000F090FA044B20465C
:104010001D6038BD0120FCE7600000205C0000202E
:104020006400002008B50B4B1A6842F400721A6055
:104030001A6842F480621A601A6842F480721A6048
:10404000032000F061FA0F20FFF7C8FFFFF776FCAE
:10405000002008BD003C0240034A044B11681B7855
:104060000B441360704700BFDC0C00206000002090
:10407000014B1868704700BFDC0C002038B50446BF
:10408000FFF7F6FF631C1CBF054B1B78054618BFE6
:10409000E418FFF7EDFF431BA342FAD338BD00BF7E
:1040A0006000002038B50446002800F09B80056CB5
:1040B00025B9FFF763FC656484F83C50236CDB068C
:1040C00000F18E80236C23F4885323F0020343F025
:1040D00002032364444B5A6822F440325A605A68FF
:1040E00061680A435A60236821695A6822F4807221
:1040F0005A605A6842EA01225A605A68A16822F05E
:1041000040725A605A680A435A609A68E16822F419
:1041100000629A609A680A439A603449A26A8A42A5
:1041200052D0996821F07061996099680A439A6049
:104130009A68E16A22F040529A609A680A439A604B
:104140009A6822F002029A609A68217E42EA41024D
:104150009A6094F82020002A3ED05A68616A42F49E
:1041600000625A605A6822F460425A605A68013903
:1041700042EA41325A60DA6AE16922F47002DA6294
:10418000DA6A013942EA0152DA629A6822F400726C
:104190009A609A6894F8301042EA41229A609A68CC
:1041A000616922F480629A609A68002042EA812262
:1041B0009A606064236C23F0030343F001032364DB
:1041C000002384F83C3038BD9A6822F070629A600F
:1041D0009A6822F04052B2E75A6822F40062C9E7B6
:1041E0000120EDE70120EEE7002301400100000F70
:1041F00013B50023019390F83C30012B024672D096
:104200000168012380F83C308B68D8070CD58B6897
:1042100013F001031AD1116C41F010011164516CBB
:1042200041F0010151645CE08B68304843F00103C8
:104230008B602F4B1B68B3FBF0F303EB430301933D
:10424000019B002BE3D0019B013BF8E7136C294C49
:1042500023F4E06323F0010343F4807313644B6899
:104260005B0541BF136C23F4405343F48053136444
:10427000136C13F4805318BF536C4FF0000018BF39
:1042800023F00603536482F83C006FF022031A4ABD
:104290000B60536813F01F0319D1A14206D01748D1
:1042A00081420DD1526812F01F0F1AD1886810F0A8
:1042B000405016D18B6843F080438B6002B010BD34
:1042C0000F4881420DD1526812F0100FEDE7A14264
:1042D000F4D18B6813F04053F0D18A6842F08042E9
:1042E0008A600020EAE70220E8E700BF40420F00B2
:1042F0005C0000200020014000230140002101401B
:104300000022014090F83C30012B14D003689A68D9
:1043100022F001029A609B68DB0707D4036C23F448
:10432000885323F0010343F001030364002380F862
:104330003C30184670470220704703689A6852055F
:1043400070B504460D460BD59B68DE0508D5036C99
:1043500043F020030364002380F83C30012070BD4B
:10436000FFF786FE064623681A6891070CD56FF0A2
:1043700012021A60226C42F4007222649A6812F0EF
:10438000405F17D00020EAE7681CEDD065B92368CC
:104390001B6813F00203E6D1226C84F83C3042F033
:1043A000040222640320DAE7FFF762FE801BA842C2
:1043B000EDD8D8E7207E0028E4D1DA6A12F4700F35
:1043C00002D09B685A05DDD4236C23F480732364E8
:1043D000236CDB04D6D4236C43F001032364BEE7D3
:1043E0000368D86C70470000F7B50023019390F87C
:1043F0003C30012B64D0012380F83C300D68036809
:104400008E68092DACB231D904EB4402DF681E3A44
:104410004FF0070C0CFA02FC27EA0C07DF60DF689C
:1044200006FA02F23A43DA604968062901EB810292
:104430002BD8596B053A1F26964021EA060159638D
:10444000596B04FA02F20A435A632B4A934207D18A
:10445000122D37D1D2F8043343F48003C2F8043369
:10446000002380F83C30184603B0F0BD1A6905EB14
:10447000450C072707FA0CF722EA07021A611A69A6
:1044800006FA0CF616431E61CEE70C294FF01F0109
:104490000BD81E6B233A914026EA01011963196B70
:1044A00004FA02F20A431A63CFE7DE6A413A914006
:1044B00026EA0101D962D96A94400C43DC62C4E760
:1044C0000220D1E7A5F11003012BC9D80B4A53688C
:1044D000102D43F400035360C2D1094B094A1B68F5
:1044E000B3FBF2F30A2253430193019B002BB7D095
:1044F000019B013BF8E700BF002001400023014081
:104500005C00002040420F000749CA6822F4E062C4
:104510000302120403F4E063120C134343F0BF637D
:1045200043F40033CB60704700ED00E0164B30B52C
:10453000DC68C4F30224C4F10703251D042B28BF43
:104540000423062D4FF0FF358CBF033C002405FAF1
:1045500003F321EA0303A54022EA0502A340002851
:1045600043EA0203ACBF00F16040084A4FEA03137C
:10457000B8BF00F00F00DBB2AABF00F561401354D2
:1045800080F8003330BD00BF00ED00E014ED00E026
:10459000002807DB4109044A00F01F000123834083
:1045A00042F82130704700BF00E100E00138B0F16F
:1045B000807F0BD24FF0E023054A5861F02182F84A
:1045C00023100020072298611A617047012070476C
:1045D00000ED00E0036810B5DAB2103A074C23F49E
:1045E0007F7323F003035F2A88BF04331821B2FBD3
:1045F000F1F1615CC1658365184610BD44CE0008C9
:1046000070B50446FFF734FD0546002C71D0022337
:1046100084F835302268002384F83430136823F09E
:104620000103136022681368D8072ED41368324838
:10463000A1691840D4E901352B43E5682B4325696E
:104640002B4365692B43E5690B432B43256A2B43B9
:104650000343606A042802BFD4E90B5635432B4359
:1046600013605369042823F0070343EA000332D19F
:10467000A06AE56A034375B391B9012820D030F0F0
:10468000020128D1E90126D51DE0FFF7F1FC401B0E
:104690000528C7D920236365032084F8350070BD41
:1046A000B1F5005F13D1032815D801A151F820F00E
:1046B000C746000885460008C7460008C1460008EE
:1046C000B5F1C07F07D1402363650120E5E70228EB
:1046D000F9D90328D6D053612046FFF77BFFE26D5E
:1046E0003F239340836000200123606584F83530C8
:1046F000D5E70120D3E700BF3F8010F070B590F8F8
:104700003440866D012C31D0012480F8344090F87B
:104710003540012C4FF000054FF0020424D180F801
:10472000354004684565256825F48025256063606B
:104730008368402B0EBFA260A160E260C26D08BF1B
:10474000E1603F239340B360236843F01603236086
:10475000036C1BB1236843F008032360236843F014
:1047600001032360002070BD80F834500220FAE776
:1047700070B50446866DFFF77BFC94F83530022B4C
:10478000054606D0802363650120002384F8343079
:1047900070BD23681A6822F016021A605A6922F066
:1047A00080025A61226C0AB9A26C1AB11A6822F00E
:1047B00008021A601A6822F001021A6023681B6856
:1047C00013F0010308D1E16D3F228A40B26001225B
:1047D00084F835201846D8E7FFF74AFC401B052827
:1047E000ECD920230320636584F83500CDE790F8E9
:1047F0003530022B03D080234365012070470268C7
:10480000052380F83530136823F00103136000207E
:1048100070470000F7B5002301935C4B856D1F685E
:10482000C36D2E6808229A40324204460CD00168BB
:104830000868400708D5086820F004000860AA60EE
:10484000626D42F00102626501229A40324208D054
:1048500021684969090641BFAA60626D42F00202FF
:10486000626504229A40324208D0216809688807AC
:1048700041BFAA60626D42F00402626510229A4054
:10488000324210D02368196809070CD5AA601A684B
:10489000500337D51B68190301D4236C00E0A36CC7
:1048A0000BB120469847E16D20228A4032423AD02F
:1048B00023681868C60636D5AA6094F83520052AFC
:1048C0001A6827D122F016021A605A6922F0800273
:1048D0005A61226C0AB9A26C1AB11A6822F0080255
:1048E0001A603F238B40AB60012384F835300023EE
:1048F00084F83430236D002B45D0204603B0BDE84A
:10490000F04018471A68D2055EBF1A6822F0080204
:104910001A60C2E7500327D51B68190331D4636CB2
:104920000BB120469847636D6BB3636DDA0719D5F9
:1049300022684FF41653B7FBF3F7052384F835309C
:10494000136823F001031360019B0133BB42019301
:1049500002D81368DB07F7D4012384F8353000232D
:1049600084F83430E36CC6E71A6812F4807208D118
:10497000196821F010011960012384F8353084F89A
:104980003420E36BCCE703B0F0BD00BF5C00002037
:104990002DE9F74FDFF8A891674A00230D6801243D
:1049A0009C4004EA050CAC4340F0B1804D6805F032
:1049B00003044FEA43080326671E06FA08F6012F90
:1049C0006FEA060634D8876807EA060ECF6807FA4A
:1049D00008F747EA0E078760476827EA0C0EC5F319
:1049E00000179F4047EA0E074760C76807EA060EB0
:1049F0008F6807FA08F747EA0E07022CC76019D13B
:104A00004FEAD30A00EB8A0A03F0070BDAF82070AA
:104A10004FEA8B0B4FF00F0E0EFA0BFE27EA0E0E2D
:104A20000F6907FA0BF747EA0E07CAF8207001E092
:104A3000032CDAD1076804FA08F437403C4315F434
:104A4000403F046063D04FF0000ACDF804A0D9F8CD
:104A500044603A4C46F48046C9F84460D9F8446052
:104A600006F480460196019E23F0030606F1804677
:104A700006F59C3603F0030ED6F808804FEA8E0E3A
:104A80000F2707FA0EF7A04228EA070746D004F5D9
:104A90008064A04244D004F58064A04242D004F572
:104AA0008064A04240D004F58064A0423ED004F56A
:104AB0008064A0423CD004F58064A0423AD004F562
:104AC0008064A0420CBF0724082404FA0EF43C437F
:104AD000B46094686FEA0C06EF0254BF34404CEAAD
:104AE00004049460D468AF0254BF34404CEA040418
:104AF000D4605468AF0354BF34404CEA040454609B
:104B00001468ED0354BF34404CEA040414600133CC
:104B1000102B7FF443AF03B0BDE8F08F5446D4E7C9
:104B20000124D2E70224D0E70324CEE70424CCE713
:104B30000524CAE70624C8E7003C01400000024003
:104B4000003802400AB1816170470904FBE70000A8
:104B5000044A5169014208B502D05061FEF74AFC8F
:104B600008BD00BF003C014001684B6913F480633D
:104B70004FF0000210D06FF480634B61202302637A
:104B800080F83D3080F83E20036C80F83C2043F0F4
:104B90000403036401207047184670472DE9F84666
:104BA00006460F4691461D464FEA114A3368BAF150
:104BB000010F0CBF5C699C6927EA0404A4B2B4FA33
:104BC00084F46409A14501D0002017E06A1CEED0EE
:104BD000FFF74EFA089BC01AA84201D8002DE5D174
:104BE00000232022336386F83D2086F83E30326C65
:104BF00086F83C3042F0200232640120BDE8F8869D
:104C00002DE9F04104460F46164698462568686926
:104C100027EA000080B2B8B16B695A0516D52B6837
:104C200043F400732B606FF480636B6120220023D8
:104C3000236384F83D2084F83E30226C42F0040265
:104C4000226484F83C300120BDE8F081731CDED082
:104C5000FFF70EFAA0EB0800B04201D8002ED5D124
:104C600000232022236384F83D2084F83E30226C08
:104C700042F02002E4E770B504460D46164621686E
:104C80004B6913F0400301D0002010E04A69D206BE
:104C90000ED56FF010024A612022236384F83D2074
:104CA00084F83E30226C226484F83C30012070BDD0
:104CB000FFF7DEF9801BA84201D8002DDFD10023C9
:104CC0002022236384F83D2084F83E30226C42F099
:104CD0002002E8E770B504460D46164623685B6976
:104CE0001B0601D5002070BD2046FFF73DFFA8B987
:104CF0006A1CF3D0FFF7BCF9801BA84201D8002D35
:104D0000ECD100232022236384F83D2084F83E3038
:104D1000226C84F83C3042F0200222640120E2E759
:104D20002DE9F0431546026885B0DDE90C78994617
:104D3000136843F4807313600E463B46CDF8008041
:104D400000224FF001110446FFF728FF236838B115
:104D50001B68DB0502D54FF40073236403200AE0CF
:104D600006F0FE061E61194943463A462046FFF703
:104D700047FF18B1012005B0BDE8F0832368039018
:104D80005A6903929B690393424639462046039B26
:104D9000FFF7A0FF40B1236C042B01BF226813680A
:104DA00043F400731360E5E7B9F1010F236802D102
:104DB000EDB21D61DFE72A0A1A61394642462046F4
:104DC000FFF788FF0028E6D12368F1E70200010021
:104DD0002DE9FF479A46036815461A6842F4806237
:104DE0001A601A68DDE90C7842F480721A600E4687
:104DF0003B46CDF8008000224FF001110446FFF73A
:104E0000CDFE236848B11B68DB0502D54FF4007363
:104E10002364032004B0BDE8F0875FFA86F906F04A
:104E2000FE061E612A4943463A462046FFF7E8FE41
:104E300008B10120EEE7236803905A6903929B6949
:104E40000393424639462046039BFFF743FF40B198
:104E5000236C042B01BF2268136843F400731360B2
:104E6000E7E7BAF1010F23681AD1EDB242461D619E
:104E700039462046FFF72EFF02460028E8D1216878
:104E80000B6843F480730B602046CDF800803B46EE
:104E90004FF00111FFF782FE226860B11368B3E79B
:104EA0002A0A1A61394642462046FFF713FF0028B6
:104EB000CED12368D9E749F0010313610449434681
:104EC0003A462046FFF79CFE003818BF0120A1E7B4
:104ED0000200010070B504460D46164623685B6962
:104EE0005B0701D5002070BD2046FFF73DFEA8B945
:104EF0006A1CF3D0FFF7BCF8801BA84201D8002D34
:104F0000ECD100232022236384F83D2084F83E3036
:104F1000226C84F83C3042F0200222640120E2E757
:104F200070B5044608B9012070BD90F83D3003F01B
:104F3000FF021BB980F83C20FEF778FD242384F89B
:104F40003D3023681A6822F001021A601A6842F4A0
:104F500000421A601A6822F400421A6000F060FDF4
:104F60003F4B65689D4294BF3E4B3F4B98428CBF80
:104F700000230123002BD6D12268394E51683B4BC8
:104F8000B0FBF3F321F03F011943B542516088BFF4
:104F90004FF49676116A88BF734321F03F0184BFB6
:104FA0004FF47A76B3FBF6F301330B431362D16906
:104FB000431E2B4821F44F41854221F0FF0132D896
:104FC0006D0040F6FC70B3FBF5F30133034242D0B1
:104FD000C3F30B031943D161D4E9073011680343CC
:104FE00021F0C0010B4313609168D4E9030321F45D
:104FF0000341034321F0FF010B439360D4E90530E3
:10500000D168034321F0FF010B43D360136843F0E1
:105010000103136000202023206484F83D302063C6
:1050200084F83E0080E7A06850B905EB4505B3FB66
:10503000F5F30133C3F30B037BB143F40043C9E73A
:1050400019206843B3FBF0F30133C3F30B0323B11F
:1050500043F44043BEE70423BCE70123BAE700BFA3
:10506000A08601007F841E00FF083D0040420F0023
:105070002DE9F743044699460C9E0F469046FEF7ED
:10508000F7FF94F83D30202B054603D0022003B0F3
:10509000BDE8F08300903C49192301222046FFF728
:1050A0007DFD0028F2D194F83C30012BEED0206831
:1050B000012384F83C300368D9075EBF036843F0DE
:1050C00001030360036823F400630360212384F871
:1050D0003D30402384F83E30002323640A9B636202
:1050E000BDF82C306385638D2385284BE362CDE9C1
:1050F00000654B46424639462046FFF711FE002820
:105100002AD00120C3E7FFF7E5FD40B1236C042B53
:1051100001BF2268136843F400731360F1E7636A08
:1051200027681A4612F8011B39616262628D218D6F
:10513000013A92B262857A69481E80B25207208590
:105140000AD548B15A783A6102336362638D013BF4
:1051500002399BB221856385238D2A46314620463C
:10516000002BD0D1FFF7B6FE0028CFD122681368FC
:1051700043F400731360202384F83D3084F83C002E
:1051800084F83E0083E700BF020010000000FFFF2C
:105190002DE9F043044687B09946109F0D4690468E
:1051A000FEF766FF94F83D30202B064604D002251A
:1051B000284607B0BDE8F083009076491923012204
:1051C0002046FFF7EBFC0028F1D194F83C30012B8E
:1051D000EDD02068012384F83C300368DB075EBF14
:1051E000036843F001030360036823F40063036072
:1051F000222384F83D30402384F83E30002323648A
:105200000E9B6362BDF83C306385638D2385624BE2
:10521000E3622946CDE900764B4642462046FFF739
:10522000D7FD054608B10125C2E7228D2368B2B932
:1052300002905A6902929A690292029A1A6842F49A
:1052400000721A60DFF85481238D002B2CD12022AC
:1052500084F83D2084F83C3084F83E30A8E7012AE9
:105260000AD11A6822F480621A6003905A69039284
:105270009A690392039AE1E7022A0ED11A6822F48E
:1052800080621A601A6842F400621A6004905A69D7
:1052900004929B690493049BD4E705905A69059294
:1052A0009B690593059BCDE7032B56D8012B15D1A0
:1052B000324639462046FFF7DEFC0028B3D123688A
:1052C0001A69636A1A70636A01336362238D013B52
:1052D0002385638D013B9BB26385B5E7022B009666
:1052E0003B464FF000024146204619D1FFF756FCDD
:1052F000002898D123681A6842F400721A601A696B
:10530000636A1A70626A531C6362238D013B2385B2
:10531000638D013B9BB2638523681B695370D2E7A1
:10532000FFF73CFC024600287FF47DAF2368196834
:1053300021F4806119601969636A1970636A0096C3
:1053400001336362238D013B2385638D013B9BB257
:10535000638541463B462046C8E7324639462046EB
:10536000FFF789FC00287FF45EAF23681A69636A3F
:105370001A70626A531C6362238D013B2385638D1F
:10538000013B9BB263852368596949077FF55CAF90
:10539000C3E700BF020010000000FFFF040001008F
:1053A0002DE9F04F044685B01F4688469246FEF729
:1053B0005FFE94F83D30202B054603D0022005B057
:1053C000BDE8F08F00904C49192301222046FFF7D9
:1053D000E5FB0028F2D194F83C30012BEED00123FC
:1053E00084F83C302368DFF810B11A68D2075EBF3A
:1053F0001A6842F001021A601A6822F400621A6008
:10540000242384F83D3000263C4B266408F0FE0837
:10541000E3622268136843F4807313604FF0011154
:105420003B46009500222046FFF7B8FB236838B1C1
:105430001B68DB0502D54FF4007323640320BEE72D
:10544000C3F81080FEF714FE23685A695B690546AD
:10545000C2F34002C3F380234FF0A00994F83D103B
:10546000A02901D013431DD023684FF0200984F8F0
:105470003D905A6912F0020F1A6842F400721A60E5
:1054800025D0002203925A6903929B690393039BE0
:1054900019490095192301222046FFF77FFB88B1A7
:1054A00001208CE7FEF7E4FD401BB84200D80FB99D
:1054B00084F83D9023685A695B69C2F34002C3F3E4
:1054C0008023CBE784F83D9084F83C0077E76FF4C5
:1054D00080625A6159460095192301222046FFF740
:1054E0005DFB0028DCD10136564592D384F83D900F
:1054F00084F83C00D4E700BF020010000000FFFF6A
:10550000044B01221A62044B82B01B680193019B79
:1055100002B0704700000E4200700040044B0022B1
:105520001A62044B82B01B680193019B02B0704762
:1055300000000E42007000402DE9F341044640B3E4
:105540000368DD0710D4236898075BD423681A0723
:1055500000F19D8023685B0700F1BD80A0690028F1
:1055600040F0248100202CE08D4B9A6802F00C0260
:10557000042A07D09A6802F00C02082A0BD15B6853
:10558000590208D5864B1B689A03DCD56368002B4B
:10559000D9D1012015E06368814DB3F5803F13D167
:1055A0002B6843F480332B60FEF762FD7C4E05468A
:1055B00033689B03C7D4FEF75BFD401B6428F7D913
:1055C000032002B0BDE8F081B3F5A02F04D12B6811
:1055D00043F480232B60E3E72A6822F480322A60B8
:1055E0002A6822F480222A60002BDDD1FEF740FDDC
:1055F00006462B689F03A6D5FEF73AFD801B64285C
:10560000F7D9DDE7664B9A6812F00C0F07D09A685D
:1056100002F00C02082A11D15B685E020ED4604AC7
:1056200013689D0702D5E368012BB2D11368216985
:1056300023F0F80343EAC103136087E7E268594B9C
:10564000B2B101221A60FEF713FD554D06462B68D4
:10565000980707D52B68226923F0F80343EAC203B1
:105660002B6073E7FEF704FD801B0228EFD9A7E744
:105670001A60FEF7FDFC4A4E0546336899077FF530
:1056800065AFFEF7F5FC401B0228F6D998E7626982
:10569000444B82B10122C3F8802EFEF7E9FC404E54
:1056A0000546736F9F073FF555AFFEF7E1FC401BC2
:1056B0000228F6D984E7C3F8802EFEF7D9FC384ECD
:1056C0000546736F98077FF545AFFEF7D1FC401B89
:1056D0000228F6D974E7324B1A6C12F0805228D1A6
:1056E00001921A6C42F080521A641B6C03F08053D2
:1056F0000193019B01272C4D2B68D9051BD5A3686D
:10570000274D012B27D12B6F43F001032B67FEF7A9
:10571000AFFC234E054641F28838336F9B0739D5DD
:10572000002F3FF41BAF1E4A136C23F08053136409
:1057300014E70027DFE72B6843F480732B60FEF744
:1057400097FC06462B68DA05D9D4FEF791FC801B3E
:105750000228F7D934E7052B04D12B6F43F004035B
:105760002B67D0E72A6F22F001022A672A6F22F006
:1057700004022A67002BCAD1FEF77AFC41F288386E
:1057800006462B6F9807CBD5FEF772FC801B404571
:10579000F7D915E7FEF76CFC401B4045BDD90FE774
:1057A000003802400000474200700040364DAB68B0
:1057B00003F00C03082B3DD0344B002202281A665C
:1057C0002BD1FEF755FC06462B6899011FD4D4E96E
:1057D00007321343626A43EA8213E26A43EA0263CE
:1057E000A26A5208013A43EA02436B60274B264DF6
:1057F00001221A66FEF73CFC04462B689A013FF52D
:10580000B1AEFEF735FC001B0228F6D9D8E6FEF74C
:105810002FFC801B0228D7D9D2E6FEF729FC0446CC
:105820002B689B017FF59EAEFEF722FC001B022831
:10583000F6D9C5E601283FF4C4AE6B68E26903F40B
:10584000800191427FF4A5AE216A03F03F028A42B3
:105850007FF49FAE616A47F6C0721A40B2EB811FB7
:105860007FF497AEA26A520803F44031013AB1EBDB
:10587000024F7FF48EAEE26A03F07063B3EB026F07
:105880003FF470AE85E600BF00380240000047429A
:10589000134908B58B6803F00C03042B1CD0082BAC
:1058A0001CD14A684B68496813F4800314BF0D4843
:1058B0000D48C1F3881118BF002302F03F02A1FB7D
:1058C0000001FBF7E1F9064B5B68C3F301430133C9
:1058D0005B00B0FBF3F008BD0248FCE70248FAE7C2
:1058E0000038024040787D010024F4002DE9F041A9
:1058F0000D46044610B90120BDE8F081434B1A68FB
:1059000002F007028A4228D321688F072DD4C807E6
:1059100040D43E4B1A6802F00702AA4265D82268BA
:1059200051076BD4130707D5394A2169936823F4CB
:10593000604343EAC1039360FFF7AAFF344B354A43
:105940009B68C3F30313D35CD840334B1860334BCD
:105950001868FEF743FB0020CEE7CAB21A701B6836
:1059600003F007038B42C6D1CEE7294B11F0040F99
:105970001EBF9A6842F4E0529A600E0742BF9A68CE
:1059800042F460429A609A68A06822F0F0020243F2
:105990009A60BCE762681E4B012A1CD11B6813F495
:1059A000003FA8D01A4EB36823F003031343B3603B
:1059B000FEF75EFB41F288380746B368626803F081
:1059C0000C03B3EB820FA4D0FEF752FBC01B404583
:1059D000F3D9032090E7911E01291B6802D813F028
:1059E000007FDEE713F0020FDBE7EAB21A701B68F4
:1059F00003F00703AB427FF47EAF90E70449E06811
:105A00008B6823F4E05303438B608BE7003C024038
:105A1000003802402CCE00085C000020640000200A
:105A2000044B054A9B68C3F38223D35C034A106886
:105A3000D8407047003802403CCE00085C0000208F
:105A4000044B054A9B68C3F34233D35C034A106896
:105A5000D8407047003802403CCE00085C0000206F
:105A6000036A23F001030362036A70B54468826924
:105A70000D6822F073022A438D6823F002032B4342
:105A80000E4DA84202D00E4EB04210D1CE6823F087
:105A900008033343A84223F0040302D0084DA84270
:105AA00005D1D1E9055624F4407435432C434460B4
:105AB00082614A684263036270BD00BF000001401A
:105AC00000040140036A23F480730362036A70B523
:105AD0004468C2690D6822F073022A438D6823F47A
