:020000040800F2
:1000000000000220613B0008413A0008433A000822
:10001000453A0008473A0008493A00080000000045
:10002000000000000000000000000000317E000819
:100030004B3A000800000000C17E00084D3A00085D
:10004000B13B0008B13B0008B13B0008B13B0008E0
:10005000B13B0008B13B0008653A0008B13B00081D
:10006000B13B0008B13B0008B13B0008B13B0008C0
:100070006D3A0008B13B0008793A0008B13B00082E
:10008000B13B0008B13B0008B13B0008B13B0008A0
:10009000B13B0008B13B0008B13B0008B13B000890
:1000A000B13B0008B13B0008B13B0008B13B000880
:1000B000B13B0008B13B0008B13B0008B13B000870
:1000C000B13B0008B13B0008B13B0008B13B000860
:1000D000B13B0008B13B0008B13B0008853A00087D
:1000E000B13B0008B13B0008B13B0008B13B000840
:1000F000B13B0008B13B0008913A0008B13B000851
:10010000B13B0008B13B0008B13B0008B13B00081F
:10011000B13B0008B13B0008B13B0008B13B00080F
:10012000B13B0008B13B0008B13B0008B13B0008FF
:10013000B13B0008B13B0008B13B0008B13B0008EF
:10014000B13B0008B13B0008B13B0008B13B0008DF
:10015000B13B0008B13B0008B13B0008B13B0008CF
:10016000B13B0008B13B0008B13B0008B13B0008BF
:10017000B13B0008B13B0008B13B000800000000A3
:08018000B13B0008B13B00088F
:1001900010B5054C237833B9044B13B10448AFF3C1
:1001A00000800123237010BD4802002000000000E1
:1001B0008CBB000808B5034B1BB103490348AFF3E0
:1001C000008008BD000000004C0200208CBB00082D
:1001D00001F0FF01102A2BDB10F0070F08D010F8F8
:1001E000013B013A8B422DD010F0070F42B3F6D1FC
:1001F000F0B441EA012141EA014122F007047FF015
:1002000000070023F0E80256083C85EA010586EA6B
:10021000010685FA47F5A3FA87F586FA47F6A5FAA7
:1002200087F68EB9EED1F0BC01F0FF0102F00702B3
:1002300032B110F8013B013A83EA010313B1F8D15E
:100240000020704701387047002D06BF354603383F
:10025000073815F0010F07D1013015F4807F02BF78
:10026000013015F4C03F0130F0BC0138704700BFC9
:10027000034613F8012B002AFBD1181A01387047E6
:1002800081F0004102E000BF83F0004330B54FEA47
:1002900041044FEA430594EA050F08BF90EA020FB4
:1002A0001FBF54EA000C55EA020C7FEA645C7FEA47
:1002B000655C00F0E2804FEA5454D4EB5555B8BF6A
:1002C0006D420CDD2C4480EA020281EA030382EADB
:1002D000000083EA010180EA020281EA0303362D6D
:1002E00088BF30BD11F0004F4FEA01314FF4801C40
:1002F0004CEA113102D0404261EB410113F0004F52
:100300004FEA03334CEA133302D0524263EB430308
:1003100094EA050F00F0A780A4F10104D5F1200EA6
:100320000DDB02FA0EFC22FA05F2801841F1000101
:1003300003FA0EF2801843FA05F359410EE0A5F1D5
:1003400020050EF1200E012A03FA0EFC28BF4CF006
:10035000020C43FA05F3C01851EBE37101F00045BC
:1003600007D54FF0000EDCF1000C7EEB00006EEBC9
:100370000101B1F5801F1BD3B1F5001F0CD3490853
:100380005FEA30004FEA3C0C04F101044FEA4452AA
:1003900012F5800F80F09A80BCF1004F08BF5FEA31
:1003A000500C50F1000041EB045141EA050130BD11
:1003B0005FEA4C0C404141EB0101013C28BFB1F523
:1003C000801FE9D291F0000F04BF01460020B1FA6E
:1003D00081F308BF2033A3F10B03B3F120020CDA41
:1003E0000C3208DD02F1140CC2F10C0201FA0CF01F
:1003F00021FA02F10CE002F11402D8BFC2F1200C84
:1004000001FA02F120FA0CFCDCBF41EA0C01904039
:10041000E41AA2BF01EB0451294330BD6FEA040482
:100420001F3C1CDA0C340EDC04F11404C4F120026D
:1004300020FA04F001FA02F340EA030021FA04F37F
:1004400045EA030130BDC4F10C04C4F1200220FAD6
:1004500002F001FA04F340EA0300294630BD21FA14
:1004600004F0294630BD94F0000F83F4801306BFDA
:1004700081F480110134013D4EE77FEA645C18BFCE
:100480007FEA655C29D094EA050F08BF90EA020F65
:1004900005D054EA000C04BF1946104630BD91EA5D
:1004A000030F1EBF0021002030BD5FEA545C05D160
:1004B0004000494128BF41F0004130BD14F580049F
:1004C0003CBF01F5801130BD01F0004545F0FE4113
:1004D00041F470014FF0000030BD7FEA645C1ABF48
:1004E000194610467FEA655C1CBF0B46024650EA7F
:1004F000013406BF52EA033591EA030F41F40021AB
:1005000030BD00BF90F0000F04BF0021704730B530
:100510004FF4806404F132044FF000054FF0000105
:1005200050E700BF90F0000F04BF0021704730B5C6
:100530004FF4806404F1320410F0004548BF40429B
:100540004FF000013EE700BF42004FEAE2014FEAF0
:1005500031014FEA02701FBF12F07F4393F07F4FCB
:1005600081F06051704732F07F4208BF704793F0CE
:100570007F4F04BF41F40021704730B54FF46074E1
:1005800001F0004521F000411CE700BF50EA0102E4
:1005900008BF704730B54FF000050AE050EA01028D
:1005A00008BF704730B511F0004502D5404261EBFD
:1005B00041014FF4806404F132045FEA915C3FF43E
:1005C000D8AE4FF003025FEADC0C18BF03325FEADB
:1005D000DC0C18BF033202EBDC02C2F1200300FA8C
:1005E00003FC20FA02F001FA03FE40EA0E0021FAB1
:1005F00002F11444BDE600BF70B54FF0FF0C4CF49F
:10060000E06C1CEA11541DBF1CEA135594EA0C0F50
:1006100095EA0C0F00F0DEF82C4481EA030621EA8B
:100620004C5123EA4C5350EA013518BF52EA0335C6
:1006300041F4801143F4801338D0A0FB02CE4FF078
:100640000005E1FB02E506F00042E0FB03E54FF0A8
:100650000006E1FB03569CF0000F18BF4EF0010EA0
:10066000A4F1FF04B6F5007F64F5407404D25FEA9C
:100670004E0E6D4146EB060642EAC62141EA55514F
:100680004FEAC52040EA5E504FEACE2EB4F1FD0C91
:1006900088BFBCF5E06F1ED8BEF1004F08BF5FEA0F
:1006A000500E50F1000041EB045170BD06F00046C1
:1006B00046EA010140EA020081EA0301B4EB5C046E
:1006C000C2BFD4EB0C0541EA045170BD41F4801166
:1006D0004FF0000E013C00F3AB8014F1360FDEBF8B
:1006E000002001F0004170BDC4F10004203C35DA67
:1006F0000C341BDC04F11404C4F1200500FA05F3EA
:1007000020FA04F001FA05F240EA020001F000428A
:1007100021F0004110EBD37021FA04F642EB060100
:100720005EEA430E08BF20EAD37070BDC4F10C042A
:10073000C4F1200500FA04F320FA05F001FA04F2EE
:1007400040EA020001F0004110EBD37041F10001DA
:100750005EEA430E08BF20EAD37070BDC4F12005E5
:1007600000FA05F24EEA020E20FA04F301FA05F24D
:1007700043EA020321FA04F001F0004121FA04F2F5
:1007800020EA020000EBD3705EEA430E08BF20EAC5
:10079000D37070BD94F0000F0FD101F000464000FF
:1007A00041EB010111F4801F08BF013CF7D041EA81
:1007B000060195F0000F18BF704703F00046520085
:1007C00043EB030313F4801F08BF013DF7D043EA56
:1007D0000603704794EA0C0F0CEA135518BF95EA0C
:1007E0000C0F0CD050EA410618BF52EA4306D1D193
:1007F00081EA030101F000414FF0000070BD50EAB2
:10080000410606BF1046194652EA430619D094EA3B
:100810000C0F02D150EA013613D195EA0C0F05D125
:1008200052EA03361CBF104619460AD181EA030179
:1008300001F0004141F0FE4141F470014FF0000031
:1008400070BD41F0FE4141F4780170BD70B54FF0CC
:10085000FF0C4CF4E06C1CEA11541DBF1CEA13554C
:1008600094EA0C0F95EA0C0F00F0A7F8A4EB05042E
:1008700081EA030E52EA03354FEA013100F0888025
:100880004FEA03334FF0805545EA131343EA1263EE
:100890004FEA022245EA111545EA10654FEA0026A3
:1008A0000EF000419D4208BF964244F1FD0404F55C
:1008B000407402D25B084FEA3202B61A65EB0305B8
:1008C0005B084FEA32024FF480104FF4002CB6EB75
:1008D000020E75EB030E22BFB61A754640EA0C00F5
:1008E0005B084FEA3202B6EB020E75EB030E22BF35
:1008F000B61A754640EA5C005B084FEA3202B6EB76
:10090000020E75EB030E22BFB61A754640EA9C0034
:100910005B084FEA3202B6EB020E75EB030E22BF04
:10092000B61A754640EADC0055EA060E18D04FEAC2
:10093000051545EA16754FEA06164FEAC30343EA62
:1009400052734FEAC2025FEA1C1CC0D111F4801F2F
:100950000BD141EA00014FF000004FF0004CB6E728
:1009600011F4801F04BF01430020B4F1FD0C88BFC7
:10097000BCF5E06F3FF6AFAEB5EB030C04BFB6EBD2
:10098000020C5FEA500C50F1000041EB045170BDC5
:100990000EF0004E4EEA113114EB5C04C2BFD4EBF2
:1009A0000C0541EA045170BD41F480114FF0000E76
:1009B000013C90E645EA060E8DE60CEA135594EAF2
:1009C0000C0F08BF95EA0C0F3FF43BAF94EA0C0FF5
:1009D0000AD150EA01347FF434AF95EA0C0F7FF46A
:1009E00025AF104619462CE795EA0C0F06D152EABE
:1009F00003353FF4FDAE1046194622E750EA4106A2
:100A000018BF52EA43067FF4C5AE50EA41047FF4B2
:100A10000DAF52EA43057FF4EBAE12E74FF0FF3C17
:100A200006E000BF4FF0010C02E000BF4FF0010CE8
:100A30004DF804CD4FEA410C7FEA6C5C4FEA430C61
:100A400018BF7FEA6C5C1BD001B050EA410C0CBFB0
:100A500052EA430C91EA030F02BF90EA020F002012
:100A6000704710F1000F91EA030F58BF994208BF79
:100A700090422CBFD8176FEAE37040F00100704736
:100A80004FEA410C7FEA6C5C02D150EA013C07D18D
:100A90004FEA430C7FEA6C5CD6D152EA033CD3D0D8
:100AA0005DF8040B704700BF8446104662468C46D2
:100AB0001946634600E000BF01B5FFF7B7FF002805
:100AC00048BF10F1000F01BD4DF808EDFFF7F4FF2E
:100AD0000CBF012000205DF808FB00BF4DF808EDB9
:100AE000FFF7EAFF34BF012000205DF808FB00BFDC
:100AF0004DF808EDFFF7E0FF94BF012000205DF8FE
:100B000008FB00BF4DF808EDFFF7CEFF94BF0120B2
:100B100000205DF808FB00BF4DF808EDFFF7C4FFAB
:100B200034BF012000205DF808FB00BF4FEA410CF4
:100B30007FEA6C5C02D150EA013C0AD14FEA430CD7
:100B40007FEA6C5C02D152EA033C02D14FF0000014
:100B500070474FF0010070474FEA410212F5001252
:100B600015D211D56FF47873B3EB625212D94FEAF4
:100B7000C12343F0004343EA505311F0004F23FADE
:100B800002F018BF404270474FF00000704750EA33
:100B9000013005D111F0004008BF6FF000407047F0
:100BA0004FF00000704700BF4A0011D212F500124A
:100BB00011D20DD56FF47873B3EB62520ED44FEAB5
:100BC000C12343F0004343EA505323FA02F0704735
:100BD0004FF00000704750EA013002D14FF0FF3073
:100BE00070474FF0000070474FEA4102B2F1E04316
:100BF00024BFB3F5001CDCF1FE5C0DD901F0004C04
:100C00004FEAC0024CEA5070B2F1004F40EB830053
:100C100008BF20F00100704711F0804F21D113F17F
:100C20003872BCBF01F00040704741F480114FEAB8
:100C30005252C2F11802C2F1200C10FA0CF320FA41
:100C400002F018BF40F001004FEAC1234FEAD3235E
:100C500003FA0CFC40EA0C0023FA02F34FEA4303C8
:100C6000CCE77FEA625307D150EA01331EBF4FF051
:100C7000FE4040F44000704701F0004040F0FE406C
:100C800040F40000704700BF53B94AB9002908BFBB
:100C900000281CBF4FF0FF314FF0FF3000F070B95B
:100CA000ADF1080C6DE904CE00F006F8DDF804E0C3
:100CB000DDE9022304B070472DE9F047089E0D4698
:100CC00004460F46002B4AD18A42944665D9B2FAAF
:100CD00082F343B102FA03FCC3F120029F4020FAE1
:100CE00002F217439C404FEA1C4E1FFA8CF5B7FBEB
:100CF000FEF1220C0EFB117742EA074201FB05F0E0
:100D000090420AD91CEB020201F1FF3780F01C81EE
:100D1000904240F2198102396244121AA4B2B2FB25
:100D2000FEF00EFB102244EA024400FB05F5A5424A
:100D30000AD91CEB040400F1FF3280F00781A542C0
:100D400040F204816444023840EA0140641B0021FF
:100D50001EB1DC400023C6E90043BDE8F0878B42AA
:100D600008D9002E00F0ED800021C6E900050846F4
:100D7000BDE8F087B3FA83F1002949D1AB4202D331
:100D8000824200F2F880841A65EB030201201746C4
:100D9000002EE2D0C6E90047DFE702B9FFDEB2FA73
:100DA00082F3002B40F090808A1A4FEA1C471FFA0A
:100DB0008CFE0121B2FBF7F507FB1520220C42EA5D
:100DC00000420EFB05F0904208D91CEB020205F12F
:100DD000FF3802D2904200F2CB804546121AA4B2EC
:100DE000B2FBF7F007FB102244EA02440EFB00FEC0
:100DF000A64508D91CEB040400F1FF3202D2A64537
:100E000000F2BB801046A4EB0E0440EA05409FE7C9
:100E1000C1F120078B4022FA07FC4CEA030C05FACB
:100E200001F420FA07F3FD404FEA1C492343B5FBC8
:100E3000F9F81FFA8CFE09FB18551C0C44EA05440E
:100E400008FB0EF5A54202FA01F200FA01F00BD9F7
:100E50001CEB040408F1FF3A80F08880A54240F2C0
:100E60008580A8F102086444641B9DB2B4FBF9F3C9
:100E700009FB134445EA044403FB0EFEA64508D9CA
:100E80001CEB040403F1FF356CD2A6456AD9023B82
:100E9000644443EA0843A3FB0295A4EB0E04AC426E
:100EA000C846AE4656D353D056B1B0EB080264EBF9
:100EB0000E0404FA07F7CA40CC401743C6E9007491
:100EC00018460021BDE8F087C3F1200102FA03FCB7
:100ED00020FA01F225FA01F19D402A434FEA1C470E
:100EE0001FFA8CFEB1FBF7F007FB1015110C41EA5D
:100EF000054100FB0EF58D4204FA03F408D91CEB02
:100F0000010100F1FF382FD28D422DD90238614402
:100F1000491B92B2B1FBF7F507FB151142EA0142FA
:100F200005FB0EF1914208D91CEB020205F1FF38D6
:100F300016D2914214D9023D6244521A45EA004148
:100F400038E73146304608E73946E6E61046FBE624
:100F50004845A9D2B9EB020865EB0C0E013BA3E7AB
:100F60004546EAE72B4694E74046D1E7D0467BE783
:100F7000023D624432E708460AE76444023842E729
:100F8000704700BF7FB501238DF817206422CDE99B
:100F900001320DF11702009200680A46D02103F0D9
:100FA00021FC07B05DF804FB1FB54FF0640C012372
:100FB000CDE9013C009200680A46D02103F0A2FC72
:100FC00005B05DF804FB000073B5002201607F21CD
:100FD0000446FFF7D7FF404D0DF1060228700021AF
:100FE0002046FFF7E1FF002228707F212046FFF70F
:100FF000C9FF28700A2002F02DFE0122062120469A
:10100000FFF7C0FF28700A2002F024FE3F220721CC
:101010002046FFF7B7FF28700A2002F01BFE0022CF
:1010200007212046FFF7AEFF01222870102120463D
:10103000FFF7A8FF002628700DF107020F212046B8
:101040008DF80760FFF7B0FF9DF807200F2142F0F1
:1010500002022046FFF796FF20227F212046FFF75D
:1010600091FF3246287031462046FFF78BFF37222A
:10107000287001212046FFF785FF062228700221F3
:101080002046FFF77FFF1022287011212046FFF72E
:1010900079FF3246287010212046FFF773FF312276
:1010A000287014212046FFF76DFF32462870532127
:1010B0002046FFF767FF032215212046FFF762FF56
:1010C00032467F212046FFF75DFF2870642002F042
:1010D000C1FD304602B070BD640200207FB501231F
:1010E0008DF817206422CDE901320DF1170200922C
:1010F00000680A46182103F075FB07B05DF804FB91
:10110000F7B5002301AA2E210446ADF80430FFF7FD
:101110004BFF264F0DF1050238702D212046FFF7B9
:1011200043FF01AA387030212046BDF90460FFF763
:101130003BFF0DF1050238702F212046FFF734FFE9
:1011400001AA387032212046BDF90450FFF72CFF68
:101150000DF10502387031212046FFF725FF07EE1B
:10116000106A9FED136ADFED136ABDF90430387021
:10117000B8EEC77A07EE903A27EE067AF8EEE77AED
:1011800027EE267A67EE867A84ED017A07EE105A0A
:10119000B8EEC77A67EEA67A27EE067AC4ED037A30
:1011A00027EE267A84ED027A03B0F0BD64020020B7
:1011B00000008038C3F51C412DE9F7430024DFF817
:1011C000C080ADF8044005464FF02009264627466A
:1011D00001AA34212846FFF7E7FE0DF1050233216D
:1011E0002846FFF7E1FEBDF8043001203B441FB262
:1011F00002F030FD01AA36212846FFF7D5FE0DF199
:10120000050235212846FFF7CFFEBDF80430012046
:1012100033441EB202F01EFD01AA38212846FFF712
:10122000C3FE0DF1050237212846FFF7BDFEBDF8CC
:10123000043088F800002344192009F1FF391CB25A
:1012400002F008FD19F0FF09C2D17F1107EE907A74
:10125000F8EEE77A7611C5ED0D7A07EE906AF8EEB2
:10126000E77A6411C5ED0E7A07EE904A98F800000F
:10127000F8EEE77AC5ED0F7A03B0BDE8F08300BF62
:1012800064020020F7B5002301AA36210446ADF818
:101290000430FFF789FE284F0DF105023870352123
:1012A0002046FFF781FE01AA387038212046BDF99B
:1012B0000460FFF779FE0DF10502387037212046F2
:1012C000FFF772FE01AA387034212046BDF90450A0
:1012D000FFF76AFE0DF10502387033212046FFF753
:1012E00063FE07EE906AB8EEE77AD4ED0E7AD4ED9D
:1012F0000F6ABDF9043094ED0D6A387037EE677AE5
:1013000007EE905AF8EEE77A77EEE67A06EE903A34
:10131000F8EEE66A76EEC66A9FED086A66EE866AC1
:1013200027EE067A67EE867AC4ED046A84ED057AC4
:10133000C4ED067A03B0F0BD640200202D237A3D8F
:1013400002223121FFF7CABE2DE9F04186B002F03A
:1013500017F801F0FDFE002101240846744ADFF869
:10136000048201F07BFF01F007FF152333221021D7
:101370002E20009401F091FF212333221C212E20E6
:10138000009401F08AFF2D23332228212E2000947F
:1013900001F083FF3923332234212E20009401F001
:1013A0007CFF3A220321372001F0DBFF614A0D2147
:1013B000204601F053FF604A1921204601F04EFFFC
:1013C0005E4A2521204601F049FF5D4A3121204631
:1013D00001F044FF5B4A00213C2001F03FFF5A4AE4
:1013E0000C213C2001F03AFF584A18213C2001F022
:1013F00035FF574A24213C2001F030FF0027554A91
:1014000030213C2001F02AFF01F080FECDE9037776
:10141000ADF81470504E00971423322211212F2062
:1014200001F060FF33780093322220231D212F200A
:1014300001F058FFB378009332222C2329212F206A
:1014400001F050FF454DF3780093322238233521C7
:101450002F2001F047FF0024A86BADF81440CDE920
:101460000344FFF771F84246CDE900010A2103A8C1
:1014700008F0B8FA03AA2146552001F0EFFEE86B08
:10148000ADF81440CDE90344FFF75EF84246CDE9DC
:1014900000010A2103A808F0A5FA03AA0C2155208F
:1014A00001F0DCFE286CADF81440CDE90344FFF7F1
:1014B0004BF84246CDE900010A2103A808F092FA50
:1014C00003AA1821552001F0C9FE95ED0E7AD5ED3D
:1014D0000F7AADF8144077EE677ACDE9034417EE42
:1014E000900AFFF731F84246CDE900010A2103A82E
:1014F00008F078FA03AA2421552001F0AFFE6B6BA7
:10150000174AADF814400A2103A8CDE9034408F0B6
:1015100069FA03AA3021552001F0A0FE01F0F6FD82
:10152000FA2087F00107346005F0E4F872E700BFA5
:10153000C0BB0008C7BB0008CCBB0008D1BB00087B
:10154000D6BB0008DBBB0008DEBB0008E1BB00081F
:10155000E4BB0008E7BB0008E8030020000400200B
:10156000EABB0008B3BC000808B50E4B0E480122C8
:1015700083F828200D4ADA621A6301F001F90C4859
:1015800000F086FB0B4A0C48002105F05BF80B4B82
:101590000B4A186000210B4805F054F80A4B1860FC
:1015A00008BD00BF00040020F80300200000204117
:1015B0008002002064BC000849130008F0030020EA
:1015C00040BC000809190008E403002000000000E6
:1015D00062EE027A2DE9F04FE1EEA17ADFF818838E
:1015E000DFF818A3DFF81893DFF818B3E2EEA27A59
:1015F0002DED108BDAED00AAD8ED00FA99ED00BAC6
:101600009BED00AAF6EE009A2FEEA96A6AEEA96A8F
:1016100083B017EE900AB0EE41CA13EE104AB0EE56
:1016200061EAF0EE42DAB0EE628A8DED016ACDED4C
:10163000006AF0EE40BAF0EE60CAFEF785FF41ECBA
:10164000100B06F091FE51EC100BFFF7CDFA07EEF0
:10165000900A8EEE277A8DEEA75A7FEEAFEAC8EE9B
:10166000275A3BEE0BDA6EEEEA7A7AEEAA8AEAEEB7
:101670000D7AB7EE008A77EEC77AABEE4D8A2AEE86
:10168000287AAAEEE88AABEE2E7A38EE658A37EE33
:10169000457A3AEE0A5A6EEE875A7DEE0D4AE7EE2B
:1016A000855A67EEE8DAE8EE645AEDEE07DAB0EE56
:1016B00065FA78EEA85A68EE878A28EE658AEDEE1C
:1016C000278AA7EE058A2BEE299AAEEEE78A6FEEFF
:1016D0000F7A6AEE299AEDEEAD7AE8EE087AE8EE36
:1016E000A87A17EE900AFEF72FFF41EC100B06F0D8
:1016F0003BFE51EC100BFFF777FADDED006A9DED34
:10170000016A07EE900A8DEEA7EA2046CFEE27DAAF
:101710002CEEE6FA88EE27DAA9EE6BFA2CEE498A6F
:1017200029EE2C9AC8EEA7EAA6EE0C9A66EE8C8AF1
:10173000A9EECCFAE6EE2B8AA6EE2C8AA6EEEB9A60
:10174000FEF702FF04461FEE100A0D46FEF7FCFEF0
:1017500006461EEE100A0F46FEF7F6FE64A3D3E916
:101760000023FEF749FF02460B4630463946FEF796
:101770008BFD22462B46FEF73FFF06461FEE900AE2
:101780000F46FEF7E1FE02460B4630463946FEF7AD
:101790007DFDE9EEEC8AFFF727FAA9EEAB8A09EEA8
:1017A000900A18EE900AFEF7CFFE06461DEE900A4C
:1017B0000F46FEF7C9FE4EA3D3E90023FEF71CFF38
:1017C00002460B4630463946FEF75EFD22462B4662
:1017D000FEF712FF06461BEE100A0F46FEF7B4FE98
:1017E00002460B4630463946FEF750FDFFF7FCF93E
:1017F0000BEE100A18EE100AFEF7A6FE06461DEEC6
:10180000100A0F46FEF7A0FE39A3D3E90023FEF726
:10181000F3FE02460B4630463946FEF735FD2246BA
:101820002B46FEF7E9FE06461AEE900A0F46FEF733
:101830008BFE02460B4630463946FEF727FDFFF782
:10184000D3F908EE900A19EE100AFEF77DFE06465F
:101850001EEE900A0F46FEF777FE25A3D3E900237C
:10186000FEF7CAFE02460B4630463946FEF70CFD2F
:1018700022462B46FEF7C0FE04461AEE100A0D461D
:10188000FEF762FE02460B4620462946FEF7FEFCA6
:10189000FFF7AAF96BEE0B7A08EE100AE9EEA97AC7
:1018A000E8EEA87AE8EE087A17EE900AFEF74CFE0A
:1018B00041EC100B06F058FD51EC100BFFF794F9BA
:1018C00007EE900A89EEA77A88ED007A8BEE277AE8
:1018D00089ED007A88EEA77A8AED007A88EE277A79
:1018E0008BED007A03B0BDEC108BBDE8F08F00BF2C
:1018F0007DAC6B5A9CF48E3F000000206C020020EF
:1019000068020020700200202DE9F0432DED048BC9
:10191000674C6849684E674FDFF8C081DFF8C091B7
:10192000A1B02046FFF750FB4FF4C87004F0E2FE70
:101930002046FFF741FC2046FFF702FD0021602210
:1019400008A80791346008F079F95C4808F042F87B
:101950000125690089B20A230122384603F0DAF82A
:1019600058B92A46414607A808F070F84FF0FF33EF
:101970001A2207A9484604F007FB01357F2DE8D15C
:1019800002F062F90FF22019D9E90089484FDFED22
:101990004C8A0546502004F0ADFE04F09AFE38460D
:1019A000FFF7AEFB3846FFF76DFC94ED040AD4ED6B
:1019B000050A94ED061AD4ED011A94ED022AD4ED2D
:1019C000032ACDED021A20EE280A60EEA80A21EEC5
:1019D000281A8DED050ACDED040A8DED031A8DED63
:1019E000012ACDED002A02F02FF9431B03EE103A35
:1019F000DFED347ADDED002A9DED012ADDED021ADE
:101A00009DED031ADDED040A9DED050AB8EE433A9B
:101A100023EE273AFFF7DCFD02F016F92A4B93ED8F
:101A2000006A2A4B84ED166AD3ED007A284BC4ED88
:101A3000177AD3ED006A274BC4ED186A93ED007A4C
:101A4000336984ED197A26EE078A0546A7EEA68A41
:101A5000736167EEA77AE6EE067AE6EEE67AE7EEDF
:101A6000477A17EE900AFEF76FFD78EE087A41ECA0
:101A7000190B17EE900AFEF767FDB0EE491AF0EE6B
:101A8000691A41EC100B06F03FFC42464B4651EC04
:101A9000100BFEF7B1FDFFF7A7F80F4B30610122E5
:101AA000B5619A7076E700BF00000020DCA54C40CD
:101AB000A40700201405002000040020EDBB00084E
:101AC00035FA8E3C6F12833A000000206802002035
:101AD0006C02002070020020E803002000BC000817
:101AE00060070020014800F0A5B800BF8002002078
:101AF000034B834202D1034800F01CBE704700BF75
:101B000060070020EC03002038B5244B98420446BF
:101B100012D1234D2B6883B9042103F044FC214BDF
:101B2000186001232B6023681A6A22F0A0021A624F
:101B30001A6A42F020021A6238BD012BFCD104213E
:101B400003F031FC22689FED187A00235362154B95
:101B50001B689842BBBFC3F57F43FF33C01AC01850
:101B600007EE900AF8EEE77A104B67EE877AB6EE4A
:101B7000007A186067EE877A0D4B0848C3ED037A48
:101B800000232B60136A23F0A0031362136A13620D
:101B90000421BDE8384004F079B800BFD006002029
:101BA0007C02002074020020287E0C3D7802002078
:101BB0000004002038B50F4B0F4D1B682B6000222E
:101BC0000C210A2004F0ABFD0C4B0D4C18600D4BA2
:101BD000A0621B680C482360214600F029F82946C2
:101BE00022460A4800F0BEFD29460948BDE83840B3
:101BF00000F09CBDF403002004000020DC03002062
:101C000030000020E003002080020020F8030020C4
:101C1000EC03002008B5044800F08AFDBDE8084048
:101C2000024800F0ACBD00BFEC030020F803002028
:101C300001607047012380F8583170470368C2681B
:101C40001B68FA205A6304F055BD036802691B68DB
:101C5000FA205A6304F04EBD036842691B68FA20FB
:101C60005A6304F047BD70B51E46049B03610D46E0
:101C7000C0E90052C0E9026311460446284604F058
:101C800003F83146284603F0FFFF204670BD0000F0
:101C9000F0B504468FB0182006F01CFB40F2E92294
:101CA000064640F20733C6E90323002540F2F3233A
:101CB0004148736129467560306003F0E5FFE660D6
:101CC000082006F007FB06463C273C48776039466B
:101CD000306003F00FFB2661082006F0FBFA064691
:101CE00037483946C6E9000703F004FB6661142053
:101CF00006F0F0FA41F658373249009706460C23B1
:101D00000822FFF7B0FF6660142006F0E3FA0097A0
:101D10002A462D4904230646FFF7A5FF2B4BDFED8E
:101D20002C0AA66093E8070005AF0C3387E807008C
:101D300093E8070008AE002386E80700B0EE600ACB
:101D40003A46294604F118000B930C930D93CDED00
:101D5000030A01F09FFBDDED030A3246B0EE600A94
:101D6000294604F1680001F095FBDFED1A0A0BAA81
:101D7000B0EE600A294604F1B800CDED030A01F087
:101D800089FBDDED030A0BAAB0EE600A294604F5D3
:101D9000847001F07FFB84F85851082006F09AFA0D
:101DA00025680146C0E900542A1D0B4804F04AFC8E
:101DB00028600FB0F0BD00BF68050020B00500200E
:101DC000F80500204006002018070020A8BB0008E6
:101DD00000C0DA4500007A4435260008642910B5B1
:101DE0003CD8C3686424B3FBF4F35943D0E900340E
:101DF00001611B688068C2B12CB95963012158B9CF
:101E00005963104610BD042C01D19963F6E7082CE4
:101E10000CBFD9631964F1E7042801D19963F0E795
:101E200008280CBFD9631964EBE7012224B95A636F
:101E300058B959630122E4E7042C01D19A63F7E70A
:101E4000082C0CBFDA631A64F2E7042801D1996305
:101E5000F0E708280CBFD9631964EBE70022D0E74C
:101E6000C3688B4210B537D3D0E9003401611B68D9
:101E70008068C2B12CB95963012158B95963104621
:101E800010BD042C01D19963F6E7082C0CBFD9636F
:101E90001964F1E7042801D19963F0E708280CBF21
:101EA000D9631964EBE7012224B95A6358B959631D
:101EB0000122E4E7042C01D19A63F7E7082C0CBF58
:101EC000DA631A64F2E7042801D19963F0E708287D
:101ED0000CBFD9631964EBE70022D0E7D0E90031E9
:101EE00001221B6829B95A638168012251B95A63DA
:101EF0007047042901D19A63F6E708290CBFDA6319
:101F00001A64F1E7042901D19A63704708290CBFCC
:101F1000DA631A64704700002DE9F04F2DED0C8B49
:101F20009A4683B00023044680F858319DED18BAD4
:101F3000C068154682F001090F4679B3FFF785FEA8
:101F4000D4F804802A4633214046FFF747FFA668AD
:101F50004A4614213046FFF741FFBAF1000F37D14E
:101F600001F072FEB64EF8EE4B7A96ED048A834687
:101F7000CFBBD5BB78EE678A9FEDB27AF4EEC78A05
:101F8000F1EE10FA42D59FEDB07ADFEDB08A37EE70
:101F9000487A77EE277A78EEE78A37E0FFF74EFE49
:101FA000D4F804804A4614214046FFF717FFA6687C
:101FB0002A4633213046FFF711FFBAF1000FCFD088
:101FC0002A4614214046FFF709FF2A46372106E03A
:101FD0002A4637214046FFF701FF2A4614213046A2
:101FE000FFF7FCFEBCE7002DC4D177EE888A9FED99
:101FF000987AF4EEC78AF1EE10FA07DDDFED938AE6
:1020000038EEC87A77EEC77A77EEE88A9FED8A9B3A
:10201000DFED90AADFF84C929FED8FAA4FF00008F9
:1020200078EEC87AFDEEE77A17EE903A03F12C02CB
:10203000582A00F28A8083EAE372A2EBE37207EE89
:10204000902AF8EEE77ABAEE0E7A77EECA7ADFEDEA
:10205000836A67EE877A2A4687EEA67AF3EE0E7ACF
:1020600077EE277AFCEEE77A17EE901A002F6AD007
:102070006068FFF7B3FE01F0E7FDB369834200F04B
:10208000B68096ED057AD6ED047A77EEC77AC01A57
:10209000FDEEE77A502317EE902A002AB8BF52428D
:1020A000002807EE902AB8BF4042B0FBF3F007EEDD
:1020B000100AF8EEE77AB8EEC77A67EE877A96EDFF
:1020C000048A96ED057A38EE477AB5EEC07AF1EEDD
:1020D00010FA4CBF01220022CCBF012300239B1A1F
:1020E00007EE103AB8EEC77AA7EE278A78EEC87ADC
:1020F00086ED078AFDEEE77A17EE903A83EAE372FF
:10210000A2EBE37207EE902AF8EEE7BAF4EEEABA31
:10211000F1EE10FA6EDD03F10E011C2972D8606831
:10212000FFF7DCFEA068FFF7D9FE0023606884F8A3
:102130005831FFF7D3FEA06803B0BDEC0C8BBDE8AF
:10214000F04FFFF7CBBEA06893E7FDEEE87A17EEFD
:10215000900AFDEEC87A002817EE903AB8BF4042C8
:10216000002BB8BF5B42C01A0028B8BF4042FEF740
:10217000D9F9B0EE491AF0EE691A41EC100B41ECB6
:102180001C0B06F0C3F8424651EC100B4B46FEF711
:10219000A5FC00283FF46FAFDFED30BABAEE0EDADF
:1021A000B3EE0E8A0FB36368B0EE491AF0EE691A07
:1021B000B0EE4C0AF0EE6C0A019306F0A7F851EC71
:1021C000100BFEF711FD07EE900A77EECA7A019B1D
:1021D00067EE8D7A2A4687EEAB7A184677EE087A54
:1021E000FCEEE77A17EE901A43E7A368DCE7DFED31
:1021F0001C7A64E733B9B421B2FBF1F301FB13237A
:1022000073638CE70133022B02D8BAF1000FF2D1CD
:10221000019201F019FD42F21073A0EB0B009842FD
:10222000019AE8D8022086ED0DBAF0EE6BAA04F010
:1022300061FA04F04EFAF3E6000000000080664008
:1022400000040020000033C3000034C30000344306
:1022500000003343804FC34700003442000034C2C3
:10226000000000000080464003681B681B68DB0616
:1022700006D58A4284BF01F57F41FF31881A704735
:10228000501A8A423CBF00F57F40FF307047000083
:102290002DE9F04F2DED088B87B0044600939DF893
:1022A000603004939DF864300593002380F8583122
:1022B000C0680D461646FFF7CFFCD4F8048000999D
:1022C0002A464046FFF78AFDA76800992A46384605
:1022D000FFF784FD049B4BB12A4623214046FFF7BC
:1022E0007DFD2A4623213846FFF778FD01F0ACFC3E
:1022F00023699FEDC9AA1B681B685B6A0293636927
:102300001B681B6830465B6A0393FEF7FBF8BCA3AF
:10231000D3E90023FEF79AFA80468946FEF764FC6B
:102320009FEDB97BBD4B57EC176B8DED007B002209
:1023300009EE100A17EE10AA18649A63DA63BB4616
:102340002069029903681B685A6AFFF78DFFFEF740
:10235000D9F8FEF749FC08EE900A60690399036812
:102360001B685A6AFFF780FFFEF7CCF8FEF73CFCCB
:1023700008EE100A18EE900AFEF7E6F802460B4641
:1023800050465946FDF782FF824618EE100A8B46EA
:10239000FEF7DAF89EA3D3E90023FEF72DF90246F3
:1023A0000B4630463946FDF771FF78EEC87A06468F
:1023B00017EE900A0F46FEF7C7F80B460246DDE916
:1023C0000001FDF763FF049BCDE90001002B54D110
:1023D000059B002B51D1924B002240464946FDF708
:1023E00053FF524641EC1B0B5B4640464946FDF706
:1023F0004BFFFEF7F9FB524608EE100A5B4651EC24
:102400001B0BFEF76BFB40B951EC1B0B32463B46F6
:10241000FEF764FB002800F0858038EE4A8AFBEE68
:10242000049A28EE298ADFED7F8A6068C8EE287A50
:102430002A469FED7D8A77EE887AFCEEE77A17EEE2
:10244000901AFFF7CBFC32463B4640464946FDF723
:102450001BFFFEF7C9FB07EE900A77EECA7AA06869
:1024600067EEA97A2A4687EEA87A77EE087AFCEE1C
:10247000E77A17EE901AFFF7B1FC23691B681B6817
:102480005B6A029363691B681B685B6A039352462D
:102490005B4640464946FEF721FB30B132463B469B
:1024A00040464946FEF71AFB20B994F85831002BF4
:1024B00000F0948032463B4650465946FEF72CFBCE
:1024C000002800F0888030463946FEF76DFBFEF7A5
:1024D00019F84BA3D3E90023FEF78EF8FEF764FB4F
:1024E0004E4D594668635046FEF77EFB3946A86359
:1024F0003046FEF779FB6668E8633046FFF7EEFC8E
:10250000A5682846FFF7EAFC0023304684F85831D6
:10251000FFF7E4FC284607B0BDEC088BBDE8F04FA0
:10252000FFF7DCBCF0EE490A04F11800B0EE480AEF
:1025300000F0CAFF32463B4640464946F0EE408A2C
:10254000FDF7A2FEFEF750FBF0EE490A00EE100A7E
:1025500004F1680000F0B8FFDDE90001B0EE408A48
:10256000FEF742FBDFED310A09EE900A00EE100A99
:1025700004F1B80000F0A8FF04F58470F0EE40AA62
:10258000DFED2A0AB1EE690A00F09EFF78EEAA7A22
:102590009FED277A6068F4EEC77AF1EE10FACABFB1
:1025A000FCEEE77A4FF47A7117EE901A2A46FFF79D
:1025B00057FC38EE000AA068B4EEC70AF1EE10FA34
:1025C000CABFFCEEC07A4FF47A7117EE901A2A4611
:1025D000FFF746FC51E75046594676E70A2004F0DB
:1025E00089F859465046FEF7FFFA0C4B3946986376
:1025F0003046FEF7F9FA094BD86304F06AF89FE613
:102600005FBD77C1CDCF8A3F000000000000000011
:10261000AC1C5A643BDFEF3F0000FA44000400208A
:1026200000409F4000C0D0C400000C4200000000E9
:1026300000007A442DE9F047D0E90064E568394F9D
:10264000DFF8E4908AB041F2941004F053F8284681
:10265000FFF702FB4FF000084FF0010A322087F825
:1026600003A004F047F804F034F8B06A04F0F1F87D
:102670000028F3D00523002202A9B06A04F0BAF8BA
:102680001022002106A8CDF8148007F0D7FADDE962
:102690000223494605A807F0D9F9029B7BB92846D1
:1026A000FFF7DAFA9DF813300193039A9DF8123080
:1026B0000093012123232046FFF7EAFDCCE7013BED
:1026C000042BC9D8DFE803F0031A1027210028469D
:1026D000FFF7C2FA9DF8133001939DF81230009372
:1026E000039A23230021E6E7039B00939DF8133010
:1026F000012200212046FFF70FFCADE7039B00936A
:102700009DF8133001220121F4E7039B009300227E
:102710009DF81330EDE7039B009300229DF81330E2
:10272000F1E700BFE803002088BC000801607047A3
:10273000704700001FB50A4A0446106851686B468E
:1027400003C311891980002313605360138120682B
:102750001A466946806A04F01DF804B010BD00BF37
:102760004604002038B5C0E9001204460D46002298
:1027700010210A2003F0D3FFA862204638BD70471D
:1027800038B50446082005F0A5FD25686368056096
:10279000014643602A1D024803F054FF286038BDFB
:1027A000DD28000810B590B00446002115220AA8C3
:1027B000099107F043FA752C2AD009D8672C2AD042
:1027C0006B2C2CD0652C20D023490A23042217E03F
:1027D000772C04D0792CF7D1204B186901E01F4BDE
:1027E0005868FDF7B1FE1E4ACDE90001192109A87C
:1027F00007F0F8F809A8FDF73BFD0A2382B209A902
:10280000184803F0C1FB10B010BD144B9868E8E7FE
:10281000124BD868E5E7114B1B689869E1E70F4B4D
:102820001C68606EFDF790FECDE90601206EFDF795
:102830008BFECDE90401E06DFDF786FECDE90201D6
:10284000A06DFDF781FE084ACDE90001192109A814
:1028500007F0C8F8CEE700BFB9BC000800040020AC
:102860009BBC000860070020A1BC000870B50A22CC
:1028700004460021043006F039FB0026054670B1FD
:102880000C2005F027FDE37806606C2BC0E90156AB
:102890001DD005D8622B0BD0662B0BD0304670BDF7
:1028A000722BFBD1E379622B0CBF0423022313E0CC
:1028B00001230360E379A3F164014B424B4183722E
:1028C000237AA3F16A0253425341C372E7E7E379E3
:1028D000622B0CBF052303230360F1E72DE9F047CA
:1028E0008049DFF82482804E05468CB07F480A225A
:1028F00003F064FED5E900450127B9460A20DFF858
:10290000E4A188F8009003F0F5FE03F0E2FE002356
:102910001AF80320002A44D0744803F08AFB714956
:1029200072480A2203F04AFE0023CAF80030CAF8AF
:102930000430AAF80830A06A03F08BFF7062A06A26
:1029400004F038FB002800F0B9800523A06A0022BB
:1029500001A903F04FFF9DF80430782B05D064499E
:1029600062480A23042203F00FFB9DF80D307A2BF6
:1029700005D05F495D480A23042203F005FB9DF85A
:102980000530712B2DD19DF80630732B0DD19DF89C
:102990000700FFF707FF534954480A2203F00EFED1
:1029A000ACE701330A2BB3D1C5E7612BF3D19DF816
:1029B00007306F2BEFD10021152206A8059107F0F3
:1029C0003DF9736B4B4A192105A807F00BF805A8D0
:1029D000FDF74EFC0A2382B205A9444803F0D4FA5D
:1029E000D9E7632B2DD19DF806306D2B17D0732BB3
:1029F00031D0612BCFD19DF80730212B58D10C203D
:102A000005F068FC0023C0E9003383609DF80820CE
:102A10000146A2F16C00424242414A7216E09DF822
:102A20000730682B08D1FFF75DF8A06A03F013FFA9
:102A300031490A230422D0E701A8FFF717FF014616
:102A400018B92B490A230422C7E70023A86A1A46AB
:102A500003F0A0FEECE70A22002102A806F046FAE5
:102A6000002898D09DF80730652B14D0772BC2D161
:102A700040F2E733984216BF07EE900ADFED1F7A67
:102A8000F8EE677AC6ED0B7A1B4918480A23042230
:102A900003F07AFAAFE740F2E733984216BF07EE49
:102AA000900ADFED167AF8EE677AC6ED0C7AEBE75E
:102AB0003F2BA4D0402B7FF46EAFA0E7104B1B78C8
:102AC000002B3FF41BAFDFF844A09AF800302BB97D
:102AD0000C4906480A23042203F056FA8AF80070CB
:102AE0000CE700BF4604002000040020600700201F
:102AF000B9BC0008BEBC0008BABC00080000000059
:102B000045040020C2BC0008E80300204404002063
:102B100008B5322003F0EEFDFBE7000000B595B0EC
:102B20002C22002109A807F089F81422002103A80B
:102B300007F084F80023194A0193116C41F0805189
:102B40001164126C02F080520192019A144A0293AD
:102B5000116841F48041116012680E9302F48042C2
:102B60000292029A0222089201201022CDE90B0261
:102B700008A802F09BF8014608B172B6FEE70F23E1
:102B8000CDE90330CDE90500079003A802F068FA0B
:102B900008B172B6FEE715B05DF804FB00380240DC
:102BA0000070004080B596B00024A14D01F026F8D9
:102BB000FFF7B4FF142200210DA807F03FF802949C
:102BC0002B6B9C4843F010032B632B6B03F010031B
:102BD0000293029B03942B6B43F002032B632B6B3A
:102BE00003F002030393039B04942B6B43F008034D
:102BF0002B632B6B03F008030493049B05942B6B4E
:102C000043F004032B632B6B03F004030593059B34
:102C100006942B6B43F001032B632B6B03F0010332
:102C2000069322464FF48071069B01F045FB8248D3
:102C300022464FF4004101F03FFB22467F484FF40B
:102C4000F04101F039FB01264FF4807379480DA95A
:102C5000CDE90D36CDE90F4401F054FA4FF40043AD
:102C600075480DA9CDE90D36CDE90F4401F04AFABA
:102C70004FF4F04371480DA9CDE90D36CDE90F446D
:102C800001F040FA4FF404136A480D960DA9CDE9FE
:102C90000E3401F037FA22460521062001F000F833
:102CA000062001F02FF801942B6B43F400132B63E3
:102CB0002B6B634D03F400132246052101930C2076
:102CC000019B00F0EDFF0C2001F01CF822460521CD
:102CD0000E2000F0E5FF0E2001F014F8594BAC6017
:102CE0004FF6FF772846CDE90D44C5E90034EF6083
:102CF000AC6102F07BFC08B172B6FEE7CDE90D00D5
:102D00000DA9284603F010F8054608B172B6FEE793
:102D10000146102209A806F091FF4B4C10222946CB
:102D20000DA8CDE9075506F089FFDFF828C1A56198
:102D30000F232046C4E900C3C4E90257C4E904557F
:102D400002F054FC08B172B6FEE74FF4805709A9AF
:102D50002046099702F08BFE08B172B6FEE72046C6
:102D600002F09CFC08B172B6FEE7CDE9070007A9A6
:102D7000204602F0D9FF08B172B6FEE7CDE90F0098
:102D80000A23204604220DA9CDE90D3602F0D0FD1C
:102D9000044608B172B6FEE70146102209A806F003
:102DA0004DFF1C2221460DA8284DCDE9074406F011
:102DB00045FF274BAC60C5E90034284641F61F4368
:102DC000C5E90334AC6102F011FC08B172B6FEE74C
:102DD00009A92846099702F04AFE08B172B6FEE733
:102DE000284602F02FFC08B172B6FEE70023174810
:102DF00007A9CDE9073302F097FF08B172B6FEE7E5
:102E00004FF06008CDE90D800227119008220F488D
:102E10000F970DA902F0F8FC08B172B6FEE70B4857
:102E20000C220DA902F0F0FC0546A8B172B6FEE72F
:102E3000003802400010024000040240000C024032
:102E40008806002000100040D00600204006002028
:102E500000080040000401408148824C00F00CFD55
:102E60001022294609A806F0E9FE1C2229460DA8D1
:102E700006F0E4FE7C4BA560C4E90035204641F62F
:102E80001F43C4E90335A56102F0B0FB08B172B677
:102E9000FEE74FF4805609A92046099602F0E7FDA7
:102EA00008B172B6FEE7204602F0CCFB024608B13C
:102EB00072B6FEE7CDE90D8011900DA920460F975F
:102EC00002F0A2FC08B172B6FEE704220DA920466A
:102ED00002F09AFC054608B172B6FEE7204600F003
:102EE000CBFC1022294609A806F0A8FE5F4C604FD3
:102EF0001C2229460DA806F0A1FE4FF43473C4E944
:102F0000007320464FF4FA63C4E90335A560A56158
:102F100002F06CFB08B172B6FEE709A920460996DB
:102F200002F0A5FD08B172B6FEE7504802F08AFB38
:102F3000024608B172B6FEE76023CDE90D300F906E
:102F400011900DA9494802F05FFC044608B172B621
:102F5000FEE74648474D00F08FFC4748474B046268
:102F6000C0E900534FF48043C0E90244C0E904348F
:102F7000C0E9064401F08EFB08B172B6FEE7404B93
:102F8000404918614FF4E132C3E900120C22C3E951
:102F90000200C3E90520D861184602F0C7FF0446C5
:102FA00008B172B6FEE7384D014620220EA806F0A1
:102FB00045FE01264FF080434FF6FF774FF00308A0
:102FC0000DA92846CDE90944C5E90034C5E90374D3
:102FD000AC60AC61CDF834800F96139602F08AFB9A
:102FE00008B172B6FEE7CDE9090009A9284602F04A
:102FF0009BFE044608B172B6FEE7244D014620222E
:103000000EA806F01BFE224B2C610DA92846CDE927
:103010000944C5E90034C5E90247AC61CDF8348004
:103020000F96139602F066FB08B172B6FEE7CDE983
:10303000090009A9284602F077FE044608B172B6D5
:10304000FEE7FEF791FA03F0D1FA124A1248214640
:1030500003F0F8FA114B186003F0DAFAFEE700BF4C
:1030600040060020180700200040014068050020AD
:10307000001800400058004014050020A086010000
:103080006007002000480040B0050020F80500203F
:1030900000040040D4BC0008112B0008500400209C
:1030A000704772B6FEE70000012970B50A46044673
:1030B00018BF00221448144E4FF4006101F0FCF8D0
:1030C000082500224FF48041304601F0F5F8230630
:1030D0004CBF012200224FF40051304601F0ECF8C1
:1030E000013D01224FF48041304601F0E5F86400D3
:1030F00015F0FF05E4B2E4D1BDE8704002480122BA
:103100004FF4006101F0D8B8000C024070B50F4ECA
:10311000B02400212046FFF7C7FF00210846FFF733
:10312000C3FF00211020FFF7BFFF002516F8350070
:1031300001210135FFF7B8FF802DF7D10134E4B24A
:10314000B82C06F10106E4D170BD00BF0C080020C8
:103150000023084810B41C460022C11801F8324070
:103160000132802AFAD10133082BF5D15DF8044BE6
:10317000FFF7CCBF0C08002008B500218D20FFF719
:1031800093FF00211420FFF78FFFBDE808400021C6
:10319000AF20FFF789BF0000030610B512D43F2906
:1031A00010D801F00703C3F1070301249C40C908AC
:1031B000064BC1F10701C9B203EBC000435C12B179
:1031C0002343435410BD23EA0403FAE70C0800200C
:1031D0002DE9F74F1F46203A1E4B9DF830B0D2B272
:1031E00003EB021301931C4B02EB420203EB82033D
:1031F0008146884600930C460026B74202D103B0B0
:10320000BDE8F08F0C2F0CBF009B019B9D5D04F16E
:1032100008035FFA83FA2B0658BFBBFA8BF22146EC
:1032200004F101044CBF5A4652094846E4B2FFF784
:10323000B3FFA4EB08026D00BA42EDB207D109F169
:1032400001005FFA80F9C24601365446D5E7A2452F
:10325000E1D1F9E76CC10008F8BC0008F7B50446F5
:103260000D46561E012716F8013F0BB903B0F0BDFD
:103270007A2C82BF1035EDB200243A2D03D9FFF726
:1032800067FF00252C460097204632780C232946FC
:103290000834FFF79DFFE4B2E5E72DE9F0419046E1
:1032A0009DF8182007460C461E460546454503D99D
:1032B000B4420CD9BDE8F08128462146FFF76CFFE7
:1032C000284631460135FFF767FFEDB2EEE72146AC
:1032D0003846FFF761FF214640460134FFF75CFFA7
:1032E000E4B2E5E72DE9F04117469DF818200546C0
:1032F0000C461E468046B8450AD9A046B04514D9AA
:1033000001340135E4B2EDB2B4421BD3BDE8F08123
:1033100040462146FFF740FF4046314608F101088C
:10332000FFF73AFF5FFA88F8E5E741462846FFF7DE
:1033300033FF4146384608F10108FFF72DFF5FFAD9
:1033400088F8DBE7A846B84502D30134E4B2DBE7EE
:103350004046214608F10108FFF71EFF5FFA88F892
:10336000F1E770B506460C468D18AC4200DB70BD27
:103370000122214630461444FFF70EFFE4B2F4E781
:1033800010B501F077FC414B414C1A6F22F001025D
:103390001A671A6F22F004021A6701F079FC002202
:1033A0004FF48051204600F087FF642000F052FC6B
:1033B000012220464FF4805100F07EFF0021AE2014
:1033C000FFF772FE0021D520FFF76EFE002150208E
:1033D000FFF76AFE0021A820FFF766FE00213F20CC
:1033E000FFF762FE0021D320FFF75EFE00210846B2
:1033F000FFF75AFE00214020FFF756FE00218D20E6
:10340000FFF752FE00211420FFF74EFE002120207E
:10341000FFF74AFE00210220FFF746FE0021A1200F
:10342000FFF742FE0021C020FFF73EFE0021DA2018
:10343000FFF73AFE00211220FFF736FE002181201F
:10344000FFF732FE0021EF20FFF72EFE0021D920EA
:10345000FFF72AFE0021F120FFF726FE0021DB20E6
:10346000FFF722FE00213020FFF71EFE0021A420DE
:10347000FFF71AFE0021A620FFF716FE0021AF205D
:10348000FFF712FEBDE81040FFF762BE00380240B1
:10349000000C0240B0B1AAB10170136843605368D8
:1034A00083609368C360002380ED040AC0ED050AC1
:1034B0008363436303630362C3628362436243645F
:1034C0000364C36370470000002800F0878090ED1C
:1034D000107A90ED0F6AC0ED060A037880ED117A3C
:1034E00070EEC00A80ED106A80ED070AC0ED0F0A89
:1034F000002B3ED190ED027AD0ED0A6AD0ED017A30
:10350000436B8363E0EE876A036B436360EEA77AE5
:1035100090ED037AC0ED097A70EEC60AC0ED0A6A32
:10352000C0ED0C0A60EE870A90ED057AC0ED0B0A3B
:10353000F4EEC76AF1EE10FA02DD80ED0A7A06E0D9
:10354000B1EE477AF4EEC76AF1EE10FAF5D490EDD9
:103550000A7A77EE877A77EEA07A90ED047AC0ED5A
:10356000087AF4EEC77AF1EE10FA2DDD80ED087AD4
:1035700031E0012BD0ED085A2DD170EEC67AD0ED96
:10358000016A436B836367EEA67AD0ED026A036B30
:10359000C0ED097AB0EE005A60EEA66AE6EE450A82
:1035A000436390ED036AC0ED0A6A37EE207A77EE46
:1035B000A67A80ED0C7A27EE067A77EE877A80ED90
:1035C0000B7A77EEA57AC8E7B1EE477AF4EEC77AC0
:1035D000F1EE10FACAD490ED080A70479FED010A87
:1035E000704700BF0000000082B00E4B0022009226
:1035F000596C41F480415964596C01F48041009147
:1036000000990192196C41F0805119641B6C03F010
:1036100080530193019B0F216FF0010002B000F075
:103620003FBB00BF0038024030B5044689B01422C9
:10363000002103A806F002FB2268144B9A4222D113
:10364000134C144800250195236B43F002032363B8
:10365000236B03F002030193019B4FF4406212239A
:10366000CDE9032303210423CDE9061303A900F0C8
:1036700049FD0295236C43F480032364236C03F417
:1036800080030293029B09B030BD00BF0058004088
:10369000003802400004024070B514228AB004468B
:1036A00000210DEB020006F0C9FA2368B3F1804F48
:1036B00037D103F50E33002400941A6C284842F0E9
:1036C00001021A641A6C02F001020092009A01943D
:1036D0001A6B42F001021A631A6B02F001020192A6
:1036E000019A02941A6B42F002021A631B6B03F0F8
:1036F00002030293029B02264FF40043012505A911
:10370000CDE90536099500F0FDFC0823CDE9053625
:10371000CDE907440995134805A900F0F3FC0AB068
:1037200070BD114A9342FAD1104B002103911A6CDB
:1037300042F002021A641A6C02F002020392039A27
:1037400004911A6B42F002021A631B6B03F002032E
:103750000493049B30220223CDE905230993DAE781
:103760000000024000040240000400400038024013
:1037700010B504468CB01422002107A806F05EFAAA
:103780002368364A93420DD100230193344B1A6CBF
:1037900042F004021A641B6C03F004030193019BC2
:1037A0000CB010BD2F4A93420CD1002302932C4B36
:1037B0001A6C42F010021A641B6C03F0100302939F
:1037C000029BEDE7284A934228D1254B2748002445
:1037D00003945A6C42F002025A645A6C02F00202DC
:1037E0000392039A04941A6B42F004021A631B6B4F
:1037F00003F004030493049B80220223CDE90723F2
:1038000007A903230B9300F07DFC224605212E20FF
:1038100000F046FA2E2000F075FAC1E7144A9342F0
:103820000CD1002305930E4B5A6C42F480325A643B
:103830005B6C03F480330593059BB1E70D4A93421B
:10384000AED100230693064B1A6C42F040021A6474
:103850001B6C03F040030693069BA1E700080040A1
:1038600000380240001000400004014000080240FF
:10387000004001400018004010B5044688B01422F2
:10388000002103A806F0DAF92368244A934214D1F0
:1038900000230093224B1A6B42F002021A631B6B47
:1038A00003F002030093009B4FF440700223CDE924
:1038B00003031C48079303A916E01B4A934217D140
:1038C00000230193164B19481A6B42F010021A6339
:1038D0001B6B03F0100301936021019B0223CDE9D0
:1038E00003130323079303A900F00CFC08B010BDD9
:1038F0000F4A9342FAD100230293094B1A6B42F00C
:1039000002021A631B6B03F002030293029B4FF443
:1039100080420223CDE903230923CAE700080040BF
:103920000038024000040240004001400010024004
:10393000001800402DE9F041064688B0142200210D
:1039400003A806F07BF93268374B9A4269D100250B
:1039500003F5F83301951A6C344842F480221A6456
:103960001A6C02F480220192019A02951A6B42F0BD
:1039700008021A631B6B03F0080302930224029BE4
:103980004FF003084FF48073072703A9CDE90334F0
:10399000CDE9068700F0B6FB4FF400732348079784
:1039A00003A9CDE90334CDE9054800F0ABFB204C79
:1039B00020484FF00063C4E900034FF480632046C1
:1039C000C4E90255C4E90435C4E90655C4E90855FB
:1039D00000F0D0F908B1FFF764FB174AB463A6639F
:1039E000164C4FF00063C4E90023402100234FF43C
:1039F00080622046C4E90213C4E90423C4E9063303
:103A0000C4E9083300F0B6F908B1FFF74AFB746364
:103A1000272000220521A66300F042F9272000F0AC
:103A200071F908B0BDE8F08100480040000C024088
:103A3000540400202860024058600240B404002072
:103A4000FEE7FEE7FEE7FEE7FEE7704708B500F099
:103A5000EFF803F055FF012803D0BDE8084004F05B
:103A600061BA08BD012000F02DBC0000014800F043
:103A70008BBA00BF54040020014800F085BA00BF93
:103A8000B4040020014802F005BC00BF600700201C
:103A9000014801F0A2BC00BFD00600200120704701
:103AA00008B506F071F9162303604FF0FF3008BD2A
:103AB00008B506F069F916230360FEE770B50D46F8
:103AC00014460E46731B9C4201DC204670BDAFF3CA
:103AD000008006F8010BF5E770B50D4614460E465A
:103AE000731B9C4201DC204670BD16F8010BAFF33E
:103AF0000080F5E74FF0FF3070474FF400534B6004
:103B00000020704701207047002070470B4A116861
:103B100010B5034609B90A491160106809490A4CF1
:103B20000344091B8B4206D906F02EF90C230360CF
:103B30004FF0FF3010BD1360FCE700BF0C0C0020FD
:103B4000B05600200000022000040000034AD2F812
:103B5000883043F47003C2F88830704700ED00E00D
:103B6000DFF834D00D480E490E4A002302E0D45845
:103B7000C4500433C4188C42F9D30B4A0B4C0023B5
:103B800001E013600432A242FBD3FFF7DFFF06F02F
:103B900001F9FFF707F8704700000220000000203D
:103BA000480200209CCB000848020020B0560020AC
:103BB000FEE7000038B50E4B1A784FF47A73B3FB6A
:103BC000F2F30C4A05461068B0FBF3F000F0A8F8D9
:103BD000044658B90F2D09D8024629464FF0FF3048
:103BE00000F05EF8044B20461D6038BD0120FCE764
:103BF000600000205C0000206400002008B50B4B32
:103C00001A6842F400721A601A6842F480621A60FC
:103C10001A6842F480721A60032000F02FF80F2017
:103C2000FFF7C8FFFFF7E0FC002008BD003C0240A2
:103C3000034A044B11681B780B441360704700BFA4
:103C4000100C002060000020014B1868704700BF76
:103C5000100C002038B50446FFF7F6FF631C1CBFAC
:103C6000054B1B78054618BFE418FFF7EDFF431B13
:103C7000A342FAD338BD00BF600000200749CA68DC
:103C800022F4E0620302120403F4E063120C134313
:103C900043F0BF6343F40033CB60704700ED00E0B6
:103CA000164B30B5DC68C4F30224C4F10703251DAC
:103CB000042B28BF0423062D4FF0FF358CBF033C97
:103CC000002405FA03F321EA0303A54022EA0502D2
:103CD000A340002843EA0203ACBF00F16040084A59
:103CE0004FEA0313B8BF00F00F00DBB2AABF00F524
:103CF0006140135480F8003330BD00BF00ED00E098
:103D000014ED00E0002807DB4109044A00F01F0021
:103D10000123834042F82130704700BF00E100E0FA
:103D20000138B0F1807F0BD24FF0E023054A586193
:103D3000F02182F823100020072298611A61704751
:103D40000120704700ED00E0036810B5DAB2103AC8
:103D5000074C23F47F7323F003035F2A88BF0433E7
:103D60001821B2FBF1F1615CC1658365184610BD95
:103D700074C7000870B50446FFF766FF0546002CBF
:103D800071D0022384F835302268002384F834305F
:103D9000136823F00103136022681368D8072ED438
:103DA00013683248A1691840D4E901352B43E5680E
:103DB0002B4325692B4365692B43E5690B432B4353
:103DC000256A2B430343606A042802BFD4E90B56DB
:103DD00035432B4313605369042823F0070343EA58
:103DE000000332D1A06AE56A034375B391B9012893
:103DF00020D030F0020128D1E90126D51DE0FFF7DF
:103E000023FF401B0528C7D920236365032084F8BE
:103E1000350070BDB1F5005F13D1032815D801A19D
:103E200051F820F03B3E0008F93D00083B3E0008F9
:103E3000353E0008B5F1C07F07D1402363650120FE
:103E4000E5E70228F9D90328D6D053612046FFF7C9
:103E50007BFFE26D3F239340836000200123606578
:103E600084F83530D5E70120D3E700BF3F8010F05C
:103E700070B590F83440866D012C31D0012480F863
:103E8000344090F83540012C4FF000054FF002040B
:103E900024D180F8354004684565256825F48025DF
:103EA000256063608368402B0EBFA260A160E26062
:103EB000C26D08BFE1603F239340B360236843F0C5
:103EC00016032360036C1BB1236843F008032360CF
:103ED000236843F001032360002070BD80F8345054
:103EE0000220FAE770B50446866DFFF7ADFE94F840
:103EF0003530022B054606D0802363650120002360
:103F000084F8343070BD23681A6822F016021A60F3
:103F10005A6922F080025A61226C0AB9A26C1AB165
:103F20001A6822F008021A601A6822F001021A6068
:103F300023681B6813F0010308D1E16D3F228A401A
:103F4000B260012284F835201846D8E7FFF77CFEDE
:103F5000401B0528ECD920230320636584F8350035
:103F6000CDE790F83530022B03D080234365012044
:103F700070470268052380F83530136823F0010389
:103F80001360002070470000F7B5002301935C4BDD
:103F9000856D1F68C36D2E6808229A403242044620
:103FA0000CD001680868400708D5086820F00400B4
:103FB0000860AA60626D42F00102626501229A40C7
:103FC000324208D021684969090641BFAA60626D82
:103FD00042F00202626504229A40324208D021680F
:103FE0000968880741BFAA60626D42F004026265F9
:103FF00010229A40324210D02368196809070CD564
:10400000AA601A68500337D51B68190301D4236CC2
:1040100000E0A36C0BB120469847E16D20228A4056
:1040200032423AD023681868C60636D5AA6094F89A
:104030003520052A1A6827D122F016021A605A691B
:1040400022F080025A61226C0AB9A26C1AB11A6875
:1040500022F008021A603F238B40AB60012384F8F2
:104060003530002384F83430236D002B45D02046B2
:1040700003B0BDE8F04018471A68D2055EBF1A6861
:1040800022F008021A60C2E7500327D51B68190303
:1040900031D4636C0BB120469847636D6BB3636D8D
:1040A000DA0719D522684FF41653B7FBF3F7052347
:1040B00084F83530136823F001031360019B01334A
:1040C000BB42019302D81368DB07F7D4012384F8BD
:1040D0003530002384F83430E36CC6E71A6812F4F4
:1040E000807208D1196821F010011960012384F849
:1040F000353084F83420E36BCCE703B0F0BD00BF6B
:104100005C0000202DE9F74FDFF8A891674A0023F3
:104110000D6801249C4004EA050CAC4340F0B180DA
:104120004D6805F003044FEA43080326671E06FAAC
:1041300008F6012F6FEA060634D8876807EA060EEC
:10414000CF6807FA08F747EA0E078760476827EA4B
:104150000C0EC5F300179F4047EA0E074760C7687B
:1041600007EA060E8F6807FA08F747EA0E07022CDF
:10417000C76019D14FEAD30A00EB8A0A03F0070B94
:10418000DAF820704FEA8B0B4FF00F0E0EFA0BFE91
:1041900027EA0E0E0F6907FA0BF747EA0E07CAF86F
:1041A000207001E0032CDAD1076804FA08F43740E4
:1041B0003C4315F4403F046063D04FF0000ACDF853
:1041C00004A0D9F844603A4C46F48046C9F84460EB
:1041D000D9F8446006F480460196019E23F0030658
:1041E00006F1804606F59C3603F0030ED6F80880EB
:1041F0004FEA8E0E0F2707FA0EF7A04228EA0707AC
:1042000046D004F58064A04244D004F58064A04206
:1042100042D004F58064A04240D004F58064A042FE
:104220003ED004F58064A0423CD004F58064A042F6
:104230003AD004F58064A0420CBF0724082404FA95
:104240000EF43C43B46094686FEA0C06EF0254BF6E
:1042500034404CEA04049460D468AF0254BF344044
:104260004CEA0404D4605468AF0354BF34404CEAB1
:10427000040454601468ED0354BF34404CEA040451
:1042800014600133102B7FF443AF03B0BDE8F08F0F
:104290005446D4E70124D2E70224D0E70324CEE732
:1042A0000424CCE70524CAE70624C8E7003C014003
:1042B00000000240003802400AB1816170470904E1
:1042C000FBE70000044A5169014208B502D0506181
:1042D000FEF7E6FE08BD00BF003C014001684B69E7
:1042E00013F480634FF0000210D06FF480634B61D1
:1042F0002023026380F83D3080F83E20036C80F874
:104300003C2043F0040303640120704718467047C3
:104310002DE9F84606460F4691461D464FEA114ADA
:104320003368BAF1010F0CBF5C699C6927EA040489
:10433000A4B2B4FA84F46409A14501D0002017E0C6
:104340006A1CEED0FFF780FC089BC01AA84201D877
:10435000002DE5D100232022336386F83D2086F826
:104360003E30326C86F83C3042F02002326401204C
:10437000BDE8F8862DE9F04104460F4616469846FA
:104380002568686927EA000080B2B8B16B695A05F0
:1043900016D52B6843F400732B606FF480636B6158
:1043A00020220023236384F83D2084F83E30226CD1
:1043B00042F00402226484F83C300120BDE8F08120
:1043C000731CDED0FFF740FCA0EB0800B04201D820
:1043D000002ED5D100232022236384F83D2084F8C9
:1043E0003E30226C42F02002E4E770B504460D46F0
:1043F000164621684B6913F0400301D0002010E0FD
:104400004A69D2060ED56FF010024A61202223635A
:1044100084F83D2084F83E30226C226484F83C30DD
:10442000012070BDFFF710FC801BA84201D8002DB1
:10443000DFD100232022236384F83D2084F83E301E
:10444000226C42F02002E8E770B504460D4616469D
:1044500023685B691B0601D5002070BD2046FFF76D
:104460003DFFA8B96A1CF3D0FFF7EEFB801BA84202
:1044700001D8002DECD100232022236384F83D20B5
:1044800084F83E30226C84F83C3042F020022264F2
:104490000120E2E72DE9F0431546026885B0DDE929
:1044A0000C789946136843F4807313600E463B46BC
:1044B000CDF8008000224FF001110446FFF728FFDD
:1044C000236838B11B68DB0502D54FF40073236401
:1044D00003200AE006F0FE061E61194943463A46EB
:1044E0002046FFF747FF18B1012005B0BDE8F08373
:1044F000236803905A6903929B69039342463946A5
:104500002046039BFFF7A0FF40B1236C042B01BFA3
:104510002268136843F400731360E5E7B9F1010FF3
:10452000236802D1EDB21D61DFE72A0A1A6139461C
:1045300042462046FFF788FF0028E6D12368F1E7CE
:10454000020001002DE9FF479A46036815461A68E4
:1045500042F480621A601A68DDE90C7842F48072D5
:104560001A600E463B46CDF8008000224FF0011144
:104570000446FFF7CDFE236848B11B68DB0502D572
:104580004FF400732364032004B0BDE8F0875FFAA2
:1045900086F906F0FE061E612A4943463A46204641
:1045A000FFF7E8FE08B10120EEE7236803905A699F
:1045B00003929B690393424639462046039BFFF7CB
:1045C00043FF40B1236C042B01BF2268136843F4FE
:1045D00000731360E7E7BAF1010F23681AD1EDB257
:1045E00042461D6139462046FFF72EFF024600284D
:1045F000E8D121680B6843F480730B602046CDF846
:1046000000803B464FF00111FFF782FE226860B147
:104610001368B3E72A0A1A61394642462046FFF773
:1046200013FF0028CED12368D9E749F001031361B5
:10463000044943463A462046FFF79CFE003818BF1F
:104640000120A1E70200010070B504460D461646A0
:1046500023685B695B0701D5002070BD2046FFF72A
:104660003DFEA8B96A1CF3D0FFF7EEFA801BA84202
:1046700001D8002DECD100232022236384F83D20B3
:1046800084F83E30226C84F83C3042F020022264F0
:104690000120E2E770B5044608B9012070BD90F82A
:1046A0003D3003F0FF021BB980F83C20FEF7BCFF51
:1046B000242384F83D3023681A6822F001021A602E
:1046C0001A6842F400421A601A6822F400421A6022
:1046D00000F060FD3F4B65689D4294BF3E4B3F4BF1
:1046E00098428CBF00230123002BD6D12268394E7B
:1046F00051683B4BB0FBF3F321F03F011943B54246
:10470000516088BF4FF49676116A88BF734321F0D9
:104710003F0184BF4FF47A76B3FBF6F301330B43CA
:104720001362D169431E2B4821F44F41854221F089
:10473000FF0132D86D0040F6FC70B3FBF5F3013396
:10474000034242D0C3F30B031943D161D4E90730CC
:104750001168034321F0C0010B4313609168D4E951
:10476000030321F40341034321F0FF010B43936052
:10477000D4E90530D168034321F0FF010B43D36036
:10478000136843F00103136000202023206484F8A1
:104790003D30206384F83E0080E7A06850B905EB07
:1047A0004505B3FBF5F30133C3F30B037BB143F4CE
:1047B0000043C9E719206843B3FBF0F30133C3F3A7
:1047C0000B0323B143F44043BEE70423BCE70123BA
:1047D000BAE700BFA08601007F841E00FF083D00ED
:1047E00040420F002DE9F743044699460C9E0F46C0
:1047F0009046FFF729FA94F83D30202B054603D068
:10480000022003B0BDE8F08300903C491923012247
:104810002046FFF77DFD0028F2D194F83C30012BB3
:10482000EED02068012384F83C300368D9075EBFCE
:10483000036843F001030360036823F4006303602B
:10484000212384F83D30402384F83E300023236444
:104850000A9B6362BDF82C306385638D2385284BEA
:10486000E362CDE900654B46424639462046FFF7F4
:1048700011FE00282AD00120C3E7FFF7E5FD40B173
:10488000236C042B01BF2268136843F40073136088
:10489000F1E7636A27681A4612F8011B3961626200
:1048A000628D218D013A92B262857A69481E80B28A
:1048B000520720850AD548B15A783A6102336362BB
:1048C000638D013B02399BB221856385238D2A4686
:1048D00031462046002BD0D1FFF7B6FE0028CFD1BD
:1048E0002268136843F400731360202384F83D307A
:1048F00084F83C0084F83E0083E700BF020010000B
:104900000000FFFF2DE9F043044687B09946109F51
:104910000D469046FFF798F994F83D30202B064657
:1049200004D00225284607B0BDE8F0830090764900
:10493000192301222046FFF7EBFC0028F1D194F85F
:104940003C30012BEDD02068012384F83C30036813
:10495000DB075EBF036843F001030360036823F4D1
:1049600000630360222384F83D30402384F83E3006
:10497000002323640E9B6362BDF83C306385638D26
:104980002385624BE3622946CDE900764B464246D9
:104990002046FFF7D7FD054608B10125C2E7228D65
:1049A0002368B2B902905A6902929A690292029AF5
:1049B0001A6842F400721A60DFF85481238D002BCC
:1049C0002CD1202284F83D2084F83C3084F83E30FD
:1049D000A8E7012A0AD11A6822F480621A600390BB
:1049E0005A6903929A690392039AE1E7022A0ED167
:1049F0001A6822F480621A601A6842F400621A602F
:104A000004905A6904929B690493049BD4E705902F
:104A10005A6905929B690593059BCDE7032B56D8F0
:104A2000012B15D1324639462046FFF7DEFC00281F
:104A3000B3D123681A69636A1A70636A01336362C7
:104A4000238D013B2385638D013B9BB26385B5E7D5
:104A5000022B00963B464FF000024146204619D1FA
:104A6000FFF756FC002898D123681A6842F40072B8
:104A70001A601A69636A1A70626A531C6362238D32
:104A8000013B2385638D013B9BB2638523681B69D2
:104A90005370D2E7FFF73CFC024600287FF47DAF5D
:104AA0002368196821F4806119601969636A1970B3
:104AB000636A009601336362238D013B2385638D16
:104AC000013B9BB2638541463B462046C8E73246E0
:104AD00039462046FFF789FC00287FF45EAF236843
:104AE0001A69636A1A70626A531C6362238D013B00
:104AF0002385638D013B9BB2638523685969490710
:104B00007FF55CAFC3E700BF020010000000FFFFAD
:104B1000040001002DE9F04F044685B01F46884689
:104B20009246FFF791F894F83D30202B054603D0CC
:104B3000022005B0BDE8F08F00904C4919230122F6
:104B40002046FFF7E5FB0028F2D194F83C30012B1A
:104B5000EED0012384F83C302368DFF810B11A68E6
:104B6000D2075EBF1A6842F001021A601A6822F486
:104B700000621A60242384F83D3000263C4B2664F2
:104B800008F0FE08E3622268136843F48073136040
:104B90004FF001113B46009500222046FFF7B8FB7D
:104BA000236838B11B68DB0502D54FF4007323641A
:104BB0000320BEE7C3F81080FFF746F823685A6960
:104BC0005B690546C2F34002C3F380234FF0A0099E
:104BD00094F83D10A02901D013431DD023684FF055
:104BE000200984F83D905A6912F0020F1A6842F4C5
:104BF00000721A6025D0002203925A6903929B69C1
:104C00000393039B19490095192301222046FFF7BE
:104C10007FFB88B101208CE7FFF716F8401BB842F4
:104C200000D80FB984F83D9023685A695B69C2F3D4
:104C30004002C3F38023CBE784F83D9084F83C0026
:104C400077E76FF480625A61594600951923012273
:104C50002046FFF75DFB0028DCD10136564592D394
:104C600084F83D9084F83C00D4E700BF02001000B7
:104C70000000FFFF044B01221A62044B82B01B6844
:104C80000193019B02B0704700000E42007000408B
:104C9000044B00221A62044B82B01B680193019BF3
:104CA00002B0704700000E42007000402DE9F34151
:104CB000044640B30368DD0710D4236898075BD42B
:104CC00023681A0700F19D8023685B0700F1BD800F
:104CD000A069002840F0248100202CE08D4B9A68C8
:104CE00002F00C02042A07D09A6802F00C02082A8B
:104CF0000BD15B68590208D5864B1B689A03DCD53B
:104D00006368002BD9D1012015E06368814DB3F5AC
:104D1000803F13D12B6843F480332B60FEF794FF60
:104D20007C4E054633689B03C7D4FEF78DFF401BBE
:104D30006428F7D9032002B0BDE8F081B3F5A02FB5
:104D400004D12B6843F480232B60E3E72A6822F424
:104D500080322A602A6822F480222A60002BDDD16A
:104D6000FEF772FF06462B689F03A6D5FEF76CFF81
:104D7000801B6428F7D9DDE7664B9A6812F00C0FA8
:104D800007D09A6802F00C02082A11D15B685E0213
:104D90000ED4604A13689D0702D5E368012BB2D197
:104DA0001368216923F0F80343EAC103136087E71E
:104DB000E268594BB2B101221A60FEF745FF554D2A
:104DC00006462B68980707D52B68226923F0F8035D
:104DD00043EAC2032B6073E7FEF736FF801B02280D
:104DE000EFD9A7E71A60FEF72FFF4A4E0546336852
:104DF00099077FF565AFFEF727FF401B0228F6D91C
:104E000098E76269444B82B10122C3F8802EFEF715
:104E10001BFF404E0546736F9F073FF555AFFEF7EA
:104E200013FF401B0228F6D984E7C3F8802EFEF753
:104E30000BFF384E0546736F98077FF545AFFEF7B9
:104E400003FF401B0228F6D974E7324B1A6C12F0AC
:104E5000805228D101921A6C42F080521A641B6C65
:104E600003F080530193019B01272C4D2B68D9053A
:104E70001BD5A368274D012B27D12B6F43F00103CE
:104E80002B67FEF7E1FE234E054641F28838336F6B
:104E90009B0739D5002F3FF41BAF1E4A136C23F03C
:104EA0008053136414E70027DFE72B6843F4807313
:104EB0002B60FEF7C9FE06462B68DA05D9D4FEF74B
:104EC000C3FE801B0228F7D934E7052B04D12B6FD2
:104ED00043F004032B67D0E72A6F22F001022A6710
:104EE0002A6F22F004022A67002BCAD1FEF7ACFE1B
:104EF00041F2883806462B6F9807CBD5FEF7A4FE03
:104F0000801B4045F7D915E7FEF79EFE401B404544
:104F1000BDD90FE700380240000047420070004052
:104F2000364DAB6803F00C03082B3DD0344B002208
:104F300002281A662BD1FEF787FE06462B689901D8
:104F40001FD4D4E907321343626A43EA8213E26A48
:104F500043EA0263A26A5208013A43EA02436B60E1
:104F6000274B264D01221A66FEF76EFE04462B687B
:104F70009A013FF5B1AEFEF767FE001B0228F6D995
:104F8000D8E6FEF761FE801B0228D7D9D2E6FEF7ED
:104F90005BFE04462B689B017FF59EAEFEF754FE38
:104FA000001B0228F6D9C5E601283FF4C4AE6B68A1
:104FB000E26903F4800191427FF4A5AE216A03F017
:104FC0003F028A427FF49FAE616A47F6C0721A4080
:104FD000B2EB811F7FF497AEA26A520803F440310E
:104FE000013AB1EB024F7FF48EAEE26A03F07063D8
:104FF000B3EB026F3FF470AE85E600BF00380240AD
:1050000000004742134908B58B6803F00C03042BDA
:105010001CD0082B1CD14A684B68496813F48003E4
:1050200014BF0D480D48C1F3881118BF002302F0CA
:105030003F02A1FB0001FBF727FE064B5B68C3F3B1
:10504000014301335B00B0FBF3F008BD0248FCE70D
:105050000248FAE70038024040787D010024F4005D
:105060002DE9F0410D46044610B90120BDE8F0815C
:10507000434B1A6802F007028A4228D321688F073F
:105080002DD4C80740D43E4B1A6802F00702AA424A
:1050900065D8226851076BD4130707D5394A2169AF
:1050A000936823F4604343EAC1039360FFF7AAFFC8
:1050B000344B354A9B68C3F30313D35CD840334B5E
:1050C0001860334B1868FEF775FD0020CEE7CAB2B2
:1050D0001A701B6803F007038B42C6D1CEE7294B39
:1050E00011F0040F1EBF9A6842F4E0529A600E0756
:1050F00042BF9A6842F460429A609A68A06822F0BF
:10510000F00202439A60BCE762681E4B012A1CD180
:105110001B6813F4003FA8D01A4EB36823F00303B2
:105120001343B360FEF790FD41F288380746B36839
:10513000626803F00C03B3EB820FA4D0FEF784FD8A
:10514000C01B4045F3D9032090E7911E01291B683D
:1051500002D813F0007FDEE713F0020FDBE7EAB2BC
:105160001A701B6803F00703AB427FF47EAF90E731
:105170000449E0688B6823F4E05303438B608BE7BA
:10518000003C0240003802405CC700085C00002080
:1051900064000020044B054A9B68C3F38223D35C60
:1051A000034A1068D8407047003802406CC70008B6
:1051B0005C000020044B054A9B68C3F34233D35C78
:1051C000034A1068D8407047003802406CC7000896
:1051D0005C000020036A23F001030362036A70B5D8
:1051E000446882690D6822F073022A438D6823F0B7
:1051F00002032B430E4DA84202D00E4EB04210D1F6
:10520000CE6823F008033343A84223F0040302D0FE
:10521000084DA84205D1D1E9055624F44074354320
:105220002C43446082614A684263036270BD00BFE0
:105230000000014000040140036A23F4807303620C
:10524000036A70B54468C2690D6822F073022A438C
:105250008D6823F4007343EA0523114DA84203D05F
:1052600005F58065A84214D1CD6823F4006343EAB4
:1052700005230B4DA84223F4806303D005F5806518
:10528000A84206D1D1E9055624F44054354344EAF6
:1052900005144460C2614A68C263036270BD00BF06
:1052A00000000140036A23F480530362036A30B5AF
:1052B0004468C2690D6822F4E64242EA05228D681C
:1052C00023F4005343EA0533084DA84203D005F503
:1052D0008065A84204D14D6924F4804444EA8514D1
:1052E0004460C2614A680264036230BD000001404C
:1052F0007047704730B5034690F83E0093F83F2062
:1053000093F8425093F84340C0B2D2B2EDB2E4B247
:10531000C1B9012845D1012D13D1022283F83E20C5
:1053200083F842201A68116A21F001011162116AA2
:1053300041F0010111621A68136843F00103136020
:10534000002030BD042911D1012A2AD1012C28D1F5
:10535000022283F83F2083F843201A68116A21F063
:1053600010011162116A41F01001E3E7012818D120
:10537000012AE6D1012DE4D1012CE2D1022283F8E9
:105380003E2083F83F2083F8422083F843201A68A8
:10539000116A21F001011162116A41F001011162EB
:1053A000DCE70120CDE7082910D004D841B1042959
:1053B00009D0002070470C29FBD10368186C704796
:1053C0000368586B70470368986B70470368D86B25
:1053D0007047704770477047704703681A699107B4
:1053E00010B504460ED5DA6892070BD56FF00202AD
:1053F0001A61012202779B699B0777D0FCF784FB37
:105400000023237723681A69500710D5DA685107FB
:105410000DD56FF004021A61022222779B6913F402
:10542000407F204668D0FCF76FFB0023237723687A
:105430001A6912070FD5DA6810070CD56FF0080249
:105440001A6104222277DB69990720465AD0FCF7BB
:105450005BFB0023237723681A69D20610D5DA682C
:10546000D0060DD56FF010021A6108222277DB6991
:1054700013F4407F20464BD0FCF746FB00232377F4
:1054800023681A69D10708D5DA68D20705D56FF005
:1054900001021A612046FFF79CFF23681A69100673
:1054A00008D5DA68110605D56FF080021A6120462A
:1054B00000F079FC23681A69520608D5DA685006AC
:1054C00005D56FF040021A612046FFF785FF23687B
:1054D0001A69910622D5DA6892061FD56FF020026C
:1054E00020461A61BDE8104000F05CBCFFF772FF77
:1054F0002046FFF770FF83E7FFF76CFF2046FFF7BA
:105500006AFF92E7FFF766FF2046FFF764FFA0E718
:10551000FFF760FF2046FFF75EFFAFE710BD00001A
:10552000304A0368904212D0B0F1804F0FD0A2F5FC
:105530007C4290420BD002F58062904207D002F587
:105540008062904203D002F57842904219D14A68B5
:1055500023F070031343234A904229D0B0F1804FC7
:1055600026D0A2F57C42904222D002F58062904281
:105570001ED002F5806290421AD002F57842904225
:1055800016D0194A904213D002F5806290420FD093
:1055900002F5806290420BD0A2F59832904207D07B
:1055A00002F58062904203D002F58062904203D1FE
:1055B000CA6823F4407313434A6923F080031343FA
:1055C00003608B68C3620B688362064B984203D00A
:1055D00003F58063984201D10B69036301234361A2
:1055E000704700BF000001400040014010B5044674
:1055F00030B390F83D3003F0FF021BB980F83C2037
:10560000FEF7B6F80223206884F83D30211DFFF72D
:1056100087FF012384F84630002084F83E3084F868
:105620003F3084F8403084F8413084F8423084F8C8
:10563000433084F8443084F8453084F83D3010BD60
:105640000120FCE710B5044630B390F83D3003F07C
:10565000FF021BB980F83C20FFF74AFE02232068B6
:1056600084F83D30211DFFF75BFF012384F84630AD
:10567000002084F83E3084F83F3084F8403084F8CD
:10568000413084F8423084F8433084F8443084F860
:10569000453084F83D3010BD0120FCE710B50446CC
:1056A00030B390F83D3003F0FF021BB980F83C2086
:1056B000FFF71FFE0223206884F83D30211DFFF70D
:1056C0002FFF012384F84630002084F83E3084F810
:1056D0003F3084F8403084F8413084F8423084F818
:1056E000433084F8443084F8453084F83D3010BDB0
:1056F0000120FCE7F8B50D46044600284CD090F890
:105700003D3003F0FF021BB980F83C20FDF7C4FFD9
:105710002146022384F83D3051F8040B836823F4BA
:10572000804323F007038360FFF7FAFE81682A684D
:105730008369AE69076A1143AA6823F4407323F0B2
:10574000030342EA06221A432B69EE691B0143EA6E
:105750000623EE6833432E6A22F47C4222F0FC02D8
:1057600043EA063313436E696A68816027F0AA072B
:1057700042EA0612836117430123076284F8463028
:10578000002084F83E3084F83F3084F8423084F8BA
:10579000433084F83D30F8BD0120FCE7036A23F074
:1057A00010030362036A70B5446882690D6822F4CD
:1057B000E64242EA05228D6823F0200343EA0513FE
:1057C000104DA84203D005F58065A84214D1CD68DC
:1057D00023F0800343EA05130A4DA84223F0400357
:1057E00003D005F58065A84206D1D1E9055624F419
:1057F0004064354344EA8504446082614A688263B8
:10580000036270BD0000014070B590F83C30012B80
:10581000054650D00123082A80F83C303BD007D8F9
:10582000C2B1042A27D01846002385F83C3070BD49
:105830000C2AF8D10068FFF735FDC3690A6943F403
:105840000063C361C36923F48063C361C36943EA2E
:1058500002232EE00068FFF7BDFC83690A6943F06C
:1058600008038361836923F004038361836913431D
:1058700083610020D8E70068FFF790FF83690A6919
:1058800043F400638361836923F4806383618369E4
:1058900043EA0223ECE70068FFF7CEFCC3690A691C
:1058A00043F00803C361C36923F00403C361C36900
:1058B0001343C361DDE70220B9E7000070B5046A55
:1058C0001A4E24F001040462B0428469056A29D0AA
:1058D000B0F1804F26D0A6F57C46B04222D006F526
:1058E0008066B0421ED006F58066B0421AD006F53A
:1058F0007846B04216D006F57056B04212D0A6F5E2
:105900009436B0420ED044F001021B0122F0F002A6
:10591000DBB2134301F00A0125F00A02114383614F
:10592000016270BD24F003042243EEE70000014051
:10593000F8B590F83C30012B05460C4600F08B8002
:10594000012380F83C3092B90068CB68D1E900129D
:10595000FFF7B4FF8369A26823F00C0383618369B6
:10596000134383610020002385F83C30F8BD042AEE
:1059700024D10368186A20F01000D1E90027C96813
:10598000186298691E6A20F4407040EA07200903F3
:1059900020F4704089B21201014302F0A00226F007
:1059A000A000024399611A629A69A16822F44062D8
:1059B0009A619A6942EA01229A61D3E7082A22D1C0
:1059C00003681E6A26F48076D1E90020C9681E6249
:1059D000DF691E6A27F003073843090120F0F00051
:1059E000C9B21202014302F4206226F4206002438D
:1059F000D9611A62DA69A16822F00C02DA61DA6907
:105A00000A43DA61AEE70C2A23D10368186A20F44E
:105A10008050D1E90027C9681862D8691E6A20F44D
:105A2000407040EA0720090320F4704089B2120355
:105A3000014302F4204226F420400243D9611A6255
:105A4000DA69A16822F44062DA61DA6942EA012285
:105A5000D7E7184687E7022088E710B58468114326
:105A600024F47F4441EA03232343836010BD38B507
:105A700090F83C30012B04464FF0020300F08E807A
:105A8000012280F83D3080F83C200068836823F4D0
:105A90007F4323F0770383600B68602B4FD032D8AD
:105AA000402B64D016D8202B0DD00AD833F010012B
:105AB00009D0012384F83D30002384F83C3010469F
:105AC00038BD302BF5D1826822F07002134343F0C9
:105AD000070328E0502BECD14A68CD68016A036ABD
